{"contracts/P2PEscrow.sol":{"P2PEscrow":{"abi":[{"inputs":[{"internalType":"address","name":"_feeCollector","type":"address"},{"internalType":"address","name":"_usdc","type":"address"}],"stateMutability":"nonpayable","type":"constructor"},{"inputs":[{"internalType":"address","name":"owner","type":"address"}],"name":"OwnableInvalidOwner","type":"error"},{"inputs":[{"internalType":"address","name":"account","type":"address"}],"name":"OwnableUnauthorizedAccount","type":"error"},{"inputs":[],"name":"ReentrancyGuardReentrantCall","type":"error"},{"inputs":[{"internalType":"address","name":"token","type":"address"}],"name":"SafeERC20FailedOperation","type":"error"},{"anonymous":false,"inputs":[{"indexed":true,"internalType":"uint256","name":"tradeId","type":"uint256"},{"indexed":true,"internalType":"address","name":"buyer","type":"address"},{"indexed":false,"internalType":"uint256","name":"buyerReceives","type":"uint256"},{"indexed":false,"internalType":"uint256","name":"feeAmount","type":"uint256"}],"name":"AutoReleased","type":"event"},{"anonymous":false,"inputs":[{"indexed":true,"internalType":"uint256","name":"tradeId","type":"uint256"},{"indexed":true,"internalType":"address","name":"resolver","type":"address"},{"indexed":false,"internalType":"bool","name":"releasedToBuyer","type":"bool"}],"name":"DisputeResolved","type":"event"},{"anonymous":false,"inputs":[{"indexed":false,"internalType":"address","name":"oldCollector","type":"address"},{"indexed":false,"internalType":"address","name":"newCollector","type":"address"}],"name":"FeeCollectorUpdated","type":"event"},{"anonymous":false,"inputs":[{"indexed":false,"internalType":"uint256","name":"oldFee","type":"uint256"},{"indexed":false,"internalType":"uint256","name":"newFee","type":"uint256"}],"name":"FeeUpdated","type":"event"},{"anonymous":false,"inputs":[{"indexed":true,"internalType":"uint256","name":"tradeId","type":"uint256"},{"indexed":true,"internalType":"address","name":"buyer","type":"address"},{"indexed":false,"internalType":"uint256","name":"autoReleaseDeadline","type":"uint256"}],"name":"FiatMarkedSent","type":"event"},{"anonymous":false,"inputs":[{"indexed":true,"internalType":"address","name":"previousOwner","type":"address"},{"indexed":true,"internalType":"address","name":"newOwner","type":"address"}],"name":"OwnershipTransferred","type":"event"},{"anonymous":false,"inputs":[{"indexed":false,"internalType":"address","name":"relayer","type":"address"},{"indexed":false,"internalType":"bool","name":"approved","type":"bool"}],"name":"RelayerUpdated","type":"event"},{"anonymous":false,"inputs":[{"indexed":false,"internalType":"address","name":"token","type":"address"},{"indexed":false,"internalType":"bool","name":"approved","type":"bool"}],"name":"TokenApproved","type":"event"},{"anonymous":false,"inputs":[{"indexed":true,"internalType":"uint256","name":"tradeId","type":"uint256"},{"indexed":true,"internalType":"address","name":"seller","type":"address"}],"name":"TradeCancelled","type":"event"},{"anonymous":false,"inputs":[{"indexed":true,"internalType":"uint256","name":"tradeId","type":"uint256"},{"indexed":true,"internalType":"address","name":"seller","type":"address"},{"indexed":true,"internalType":"address","name":"buyer","type":"address"},{"indexed":false,"internalType":"address","name":"token","type":"address"},{"indexed":false,"internalType":"uint256","name":"amount","type":"uint256"},{"indexed":false,"internalType":"uint256","name":"feeAmount","type":"uint256"},{"indexed":false,"internalType":"uint256","name":"deadline","type":"uint256"}],"name":"TradeCreated","type":"event"},{"anonymous":false,"inputs":[{"indexed":true,"internalType":"uint256","name":"tradeId","type":"uint256"},{"indexed":true,"internalType":"address","name":"initiator","type":"address"},{"indexed":false,"internalType":"string","name":"reason","type":"string"}],"name":"TradeDisputed","type":"event"},{"anonymous":false,"inputs":[{"indexed":true,"internalType":"uint256","name":"tradeId","type":"uint256"},{"indexed":true,"internalType":"address","name":"seller","type":"address"},{"indexed":false,"internalType":"uint256","name":"amount","type":"uint256"}],"name":"TradeRefunded","type":"event"},{"anonymous":false,"inputs":[{"indexed":true,"internalType":"uint256","name":"tradeId","type":"uint256"},{"indexed":true,"internalType":"address","name":"buyer","type":"address"},{"indexed":false,"internalType":"uint256","name":"buyerReceives","type":"uint256"},{"indexed":false,"internalType":"uint256","name":"feeAmount","type":"uint256"}],"name":"TradeReleased","type":"event"},{"inputs":[],"name":"AUTO_RELEASE_DURATION","outputs":[{"internalType":"uint256","name":"","type":"uint256"}],"stateMutability":"view","type":"function"},{"inputs":[],"name":"DEFAULT_ESCROW_DURATION","outputs":[{"internalType":"uint256","name":"","type":"uint256"}],"stateMutability":"view","type":"function"},{"inputs":[],"name":"MAX_ESCROW_DURATION","outputs":[{"internalType":"uint256","name":"","type":"uint256"}],"stateMutability":"view","type":"function"},{"inputs":[],"name":"MAX_FEE_BPS","outputs":[{"internalType":"uint256","name":"","type":"uint256"}],"stateMutability":"view","type":"function"},{"inputs":[],"name":"MIN_TRADE_AMOUNT","outputs":[{"internalType":"uint256","name":"","type":"uint256"}],"stateMutability":"view","type":"function"},{"inputs":[{"internalType":"address","name":"","type":"address"}],"name":"activeTradeCount","outputs":[{"internalType":"uint256","name":"","type":"uint256"}],"stateMutability":"view","type":"function"},{"inputs":[{"internalType":"address","name":"","type":"address"}],"name":"approvedRelayers","outputs":[{"internalType":"bool","name":"","type":"bool"}],"stateMutability":"view","type":"function"},{"inputs":[{"internalType":"address","name":"","type":"address"}],"name":"approvedTokens","outputs":[{"internalType":"bool","name":"","type":"bool"}],"stateMutability":"view","type":"function"},{"inputs":[{"internalType":"uint256","name":"_tradeId","type":"uint256"}],"name":"autoRelease","outputs":[],"stateMutability":"nonpayable","type":"function"},{"inputs":[{"internalType":"uint256","name":"_amount","type":"uint256"}],"name":"calculateFee","outputs":[{"internalType":"uint256","name":"fee","type":"uint256"},{"internalType":"uint256","name":"netAmount","type":"uint256"}],"stateMutability":"view","type":"function"},{"inputs":[{"internalType":"address","name":"_buyer","type":"address"},{"internalType":"address","name":"_token","type":"address"},{"internalType":"uint256","name":"_amount","type":"uint256"},{"internalType":"uint256","name":"_duration","type":"uint256"}],"name":"createTrade","outputs":[{"internalType":"uint256","name":"tradeId","type":"uint256"}],"stateMutability":"nonpayable","type":"function"},{"inputs":[{"internalType":"address","name":"_token","type":"address"},{"internalType":"uint256","name":"_amount","type":"uint256"}],"name":"emergencyWithdraw","outputs":[],"stateMutability":"nonpayable","type":"function"},{"inputs":[],"name":"feeBps","outputs":[{"internalType":"uint256","name":"","type":"uint256"}],"stateMutability":"view","type":"function"},{"inputs":[],"name":"feeCollector","outputs":[{"internalType":"address","name":"","type":"address"}],"stateMutability":"view","type":"function"},{"inputs":[{"internalType":"address","name":"_token","type":"address"}],"name":"getContractBalance","outputs":[{"internalType":"uint256","name":"","type":"uint256"}],"stateMutability":"view","type":"function"},{"inputs":[{"internalType":"uint256","name":"_tradeId","type":"uint256"}],"name":"getTrade","outputs":[{"components":[{"internalType":"address","name":"seller","type":"address"},{"internalType":"address","name":"buyer","type":"address"},{"internalType":"address","name":"token","type":"address"},{"internalType":"uint256","name":"amount","type":"uint256"},{"internalType":"uint256","name":"feeAmount","type":"uint256"},{"internalType":"uint256","name":"buyerReceives","type":"uint256"},{"internalType":"enum P2PEscrow.TradeStatus","name":"status","type":"uint8"},{"internalType":"uint256","name":"createdAt","type":"uint256"},{"internalType":"uint256","name":"deadline","type":"uint256"},{"internalType":"uint256","name":"fiatSentAt","type":"uint256"},{"internalType":"uint256","name":"autoReleaseDeadline","type":"uint256"},{"internalType":"address","name":"disputeInitiator","type":"address"},{"internalType":"string","name":"disputeReason","type":"string"}],"internalType":"struct P2PEscrow.Trade","name":"","type":"tuple"}],"stateMutability":"view","type":"function"},{"inputs":[{"internalType":"uint256","name":"_tradeId","type":"uint256"}],"name":"isExpired","outputs":[{"internalType":"bool","name":"","type":"bool"}],"stateMutability":"view","type":"function"},{"inputs":[{"internalType":"uint256","name":"_tradeId","type":"uint256"}],"name":"markFiatSent","outputs":[],"stateMutability":"nonpayable","type":"function"},{"inputs":[],"name":"maxActiveTradesPerUser","outputs":[{"internalType":"uint256","name":"","type":"uint256"}],"stateMutability":"view","type":"function"},{"inputs":[],"name":"owner","outputs":[{"internalType":"address","name":"","type":"address"}],"stateMutability":"view","type":"function"},{"inputs":[{"internalType":"uint256","name":"_tradeId","type":"uint256"},{"internalType":"string","name":"_reason","type":"string"}],"name":"raiseDispute","outputs":[],"stateMutability":"nonpayable","type":"function"},{"inputs":[{"internalType":"uint256","name":"_tradeId","type":"uint256"}],"name":"refund","outputs":[],"stateMutability":"nonpayable","type":"function"},{"inputs":[{"internalType":"uint256","name":"_tradeId","type":"uint256"}],"name":"release","outputs":[],"stateMutability":"nonpayable","type":"function"},{"inputs":[],"name":"renounceOwnership","outputs":[],"stateMutability":"nonpayable","type":"function"},{"inputs":[{"internalType":"uint256","name":"_tradeId","type":"uint256"},{"internalType":"bool","name":"_releaseToBuyer","type":"bool"}],"name":"resolveDispute","outputs":[],"stateMutability":"nonpayable","type":"function"},{"inputs":[{"internalType":"address","name":"_token","type":"address"},{"internalType":"bool","name":"_approved","type":"bool"}],"name":"setApprovedToken","outputs":[],"stateMutability":"nonpayable","type":"function"},{"inputs":[{"internalType":"uint256","name":"_newFeeBps","type":"uint256"}],"name":"setFeeBps","outputs":[],"stateMutability":"nonpayable","type":"function"},{"inputs":[{"internalType":"address","name":"_newCollector","type":"address"}],"name":"setFeeCollector","outputs":[],"stateMutability":"nonpayable","type":"function"},{"inputs":[{"internalType":"uint256","name":"_max","type":"uint256"}],"name":"setMaxActiveTrades","outputs":[],"stateMutability":"nonpayable","type":"function"},{"inputs":[{"internalType":"address","name":"_relayer","type":"address"},{"internalType":"bool","name":"_approved","type":"bool"}],"name":"setRelayer","outputs":[],"stateMutability":"nonpayable","type":"function"},{"inputs":[{"internalType":"address","name":"","type":"address"}],"name":"totalFeesCollected","outputs":[{"internalType":"uint256","name":"","type":"uint256"}],"stateMutability":"view","type":"function"},{"inputs":[],"name":"tradeCounter","outputs":[{"internalType":"uint256","name":"","type":"uint256"}],"stateMutability":"view","type":"function"},{"inputs":[{"internalType":"uint256","name":"","type":"uint256"}],"name":"trades","outputs":[{"internalType":"address","name":"seller","type":"address"},{"internalType":"address","name":"buyer","type":"address"},{"internalType":"address","name":"token","type":"address"},{"internalType":"uint256","name":"amount","type":"uint256"},{"internalType":"uint256","name":"feeAmount","type":"uint256"},{"internalType":"uint256","name":"buyerReceives","type":"uint256"},{"internalType":"enum P2PEscrow.TradeStatus","name":"status","type":"uint8"},{"internalType":"uint256","name":"createdAt","type":"uint256"},{"internalType":"uint256","name":"deadline","type":"uint256"},{"internalType":"uint256","name":"fiatSentAt","type":"uint256"},{"internalType":"uint256","name":"autoReleaseDeadline","type":"uint256"},{"internalType":"address","name":"disputeInitiator","type":"address"},{"internalType":"string","name":"disputeReason","type":"string"}],"stateMutability":"view","type":"function"},{"inputs":[{"internalType":"address","name":"newOwner","type":"address"}],"name":"transferOwnership","outputs":[],"stateMutability":"nonpayable","type":"function"}],"evm":{"bytecode":{"linkReferences":{},"object":"608034620001ff576200253390601f38839003908101601f19168201906001600160401b03821183831017620002045780839160409586948552833981010312620001ff576200004f816200021a565b6200005e60208093016200021a565b913315620001e75760008054336001600160a01b03198083168217845587519396939590936001600160a01b0393909284929183167f8be0079c531659141344cd1fd0a4f28419497f9722a3daafe3b4186f6b6457e08a80a3600180556032600255600a805516948515620001a55750169081156200016157917f54aee4f020b814c26f556399a354577e068193a82445e919505b00b9848512a586859381967f5d16ad41baeb009cd23eb8f6c7cde5c2e0cd5acf4a33926ab488875c37c37f389896600754161760075580865260058452818620600160ff198254161790558151908152600184820152a18351928352820152a1516123039081620002308239f35b855162461bcd60e51b815260048101849052601460248201527f496e76616c6964205553444320616464726573730000000000000000000000006044820152606490fd5b62461bcd60e51b815260048101859052601560248201527f496e76616c69642066656520636f6c6c6563746f7200000000000000000000006044820152606490fd5b8351631e4fbdf760e01b815260006004820152602490fd5b600080fd5b634e487b7160e01b600052604160045260246000fd5b51906001600160a01b0382168203620001ff5756fe608080604052600436101561001357600080fd5b60003560e01c9081630794305e14611f2d575080631906fb4d1461195f5780631e6c598e1461187d57806324a9d8531461185f578063278ecde11461153e5780632db25e051461133057806331b7d413146113125780633483cb02146112f457806334b25ee21461107357806337bdc99b14610ee257806343ab265f14610e52578063459b860e14610c3a5780635aef573c1461096d5780636085c06614610950578063660d15b5146109325780636d1ea3fa146108f3578063715018a61461089a57806372c27b62146107ff5780637e6a34001461078857806387d2fc821461071457806388a40eed146106da5780638cba8b6a1461069b5780638da5cb5b1461067257806395ccea671461063357806399a5d747146105f7578063a42dce8014610545578063afba9e221461050b578063c415b95c146104e2578063d55be8c6146104c5578063d9548e5314610476578063ecd8dc3a146103e6578063f2fde38b1461035d578063f51f4bd2146103405763fa254c181461019557600080fd5b3461033b5760208060031936011261033b576004358015158061032f575b6101bc9061222d565b6000818152600483526040902060018101546001600160a01b031633036102ea5760068101805460ff811660078110156102d45760010361029c57600883015442116102675760029060ff1916179055426009820155610a8c4201928342116102515783600a7fca4a124546e4d1efb37a421d49b27e91e28818bc73a3385ded0e9dcbc125f54c9301556040519384523393a3005b634e487b7160e01b600052601160045260246000fd5b60405162461bcd60e51b815260048101869052600d60248201526c151c98591948195e1c1a5c9959609a1b6044820152606490fd5b60405162461bcd60e51b815260048101869052601060248201526f5472616465206e6f742061637469766560801b6044820152606490fd5b634e487b7160e01b600052602160045260246000fd5b60405162461bcd60e51b815260048101849052601d60248201527f4f6e6c792062757965722063616e206d61726b20666961742073656e740000006044820152606490fd5b506003548111156101b3565b600080fd5b3461033b57600036600319011261033b576020604051610e108152f35b3461033b57602036600319011261033b57610376611f49565b61037e6120da565b6001600160a01b039081169081156103cd57600054826001600160601b0360a01b821617600055167f8be0079c531659141344cd1fd0a4f28419497f9722a3daafe3b4186f6b6457e0600080a3005b604051631e4fbdf760e01b815260006004820152602490fd5b3461033b57604036600319011261033b577f4b36b2e66f38ed349bec532105790177f1283bcbc094e6cd48565195d3033c43610420611f49565b6104286120cb565b906104316120da565b6001600160a01b0381166000908152600660205260409020805460ff191660ff841515161790555b604080516001600160a01b039290921682529115156020820152a1005b3461033b57602036600319011261033b57600435801515806104b9575b61049c9061222d565b600052600460205260206008604060002001544211604051908152f35b50600354811115610493565b3461033b57600036600319011261033b5760206040516101f48152f35b3461033b57600036600319011261033b576007546040516001600160a01b039091168152602090f35b3461033b57602036600319011261033b576001600160a01b0361052c611f49565b1660005260096020526020604060002054604051908152f35b3461033b57602036600319011261033b5761055e611f49565b6105666120da565b6001600160a01b0390811680156105c0577f5d16ad41baeb009cd23eb8f6c7cde5c2e0cd5acf4a33926ab488875c37c37f389160409160075491816001600160601b0360a01b8416176007558351921682526020820152a1005b60405162461bcd60e51b815260206004820152600f60248201526e496e76616c6964206164647265737360881b6044820152606490fd5b3461033b57602036600319011261033b57604060043561062761271061061f60025484612106565b048092612119565b82519182526020820152f35b3461033b57604036600319011261033b5761067061064f611f49565b6106576120da565b600054602435916001600160a01b03918216911661227d565b005b3461033b57600036600319011261033b576000546040516001600160a01b039091168152602090f35b3461033b57602036600319011261033b576001600160a01b036106bc611f49565b166000526006602052602060ff604060002054166040519015158152f35b3461033b57602036600319011261033b576001600160a01b036106fb611f49565b1660005260086020526020604060002054604051908152f35b3461033b57602036600319011261033b576004356107306120da565b8015158061077d575b1561074357600a55005b60405162461bcd60e51b8152602060048201526012602482015271496e76616c6964206d61782028312d35302960701b6044820152606490fd5b506032811115610739565b3461033b57604036600319011261033b577f54aee4f020b814c26f556399a354577e068193a82445e919505b00b9848512a56107c2611f49565b6107ca6120cb565b906107d36120da565b6001600160a01b0381166000908152600560205260409020805460ff191660ff84151516179055610459565b3461033b57602036600319011261033b5760043561081b6120da565b6101f4811161085d5760407f528d9479e9f9889a87a3c30c7f7ba537e5e59c4c85a37733b16e57c62df6130291600254908060025582519182526020820152a1005b60405162461bcd60e51b815260206004820152601560248201527446656520746f6f206869676820286d61782035252960581b6044820152606490fd5b3461033b57600036600319011261033b576108b36120da565b600080546001600160a01b0319811682556001600160a01b03167f8be0079c531659141344cd1fd0a4f28419497f9722a3daafe3b4186f6b6457e08280a3005b3461033b57602036600319011261033b576001600160a01b03610914611f49565b166000526005602052602060ff604060002054166040519015158152f35b3461033b57600036600319011261033b576020600354604051908152f35b3461033b57600036600319011261033b576020604051610a8c8152f35b3461033b57604036600319011261033b5767ffffffffffffffff600435602480359083821161033b573660238301121561033b57816004013593841161033b573681858401011161033b5782151580610c2e575b6109ca9061222d565b8260005260209160048352604060002060018060a01b03808254163314908115610c1e575b5015610bda576006810180549060ff8216916007831015610bc557600192838114908115610bba575b5015610b765760039060ff1916179055600b8201336001600160601b0360a01b825416179055600c820190610a5788610a518454611f5f565b8461215a565b8760009186601f8311600114610b0b5760009383610afe575b50501b906000198960031b1c19161790555b6203f480420190814211610ae957917fb90cad70464bd57459e5d7277e908a9cecfdc1a71b2ed3a578b85bb44ff6563e94939160088894015582604051948086528501520160408301376000604085830101526040813395601f80199101168101030190a3005b83634e487b7160e01b60005260116004526000fd5b870101359250868b610a70565b50919050601f198916908360005289886000209260005b8a86838310610b5d5750505010610b41575b505087811b019055610a82565b850186013560001960038b901b60f8161c191690558880610b34565b858b018c0135875590950194938401938d935001610b22565b60405162461bcd60e51b815260048101889052601d818801527f5472616465206e6f7420696e2064697370757461626c652073746174650000006044820152606490fd5b60029150148a610a18565b85634e487b7160e01b60005260216004526000fd5b60405162461bcd60e51b815260048101859052601e818501527f4f6e6c7920747261646520706172746965732063616e206469737075746500006044820152606490fd5b90506001820154163314876109ef565b506003548311156109c1565b3461033b5760208060031936011261033b57600435610c5761220a565b80151580610e46575b610c699061222d565b806000526004825260406000209160068301805460ff811660078110156102d457600203610e0157600a8501548015610dc557421115610d75579160409160047f489d0b4f43659843daba0a17983382a3e77f5399083ac5405143fcf6806f8ca09460ff191617905560018060a01b0390818654166000526009815282600020610cf38154612270565b90556002860191808354169660046001820191610d1b848454169a600583019b8c549161227d565b0193845480610d3d575b5050541695549154908351928352820152a360018055005b610d50908483541685600754169061227d565b82855491541660005260088452610d6c86600020918254612135565b90558880610d25565b60405162461bcd60e51b815260048101849052602260248201527f4175746f2d72656c656173652074696d6572206e6f7420657870697265642079604482015261195d60f21b6064820152608490fd5b60405162461bcd60e51b8152600481018590526014602482015273105d5d1bcb5c995b19585cd9481b9bdd081cd95d60621b6044820152606490fd5b60405162461bcd60e51b815260048101849052601760248201527f46696174206e6f74206d61726b65642061732073656e740000000000000000006044820152606490fd5b50600354811115610c60565b3461033b5760208060031936011261033b576024816001600160a01b03610e77611f49565b16604051928380926370a0823160e01b82523060048301525afa908115610ed657600091610ea9575b50604051908152f35b90508181813d8311610ecf575b610ec08183611fb6565b8101031261033b575182610ea0565b503d610eb6565b6040513d6000823e3d90fd5b3461033b5760208060031936011261033b57600435610eff61220a565b80151580611067575b610f119061222d565b60008181526004835260409020805490926001600160a01b039182163381148015611050575b8015611043575b15610ffe5760068501805460ff811660078110156102d45760018114908115610ff3575b5015610fae57916040939160047f97927b87dc09cc0b1ac68bfececc490c2797c23dd6b778d344690cda6b0e95fc969460ff19161790556000526009815282600020610cf38154612270565b60405162461bcd60e51b815260048101859052601d60248201527f5472616465206e6f7420696e2072656c65617361626c652073746174650000006044820152606490fd5b600291501488610f62565b60405162461bcd60e51b815260048101839052601960248201527f4e6f7420617574686f72697a656420746f2072656c65617365000000000000006044820152606490fd5b5082600054163314610f3e565b50336000526006825260ff60406000205416610f37565b50600354811115610f08565b3461033b57604036600319011261033b5760043561108f6120cb565b9061109861220a565b801515806112e8575b6110aa9061222d565b3360005260206006815260ff6040600020541680156112d4575b1561129057816000526004815260406000206006810160ff81541660078110156102d4576003036112565790837f8fdd4548a8481406b6e29c0d6f25e27cd72502f79f4adf409468502e7920dabc939260018060a01b03808454166000526009855260406000206111358154612270565b90558488156111fb57506040907f97927b87dc09cc0b1ac68bfececc490c2797c23dd6b778d344690cda6b0e95fc92600460ff1982541617905560028501908082541695600460018201916111958484541699600583019a8b549161227d565b01928354806111c3575b5050541694549054825191825286820152a35b60405193151584523393a360018055005b6111d6908483541685600754169061227d565b828454915416600052600889526111f285600020918254612135565b90558b8061119f565b907f598cf7b1037a2cbb27645d4ef91a50ab4b13db45cc85ebd8edeea26233ea928892600560ff1982541617905580600286015416946112468282541696600383019788549161227d565b54169354604051908152a36111b2565b60405162461bcd60e51b8152600481018490526012602482015271151c985919481b9bdd08191a5cdc1d5d195960721b6044820152606490fd5b6064906040519062461bcd60e51b82526004820152601e60248201527f4f6e6c792061646d696e2f72656c617965722063616e207265736f6c766500006044820152fd5b506000546001600160a01b031633146110c4565b506003548111156110a1565b3461033b57600036600319011261033b576020600a54604051908152f35b3461033b57600036600319011261033b576020604051620f42408152f35b3461033b57602036600319011261033b57606061018060405161135281611f99565b60008152600060208201526000604082015260008382015260006080820152600060a0820152600060c0820152600060e082015260006101008201526000610120820152600061014082015260006101608201520152600435600052600460205260406000206040516113c481611f99565b81546001600160a01b03908116825260018301548116602083015260028301541660408201526003820154606082015260048201546080820152600582015460a0820152600682015460ff169160078310156102d45760c0820192909252600782015460e082015260088201546101008201526009820154610120820152600a820154610140820152600b8201546001600160a01b03166101608201526101809161147190600c01611fd8565b8282015261153a6040519283926020845260018060a01b03815116602085015260018060a01b03602082015116604085015260018060a01b03604082015116606085015260608101516080850152608081015160a085015260a081015160c08501526114e560c082015160e086019061207e565b60e081015161010085015261010081015161012085015261012081015161014085015261014081015161016085015260018060a01b03610160820151168285015201516101a0808401526101c083019061208b565b0390f35b3461033b5760208060031936011261033b5760043561155b61220a565b80151580611853575b61156d9061222d565b8060005260048252604060002091600883015442119060018060a01b03808554163314923360005260069384845260ff604060002054168015611846575b821561170a575060ff858801541660078110156102d45760010361169f575b8115611658575b507f598cf7b1037a2cbb27645d4ef91a50ab4b13db45cc85ebd8edeea26233ea928893611606911561165057805b8701612142565b808554166000526009825260406000206116208154612270565b9055806002860154169461163f8282541696600383019788549161227d565b54169354604051908152a360018055005b6005906115ff565b905080611686575b7f598cf7b1037a2cbb27645d4ef91a50ab4b13db45cc85ebd8edeea26233ea92886115d1565b5060ff838601541660078110156102d457600114611660565b60405162461bcd60e51b815260048101859052603860248201527f4669617420616c72656164792073656e74202d20757365206175746f52656c6560448201527f61736520666f722062757965722070726f74656374696f6e00000000000000006064820152608490fd5b811561176d575060ff858801541660078110156102d4576001146115ca5760405162461bcd60e51b815260048101859052601d60248201527f43616e6e6f742063616e63656c20616674657220666961742073656e740000006044820152606490fd5b156118015760ff8588015416600781101590816102d457600181149182156117f3575b82156117e2575b50506115ca5760405162461bcd60e51b815260048101859052601d60248201527f5472616465206e6f7420696e20726566756e6461626c652073746174650000006044820152606490fd5b9091506102d4576003148880611797565b506002811491506000611790565b60405162461bcd60e51b815260048101859052601860248201527f4e6f7420617574686f72697a656420746f20726566756e6400000000000000006044820152606490fd5b50826000541633146115ab565b50600354811115611564565b3461033b57600036600319011261033b576020600254604051908152f35b3461033b57602036600319011261033b5760043560005260046020526040600020600160a01b60019003808254169080600184015416928160028201541691600382015460048301546005840154600685015460ff16600786015491600887015493600988015495600a89015497600b8a01541698600c016118fe90611fd8565b996040519c8d9c8d5260208d015260408c015260608b015260808a015260a089015260c0880161192d9161207e565b60e08701526101008601526101208501526101408401526101608301526101a080610180840152820161153a9161208b565b3461033b57608036600319011261033b57611978611f49565b602435906001600160a01b038216820361033b576064359161199861220a565b826001600160a01b03831615611ef0576001600160a01b0383163314611eab576001600160a01b03821660009081526005602052604090205460ff1615611e7157620f424060443510611e2c57336000526009602052604060002054600a541115611dee5715611de4575b620151808311611d9f57612710611a1e600254604435612106565b0491611a2c83604435612119565b92611a38600354612126565b9384600355611a478642612135565b60405191611a5483611f99565b33835260018060a01b038516602084015260018060a01b0386166040840152604435606084015283608084015260a0830152600160c08301524260e083015261010082015260006101208201526000610140820152600061016082015260405180602081011067ffffffffffffffff602083011117611d0e57602081016040526000815261018082015284600052600460205260406000209060018060a01b038151166001600160601b0360a01b8354161782556001820160018060a01b036020830151166001600160601b0360a01b8254161790556002820160018060a01b036040830151166001600160601b0360a01b825416179055606081015160038301556080810151600483015560a0810151600583015560c08101519060078210156102d457611b896101809260068501612142565b60e0810151600784015561010081015160088401556101208101516009840155610140810151600a840155600b830160018060a01b03610160830151166001600160601b0360a01b825416179055015180519067ffffffffffffffff8211611d0e57611c0582611bfc600c860154611f5f565b600c860161215a565b602090601f8311600114611d2f57600c929160009183611d24575b50508160011b916000199060031b1c1916179101555b3360005260096020526040600020611c4e8154612126565b90556040516323b872dd60e01b602082015233602482015230604482015260443560648201526064815260a081019581871067ffffffffffffffff881117611d0e57611cab611cb19260209860405260018060a01b0387166121ae565b42612135565b604080516001600160a01b03958616815260443588820152908101929092526060820152911690339083907f5f41fb7cbdad789c17f3e3ffef0a920523917d85e5b27591e00eb1517a06c6e990608090a460018055604051908152f35b634e487b7160e01b600052604160045260246000fd5b015190508980611c20565b90600c840160005260206000209160005b601f1985168110611d875750918391600193600c95601f19811610611d6e575b505050811b01910155611c36565b015160001960f88460031b161c19169055898080611d60565b91926020600181928685015181550194019201611d40565b60405162461bcd60e51b815260206004820152601b60248201527f4475726174696f6e20746f6f206c6f6e6720286d6178203234682900000000006044820152606490fd5b610e109250611a03565b60405162461bcd60e51b8152602060048201526016602482015275546f6f206d616e79206163746976652074726164657360501b6044820152606490fd5b60405162461bcd60e51b815260206004820152601d60248201527f416d6f756e7420746f6f20736d616c6c20286d696e20312055534443290000006044820152606490fd5b60405162461bcd60e51b8152602060048201526012602482015271151bdad95b881b9bdd08185c1c1c9bdd995960721b6044820152606490fd5b60405162461bcd60e51b815260206004820152601a60248201527f43616e6e6f74207472616465207769746820796f757273656c660000000000006044820152606490fd5b60405162461bcd60e51b8152602060048201526015602482015274496e76616c6964206275796572206164647265737360581b6044820152606490fd5b3461033b57600036600319011261033b57806201518060209252f35b600435906001600160a01b038216820361033b57565b90600182811c92168015611f8f575b6020831014611f7957565b634e487b7160e01b600052602260045260246000fd5b91607f1691611f6e565b6101a0810190811067ffffffffffffffff821117611d0e57604052565b90601f8019910116810190811067ffffffffffffffff821117611d0e57604052565b9060405191826000825492611fec84611f5f565b90818452600194858116908160001461205b5750600114612018575b505061201692500383611fb6565b565b9093915060005260209081600020936000915b81831061204357505061201693508201013880612008565b8554888401850152948501948794509183019161202b565b91505061201694506020925060ff191682840152151560051b8201013880612008565b9060078210156102d45752565b919082519283825260005b8481106120b7575050826000602080949584010152601f8019910116010190565b602081830181015184830182015201612096565b60243590811515820361033b57565b6000546001600160a01b031633036120ee57565b60405163118cdaa760e01b8152336004820152602490fd5b8181029291811591840414171561025157565b9190820391821161025157565b60001981146102515760010190565b9190820180921161025157565b9060078110156102d45760ff80198354169116179055565b90601f811161216857505050565b600091825260208220906020601f850160051c830194106121a4575b601f0160051c01915b82811061219957505050565b81815560010161218d565b9092508290612184565b906000602091828151910182855af115610ed6576000513d61220157506001600160a01b0381163b155b6121df5750565b604051635274afe760e01b81526001600160a01b039091166004820152602490fd5b600114156121d8565b60026001541461221b576002600155565b604051633ee5aeb560e01b8152600490fd5b1561223457565b60405162461bcd60e51b8152602060048201526014602482015273151c98591948191bd95cc81b9bdd08195e1a5cdd60621b6044820152606490fd5b8015610251576000190190565b60405163a9059cbb60e01b60208201526001600160a01b039092166024830152604480830193909352918152608081019167ffffffffffffffff831182841017611d0e57612016926040526121ae56fea2646970667358221220cf98d2050b64aa3bf56f2a2fc034c722aeb23a4c5e969b22b1e15219656ec47664736f6c63430008140033","opcodes":"PUSH1 0x80 CALLVALUE PUSH3 0x1FF JUMPI PUSH3 0x2533 SWAP1 PUSH1 0x1F CODESIZE DUP4 SWAP1 SUB SWAP1 DUP2 ADD PUSH1 0x1F NOT AND DUP3 ADD SWAP1 PUSH1 0x1 PUSH1 0x1 PUSH1 0x40 SHL SUB DUP3 GT DUP4 DUP4 LT OR PUSH3 0x204 JUMPI DUP1 DUP4 SWAP2 PUSH1 0x40 SWAP6 DUP7 SWAP5 DUP6 MSTORE DUP4 CODECOPY DUP2 ADD SUB SLT PUSH3 0x1FF JUMPI PUSH3 0x4F DUP2 PUSH3 0x21A JUMP JUMPDEST PUSH3 0x5E PUSH1 0x20 DUP1 SWAP4 ADD PUSH3 0x21A JUMP JUMPDEST SWAP2 CALLER ISZERO PUSH3 0x1E7 JUMPI PUSH1 0x0 DUP1 SLOAD CALLER PUSH1 0x1 PUSH1 0x1 PUSH1 0xA0 SHL SUB NOT DUP1 DUP4 AND DUP3 OR DUP5 SSTORE DUP8 MLOAD SWAP4 SWAP7 SWAP4 SWAP6 SWAP1 SWAP4 PUSH1 0x1 PUSH1 0x1 PUSH1 0xA0 SHL SUB SWAP4 SWAP1 SWAP3 DUP5 SWAP3 SWAP2 DUP4 AND PUSH32 0x8BE0079C531659141344CD1FD0A4F28419497F9722A3DAAFE3B4186F6B6457E0 DUP11 DUP1 LOG3 PUSH1 0x1 DUP1 SSTORE PUSH1 0x32 PUSH1 0x2 SSTORE PUSH1 0xA DUP1 SSTORE AND SWAP5 DUP6 ISZERO PUSH3 0x1A5 JUMPI POP AND SWAP1 DUP2 ISZERO PUSH3 0x161 JUMPI SWAP2 PUSH32 0x54AEE4F020B814C26F556399A354577E068193A82445E919505B00B9848512A5 DUP7 DUP6 SWAP4 DUP2 SWAP7 PUSH32 0x5D16AD41BAEB009CD23EB8F6C7CDE5C2E0CD5ACF4A33926AB488875C37C37F38 SWAP9 SWAP7 PUSH1 0x7 SLOAD AND OR PUSH1 0x7 SSTORE DUP1 DUP7 MSTORE PUSH1 0x5 DUP5 MSTORE DUP2 DUP7 KECCAK256 PUSH1 0x1 PUSH1 0xFF NOT DUP3 SLOAD AND OR SWAP1 SSTORE DUP2 MLOAD SWAP1 DUP2 MSTORE PUSH1 0x1 DUP5 DUP3 ADD MSTORE LOG1 DUP4 MLOAD SWAP3 DUP4 MSTORE DUP3 ADD MSTORE LOG1 MLOAD PUSH2 0x2303 SWAP1 DUP2 PUSH3 0x230 DUP3 CODECOPY RETURN JUMPDEST DUP6 MLOAD PUSH3 0x461BCD PUSH1 0xE5 SHL DUP2 MSTORE PUSH1 0x4 DUP2 ADD DUP5 SWAP1 MSTORE PUSH1 0x14 PUSH1 0x24 DUP3 ADD MSTORE PUSH32 0x496E76616C696420555344432061646472657373000000000000000000000000 PUSH1 0x44 DUP3 ADD MSTORE PUSH1 0x64 SWAP1 REVERT JUMPDEST PUSH3 0x461BCD PUSH1 0xE5 SHL DUP2 MSTORE PUSH1 0x4 DUP2 ADD DUP6 SWAP1 MSTORE PUSH1 0x15 PUSH1 0x24 DUP3 ADD MSTORE PUSH32 0x496E76616C69642066656520636F6C6C6563746F720000000000000000000000 PUSH1 0x44 DUP3 ADD MSTORE PUSH1 0x64 SWAP1 REVERT JUMPDEST DUP4 MLOAD PUSH4 0x1E4FBDF7 PUSH1 0xE0 SHL DUP2 MSTORE PUSH1 0x0 PUSH1 0x4 DUP3 ADD MSTORE PUSH1 0x24 SWAP1 REVERT JUMPDEST PUSH1 0x0 DUP1 REVERT JUMPDEST PUSH4 0x4E487B71 PUSH1 0xE0 SHL PUSH1 0x0 MSTORE PUSH1 0x41 PUSH1 0x4 MSTORE PUSH1 0x24 PUSH1 0x0 REVERT JUMPDEST MLOAD SWAP1 PUSH1 0x1 PUSH1 0x1 PUSH1 0xA0 SHL SUB DUP3 AND DUP3 SUB PUSH3 0x1FF JUMPI JUMP INVALID PUSH1 0x80 DUP1 PUSH1 0x40 MSTORE PUSH1 0x4 CALLDATASIZE LT ISZERO PUSH2 0x13 JUMPI PUSH1 0x0 DUP1 REVERT JUMPDEST PUSH1 0x0 CALLDATALOAD PUSH1 0xE0 SHR SWAP1 DUP2 PUSH4 0x794305E EQ PUSH2 0x1F2D JUMPI POP DUP1 PUSH4 0x1906FB4D EQ PUSH2 0x195F JUMPI DUP1 PUSH4 0x1E6C598E EQ PUSH2 0x187D JUMPI DUP1 PUSH4 0x24A9D853 EQ PUSH2 0x185F JUMPI DUP1 PUSH4 0x278ECDE1 EQ PUSH2 0x153E JUMPI DUP1 PUSH4 0x2DB25E05 EQ PUSH2 0x1330 JUMPI DUP1 PUSH4 0x31B7D413 EQ PUSH2 0x1312 JUMPI DUP1 PUSH4 0x3483CB02 EQ PUSH2 0x12F4 JUMPI DUP1 PUSH4 0x34B25EE2 EQ PUSH2 0x1073 JUMPI DUP1 PUSH4 0x37BDC99B EQ PUSH2 0xEE2 JUMPI DUP1 PUSH4 0x43AB265F EQ PUSH2 0xE52 JUMPI DUP1 PUSH4 0x459B860E EQ PUSH2 0xC3A JUMPI DUP1 PUSH4 0x5AEF573C EQ PUSH2 0x96D JUMPI DUP1 PUSH4 0x6085C066 EQ PUSH2 0x950 JUMPI DUP1 PUSH4 0x660D15B5 EQ PUSH2 0x932 JUMPI DUP1 PUSH4 0x6D1EA3FA EQ PUSH2 0x8F3 JUMPI DUP1 PUSH4 0x715018A6 EQ PUSH2 0x89A JUMPI DUP1 PUSH4 0x72C27B62 EQ PUSH2 0x7FF JUMPI DUP1 PUSH4 0x7E6A3400 EQ PUSH2 0x788 JUMPI DUP1 PUSH4 0x87D2FC82 EQ PUSH2 0x714 JUMPI DUP1 PUSH4 0x88A40EED EQ PUSH2 0x6DA JUMPI DUP1 PUSH4 0x8CBA8B6A EQ PUSH2 0x69B JUMPI DUP1 PUSH4 0x8DA5CB5B EQ PUSH2 0x672 JUMPI DUP1 PUSH4 0x95CCEA67 EQ PUSH2 0x633 JUMPI DUP1 PUSH4 0x99A5D747 EQ PUSH2 0x5F7 JUMPI DUP1 PUSH4 0xA42DCE80 EQ PUSH2 0x545 JUMPI DUP1 PUSH4 0xAFBA9E22 EQ PUSH2 0x50B JUMPI DUP1 PUSH4 0xC415B95C EQ PUSH2 0x4E2 JUMPI DUP1 PUSH4 0xD55BE8C6 EQ PUSH2 0x4C5 JUMPI DUP1 PUSH4 0xD9548E53 EQ PUSH2 0x476 JUMPI DUP1 PUSH4 0xECD8DC3A EQ PUSH2 0x3E6 JUMPI DUP1 PUSH4 0xF2FDE38B EQ PUSH2 0x35D JUMPI DUP1 PUSH4 0xF51F4BD2 EQ PUSH2 0x340 JUMPI PUSH4 0xFA254C18 EQ PUSH2 0x195 JUMPI PUSH1 0x0 DUP1 REVERT JUMPDEST CALLVALUE PUSH2 0x33B JUMPI PUSH1 0x20 DUP1 PUSH1 0x3 NOT CALLDATASIZE ADD SLT PUSH2 0x33B JUMPI PUSH1 0x4 CALLDATALOAD DUP1 ISZERO ISZERO DUP1 PUSH2 0x32F JUMPI JUMPDEST PUSH2 0x1BC SWAP1 PUSH2 0x222D JUMP JUMPDEST PUSH1 0x0 DUP2 DUP2 MSTORE PUSH1 0x4 DUP4 MSTORE PUSH1 0x40 SWAP1 KECCAK256 PUSH1 0x1 DUP2 ADD SLOAD PUSH1 0x1 PUSH1 0x1 PUSH1 0xA0 SHL SUB AND CALLER SUB PUSH2 0x2EA JUMPI PUSH1 0x6 DUP2 ADD DUP1 SLOAD PUSH1 0xFF DUP2 AND PUSH1 0x7 DUP2 LT ISZERO PUSH2 0x2D4 JUMPI PUSH1 0x1 SUB PUSH2 0x29C JUMPI PUSH1 0x8 DUP4 ADD SLOAD TIMESTAMP GT PUSH2 0x267 JUMPI PUSH1 0x2 SWAP1 PUSH1 0xFF NOT AND OR SWAP1 SSTORE TIMESTAMP PUSH1 0x9 DUP3 ADD SSTORE PUSH2 0xA8C TIMESTAMP ADD SWAP3 DUP4 TIMESTAMP GT PUSH2 0x251 JUMPI DUP4 PUSH1 0xA PUSH32 0xCA4A124546E4D1EFB37A421D49B27E91E28818BC73A3385DED0E9DCBC125F54C SWAP4 ADD SSTORE PUSH1 0x40 MLOAD SWAP4 DUP5 MSTORE CALLER SWAP4 LOG3 STOP JUMPDEST PUSH4 0x4E487B71 PUSH1 0xE0 SHL PUSH1 0x0 MSTORE PUSH1 0x11 PUSH1 0x4 MSTORE PUSH1 0x24 PUSH1 0x0 REVERT JUMPDEST PUSH1 0x40 MLOAD PUSH3 0x461BCD PUSH1 0xE5 SHL DUP2 MSTORE PUSH1 0x4 DUP2 ADD DUP7 SWAP1 MSTORE PUSH1 0xD PUSH1 0x24 DUP3 ADD MSTORE PUSH13 0x151C98591948195E1C1A5C9959 PUSH1 0x9A SHL PUSH1 0x44 DUP3 ADD MSTORE PUSH1 0x64 SWAP1 REVERT JUMPDEST PUSH1 0x40 MLOAD PUSH3 0x461BCD PUSH1 0xE5 SHL DUP2 MSTORE PUSH1 0x4 DUP2 ADD DUP7 SWAP1 MSTORE PUSH1 0x10 PUSH1 0x24 DUP3 ADD MSTORE PUSH16 0x5472616465206E6F7420616374697665 PUSH1 0x80 SHL PUSH1 0x44 DUP3 ADD MSTORE PUSH1 0x64 SWAP1 REVERT JUMPDEST PUSH4 0x4E487B71 PUSH1 0xE0 SHL PUSH1 0x0 MSTORE PUSH1 0x21 PUSH1 0x4 MSTORE PUSH1 0x24 PUSH1 0x0 REVERT JUMPDEST PUSH1 0x40 MLOAD PUSH3 0x461BCD PUSH1 0xE5 SHL DUP2 MSTORE PUSH1 0x4 DUP2 ADD DUP5 SWAP1 MSTORE PUSH1 0x1D PUSH1 0x24 DUP3 ADD MSTORE PUSH32 0x4F6E6C792062757965722063616E206D61726B20666961742073656E74000000 PUSH1 0x44 DUP3 ADD MSTORE PUSH1 0x64 SWAP1 REVERT JUMPDEST POP PUSH1 0x3 SLOAD DUP2 GT ISZERO PUSH2 0x1B3 JUMP JUMPDEST PUSH1 0x0 DUP1 REVERT JUMPDEST CALLVALUE PUSH2 0x33B JUMPI PUSH1 0x0 CALLDATASIZE PUSH1 0x3 NOT ADD SLT PUSH2 0x33B JUMPI PUSH1 0x20 PUSH1 0x40 MLOAD PUSH2 0xE10 DUP2 MSTORE RETURN JUMPDEST CALLVALUE PUSH2 0x33B JUMPI PUSH1 0x20 CALLDATASIZE PUSH1 0x3 NOT ADD SLT PUSH2 0x33B JUMPI PUSH2 0x376 PUSH2 0x1F49 JUMP JUMPDEST PUSH2 0x37E PUSH2 0x20DA JUMP JUMPDEST PUSH1 0x1 PUSH1 0x1 PUSH1 0xA0 SHL SUB SWAP1 DUP2 AND SWAP1 DUP2 ISZERO PUSH2 0x3CD JUMPI PUSH1 0x0 SLOAD DUP3 PUSH1 0x1 PUSH1 0x1 PUSH1 0x60 SHL SUB PUSH1 0xA0 SHL DUP3 AND OR PUSH1 0x0 SSTORE AND PUSH32 0x8BE0079C531659141344CD1FD0A4F28419497F9722A3DAAFE3B4186F6B6457E0 PUSH1 0x0 DUP1 LOG3 STOP JUMPDEST PUSH1 0x40 MLOAD PUSH4 0x1E4FBDF7 PUSH1 0xE0 SHL DUP2 MSTORE PUSH1 0x0 PUSH1 0x4 DUP3 ADD MSTORE PUSH1 0x24 SWAP1 REVERT JUMPDEST CALLVALUE PUSH2 0x33B JUMPI PUSH1 0x40 CALLDATASIZE PUSH1 0x3 NOT ADD SLT PUSH2 0x33B JUMPI PUSH32 0x4B36B2E66F38ED349BEC532105790177F1283BCBC094E6CD48565195D3033C43 PUSH2 0x420 PUSH2 0x1F49 JUMP JUMPDEST PUSH2 0x428 PUSH2 0x20CB JUMP JUMPDEST SWAP1 PUSH2 0x431 PUSH2 0x20DA JUMP JUMPDEST PUSH1 0x1 PUSH1 0x1 PUSH1 0xA0 SHL SUB DUP2 AND PUSH1 0x0 SWAP1 DUP2 MSTORE PUSH1 0x6 PUSH1 0x20 MSTORE PUSH1 0x40 SWAP1 KECCAK256 DUP1 SLOAD PUSH1 0xFF NOT AND PUSH1 0xFF DUP5 ISZERO ISZERO AND OR SWAP1 SSTORE JUMPDEST PUSH1 0x40 DUP1 MLOAD PUSH1 0x1 PUSH1 0x1 PUSH1 0xA0 SHL SUB SWAP3 SWAP1 SWAP3 AND DUP3 MSTORE SWAP2 ISZERO ISZERO PUSH1 0x20 DUP3 ADD MSTORE LOG1 STOP JUMPDEST CALLVALUE PUSH2 0x33B JUMPI PUSH1 0x20 CALLDATASIZE PUSH1 0x3 NOT ADD SLT PUSH2 0x33B JUMPI PUSH1 0x4 CALLDATALOAD DUP1 ISZERO ISZERO DUP1 PUSH2 0x4B9 JUMPI JUMPDEST PUSH2 0x49C SWAP1 PUSH2 0x222D JUMP JUMPDEST PUSH1 0x0 MSTORE PUSH1 0x4 PUSH1 0x20 MSTORE PUSH1 0x20 PUSH1 0x8 PUSH1 0x40 PUSH1 0x0 KECCAK256 ADD SLOAD TIMESTAMP GT PUSH1 0x40 MLOAD SWAP1 DUP2 MSTORE RETURN JUMPDEST POP PUSH1 0x3 SLOAD DUP2 GT ISZERO PUSH2 0x493 JUMP JUMPDEST CALLVALUE PUSH2 0x33B JUMPI PUSH1 0x0 CALLDATASIZE PUSH1 0x3 NOT ADD SLT PUSH2 0x33B JUMPI PUSH1 0x20 PUSH1 0x40 MLOAD PUSH2 0x1F4 DUP2 MSTORE RETURN JUMPDEST CALLVALUE PUSH2 0x33B JUMPI PUSH1 0x0 CALLDATASIZE PUSH1 0x3 NOT ADD SLT PUSH2 0x33B JUMPI PUSH1 0x7 SLOAD PUSH1 0x40 MLOAD PUSH1 0x1 PUSH1 0x1 PUSH1 0xA0 SHL SUB SWAP1 SWAP2 AND DUP2 MSTORE PUSH1 0x20 SWAP1 RETURN JUMPDEST CALLVALUE PUSH2 0x33B JUMPI PUSH1 0x20 CALLDATASIZE PUSH1 0x3 NOT ADD SLT PUSH2 0x33B JUMPI PUSH1 0x1 PUSH1 0x1 PUSH1 0xA0 SHL SUB PUSH2 0x52C PUSH2 0x1F49 JUMP JUMPDEST AND PUSH1 0x0 MSTORE PUSH1 0x9 PUSH1 0x20 MSTORE PUSH1 0x20 PUSH1 0x40 PUSH1 0x0 KECCAK256 SLOAD PUSH1 0x40 MLOAD SWAP1 DUP2 MSTORE RETURN JUMPDEST CALLVALUE PUSH2 0x33B JUMPI PUSH1 0x20 CALLDATASIZE PUSH1 0x3 NOT ADD SLT PUSH2 0x33B JUMPI PUSH2 0x55E PUSH2 0x1F49 JUMP JUMPDEST PUSH2 0x566 PUSH2 0x20DA JUMP JUMPDEST PUSH1 0x1 PUSH1 0x1 PUSH1 0xA0 SHL SUB SWAP1 DUP2 AND DUP1 ISZERO PUSH2 0x5C0 JUMPI PUSH32 0x5D16AD41BAEB009CD23EB8F6C7CDE5C2E0CD5ACF4A33926AB488875C37C37F38 SWAP2 PUSH1 0x40 SWAP2 PUSH1 0x7 SLOAD SWAP2 DUP2 PUSH1 0x1 PUSH1 0x1 PUSH1 0x60 SHL SUB PUSH1 0xA0 SHL DUP5 AND OR PUSH1 0x7 SSTORE DUP4 MLOAD SWAP3 AND DUP3 MSTORE PUSH1 0x20 DUP3 ADD MSTORE LOG1 STOP JUMPDEST PUSH1 0x40 MLOAD PUSH3 0x461BCD PUSH1 0xE5 SHL DUP2 MSTORE PUSH1 0x20 PUSH1 0x4 DUP3 ADD MSTORE PUSH1 0xF PUSH1 0x24 DUP3 ADD MSTORE PUSH15 0x496E76616C69642061646472657373 PUSH1 0x88 SHL PUSH1 0x44 DUP3 ADD MSTORE PUSH1 0x64 SWAP1 REVERT JUMPDEST CALLVALUE PUSH2 0x33B JUMPI PUSH1 0x20 CALLDATASIZE PUSH1 0x3 NOT ADD SLT PUSH2 0x33B JUMPI PUSH1 0x40 PUSH1 0x4 CALLDATALOAD PUSH2 0x627 PUSH2 0x2710 PUSH2 0x61F PUSH1 0x2 SLOAD DUP5 PUSH2 0x2106 JUMP JUMPDEST DIV DUP1 SWAP3 PUSH2 0x2119 JUMP JUMPDEST DUP3 MLOAD SWAP2 DUP3 MSTORE PUSH1 0x20 DUP3 ADD MSTORE RETURN JUMPDEST CALLVALUE PUSH2 0x33B JUMPI PUSH1 0x40 CALLDATASIZE PUSH1 0x3 NOT ADD SLT PUSH2 0x33B JUMPI PUSH2 0x670 PUSH2 0x64F PUSH2 0x1F49 JUMP JUMPDEST PUSH2 0x657 PUSH2 0x20DA JUMP JUMPDEST PUSH1 0x0 SLOAD PUSH1 0x24 CALLDATALOAD SWAP2 PUSH1 0x1 PUSH1 0x1 PUSH1 0xA0 SHL SUB SWAP2 DUP3 AND SWAP2 AND PUSH2 0x227D JUMP JUMPDEST STOP JUMPDEST CALLVALUE PUSH2 0x33B JUMPI PUSH1 0x0 CALLDATASIZE PUSH1 0x3 NOT ADD SLT PUSH2 0x33B JUMPI PUSH1 0x0 SLOAD PUSH1 0x40 MLOAD PUSH1 0x1 PUSH1 0x1 PUSH1 0xA0 SHL SUB SWAP1 SWAP2 AND DUP2 MSTORE PUSH1 0x20 SWAP1 RETURN JUMPDEST CALLVALUE PUSH2 0x33B JUMPI PUSH1 0x20 CALLDATASIZE PUSH1 0x3 NOT ADD SLT PUSH2 0x33B JUMPI PUSH1 0x1 PUSH1 0x1 PUSH1 0xA0 SHL SUB PUSH2 0x6BC PUSH2 0x1F49 JUMP JUMPDEST AND PUSH1 0x0 MSTORE PUSH1 0x6 PUSH1 0x20 MSTORE PUSH1 0x20 PUSH1 0xFF PUSH1 0x40 PUSH1 0x0 KECCAK256 SLOAD AND PUSH1 0x40 MLOAD SWAP1 ISZERO ISZERO DUP2 MSTORE RETURN JUMPDEST CALLVALUE PUSH2 0x33B JUMPI PUSH1 0x20 CALLDATASIZE PUSH1 0x3 NOT ADD SLT PUSH2 0x33B JUMPI PUSH1 0x1 PUSH1 0x1 PUSH1 0xA0 SHL SUB PUSH2 0x6FB PUSH2 0x1F49 JUMP JUMPDEST AND PUSH1 0x0 MSTORE PUSH1 0x8 PUSH1 0x20 MSTORE PUSH1 0x20 PUSH1 0x40 PUSH1 0x0 KECCAK256 SLOAD PUSH1 0x40 MLOAD SWAP1 DUP2 MSTORE RETURN JUMPDEST CALLVALUE PUSH2 0x33B JUMPI PUSH1 0x20 CALLDATASIZE PUSH1 0x3 NOT ADD SLT PUSH2 0x33B JUMPI PUSH1 0x4 CALLDATALOAD PUSH2 0x730 PUSH2 0x20DA JUMP JUMPDEST DUP1 ISZERO ISZERO DUP1 PUSH2 0x77D JUMPI JUMPDEST ISZERO PUSH2 0x743 JUMPI PUSH1 0xA SSTORE STOP JUMPDEST PUSH1 0x40 MLOAD PUSH3 0x461BCD PUSH1 0xE5 SHL DUP2 MSTORE PUSH1 0x20 PUSH1 0x4 DUP3 ADD MSTORE PUSH1 0x12 PUSH1 0x24 DUP3 ADD MSTORE PUSH18 0x496E76616C6964206D61782028312D353029 PUSH1 0x70 SHL PUSH1 0x44 DUP3 ADD MSTORE PUSH1 0x64 SWAP1 REVERT JUMPDEST POP PUSH1 0x32 DUP2 GT ISZERO PUSH2 0x739 JUMP JUMPDEST CALLVALUE PUSH2 0x33B JUMPI PUSH1 0x40 CALLDATASIZE PUSH1 0x3 NOT ADD SLT PUSH2 0x33B JUMPI PUSH32 0x54AEE4F020B814C26F556399A354577E068193A82445E919505B00B9848512A5 PUSH2 0x7C2 PUSH2 0x1F49 JUMP JUMPDEST PUSH2 0x7CA PUSH2 0x20CB JUMP JUMPDEST SWAP1 PUSH2 0x7D3 PUSH2 0x20DA JUMP JUMPDEST PUSH1 0x1 PUSH1 0x1 PUSH1 0xA0 SHL SUB DUP2 AND PUSH1 0x0 SWAP1 DUP2 MSTORE PUSH1 0x5 PUSH1 0x20 MSTORE PUSH1 0x40 SWAP1 KECCAK256 DUP1 SLOAD PUSH1 0xFF NOT AND PUSH1 0xFF DUP5 ISZERO ISZERO AND OR SWAP1 SSTORE PUSH2 0x459 JUMP JUMPDEST CALLVALUE PUSH2 0x33B JUMPI PUSH1 0x20 CALLDATASIZE PUSH1 0x3 NOT ADD SLT PUSH2 0x33B JUMPI PUSH1 0x4 CALLDATALOAD PUSH2 0x81B PUSH2 0x20DA JUMP JUMPDEST PUSH2 0x1F4 DUP2 GT PUSH2 0x85D JUMPI PUSH1 0x40 PUSH32 0x528D9479E9F9889A87A3C30C7F7BA537E5E59C4C85A37733B16E57C62DF61302 SWAP2 PUSH1 0x2 SLOAD SWAP1 DUP1 PUSH1 0x2 SSTORE DUP3 MLOAD SWAP2 DUP3 MSTORE PUSH1 0x20 DUP3 ADD MSTORE LOG1 STOP JUMPDEST PUSH1 0x40 MLOAD PUSH3 0x461BCD PUSH1 0xE5 SHL DUP2 MSTORE PUSH1 0x20 PUSH1 0x4 DUP3 ADD MSTORE PUSH1 0x15 PUSH1 0x24 DUP3 ADD MSTORE PUSH21 0x46656520746F6F206869676820286D617820352529 PUSH1 0x58 SHL PUSH1 0x44 DUP3 ADD MSTORE PUSH1 0x64 SWAP1 REVERT JUMPDEST CALLVALUE PUSH2 0x33B JUMPI PUSH1 0x0 CALLDATASIZE PUSH1 0x3 NOT ADD SLT PUSH2 0x33B JUMPI PUSH2 0x8B3 PUSH2 0x20DA JUMP JUMPDEST PUSH1 0x0 DUP1 SLOAD PUSH1 0x1 PUSH1 0x1 PUSH1 0xA0 SHL SUB NOT DUP2 AND DUP3 SSTORE PUSH1 0x1 PUSH1 0x1 PUSH1 0xA0 SHL SUB AND PUSH32 0x8BE0079C531659141344CD1FD0A4F28419497F9722A3DAAFE3B4186F6B6457E0 DUP3 DUP1 LOG3 STOP JUMPDEST CALLVALUE PUSH2 0x33B JUMPI PUSH1 0x20 CALLDATASIZE PUSH1 0x3 NOT ADD SLT PUSH2 0x33B JUMPI PUSH1 0x1 PUSH1 0x1 PUSH1 0xA0 SHL SUB PUSH2 0x914 PUSH2 0x1F49 JUMP JUMPDEST AND PUSH1 0x0 MSTORE PUSH1 0x5 PUSH1 0x20 MSTORE PUSH1 0x20 PUSH1 0xFF PUSH1 0x40 PUSH1 0x0 KECCAK256 SLOAD AND PUSH1 0x40 MLOAD SWAP1 ISZERO ISZERO DUP2 MSTORE RETURN JUMPDEST CALLVALUE PUSH2 0x33B JUMPI PUSH1 0x0 CALLDATASIZE PUSH1 0x3 NOT ADD SLT PUSH2 0x33B JUMPI PUSH1 0x20 PUSH1 0x3 SLOAD PUSH1 0x40 MLOAD SWAP1 DUP2 MSTORE RETURN JUMPDEST CALLVALUE PUSH2 0x33B JUMPI PUSH1 0x0 CALLDATASIZE PUSH1 0x3 NOT ADD SLT PUSH2 0x33B JUMPI PUSH1 0x20 PUSH1 0x40 MLOAD PUSH2 0xA8C DUP2 MSTORE RETURN JUMPDEST CALLVALUE PUSH2 0x33B JUMPI PUSH1 0x40 CALLDATASIZE PUSH1 0x3 NOT ADD SLT PUSH2 0x33B JUMPI PUSH8 0xFFFFFFFFFFFFFFFF PUSH1 0x4 CALLDATALOAD PUSH1 0x24 DUP1 CALLDATALOAD SWAP1 DUP4 DUP3 GT PUSH2 0x33B JUMPI CALLDATASIZE PUSH1 0x23 DUP4 ADD SLT ISZERO PUSH2 0x33B JUMPI DUP2 PUSH1 0x4 ADD CALLDATALOAD SWAP4 DUP5 GT PUSH2 0x33B JUMPI CALLDATASIZE DUP2 DUP6 DUP5 ADD ADD GT PUSH2 0x33B JUMPI DUP3 ISZERO ISZERO DUP1 PUSH2 0xC2E JUMPI JUMPDEST PUSH2 0x9CA SWAP1 PUSH2 0x222D JUMP JUMPDEST DUP3 PUSH1 0x0 MSTORE PUSH1 0x20 SWAP2 PUSH1 0x4 DUP4 MSTORE PUSH1 0x40 PUSH1 0x0 KECCAK256 PUSH1 0x1 DUP1 PUSH1 0xA0 SHL SUB DUP1 DUP3 SLOAD AND CALLER EQ SWAP1 DUP2 ISZERO PUSH2 0xC1E JUMPI JUMPDEST POP ISZERO PUSH2 0xBDA JUMPI PUSH1 0x6 DUP2 ADD DUP1 SLOAD SWAP1 PUSH1 0xFF DUP3 AND SWAP2 PUSH1 0x7 DUP4 LT ISZERO PUSH2 0xBC5 JUMPI PUSH1 0x1 SWAP3 DUP4 DUP2 EQ SWAP1 DUP2 ISZERO PUSH2 0xBBA JUMPI JUMPDEST POP ISZERO PUSH2 0xB76 JUMPI PUSH1 0x3 SWAP1 PUSH1 0xFF NOT AND OR SWAP1 SSTORE PUSH1 0xB DUP3 ADD CALLER PUSH1 0x1 PUSH1 0x1 PUSH1 0x60 SHL SUB PUSH1 0xA0 SHL DUP3 SLOAD AND OR SWAP1 SSTORE PUSH1 0xC DUP3 ADD SWAP1 PUSH2 0xA57 DUP9 PUSH2 0xA51 DUP5 SLOAD PUSH2 0x1F5F JUMP JUMPDEST DUP5 PUSH2 0x215A JUMP JUMPDEST DUP8 PUSH1 0x0 SWAP2 DUP7 PUSH1 0x1F DUP4 GT PUSH1 0x1 EQ PUSH2 0xB0B JUMPI PUSH1 0x0 SWAP4 DUP4 PUSH2 0xAFE JUMPI JUMPDEST POP POP SHL SWAP1 PUSH1 0x0 NOT DUP10 PUSH1 0x3 SHL SHR NOT AND OR SWAP1 SSTORE JUMPDEST PUSH3 0x3F480 TIMESTAMP ADD SWAP1 DUP2 TIMESTAMP GT PUSH2 0xAE9 JUMPI SWAP2 PUSH32 0xB90CAD70464BD57459E5D7277E908A9CECFDC1A71B2ED3A578B85BB44FF6563E SWAP5 SWAP4 SWAP2 PUSH1 0x8 DUP9 SWAP5 ADD SSTORE DUP3 PUSH1 0x40 MLOAD SWAP5 DUP1 DUP7 MSTORE DUP6 ADD MSTORE ADD PUSH1 0x40 DUP4 ADD CALLDATACOPY PUSH1 0x0 PUSH1 0x40 DUP6 DUP4 ADD ADD MSTORE PUSH1 0x40 DUP2 CALLER SWAP6 PUSH1 0x1F DUP1 NOT SWAP2 ADD AND DUP2 ADD SUB ADD SWAP1 LOG3 STOP JUMPDEST DUP4 PUSH4 0x4E487B71 PUSH1 0xE0 SHL PUSH1 0x0 MSTORE PUSH1 0x11 PUSH1 0x4 MSTORE PUSH1 0x0 REVERT JUMPDEST DUP8 ADD ADD CALLDATALOAD SWAP3 POP DUP7 DUP12 PUSH2 0xA70 JUMP JUMPDEST POP SWAP2 SWAP1 POP PUSH1 0x1F NOT DUP10 AND SWAP1 DUP4 PUSH1 0x0 MSTORE DUP10 DUP9 PUSH1 0x0 KECCAK256 SWAP3 PUSH1 0x0 JUMPDEST DUP11 DUP7 DUP4 DUP4 LT PUSH2 0xB5D JUMPI POP POP POP LT PUSH2 0xB41 JUMPI JUMPDEST POP POP DUP8 DUP2 SHL ADD SWAP1 SSTORE PUSH2 0xA82 JUMP JUMPDEST DUP6 ADD DUP7 ADD CALLDATALOAD PUSH1 0x0 NOT PUSH1 0x3 DUP12 SWAP1 SHL PUSH1 0xF8 AND SHR NOT AND SWAP1 SSTORE DUP9 DUP1 PUSH2 0xB34 JUMP JUMPDEST DUP6 DUP12 ADD DUP13 ADD CALLDATALOAD DUP8 SSTORE SWAP1 SWAP6 ADD SWAP5 SWAP4 DUP5 ADD SWAP4 DUP14 SWAP4 POP ADD PUSH2 0xB22 JUMP JUMPDEST PUSH1 0x40 MLOAD PUSH3 0x461BCD PUSH1 0xE5 SHL DUP2 MSTORE PUSH1 0x4 DUP2 ADD DUP9 SWAP1 MSTORE PUSH1 0x1D DUP2 DUP9 ADD MSTORE PUSH32 0x5472616465206E6F7420696E2064697370757461626C65207374617465000000 PUSH1 0x44 DUP3 ADD MSTORE PUSH1 0x64 SWAP1 REVERT JUMPDEST PUSH1 0x2 SWAP2 POP EQ DUP11 PUSH2 0xA18 JUMP JUMPDEST DUP6 PUSH4 0x4E487B71 PUSH1 0xE0 SHL PUSH1 0x0 MSTORE PUSH1 0x21 PUSH1 0x4 MSTORE PUSH1 0x0 REVERT JUMPDEST PUSH1 0x40 MLOAD PUSH3 0x461BCD PUSH1 0xE5 SHL DUP2 MSTORE PUSH1 0x4 DUP2 ADD DUP6 SWAP1 MSTORE PUSH1 0x1E DUP2 DUP6 ADD MSTORE PUSH32 0x4F6E6C7920747261646520706172746965732063616E20646973707574650000 PUSH1 0x44 DUP3 ADD MSTORE PUSH1 0x64 SWAP1 REVERT JUMPDEST SWAP1 POP PUSH1 0x1 DUP3 ADD SLOAD AND CALLER EQ DUP8 PUSH2 0x9EF JUMP JUMPDEST POP PUSH1 0x3 SLOAD DUP4 GT ISZERO PUSH2 0x9C1 JUMP JUMPDEST CALLVALUE PUSH2 0x33B JUMPI PUSH1 0x20 DUP1 PUSH1 0x3 NOT CALLDATASIZE ADD SLT PUSH2 0x33B JUMPI PUSH1 0x4 CALLDATALOAD PUSH2 0xC57 PUSH2 0x220A JUMP JUMPDEST DUP1 ISZERO ISZERO DUP1 PUSH2 0xE46 JUMPI JUMPDEST PUSH2 0xC69 SWAP1 PUSH2 0x222D JUMP JUMPDEST DUP1 PUSH1 0x0 MSTORE PUSH1 0x4 DUP3 MSTORE PUSH1 0x40 PUSH1 0x0 KECCAK256 SWAP2 PUSH1 0x6 DUP4 ADD DUP1 SLOAD PUSH1 0xFF DUP2 AND PUSH1 0x7 DUP2 LT ISZERO PUSH2 0x2D4 JUMPI PUSH1 0x2 SUB PUSH2 0xE01 JUMPI PUSH1 0xA DUP6 ADD SLOAD DUP1 ISZERO PUSH2 0xDC5 JUMPI TIMESTAMP GT ISZERO PUSH2 0xD75 JUMPI SWAP2 PUSH1 0x40 SWAP2 PUSH1 0x4 PUSH32 0x489D0B4F43659843DABA0A17983382A3E77F5399083AC5405143FCF6806F8CA0 SWAP5 PUSH1 0xFF NOT AND OR SWAP1 SSTORE PUSH1 0x1 DUP1 PUSH1 0xA0 SHL SUB SWAP1 DUP2 DUP7 SLOAD AND PUSH1 0x0 MSTORE PUSH1 0x9 DUP2 MSTORE DUP3 PUSH1 0x0 KECCAK256 PUSH2 0xCF3 DUP2 SLOAD PUSH2 0x2270 JUMP JUMPDEST SWAP1 SSTORE PUSH1 0x2 DUP7 ADD SWAP2 DUP1 DUP4 SLOAD AND SWAP7 PUSH1 0x4 PUSH1 0x1 DUP3 ADD SWAP2 PUSH2 0xD1B DUP5 DUP5 SLOAD AND SWAP11 PUSH1 0x5 DUP4 ADD SWAP12 DUP13 SLOAD SWAP2 PUSH2 0x227D JUMP JUMPDEST ADD SWAP4 DUP5 SLOAD DUP1 PUSH2 0xD3D JUMPI JUMPDEST POP POP SLOAD AND SWAP6 SLOAD SWAP2 SLOAD SWAP1 DUP4 MLOAD SWAP3 DUP4 MSTORE DUP3 ADD MSTORE LOG3 PUSH1 0x1 DUP1 SSTORE STOP JUMPDEST PUSH2 0xD50 SWAP1 DUP5 DUP4 SLOAD AND DUP6 PUSH1 0x7 SLOAD AND SWAP1 PUSH2 0x227D JUMP JUMPDEST DUP3 DUP6 SLOAD SWAP2 SLOAD AND PUSH1 0x0 MSTORE PUSH1 0x8 DUP5 MSTORE PUSH2 0xD6C DUP7 PUSH1 0x0 KECCAK256 SWAP2 DUP3 SLOAD PUSH2 0x2135 JUMP JUMPDEST SWAP1 SSTORE DUP9 DUP1 PUSH2 0xD25 JUMP JUMPDEST PUSH1 0x40 MLOAD PUSH3 0x461BCD PUSH1 0xE5 SHL DUP2 MSTORE PUSH1 0x4 DUP2 ADD DUP5 SWAP1 MSTORE PUSH1 0x22 PUSH1 0x24 DUP3 ADD MSTORE PUSH32 0x4175746F2D72656C656173652074696D6572206E6F7420657870697265642079 PUSH1 0x44 DUP3 ADD MSTORE PUSH2 0x195D PUSH1 0xF2 SHL PUSH1 0x64 DUP3 ADD MSTORE PUSH1 0x84 SWAP1 REVERT JUMPDEST PUSH1 0x40 MLOAD PUSH3 0x461BCD PUSH1 0xE5 SHL DUP2 MSTORE PUSH1 0x4 DUP2 ADD DUP6 SWAP1 MSTORE PUSH1 0x14 PUSH1 0x24 DUP3 ADD MSTORE PUSH20 0x105D5D1BCB5C995B19585CD9481B9BDD081CD95D PUSH1 0x62 SHL PUSH1 0x44 DUP3 ADD MSTORE PUSH1 0x64 SWAP1 REVERT JUMPDEST PUSH1 0x40 MLOAD PUSH3 0x461BCD PUSH1 0xE5 SHL DUP2 MSTORE PUSH1 0x4 DUP2 ADD DUP5 SWAP1 MSTORE PUSH1 0x17 PUSH1 0x24 DUP3 ADD MSTORE PUSH32 0x46696174206E6F74206D61726B65642061732073656E74000000000000000000 PUSH1 0x44 DUP3 ADD MSTORE PUSH1 0x64 SWAP1 REVERT JUMPDEST POP PUSH1 0x3 SLOAD DUP2 GT ISZERO PUSH2 0xC60 JUMP JUMPDEST CALLVALUE PUSH2 0x33B JUMPI PUSH1 0x20 DUP1 PUSH1 0x3 NOT CALLDATASIZE ADD SLT PUSH2 0x33B JUMPI PUSH1 0x24 DUP2 PUSH1 0x1 PUSH1 0x1 PUSH1 0xA0 SHL SUB PUSH2 0xE77 PUSH2 0x1F49 JUMP JUMPDEST AND PUSH1 0x40 MLOAD SWAP3 DUP4 DUP1 SWAP3 PUSH4 0x70A08231 PUSH1 0xE0 SHL DUP3 MSTORE ADDRESS PUSH1 0x4 DUP4 ADD MSTORE GAS STATICCALL SWAP1 DUP2 ISZERO PUSH2 0xED6 JUMPI PUSH1 0x0 SWAP2 PUSH2 0xEA9 JUMPI JUMPDEST POP PUSH1 0x40 MLOAD SWAP1 DUP2 MSTORE RETURN JUMPDEST SWAP1 POP DUP2 DUP2 DUP2 RETURNDATASIZE DUP4 GT PUSH2 0xECF JUMPI JUMPDEST PUSH2 0xEC0 DUP2 DUP4 PUSH2 0x1FB6 JUMP JUMPDEST DUP2 ADD SUB SLT PUSH2 0x33B JUMPI MLOAD DUP3 PUSH2 0xEA0 JUMP JUMPDEST POP RETURNDATASIZE PUSH2 0xEB6 JUMP JUMPDEST PUSH1 0x40 MLOAD RETURNDATASIZE PUSH1 0x0 DUP3 RETURNDATACOPY RETURNDATASIZE SWAP1 REVERT JUMPDEST CALLVALUE PUSH2 0x33B JUMPI PUSH1 0x20 DUP1 PUSH1 0x3 NOT CALLDATASIZE ADD SLT PUSH2 0x33B JUMPI PUSH1 0x4 CALLDATALOAD PUSH2 0xEFF PUSH2 0x220A JUMP JUMPDEST DUP1 ISZERO ISZERO DUP1 PUSH2 0x1067 JUMPI JUMPDEST PUSH2 0xF11 SWAP1 PUSH2 0x222D JUMP JUMPDEST PUSH1 0x0 DUP2 DUP2 MSTORE PUSH1 0x4 DUP4 MSTORE PUSH1 0x40 SWAP1 KECCAK256 DUP1 SLOAD SWAP1 SWAP3 PUSH1 0x1 PUSH1 0x1 PUSH1 0xA0 SHL SUB SWAP2 DUP3 AND CALLER DUP2 EQ DUP1 ISZERO PUSH2 0x1050 JUMPI JUMPDEST DUP1 ISZERO PUSH2 0x1043 JUMPI JUMPDEST ISZERO PUSH2 0xFFE JUMPI PUSH1 0x6 DUP6 ADD DUP1 SLOAD PUSH1 0xFF DUP2 AND PUSH1 0x7 DUP2 LT ISZERO PUSH2 0x2D4 JUMPI PUSH1 0x1 DUP2 EQ SWAP1 DUP2 ISZERO PUSH2 0xFF3 JUMPI JUMPDEST POP ISZERO PUSH2 0xFAE JUMPI SWAP2 PUSH1 0x40 SWAP4 SWAP2 PUSH1 0x4 PUSH32 0x97927B87DC09CC0B1AC68BFECECC490C2797C23DD6B778D344690CDA6B0E95FC SWAP7 SWAP5 PUSH1 0xFF NOT AND OR SWAP1 SSTORE PUSH1 0x0 MSTORE PUSH1 0x9 DUP2 MSTORE DUP3 PUSH1 0x0 KECCAK256 PUSH2 0xCF3 DUP2 SLOAD PUSH2 0x2270 JUMP JUMPDEST PUSH1 0x40 MLOAD PUSH3 0x461BCD PUSH1 0xE5 SHL DUP2 MSTORE PUSH1 0x4 DUP2 ADD DUP6 SWAP1 MSTORE PUSH1 0x1D PUSH1 0x24 DUP3 ADD MSTORE PUSH32 0x5472616465206E6F7420696E2072656C65617361626C65207374617465000000 PUSH1 0x44 DUP3 ADD MSTORE PUSH1 0x64 SWAP1 REVERT JUMPDEST PUSH1 0x2 SWAP2 POP EQ DUP9 PUSH2 0xF62 JUMP JUMPDEST PUSH1 0x40 MLOAD PUSH3 0x461BCD PUSH1 0xE5 SHL DUP2 MSTORE PUSH1 0x4 DUP2 ADD DUP4 SWAP1 MSTORE PUSH1 0x19 PUSH1 0x24 DUP3 ADD MSTORE PUSH32 0x4E6F7420617574686F72697A656420746F2072656C6561736500000000000000 PUSH1 0x44 DUP3 ADD MSTORE PUSH1 0x64 SWAP1 REVERT JUMPDEST POP DUP3 PUSH1 0x0 SLOAD AND CALLER EQ PUSH2 0xF3E JUMP JUMPDEST POP CALLER PUSH1 0x0 MSTORE PUSH1 0x6 DUP3 MSTORE PUSH1 0xFF PUSH1 0x40 PUSH1 0x0 KECCAK256 SLOAD AND PUSH2 0xF37 JUMP JUMPDEST POP PUSH1 0x3 SLOAD DUP2 GT ISZERO PUSH2 0xF08 JUMP JUMPDEST CALLVALUE PUSH2 0x33B JUMPI PUSH1 0x40 CALLDATASIZE PUSH1 0x3 NOT ADD SLT PUSH2 0x33B JUMPI PUSH1 0x4 CALLDATALOAD PUSH2 0x108F PUSH2 0x20CB JUMP JUMPDEST SWAP1 PUSH2 0x1098 PUSH2 0x220A JUMP JUMPDEST DUP1 ISZERO ISZERO DUP1 PUSH2 0x12E8 JUMPI JUMPDEST PUSH2 0x10AA SWAP1 PUSH2 0x222D JUMP JUMPDEST CALLER PUSH1 0x0 MSTORE PUSH1 0x20 PUSH1 0x6 DUP2 MSTORE PUSH1 0xFF PUSH1 0x40 PUSH1 0x0 KECCAK256 SLOAD AND DUP1 ISZERO PUSH2 0x12D4 JUMPI JUMPDEST ISZERO PUSH2 0x1290 JUMPI DUP2 PUSH1 0x0 MSTORE PUSH1 0x4 DUP2 MSTORE PUSH1 0x40 PUSH1 0x0 KECCAK256 PUSH1 0x6 DUP2 ADD PUSH1 0xFF DUP2 SLOAD AND PUSH1 0x7 DUP2 LT ISZERO PUSH2 0x2D4 JUMPI PUSH1 0x3 SUB PUSH2 0x1256 JUMPI SWAP1 DUP4 PUSH32 0x8FDD4548A8481406B6E29C0D6F25E27CD72502F79F4ADF409468502E7920DABC SWAP4 SWAP3 PUSH1 0x1 DUP1 PUSH1 0xA0 SHL SUB DUP1 DUP5 SLOAD AND PUSH1 0x0 MSTORE PUSH1 0x9 DUP6 MSTORE PUSH1 0x40 PUSH1 0x0 KECCAK256 PUSH2 0x1135 DUP2 SLOAD PUSH2 0x2270 JUMP JUMPDEST SWAP1 SSTORE DUP5 DUP9 ISZERO PUSH2 0x11FB JUMPI POP PUSH1 0x40 SWAP1 PUSH32 0x97927B87DC09CC0B1AC68BFECECC490C2797C23DD6B778D344690CDA6B0E95FC SWAP3 PUSH1 0x4 PUSH1 0xFF NOT DUP3 SLOAD AND OR SWAP1 SSTORE PUSH1 0x2 DUP6 ADD SWAP1 DUP1 DUP3 SLOAD AND SWAP6 PUSH1 0x4 PUSH1 0x1 DUP3 ADD SWAP2 PUSH2 0x1195 DUP5 DUP5 SLOAD AND SWAP10 PUSH1 0x5 DUP4 ADD SWAP11 DUP12 SLOAD SWAP2 PUSH2 0x227D JUMP JUMPDEST ADD SWAP3 DUP4 SLOAD DUP1 PUSH2 0x11C3 JUMPI JUMPDEST POP POP SLOAD AND SWAP5 SLOAD SWAP1 SLOAD DUP3 MLOAD SWAP2 DUP3 MSTORE DUP7 DUP3 ADD MSTORE LOG3 JUMPDEST PUSH1 0x40 MLOAD SWAP4 ISZERO ISZERO DUP5 MSTORE CALLER SWAP4 LOG3 PUSH1 0x1 DUP1 SSTORE STOP JUMPDEST PUSH2 0x11D6 SWAP1 DUP5 DUP4 SLOAD AND DUP6 PUSH1 0x7 SLOAD AND SWAP1 PUSH2 0x227D JUMP JUMPDEST DUP3 DUP5 SLOAD SWAP2 SLOAD AND PUSH1 0x0 MSTORE PUSH1 0x8 DUP10 MSTORE PUSH2 0x11F2 DUP6 PUSH1 0x0 KECCAK256 SWAP2 DUP3 SLOAD PUSH2 0x2135 JUMP JUMPDEST SWAP1 SSTORE DUP12 DUP1 PUSH2 0x119F JUMP JUMPDEST SWAP1 PUSH32 0x598CF7B1037A2CBB27645D4EF91A50AB4B13DB45CC85EBD8EDEEA26233EA9288 SWAP3 PUSH1 0x5 PUSH1 0xFF NOT DUP3 SLOAD AND OR SWAP1 SSTORE DUP1 PUSH1 0x2 DUP7 ADD SLOAD AND SWAP5 PUSH2 0x1246 DUP3 DUP3 SLOAD AND SWAP7 PUSH1 0x3 DUP4 ADD SWAP8 DUP9 SLOAD SWAP2 PUSH2 0x227D JUMP JUMPDEST SLOAD AND SWAP4 SLOAD PUSH1 0x40 MLOAD SWAP1 DUP2 MSTORE LOG3 PUSH2 0x11B2 JUMP JUMPDEST PUSH1 0x40 MLOAD PUSH3 0x461BCD PUSH1 0xE5 SHL DUP2 MSTORE PUSH1 0x4 DUP2 ADD DUP5 SWAP1 MSTORE PUSH1 0x12 PUSH1 0x24 DUP3 ADD MSTORE PUSH18 0x151C985919481B9BDD08191A5CDC1D5D1959 PUSH1 0x72 SHL PUSH1 0x44 DUP3 ADD MSTORE PUSH1 0x64 SWAP1 REVERT JUMPDEST PUSH1 0x64 SWAP1 PUSH1 0x40 MLOAD SWAP1 PUSH3 0x461BCD PUSH1 0xE5 SHL DUP3 MSTORE PUSH1 0x4 DUP3 ADD MSTORE PUSH1 0x1E PUSH1 0x24 DUP3 ADD MSTORE PUSH32 0x4F6E6C792061646D696E2F72656C617965722063616E207265736F6C76650000 PUSH1 0x44 DUP3 ADD MSTORE REVERT JUMPDEST POP PUSH1 0x0 SLOAD PUSH1 0x1 PUSH1 0x1 PUSH1 0xA0 SHL SUB AND CALLER EQ PUSH2 0x10C4 JUMP JUMPDEST POP PUSH1 0x3 SLOAD DUP2 GT ISZERO PUSH2 0x10A1 JUMP JUMPDEST CALLVALUE PUSH2 0x33B JUMPI PUSH1 0x0 CALLDATASIZE PUSH1 0x3 NOT ADD SLT PUSH2 0x33B JUMPI PUSH1 0x20 PUSH1 0xA SLOAD PUSH1 0x40 MLOAD SWAP1 DUP2 MSTORE RETURN JUMPDEST CALLVALUE PUSH2 0x33B JUMPI PUSH1 0x0 CALLDATASIZE PUSH1 0x3 NOT ADD SLT PUSH2 0x33B JUMPI PUSH1 0x20 PUSH1 0x40 MLOAD PUSH3 0xF4240 DUP2 MSTORE RETURN JUMPDEST CALLVALUE PUSH2 0x33B JUMPI PUSH1 0x20 CALLDATASIZE PUSH1 0x3 NOT ADD SLT PUSH2 0x33B JUMPI PUSH1 0x60 PUSH2 0x180 PUSH1 0x40 MLOAD PUSH2 0x1352 DUP2 PUSH2 0x1F99 JUMP JUMPDEST PUSH1 0x0 DUP2 MSTORE PUSH1 0x0 PUSH1 0x20 DUP3 ADD MSTORE PUSH1 0x0 PUSH1 0x40 DUP3 ADD MSTORE PUSH1 0x0 DUP4 DUP3 ADD MSTORE PUSH1 0x0 PUSH1 0x80 DUP3 ADD MSTORE PUSH1 0x0 PUSH1 0xA0 DUP3 ADD MSTORE PUSH1 0x0 PUSH1 0xC0 DUP3 ADD MSTORE PUSH1 0x0 PUSH1 0xE0 DUP3 ADD MSTORE PUSH1 0x0 PUSH2 0x100 DUP3 ADD MSTORE PUSH1 0x0 PUSH2 0x120 DUP3 ADD MSTORE PUSH1 0x0 PUSH2 0x140 DUP3 ADD MSTORE PUSH1 0x0 PUSH2 0x160 DUP3 ADD MSTORE ADD MSTORE PUSH1 0x4 CALLDATALOAD PUSH1 0x0 MSTORE PUSH1 0x4 PUSH1 0x20 MSTORE PUSH1 0x40 PUSH1 0x0 KECCAK256 PUSH1 0x40 MLOAD PUSH2 0x13C4 DUP2 PUSH2 0x1F99 JUMP JUMPDEST DUP2 SLOAD PUSH1 0x1 PUSH1 0x1 PUSH1 0xA0 SHL SUB SWAP1 DUP2 AND DUP3 MSTORE PUSH1 0x1 DUP4 ADD SLOAD DUP2 AND PUSH1 0x20 DUP4 ADD MSTORE PUSH1 0x2 DUP4 ADD SLOAD AND PUSH1 0x40 DUP3 ADD MSTORE PUSH1 0x3 DUP3 ADD SLOAD PUSH1 0x60 DUP3 ADD MSTORE PUSH1 0x4 DUP3 ADD SLOAD PUSH1 0x80 DUP3 ADD MSTORE PUSH1 0x5 DUP3 ADD SLOAD PUSH1 0xA0 DUP3 ADD MSTORE PUSH1 0x6 DUP3 ADD SLOAD PUSH1 0xFF AND SWAP2 PUSH1 0x7 DUP4 LT ISZERO PUSH2 0x2D4 JUMPI PUSH1 0xC0 DUP3 ADD SWAP3 SWAP1 SWAP3 MSTORE PUSH1 0x7 DUP3 ADD SLOAD PUSH1 0xE0 DUP3 ADD MSTORE PUSH1 0x8 DUP3 ADD SLOAD PUSH2 0x100 DUP3 ADD MSTORE PUSH1 0x9 DUP3 ADD SLOAD PUSH2 0x120 DUP3 ADD MSTORE PUSH1 0xA DUP3 ADD SLOAD PUSH2 0x140 DUP3 ADD MSTORE PUSH1 0xB DUP3 ADD SLOAD PUSH1 0x1 PUSH1 0x1 PUSH1 0xA0 SHL SUB AND PUSH2 0x160 DUP3 ADD MSTORE PUSH2 0x180 SWAP2 PUSH2 0x1471 SWAP1 PUSH1 0xC ADD PUSH2 0x1FD8 JUMP JUMPDEST DUP3 DUP3 ADD MSTORE PUSH2 0x153A PUSH1 0x40 MLOAD SWAP3 DUP4 SWAP3 PUSH1 0x20 DUP5 MSTORE PUSH1 0x1 DUP1 PUSH1 0xA0 SHL SUB DUP2 MLOAD AND PUSH1 0x20 DUP6 ADD MSTORE PUSH1 0x1 DUP1 PUSH1 0xA0 SHL SUB PUSH1 0x20 DUP3 ADD MLOAD AND PUSH1 0x40 DUP6 ADD MSTORE PUSH1 0x1 DUP1 PUSH1 0xA0 SHL SUB PUSH1 0x40 DUP3 ADD MLOAD AND PUSH1 0x60 DUP6 ADD MSTORE PUSH1 0x60 DUP2 ADD MLOAD PUSH1 0x80 DUP6 ADD MSTORE PUSH1 0x80 DUP2 ADD MLOAD PUSH1 0xA0 DUP6 ADD MSTORE PUSH1 0xA0 DUP2 ADD MLOAD PUSH1 0xC0 DUP6 ADD MSTORE PUSH2 0x14E5 PUSH1 0xC0 DUP3 ADD MLOAD PUSH1 0xE0 DUP7 ADD SWAP1 PUSH2 0x207E JUMP JUMPDEST PUSH1 0xE0 DUP2 ADD MLOAD PUSH2 0x100 DUP6 ADD MSTORE PUSH2 0x100 DUP2 ADD MLOAD PUSH2 0x120 DUP6 ADD MSTORE PUSH2 0x120 DUP2 ADD MLOAD PUSH2 0x140 DUP6 ADD MSTORE PUSH2 0x140 DUP2 ADD MLOAD PUSH2 0x160 DUP6 ADD MSTORE PUSH1 0x1 DUP1 PUSH1 0xA0 SHL SUB PUSH2 0x160 DUP3 ADD MLOAD AND DUP3 DUP6 ADD MSTORE ADD MLOAD PUSH2 0x1A0 DUP1 DUP5 ADD MSTORE PUSH2 0x1C0 DUP4 ADD SWAP1 PUSH2 0x208B JUMP JUMPDEST SUB SWAP1 RETURN JUMPDEST CALLVALUE PUSH2 0x33B JUMPI PUSH1 0x20 DUP1 PUSH1 0x3 NOT CALLDATASIZE ADD SLT PUSH2 0x33B JUMPI PUSH1 0x4 CALLDATALOAD PUSH2 0x155B PUSH2 0x220A JUMP JUMPDEST DUP1 ISZERO ISZERO DUP1 PUSH2 0x1853 JUMPI JUMPDEST PUSH2 0x156D SWAP1 PUSH2 0x222D JUMP JUMPDEST DUP1 PUSH1 0x0 MSTORE PUSH1 0x4 DUP3 MSTORE PUSH1 0x40 PUSH1 0x0 KECCAK256 SWAP2 PUSH1 0x8 DUP4 ADD SLOAD TIMESTAMP GT SWAP1 PUSH1 0x1 DUP1 PUSH1 0xA0 SHL SUB DUP1 DUP6 SLOAD AND CALLER EQ SWAP3 CALLER PUSH1 0x0 MSTORE PUSH1 0x6 SWAP4 DUP5 DUP5 MSTORE PUSH1 0xFF PUSH1 0x40 PUSH1 0x0 KECCAK256 SLOAD AND DUP1 ISZERO PUSH2 0x1846 JUMPI JUMPDEST DUP3 ISZERO PUSH2 0x170A JUMPI POP PUSH1 0xFF DUP6 DUP9 ADD SLOAD AND PUSH1 0x7 DUP2 LT ISZERO PUSH2 0x2D4 JUMPI PUSH1 0x1 SUB PUSH2 0x169F JUMPI JUMPDEST DUP2 ISZERO PUSH2 0x1658 JUMPI JUMPDEST POP PUSH32 0x598CF7B1037A2CBB27645D4EF91A50AB4B13DB45CC85EBD8EDEEA26233EA9288 SWAP4 PUSH2 0x1606 SWAP2 ISZERO PUSH2 0x1650 JUMPI DUP1 JUMPDEST DUP8 ADD PUSH2 0x2142 JUMP JUMPDEST DUP1 DUP6 SLOAD AND PUSH1 0x0 MSTORE PUSH1 0x9 DUP3 MSTORE PUSH1 0x40 PUSH1 0x0 KECCAK256 PUSH2 0x1620 DUP2 SLOAD PUSH2 0x2270 JUMP JUMPDEST SWAP1 SSTORE DUP1 PUSH1 0x2 DUP7 ADD SLOAD AND SWAP5 PUSH2 0x163F DUP3 DUP3 SLOAD AND SWAP7 PUSH1 0x3 DUP4 ADD SWAP8 DUP9 SLOAD SWAP2 PUSH2 0x227D JUMP JUMPDEST SLOAD AND SWAP4 SLOAD PUSH1 0x40 MLOAD SWAP1 DUP2 MSTORE LOG3 PUSH1 0x1 DUP1 SSTORE STOP JUMPDEST PUSH1 0x5 SWAP1 PUSH2 0x15FF JUMP JUMPDEST SWAP1 POP DUP1 PUSH2 0x1686 JUMPI JUMPDEST PUSH32 0x598CF7B1037A2CBB27645D4EF91A50AB4B13DB45CC85EBD8EDEEA26233EA9288 PUSH2 0x15D1 JUMP JUMPDEST POP PUSH1 0xFF DUP4 DUP7 ADD SLOAD AND PUSH1 0x7 DUP2 LT ISZERO PUSH2 0x2D4 JUMPI PUSH1 0x1 EQ PUSH2 0x1660 JUMP JUMPDEST PUSH1 0x40 MLOAD PUSH3 0x461BCD PUSH1 0xE5 SHL DUP2 MSTORE PUSH1 0x4 DUP2 ADD DUP6 SWAP1 MSTORE PUSH1 0x38 PUSH1 0x24 DUP3 ADD MSTORE PUSH32 0x4669617420616C72656164792073656E74202D20757365206175746F52656C65 PUSH1 0x44 DUP3 ADD MSTORE PUSH32 0x61736520666F722062757965722070726F74656374696F6E0000000000000000 PUSH1 0x64 DUP3 ADD MSTORE PUSH1 0x84 SWAP1 REVERT JUMPDEST DUP2 ISZERO PUSH2 0x176D JUMPI POP PUSH1 0xFF DUP6 DUP9 ADD SLOAD AND PUSH1 0x7 DUP2 LT ISZERO PUSH2 0x2D4 JUMPI PUSH1 0x1 EQ PUSH2 0x15CA JUMPI PUSH1 0x40 MLOAD PUSH3 0x461BCD PUSH1 0xE5 SHL DUP2 MSTORE PUSH1 0x4 DUP2 ADD DUP6 SWAP1 MSTORE PUSH1 0x1D PUSH1 0x24 DUP3 ADD MSTORE PUSH32 0x43616E6E6F742063616E63656C20616674657220666961742073656E74000000 PUSH1 0x44 DUP3 ADD MSTORE PUSH1 0x64 SWAP1 REVERT JUMPDEST ISZERO PUSH2 0x1801 JUMPI PUSH1 0xFF DUP6 DUP9 ADD SLOAD AND PUSH1 0x7 DUP2 LT ISZERO SWAP1 DUP2 PUSH2 0x2D4 JUMPI PUSH1 0x1 DUP2 EQ SWAP2 DUP3 ISZERO PUSH2 0x17F3 JUMPI JUMPDEST DUP3 ISZERO PUSH2 0x17E2 JUMPI JUMPDEST POP POP PUSH2 0x15CA JUMPI PUSH1 0x40 MLOAD PUSH3 0x461BCD PUSH1 0xE5 SHL DUP2 MSTORE PUSH1 0x4 DUP2 ADD DUP6 SWAP1 MSTORE PUSH1 0x1D PUSH1 0x24 DUP3 ADD MSTORE PUSH32 0x5472616465206E6F7420696E20726566756E6461626C65207374617465000000 PUSH1 0x44 DUP3 ADD MSTORE PUSH1 0x64 SWAP1 REVERT JUMPDEST SWAP1 SWAP2 POP PUSH2 0x2D4 JUMPI PUSH1 0x3 EQ DUP9 DUP1 PUSH2 0x1797 JUMP JUMPDEST POP PUSH1 0x2 DUP2 EQ SWAP2 POP PUSH1 0x0 PUSH2 0x1790 JUMP JUMPDEST PUSH1 0x40 MLOAD PUSH3 0x461BCD PUSH1 0xE5 SHL DUP2 MSTORE PUSH1 0x4 DUP2 ADD DUP6 SWAP1 MSTORE PUSH1 0x18 PUSH1 0x24 DUP3 ADD MSTORE PUSH32 0x4E6F7420617574686F72697A656420746F20726566756E640000000000000000 PUSH1 0x44 DUP3 ADD MSTORE PUSH1 0x64 SWAP1 REVERT JUMPDEST POP DUP3 PUSH1 0x0 SLOAD AND CALLER EQ PUSH2 0x15AB JUMP JUMPDEST POP PUSH1 0x3 SLOAD DUP2 GT ISZERO PUSH2 0x1564 JUMP JUMPDEST CALLVALUE PUSH2 0x33B JUMPI PUSH1 0x0 CALLDATASIZE PUSH1 0x3 NOT ADD SLT PUSH2 0x33B JUMPI PUSH1 0x20 PUSH1 0x2 SLOAD PUSH1 0x40 MLOAD SWAP1 DUP2 MSTORE RETURN JUMPDEST CALLVALUE PUSH2 0x33B JUMPI PUSH1 0x20 CALLDATASIZE PUSH1 0x3 NOT ADD SLT PUSH2 0x33B JUMPI PUSH1 0x4 CALLDATALOAD PUSH1 0x0 MSTORE PUSH1 0x4 PUSH1 0x20 MSTORE PUSH1 0x40 PUSH1 0x0 KECCAK256 PUSH1 0x1 PUSH1 0xA0 SHL PUSH1 0x1 SWAP1 SUB DUP1 DUP3 SLOAD AND SWAP1 DUP1 PUSH1 0x1 DUP5 ADD SLOAD AND SWAP3 DUP2 PUSH1 0x2 DUP3 ADD SLOAD AND SWAP2 PUSH1 0x3 DUP3 ADD SLOAD PUSH1 0x4 DUP4 ADD SLOAD PUSH1 0x5 DUP5 ADD SLOAD PUSH1 0x6 DUP6 ADD SLOAD PUSH1 0xFF AND PUSH1 0x7 DUP7 ADD SLOAD SWAP2 PUSH1 0x8 DUP8 ADD SLOAD SWAP4 PUSH1 0x9 DUP9 ADD SLOAD SWAP6 PUSH1 0xA DUP10 ADD SLOAD SWAP8 PUSH1 0xB DUP11 ADD SLOAD AND SWAP9 PUSH1 0xC ADD PUSH2 0x18FE SWAP1 PUSH2 0x1FD8 JUMP JUMPDEST SWAP10 PUSH1 0x40 MLOAD SWAP13 DUP14 SWAP13 DUP14 MSTORE PUSH1 0x20 DUP14 ADD MSTORE PUSH1 0x40 DUP13 ADD MSTORE PUSH1 0x60 DUP12 ADD MSTORE PUSH1 0x80 DUP11 ADD MSTORE PUSH1 0xA0 DUP10 ADD MSTORE PUSH1 0xC0 DUP9 ADD PUSH2 0x192D SWAP2 PUSH2 0x207E JUMP JUMPDEST PUSH1 0xE0 DUP8 ADD MSTORE PUSH2 0x100 DUP7 ADD MSTORE PUSH2 0x120 DUP6 ADD MSTORE PUSH2 0x140 DUP5 ADD MSTORE PUSH2 0x160 DUP4 ADD MSTORE PUSH2 0x1A0 DUP1 PUSH2 0x180 DUP5 ADD MSTORE DUP3 ADD PUSH2 0x153A SWAP2 PUSH2 0x208B JUMP JUMPDEST CALLVALUE PUSH2 0x33B JUMPI PUSH1 0x80 CALLDATASIZE PUSH1 0x3 NOT ADD SLT PUSH2 0x33B JUMPI PUSH2 0x1978 PUSH2 0x1F49 JUMP JUMPDEST PUSH1 0x24 CALLDATALOAD SWAP1 PUSH1 0x1 PUSH1 0x1 PUSH1 0xA0 SHL SUB DUP3 AND DUP3 SUB PUSH2 0x33B JUMPI PUSH1 0x64 CALLDATALOAD SWAP2 PUSH2 0x1998 PUSH2 0x220A JUMP JUMPDEST DUP3 PUSH1 0x1 PUSH1 0x1 PUSH1 0xA0 SHL SUB DUP4 AND ISZERO PUSH2 0x1EF0 JUMPI PUSH1 0x1 PUSH1 0x1 PUSH1 0xA0 SHL SUB DUP4 AND CALLER EQ PUSH2 0x1EAB JUMPI PUSH1 0x1 PUSH1 0x1 PUSH1 0xA0 SHL SUB DUP3 AND PUSH1 0x0 SWAP1 DUP2 MSTORE PUSH1 0x5 PUSH1 0x20 MSTORE PUSH1 0x40 SWAP1 KECCAK256 SLOAD PUSH1 0xFF AND ISZERO PUSH2 0x1E71 JUMPI PUSH3 0xF4240 PUSH1 0x44 CALLDATALOAD LT PUSH2 0x1E2C JUMPI CALLER PUSH1 0x0 MSTORE PUSH1 0x9 PUSH1 0x20 MSTORE PUSH1 0x40 PUSH1 0x0 KECCAK256 SLOAD PUSH1 0xA SLOAD GT ISZERO PUSH2 0x1DEE JUMPI ISZERO PUSH2 0x1DE4 JUMPI JUMPDEST PUSH3 0x15180 DUP4 GT PUSH2 0x1D9F JUMPI PUSH2 0x2710 PUSH2 0x1A1E PUSH1 0x2 SLOAD PUSH1 0x44 CALLDATALOAD PUSH2 0x2106 JUMP JUMPDEST DIV SWAP2 PUSH2 0x1A2C DUP4 PUSH1 0x44 CALLDATALOAD PUSH2 0x2119 JUMP JUMPDEST SWAP3 PUSH2 0x1A38 PUSH1 0x3 SLOAD PUSH2 0x2126 JUMP JUMPDEST SWAP4 DUP5 PUSH1 0x3 SSTORE PUSH2 0x1A47 DUP7 TIMESTAMP PUSH2 0x2135 JUMP JUMPDEST PUSH1 0x40 MLOAD SWAP2 PUSH2 0x1A54 DUP4 PUSH2 0x1F99 JUMP JUMPDEST CALLER DUP4 MSTORE PUSH1 0x1 DUP1 PUSH1 0xA0 SHL SUB DUP6 AND PUSH1 0x20 DUP5 ADD MSTORE PUSH1 0x1 DUP1 PUSH1 0xA0 SHL SUB DUP7 AND PUSH1 0x40 DUP5 ADD MSTORE PUSH1 0x44 CALLDATALOAD PUSH1 0x60 DUP5 ADD MSTORE DUP4 PUSH1 0x80 DUP5 ADD MSTORE PUSH1 0xA0 DUP4 ADD MSTORE PUSH1 0x1 PUSH1 0xC0 DUP4 ADD MSTORE TIMESTAMP PUSH1 0xE0 DUP4 ADD MSTORE PUSH2 0x100 DUP3 ADD MSTORE PUSH1 0x0 PUSH2 0x120 DUP3 ADD MSTORE PUSH1 0x0 PUSH2 0x140 DUP3 ADD MSTORE PUSH1 0x0 PUSH2 0x160 DUP3 ADD MSTORE PUSH1 0x40 MLOAD DUP1 PUSH1 0x20 DUP2 ADD LT PUSH8 0xFFFFFFFFFFFFFFFF PUSH1 0x20 DUP4 ADD GT OR PUSH2 0x1D0E JUMPI PUSH1 0x20 DUP2 ADD PUSH1 0x40 MSTORE PUSH1 0x0 DUP2 MSTORE PUSH2 0x180 DUP3 ADD MSTORE DUP5 PUSH1 0x0 MSTORE PUSH1 0x4 PUSH1 0x20 MSTORE PUSH1 0x40 PUSH1 0x0 KECCAK256 SWAP1 PUSH1 0x1 DUP1 PUSH1 0xA0 SHL SUB DUP2 MLOAD AND PUSH1 0x1 PUSH1 0x1 PUSH1 0x60 SHL SUB PUSH1 0xA0 SHL DUP4 SLOAD AND OR DUP3 SSTORE PUSH1 0x1 DUP3 ADD PUSH1 0x1 DUP1 PUSH1 0xA0 SHL SUB PUSH1 0x20 DUP4 ADD MLOAD AND PUSH1 0x1 PUSH1 0x1 PUSH1 0x60 SHL SUB PUSH1 0xA0 SHL DUP3 SLOAD AND OR SWAP1 SSTORE PUSH1 0x2 DUP3 ADD PUSH1 0x1 DUP1 PUSH1 0xA0 SHL SUB PUSH1 0x40 DUP4 ADD MLOAD AND PUSH1 0x1 PUSH1 0x1 PUSH1 0x60 SHL SUB PUSH1 0xA0 SHL DUP3 SLOAD AND OR SWAP1 SSTORE PUSH1 0x60 DUP2 ADD MLOAD PUSH1 0x3 DUP4 ADD SSTORE PUSH1 0x80 DUP2 ADD MLOAD PUSH1 0x4 DUP4 ADD SSTORE PUSH1 0xA0 DUP2 ADD MLOAD PUSH1 0x5 DUP4 ADD SSTORE PUSH1 0xC0 DUP2 ADD MLOAD SWAP1 PUSH1 0x7 DUP3 LT ISZERO PUSH2 0x2D4 JUMPI PUSH2 0x1B89 PUSH2 0x180 SWAP3 PUSH1 0x6 DUP6 ADD PUSH2 0x2142 JUMP JUMPDEST PUSH1 0xE0 DUP2 ADD MLOAD PUSH1 0x7 DUP5 ADD SSTORE PUSH2 0x100 DUP2 ADD MLOAD PUSH1 0x8 DUP5 ADD SSTORE PUSH2 0x120 DUP2 ADD MLOAD PUSH1 0x9 DUP5 ADD SSTORE PUSH2 0x140 DUP2 ADD MLOAD PUSH1 0xA DUP5 ADD SSTORE PUSH1 0xB DUP4 ADD PUSH1 0x1 DUP1 PUSH1 0xA0 SHL SUB PUSH2 0x160 DUP4 ADD MLOAD AND PUSH1 0x1 PUSH1 0x1 PUSH1 0x60 SHL SUB PUSH1 0xA0 SHL DUP3 SLOAD AND OR SWAP1 SSTORE ADD MLOAD DUP1 MLOAD SWAP1 PUSH8 0xFFFFFFFFFFFFFFFF DUP3 GT PUSH2 0x1D0E JUMPI PUSH2 0x1C05 DUP3 PUSH2 0x1BFC PUSH1 0xC DUP7 ADD SLOAD PUSH2 0x1F5F JUMP JUMPDEST PUSH1 0xC DUP7 ADD PUSH2 0x215A JUMP JUMPDEST PUSH1 0x20 SWAP1 PUSH1 0x1F DUP4 GT PUSH1 0x1 EQ PUSH2 0x1D2F JUMPI PUSH1 0xC SWAP3 SWAP2 PUSH1 0x0 SWAP2 DUP4 PUSH2 0x1D24 JUMPI JUMPDEST POP POP DUP2 PUSH1 0x1 SHL SWAP2 PUSH1 0x0 NOT SWAP1 PUSH1 0x3 SHL SHR NOT AND OR SWAP2 ADD SSTORE JUMPDEST CALLER PUSH1 0x0 MSTORE PUSH1 0x9 PUSH1 0x20 MSTORE PUSH1 0x40 PUSH1 0x0 KECCAK256 PUSH2 0x1C4E DUP2 SLOAD PUSH2 0x2126 JUMP JUMPDEST SWAP1 SSTORE PUSH1 0x40 MLOAD PUSH4 0x23B872DD PUSH1 0xE0 SHL PUSH1 0x20 DUP3 ADD MSTORE CALLER PUSH1 0x24 DUP3 ADD MSTORE ADDRESS PUSH1 0x44 DUP3 ADD MSTORE PUSH1 0x44 CALLDATALOAD PUSH1 0x64 DUP3 ADD MSTORE PUSH1 0x64 DUP2 MSTORE PUSH1 0xA0 DUP2 ADD SWAP6 DUP2 DUP8 LT PUSH8 0xFFFFFFFFFFFFFFFF DUP9 GT OR PUSH2 0x1D0E JUMPI PUSH2 0x1CAB PUSH2 0x1CB1 SWAP3 PUSH1 0x20 SWAP9 PUSH1 0x40 MSTORE PUSH1 0x1 DUP1 PUSH1 0xA0 SHL SUB DUP8 AND PUSH2 0x21AE JUMP JUMPDEST TIMESTAMP PUSH2 0x2135 JUMP JUMPDEST PUSH1 0x40 DUP1 MLOAD PUSH1 0x1 PUSH1 0x1 PUSH1 0xA0 SHL SUB SWAP6 DUP7 AND DUP2 MSTORE PUSH1 0x44 CALLDATALOAD DUP9 DUP3 ADD MSTORE SWAP1 DUP2 ADD SWAP3 SWAP1 SWAP3 MSTORE PUSH1 0x60 DUP3 ADD MSTORE SWAP2 AND SWAP1 CALLER SWAP1 DUP4 SWAP1 PUSH32 0x5F41FB7CBDAD789C17F3E3FFEF0A920523917D85E5B27591E00EB1517A06C6E9 SWAP1 PUSH1 0x80 SWAP1 LOG4 PUSH1 0x1 DUP1 SSTORE PUSH1 0x40 MLOAD SWAP1 DUP2 MSTORE RETURN JUMPDEST PUSH4 0x4E487B71 PUSH1 0xE0 SHL PUSH1 0x0 MSTORE PUSH1 0x41 PUSH1 0x4 MSTORE PUSH1 0x24 PUSH1 0x0 REVERT JUMPDEST ADD MLOAD SWAP1 POP DUP10 DUP1 PUSH2 0x1C20 JUMP JUMPDEST SWAP1 PUSH1 0xC DUP5 ADD PUSH1 0x0 MSTORE PUSH1 0x20 PUSH1 0x0 KECCAK256 SWAP2 PUSH1 0x0 JUMPDEST PUSH1 0x1F NOT DUP6 AND DUP2 LT PUSH2 0x1D87 JUMPI POP SWAP2 DUP4 SWAP2 PUSH1 0x1 SWAP4 PUSH1 0xC SWAP6 PUSH1 0x1F NOT DUP2 AND LT PUSH2 0x1D6E JUMPI JUMPDEST POP POP POP DUP2 SHL ADD SWAP2 ADD SSTORE PUSH2 0x1C36 JUMP JUMPDEST ADD MLOAD PUSH1 0x0 NOT PUSH1 0xF8 DUP5 PUSH1 0x3 SHL AND SHR NOT AND SWAP1 SSTORE DUP10 DUP1 DUP1 PUSH2 0x1D60 JUMP JUMPDEST SWAP2 SWAP3 PUSH1 0x20 PUSH1 0x1 DUP2 SWAP3 DUP7 DUP6 ADD MLOAD DUP2 SSTORE ADD SWAP5 ADD SWAP3 ADD PUSH2 0x1D40 JUMP JUMPDEST PUSH1 0x40 MLOAD PUSH3 0x461BCD PUSH1 0xE5 SHL DUP2 MSTORE PUSH1 0x20 PUSH1 0x4 DUP3 ADD MSTORE PUSH1 0x1B PUSH1 0x24 DUP3 ADD MSTORE PUSH32 0x4475726174696F6E20746F6F206C6F6E6720286D617820323468290000000000 PUSH1 0x44 DUP3 ADD MSTORE PUSH1 0x64 SWAP1 REVERT JUMPDEST PUSH2 0xE10 SWAP3 POP PUSH2 0x1A03 JUMP JUMPDEST PUSH1 0x40 MLOAD PUSH3 0x461BCD PUSH1 0xE5 SHL DUP2 MSTORE PUSH1 0x20 PUSH1 0x4 DUP3 ADD MSTORE PUSH1 0x16 PUSH1 0x24 DUP3 ADD MSTORE PUSH22 0x546F6F206D616E792061637469766520747261646573 PUSH1 0x50 SHL PUSH1 0x44 DUP3 ADD MSTORE PUSH1 0x64 SWAP1 REVERT JUMPDEST PUSH1 0x40 MLOAD PUSH3 0x461BCD PUSH1 0xE5 SHL DUP2 MSTORE PUSH1 0x20 PUSH1 0x4 DUP3 ADD MSTORE PUSH1 0x1D PUSH1 0x24 DUP3 ADD MSTORE PUSH32 0x416D6F756E7420746F6F20736D616C6C20286D696E2031205553444329000000 PUSH1 0x44 DUP3 ADD MSTORE PUSH1 0x64 SWAP1 REVERT JUMPDEST PUSH1 0x40 MLOAD PUSH3 0x461BCD PUSH1 0xE5 SHL DUP2 MSTORE PUSH1 0x20 PUSH1 0x4 DUP3 ADD MSTORE PUSH1 0x12 PUSH1 0x24 DUP3 ADD MSTORE PUSH18 0x151BDAD95B881B9BDD08185C1C1C9BDD9959 PUSH1 0x72 SHL PUSH1 0x44 DUP3 ADD MSTORE PUSH1 0x64 SWAP1 REVERT JUMPDEST PUSH1 0x40 MLOAD PUSH3 0x461BCD PUSH1 0xE5 SHL DUP2 MSTORE PUSH1 0x20 PUSH1 0x4 DUP3 ADD MSTORE PUSH1 0x1A PUSH1 0x24 DUP3 ADD MSTORE PUSH32 0x43616E6E6F74207472616465207769746820796F757273656C66000000000000 PUSH1 0x44 DUP3 ADD MSTORE PUSH1 0x64 SWAP1 REVERT JUMPDEST PUSH1 0x40 MLOAD PUSH3 0x461BCD PUSH1 0xE5 SHL DUP2 MSTORE PUSH1 0x20 PUSH1 0x4 DUP3 ADD MSTORE PUSH1 0x15 PUSH1 0x24 DUP3 ADD MSTORE PUSH21 0x496E76616C69642062757965722061646472657373 PUSH1 0x58 SHL PUSH1 0x44 DUP3 ADD MSTORE PUSH1 0x64 SWAP1 REVERT JUMPDEST CALLVALUE PUSH2 0x33B JUMPI PUSH1 0x0 CALLDATASIZE PUSH1 0x3 NOT ADD SLT PUSH2 0x33B JUMPI DUP1 PUSH3 0x15180 PUSH1 0x20 SWAP3 MSTORE RETURN JUMPDEST PUSH1 0x4 CALLDATALOAD SWAP1 PUSH1 0x1 PUSH1 0x1 PUSH1 0xA0 SHL SUB DUP3 AND DUP3 SUB PUSH2 0x33B JUMPI JUMP JUMPDEST SWAP1 PUSH1 0x1 DUP3 DUP2 SHR SWAP3 AND DUP1 ISZERO PUSH2 0x1F8F JUMPI JUMPDEST PUSH1 0x20 DUP4 LT EQ PUSH2 0x1F79 JUMPI JUMP JUMPDEST PUSH4 0x4E487B71 PUSH1 0xE0 SHL PUSH1 0x0 MSTORE PUSH1 0x22 PUSH1 0x4 MSTORE PUSH1 0x24 PUSH1 0x0 REVERT JUMPDEST SWAP2 PUSH1 0x7F AND SWAP2 PUSH2 0x1F6E JUMP JUMPDEST PUSH2 0x1A0 DUP2 ADD SWAP1 DUP2 LT PUSH8 0xFFFFFFFFFFFFFFFF DUP3 GT OR PUSH2 0x1D0E JUMPI PUSH1 0x40 MSTORE JUMP JUMPDEST SWAP1 PUSH1 0x1F DUP1 NOT SWAP2 ADD AND DUP2 ADD SWAP1 DUP2 LT PUSH8 0xFFFFFFFFFFFFFFFF DUP3 GT OR PUSH2 0x1D0E JUMPI PUSH1 0x40 MSTORE JUMP JUMPDEST SWAP1 PUSH1 0x40 MLOAD SWAP2 DUP3 PUSH1 0x0 DUP3 SLOAD SWAP3 PUSH2 0x1FEC DUP5 PUSH2 0x1F5F JUMP JUMPDEST SWAP1 DUP2 DUP5 MSTORE PUSH1 0x1 SWAP5 DUP6 DUP2 AND SWAP1 DUP2 PUSH1 0x0 EQ PUSH2 0x205B JUMPI POP PUSH1 0x1 EQ PUSH2 0x2018 JUMPI JUMPDEST POP POP PUSH2 0x2016 SWAP3 POP SUB DUP4 PUSH2 0x1FB6 JUMP JUMPDEST JUMP JUMPDEST SWAP1 SWAP4 SWAP2 POP PUSH1 0x0 MSTORE PUSH1 0x20 SWAP1 DUP2 PUSH1 0x0 KECCAK256 SWAP4 PUSH1 0x0 SWAP2 JUMPDEST DUP2 DUP4 LT PUSH2 0x2043 JUMPI POP POP PUSH2 0x2016 SWAP4 POP DUP3 ADD ADD CODESIZE DUP1 PUSH2 0x2008 JUMP JUMPDEST DUP6 SLOAD DUP9 DUP5 ADD DUP6 ADD MSTORE SWAP5 DUP6 ADD SWAP5 DUP8 SWAP5 POP SWAP2 DUP4 ADD SWAP2 PUSH2 0x202B JUMP JUMPDEST SWAP2 POP POP PUSH2 0x2016 SWAP5 POP PUSH1 0x20 SWAP3 POP PUSH1 0xFF NOT AND DUP3 DUP5 ADD MSTORE ISZERO ISZERO PUSH1 0x5 SHL DUP3 ADD ADD CODESIZE DUP1 PUSH2 0x2008 JUMP JUMPDEST SWAP1 PUSH1 0x7 DUP3 LT ISZERO PUSH2 0x2D4 JUMPI MSTORE JUMP JUMPDEST SWAP2 SWAP1 DUP3 MLOAD SWAP3 DUP4 DUP3 MSTORE PUSH1 0x0 JUMPDEST DUP5 DUP2 LT PUSH2 0x20B7 JUMPI POP POP DUP3 PUSH1 0x0 PUSH1 0x20 DUP1 SWAP5 SWAP6 DUP5 ADD ADD MSTORE PUSH1 0x1F DUP1 NOT SWAP2 ADD AND ADD ADD SWAP1 JUMP JUMPDEST PUSH1 0x20 DUP2 DUP4 ADD DUP2 ADD MLOAD DUP5 DUP4 ADD DUP3 ADD MSTORE ADD PUSH2 0x2096 JUMP JUMPDEST PUSH1 0x24 CALLDATALOAD SWAP1 DUP2 ISZERO ISZERO DUP3 SUB PUSH2 0x33B JUMPI JUMP JUMPDEST PUSH1 0x0 SLOAD PUSH1 0x1 PUSH1 0x1 PUSH1 0xA0 SHL SUB AND CALLER SUB PUSH2 0x20EE JUMPI JUMP JUMPDEST PUSH1 0x40 MLOAD PUSH4 0x118CDAA7 PUSH1 0xE0 SHL DUP2 MSTORE CALLER PUSH1 0x4 DUP3 ADD MSTORE PUSH1 0x24 SWAP1 REVERT JUMPDEST DUP2 DUP2 MUL SWAP3 SWAP2 DUP2 ISZERO SWAP2 DUP5 DIV EQ OR ISZERO PUSH2 0x251 JUMPI JUMP JUMPDEST SWAP2 SWAP1 DUP3 SUB SWAP2 DUP3 GT PUSH2 0x251 JUMPI JUMP JUMPDEST PUSH1 0x0 NOT DUP2 EQ PUSH2 0x251 JUMPI PUSH1 0x1 ADD SWAP1 JUMP JUMPDEST SWAP2 SWAP1 DUP3 ADD DUP1 SWAP3 GT PUSH2 0x251 JUMPI JUMP JUMPDEST SWAP1 PUSH1 0x7 DUP2 LT ISZERO PUSH2 0x2D4 JUMPI PUSH1 0xFF DUP1 NOT DUP4 SLOAD AND SWAP2 AND OR SWAP1 SSTORE JUMP JUMPDEST SWAP1 PUSH1 0x1F DUP2 GT PUSH2 0x2168 JUMPI POP POP POP JUMP JUMPDEST PUSH1 0x0 SWAP2 DUP3 MSTORE PUSH1 0x20 DUP3 KECCAK256 SWAP1 PUSH1 0x20 PUSH1 0x1F DUP6 ADD PUSH1 0x5 SHR DUP4 ADD SWAP5 LT PUSH2 0x21A4 JUMPI JUMPDEST PUSH1 0x1F ADD PUSH1 0x5 SHR ADD SWAP2 JUMPDEST DUP3 DUP2 LT PUSH2 0x2199 JUMPI POP POP POP JUMP JUMPDEST DUP2 DUP2 SSTORE PUSH1 0x1 ADD PUSH2 0x218D JUMP JUMPDEST SWAP1 SWAP3 POP DUP3 SWAP1 PUSH2 0x2184 JUMP JUMPDEST SWAP1 PUSH1 0x0 PUSH1 0x20 SWAP2 DUP3 DUP2 MLOAD SWAP2 ADD DUP3 DUP6 GAS CALL ISZERO PUSH2 0xED6 JUMPI PUSH1 0x0 MLOAD RETURNDATASIZE PUSH2 0x2201 JUMPI POP PUSH1 0x1 PUSH1 0x1 PUSH1 0xA0 SHL SUB DUP2 AND EXTCODESIZE ISZERO JUMPDEST PUSH2 0x21DF JUMPI POP JUMP JUMPDEST PUSH1 0x40 MLOAD PUSH4 0x5274AFE7 PUSH1 0xE0 SHL DUP2 MSTORE PUSH1 0x1 PUSH1 0x1 PUSH1 0xA0 SHL SUB SWAP1 SWAP2 AND PUSH1 0x4 DUP3 ADD MSTORE PUSH1 0x24 SWAP1 REVERT JUMPDEST PUSH1 0x1 EQ ISZERO PUSH2 0x21D8 JUMP JUMPDEST PUSH1 0x2 PUSH1 0x1 SLOAD EQ PUSH2 0x221B JUMPI PUSH1 0x2 PUSH1 0x1 SSTORE JUMP JUMPDEST PUSH1 0x40 MLOAD PUSH4 0x3EE5AEB5 PUSH1 0xE0 SHL DUP2 MSTORE PUSH1 0x4 SWAP1 REVERT JUMPDEST ISZERO PUSH2 0x2234 JUMPI JUMP JUMPDEST PUSH1 0x40 MLOAD PUSH3 0x461BCD PUSH1 0xE5 SHL DUP2 MSTORE PUSH1 0x20 PUSH1 0x4 DUP3 ADD MSTORE PUSH1 0x14 PUSH1 0x24 DUP3 ADD MSTORE PUSH20 0x151C98591948191BD95CC81B9BDD08195E1A5CDD PUSH1 0x62 SHL PUSH1 0x44 DUP3 ADD MSTORE PUSH1 0x64 SWAP1 REVERT JUMPDEST DUP1 ISZERO PUSH2 0x251 JUMPI PUSH1 0x0 NOT ADD SWAP1 JUMP JUMPDEST PUSH1 0x40 MLOAD PUSH4 0xA9059CBB PUSH1 0xE0 SHL PUSH1 0x20 DUP3 ADD MSTORE PUSH1 0x1 PUSH1 0x1 PUSH1 0xA0 SHL SUB SWAP1 SWAP3 AND PUSH1 0x24 DUP4 ADD MSTORE PUSH1 0x44 DUP1 DUP4 ADD SWAP4 SWAP1 SWAP4 MSTORE SWAP2 DUP2 MSTORE PUSH1 0x80 DUP2 ADD SWAP2 PUSH8 0xFFFFFFFFFFFFFFFF DUP4 GT DUP3 DUP5 LT OR PUSH2 0x1D0E JUMPI PUSH2 0x2016 SWAP3 PUSH1 0x40 MSTORE PUSH2 0x21AE JUMP INVALID LOG2 PUSH5 0x6970667358 0x22 SLT KECCAK256 0xCF SWAP9 0xD2 SDIV SIGNEXTEND PUSH5 0xAA3BF56F2A 0x2F 0xC0 CALLVALUE 0xC7 0x22 0xAE 0xB2 GASPRICE 0x4C 0x5E SWAP7 SWAP12 0x22 0xB1 0xE1 MSTORE NOT PUSH6 0x6EC47664736F PUSH13 0x63430008140033000000000000 "},"methodIdentifiers":{"AUTO_RELEASE_DURATION()":"6085c066","DEFAULT_ESCROW_DURATION()":"f51f4bd2","MAX_ESCROW_DURATION()":"0794305e","MAX_FEE_BPS()":"d55be8c6","MIN_TRADE_AMOUNT()":"31b7d413","activeTradeCount(address)":"afba9e22","approvedRelayers(address)":"8cba8b6a","approvedTokens(address)":"6d1ea3fa","autoRelease(uint256)":"459b860e","calculateFee(uint256)":"99a5d747","createTrade(address,address,uint256,uint256)":"1906fb4d","emergencyWithdraw(address,uint256)":"95ccea67","feeBps()":"24a9d853","feeCollector()":"c415b95c","getContractBalance(address)":"43ab265f","getTrade(uint256)":"2db25e05","isExpired(uint256)":"d9548e53","markFiatSent(uint256)":"fa254c18","maxActiveTradesPerUser()":"3483cb02","owner()":"8da5cb5b","raiseDispute(uint256,string)":"5aef573c","refund(uint256)":"278ecde1","release(uint256)":"37bdc99b","renounceOwnership()":"715018a6","resolveDispute(uint256,bool)":"34b25ee2","setApprovedToken(address,bool)":"7e6a3400","setFeeBps(uint256)":"72c27b62","setFeeCollector(address)":"a42dce80","setMaxActiveTrades(uint256)":"87d2fc82","setRelayer(address,bool)":"ecd8dc3a","totalFeesCollected(address)":"88a40eed","tradeCounter()":"660d15b5","trades(uint256)":"1e6c598e","transferOwnership(address)":"f2fde38b"}}}}}