{"contracts/Escrow.sol":{"P2PEscrow":{"abi":[{"inputs":[{"internalType":"address","name":"_feeCollector","type":"address"}],"stateMutability":"nonpayable","type":"constructor"},{"inputs":[{"internalType":"address","name":"owner","type":"address"}],"name":"OwnableInvalidOwner","type":"error"},{"inputs":[{"internalType":"address","name":"account","type":"address"}],"name":"OwnableUnauthorizedAccount","type":"error"},{"inputs":[],"name":"ReentrancyGuardReentrantCall","type":"error"},{"inputs":[{"internalType":"address","name":"token","type":"address"}],"name":"SafeERC20FailedOperation","type":"error"},{"anonymous":false,"inputs":[{"indexed":false,"internalType":"address","name":"newCollector","type":"address"}],"name":"FeeCollectorUpdated","type":"event"},{"anonymous":false,"inputs":[{"indexed":false,"internalType":"uint256","name":"newFeePercentage","type":"uint256"}],"name":"FeeUpdated","type":"event"},{"anonymous":false,"inputs":[{"indexed":true,"internalType":"address","name":"previousOwner","type":"address"},{"indexed":true,"internalType":"address","name":"newOwner","type":"address"}],"name":"OwnershipTransferred","type":"event"},{"anonymous":false,"inputs":[{"indexed":true,"internalType":"uint256","name":"tradeId","type":"uint256"},{"indexed":true,"internalType":"address","name":"seller","type":"address"}],"name":"TradeCancelled","type":"event"},{"anonymous":false,"inputs":[{"indexed":true,"internalType":"uint256","name":"tradeId","type":"uint256"},{"indexed":true,"internalType":"address","name":"seller","type":"address"},{"indexed":true,"internalType":"address","name":"buyer","type":"address"},{"indexed":false,"internalType":"address","name":"token","type":"address"},{"indexed":false,"internalType":"uint256","name":"amount","type":"uint256"},{"indexed":false,"internalType":"uint256","name":"feeAmount","type":"uint256"},{"indexed":false,"internalType":"uint256","name":"deadline","type":"uint256"}],"name":"TradeCreated","type":"event"},{"anonymous":false,"inputs":[{"indexed":true,"internalType":"uint256","name":"tradeId","type":"uint256"},{"indexed":true,"internalType":"address","name":"buyer","type":"address"}],"name":"TradeReleased","type":"event"},{"anonymous":false,"inputs":[{"indexed":true,"internalType":"uint256","name":"tradeId","type":"uint256"},{"indexed":true,"internalType":"address","name":"winner","type":"address"}],"name":"TradeResolved","type":"event"},{"inputs":[{"internalType":"uint256","name":"_tradeId","type":"uint256"}],"name":"cancel","outputs":[],"stateMutability":"nonpayable","type":"function"},{"inputs":[{"internalType":"address","name":"_buyer","type":"address"},{"internalType":"address","name":"_token","type":"address"},{"internalType":"uint256","name":"_amount","type":"uint256"},{"internalType":"uint256","name":"_durationSeconds","type":"uint256"}],"name":"createTrade","outputs":[{"internalType":"uint256","name":"","type":"uint256"}],"stateMutability":"nonpayable","type":"function"},{"inputs":[],"name":"feeCollector","outputs":[{"internalType":"address","name":"","type":"address"}],"stateMutability":"view","type":"function"},{"inputs":[],"name":"feePercentage","outputs":[{"internalType":"uint256","name":"","type":"uint256"}],"stateMutability":"view","type":"function"},{"inputs":[],"name":"owner","outputs":[{"internalType":"address","name":"","type":"address"}],"stateMutability":"view","type":"function"},{"inputs":[{"internalType":"address","name":"_token","type":"address"},{"internalType":"uint256","name":"_amount","type":"uint256"}],"name":"recoverToken","outputs":[],"stateMutability":"nonpayable","type":"function"},{"inputs":[{"internalType":"uint256","name":"_tradeId","type":"uint256"}],"name":"release","outputs":[],"stateMutability":"nonpayable","type":"function"},{"inputs":[],"name":"renounceOwnership","outputs":[],"stateMutability":"nonpayable","type":"function"},{"inputs":[{"internalType":"uint256","name":"_tradeId","type":"uint256"},{"internalType":"address","name":"_winner","type":"address"}],"name":"resolve","outputs":[],"stateMutability":"nonpayable","type":"function"},{"inputs":[{"internalType":"uint256","name":"_newFeePercentage","type":"uint256"}],"name":"setFee","outputs":[],"stateMutability":"nonpayable","type":"function"},{"inputs":[{"internalType":"address","name":"_newCollector","type":"address"}],"name":"setFeeCollector","outputs":[],"stateMutability":"nonpayable","type":"function"},{"inputs":[],"name":"tradeCounter","outputs":[{"internalType":"uint256","name":"","type":"uint256"}],"stateMutability":"view","type":"function"},{"inputs":[{"internalType":"uint256","name":"","type":"uint256"}],"name":"trades","outputs":[{"internalType":"uint256","name":"id","type":"uint256"},{"internalType":"address","name":"seller","type":"address"},{"internalType":"address","name":"buyer","type":"address"},{"internalType":"address","name":"token","type":"address"},{"internalType":"uint256","name":"amount","type":"uint256"},{"internalType":"uint256","name":"feeAmount","type":"uint256"},{"internalType":"uint256","name":"deadline","type":"uint256"},{"internalType":"enum P2PEscrow.TradeStatus","name":"status","type":"uint8"}],"stateMutability":"view","type":"function"},{"inputs":[{"internalType":"address","name":"newOwner","type":"address"}],"name":"transferOwnership","outputs":[],"stateMutability":"nonpayable","type":"function"}],"evm":{"bytecode":{"linkReferences":{},"object":"6080346100cf57601f610e0338819003918201601f19168301916001600160401b038311848410176100d4578084926020946040528339810103126100cf57516001600160a01b0390818116908190036100cf5733156100b65760005460018060a01b0319903382821617600055604051933391167f8be0079c531659141344cd1fd0a4f28419497f9722a3daafe3b4186f6b6457e0600080a36001805560326004556005541617600555610d1890816100eb8239f35b604051631e4fbdf760e01b815260006004820152602490fd5b600080fd5b634e487b7160e01b600052604160045260246000fdfe6040608081526004908136101561001557600080fd5b600091823560e01c80631906fb4d1461087e5780631e6c598e146107da57806337bdc99b1461069557806340e58ee514610507578063660d15b5146104e857806369fe0e2d14610462578063715018a6146104085780638da5cb5b146103e0578063a001ecdd146103c3578063a42dce8014610354578063af0d467b146101b3578063b29a814014610171578063c415b95c146101445763f2fde38b146100bb57600080fd5b34610140576020366003190112610140576100d4610b30565b906100dd610b61565b6001600160a01b0391821692831561012a57505082546001600160a01b0319811683178455167f8be0079c531659141344cd1fd0a4f28419497f9722a3daafe3b4186f6b6457e08380a380f35b51631e4fbdf760e01b8152908101849052602490fd5b8280fd5b50503461016d578160031936011261016d5760055490516001600160a01b039091168152602090f35b5080fd5b50503461016d573660031901126101b0576101ad61018d610b30565b610195610b61565b8254602435916001600160a01b039182169116610c7a565b80f35b80fd5b50346101405781600319360112610140578035906101cf610b4b565b926101d8610b61565b6101e0610c18565b82855260036020528085206007810180549260ff8416600581101561034157806102139115908115610336575b50610c3b565b600283019160018060a01b03948580855416991698891492838015610327575b156102e5575060ff191686179055156102b65790610264600592600383019585808854169254169084015491610c7a565b0154908161029c575b5050505b7f375f119b4731e2220746592815dfe91a8fcf23ace689f2fdbcfefd43c4ffcd6a8380a36001805580f35b806102ae935416906005541690610c7a565b38808061026d565b506102cc6102e093820154600583015490610b8d565b916001816003840154169201541690610c7a565b610271565b5162461bcd60e51b8152602081890152601e60248201527f57696e6e6572206d757374206265206275796572206f722073656c6c657200006044820152606490fd5b50866001870154168a14610233565b60039150143861020d565b634e487b7160e01b895260218652602489fd5b50503461016d57602036600319011261016d5760207fe5693914d19c789bdee50a362998c0bc8d035a835f9871da5d51152f0582c34f91610393610b30565b61039b610b61565b600580546001600160a01b0319166001600160a01b039290921691821790559051908152a180f35b503461014057826003193601126101405760209250549051908152f35b50503461016d578160031936011261016d57905490516001600160a01b039091168152602090f35b83346101b057806003193601126101b057610421610b61565b80546001600160a01b03198116825581906001600160a01b03167f8be0079c531659141344cd1fd0a4f28419497f9722a3daafe3b4186f6b6457e08280a380f35b50903461014057602036600319011261014057813591610480610b61565b6101f483116104b95791602091817f8c4d35e54a3f2ef1134138fd8ea3daee6a3c89e10d2665996babdf70261e2c76945551908152a180f35b6020606492519162461bcd60e51b8352820152600a6024820152694d61782066656520352560b01b6044820152fd5b50503461016d578160031936011261016d576020906002549051908152f35b503461014057602036600319011261014057803591610524610c18565b8284526003602052808420600781019182549360ff851660058110156106825761054e9015610c3b565b600183019360018060a01b0395868654169384331460001461060e5760068601544211156105d4575061059d6105a6959493889360026003945b60ff1916179055850154600586015490610b8d565b93015416610c7a565b5416907f68bbfaa8a985659b13e3f23ffac8fc9039d6ca60199cd9327817cb0cc03eb8768380a36001805580f35b5162461bcd60e51b81526020818501526015602482015274151c985919481b9bdd08195e1c1a5c9959081e595d605a1b6044820152606490fd5b878a5416330361062e575061059d6105a695949388936002600394610588565b5162461bcd60e51b8152602081850152602960248201527f4f6e6c792073656c6c657220286578706972656429206f722061646d696e2063604482015268185b8818d85b98d95b60ba1b6064820152608490fd5b634e487b7160e01b885260218252602488fd5b509034610140576020366003190112610140578135916106b3610c18565b828452600360205281842060078101805460ff811660058110156107c7576106db9015610c3b565b60018301546001600160a01b0395908616331480156107bb575b15610779575060019060ff191617905560056003820191610726858454166002830195878754169084015491610c7a565b01548381610760575b5050505416907f85025f62e0f6a0d140f0b2284e59d3d554a46ae4e1baa111132caba98d0055f58380a36001805580f35b610771925416846005541690610c7a565b38808361072f565b5162461bcd60e51b8152602081860181905260248201527f4f6e6c792073656c6c6572206f722061646d696e2063616e2072656c656173656044820152606490fd5b508588541633146106f5565b634e487b7160e01b885260218552602488fd5b5091903461016d57602036600319011261016d578235825260036020528082209182549260018060a01b039283600183015416938060028401541690600384015416878401549160058501549360ff6007600688015497015416978151998a5260208a01528801526060870152608086015260a085015260c0840152600582101561086b57610100838360e0820152f35b634e487b7160e01b815260218452602490fd5b5091903461016d57608036600319011261016d5761089a610b30565b6108a2610b4b565b90604435606435926108b2610c18565b8115610af8576001600160a01b03928316938415610ac5576002546000198114610ab257600101968760025588548085029085820403610a9f57612710900492856108fd8587610b8d565b9116958851916323b872dd60e01b602084015233602484015230604484015260648301526064825260a082019167ffffffffffffffff9281811084821117610a8c578a5261094b9088610bb0565b6109558442610b8d565b9089519261010084019084821090821117610a8c5791868d898b8f8f968f8860079a8d9c9a52838a5260208a0193338552818b0192835260608b0195865260808b0196875260a08b0198895260c08b01998a5260e08b019d8e528c5260036020528b20985189558160018a01935116926bffffffffffffffffffffffff60a01b93848254161790558160028a019151168382541617905560038801925116908254161790555190840155516005830155516006820155019151906005821015610a7957506020995090610a35929160ff8019835416911617905542610b8d565b91855193845287840152848301526060820152837f5f41fb7cbdad789c17f3e3ffef0a920523917d85e5b27591e00eb1517a06c6e960803393a46001805551908152f35b634e487b7160e01b815260218b52602490fd5b634e487b7160e01b855260418d52602485fd5b634e487b7160e01b825260118a52602482fd5b634e487b7160e01b885260118952602488fd5b855162461bcd60e51b81526020818a0152600d60248201526c24b73b30b634b210313abcb2b960991b6044820152606490fd5b845162461bcd60e51b815260208189015260126024820152710416d6f756e74206d757374206265203e20360741b6044820152606490fd5b600435906001600160a01b0382168203610b4657565b600080fd5b602435906001600160a01b0382168203610b4657565b6000546001600160a01b03163303610b7557565b60405163118cdaa760e01b8152336004820152602490fd5b91908201809211610b9a57565b634e487b7160e01b600052601160045260246000fd5b906000602091828151910182855af115610c0c576000513d610c0357506001600160a01b0381163b155b610be15750565b604051635274afe760e01b81526001600160a01b039091166004820152602490fd5b60011415610bda565b6040513d6000823e3d90fd5b600260015414610c29576002600155565b604051633ee5aeb560e01b8152600490fd5b15610c4257565b60405162461bcd60e51b815260206004820152601060248201526f5472616465206e6f742061637469766560801b6044820152606490fd5b60405163a9059cbb60e01b60208201526001600160a01b039092166024830152604480830193909352918152608081019167ffffffffffffffff831182841017610ccc57610cca92604052610bb0565b565b634e487b7160e01b600052604160045260246000fdfea26469706673582212205eaae8c25bcd57a54a277168b572f417f01d1f9098fb90117d3baf65d9ba415d64736f6c63430008140033","opcodes":"PUSH1 0x80 CALLVALUE PUSH2 0xCF JUMPI PUSH1 0x1F PUSH2 0xE03 CODESIZE DUP2 SWAP1 SUB SWAP2 DUP3 ADD PUSH1 0x1F NOT AND DUP4 ADD SWAP2 PUSH1 0x1 PUSH1 0x1 PUSH1 0x40 SHL SUB DUP4 GT DUP5 DUP5 LT OR PUSH2 0xD4 JUMPI DUP1 DUP5 SWAP3 PUSH1 0x20 SWAP5 PUSH1 0x40 MSTORE DUP4 CODECOPY DUP2 ADD SUB SLT PUSH2 0xCF JUMPI MLOAD PUSH1 0x1 PUSH1 0x1 PUSH1 0xA0 SHL SUB SWAP1 DUP2 DUP2 AND SWAP1 DUP2 SWAP1 SUB PUSH2 0xCF JUMPI CALLER ISZERO PUSH2 0xB6 JUMPI PUSH1 0x0 SLOAD PUSH1 0x1 DUP1 PUSH1 0xA0 SHL SUB NOT SWAP1 CALLER DUP3 DUP3 AND OR PUSH1 0x0 SSTORE PUSH1 0x40 MLOAD SWAP4 CALLER SWAP2 AND PUSH32 0x8BE0079C531659141344CD1FD0A4F28419497F9722A3DAAFE3B4186F6B6457E0 PUSH1 0x0 DUP1 LOG3 PUSH1 0x1 DUP1 SSTORE PUSH1 0x32 PUSH1 0x4 SSTORE PUSH1 0x5 SLOAD AND OR PUSH1 0x5 SSTORE PUSH2 0xD18 SWAP1 DUP2 PUSH2 0xEB DUP3 CODECOPY RETURN JUMPDEST PUSH1 0x40 MLOAD PUSH4 0x1E4FBDF7 PUSH1 0xE0 SHL DUP2 MSTORE PUSH1 0x0 PUSH1 0x4 DUP3 ADD MSTORE PUSH1 0x24 SWAP1 REVERT JUMPDEST PUSH1 0x0 DUP1 REVERT JUMPDEST PUSH4 0x4E487B71 PUSH1 0xE0 SHL PUSH1 0x0 MSTORE PUSH1 0x41 PUSH1 0x4 MSTORE PUSH1 0x24 PUSH1 0x0 REVERT INVALID PUSH1 0x40 PUSH1 0x80 DUP2 MSTORE PUSH1 0x4 SWAP1 DUP2 CALLDATASIZE LT ISZERO PUSH2 0x15 JUMPI PUSH1 0x0 DUP1 REVERT JUMPDEST PUSH1 0x0 SWAP2 DUP3 CALLDATALOAD PUSH1 0xE0 SHR DUP1 PUSH4 0x1906FB4D EQ PUSH2 0x87E JUMPI DUP1 PUSH4 0x1E6C598E EQ PUSH2 0x7DA JUMPI DUP1 PUSH4 0x37BDC99B EQ PUSH2 0x695 JUMPI DUP1 PUSH4 0x40E58EE5 EQ PUSH2 0x507 JUMPI DUP1 PUSH4 0x660D15B5 EQ PUSH2 0x4E8 JUMPI DUP1 PUSH4 0x69FE0E2D EQ PUSH2 0x462 JUMPI DUP1 PUSH4 0x715018A6 EQ PUSH2 0x408 JUMPI DUP1 PUSH4 0x8DA5CB5B EQ PUSH2 0x3E0 JUMPI DUP1 PUSH4 0xA001ECDD EQ PUSH2 0x3C3 JUMPI DUP1 PUSH4 0xA42DCE80 EQ PUSH2 0x354 JUMPI DUP1 PUSH4 0xAF0D467B EQ PUSH2 0x1B3 JUMPI DUP1 PUSH4 0xB29A8140 EQ PUSH2 0x171 JUMPI DUP1 PUSH4 0xC415B95C EQ PUSH2 0x144 JUMPI PUSH4 0xF2FDE38B EQ PUSH2 0xBB JUMPI PUSH1 0x0 DUP1 REVERT JUMPDEST CALLVALUE PUSH2 0x140 JUMPI PUSH1 0x20 CALLDATASIZE PUSH1 0x3 NOT ADD SLT PUSH2 0x140 JUMPI PUSH2 0xD4 PUSH2 0xB30 JUMP JUMPDEST SWAP1 PUSH2 0xDD PUSH2 0xB61 JUMP JUMPDEST PUSH1 0x1 PUSH1 0x1 PUSH1 0xA0 SHL SUB SWAP2 DUP3 AND SWAP3 DUP4 ISZERO PUSH2 0x12A JUMPI POP POP DUP3 SLOAD PUSH1 0x1 PUSH1 0x1 PUSH1 0xA0 SHL SUB NOT DUP2 AND DUP4 OR DUP5 SSTORE AND PUSH32 0x8BE0079C531659141344CD1FD0A4F28419497F9722A3DAAFE3B4186F6B6457E0 DUP4 DUP1 LOG3 DUP1 RETURN JUMPDEST MLOAD PUSH4 0x1E4FBDF7 PUSH1 0xE0 SHL DUP2 MSTORE SWAP1 DUP2 ADD DUP5 SWAP1 MSTORE PUSH1 0x24 SWAP1 REVERT JUMPDEST DUP3 DUP1 REVERT JUMPDEST POP POP CALLVALUE PUSH2 0x16D JUMPI DUP2 PUSH1 0x3 NOT CALLDATASIZE ADD SLT PUSH2 0x16D JUMPI PUSH1 0x5 SLOAD SWAP1 MLOAD PUSH1 0x1 PUSH1 0x1 PUSH1 0xA0 SHL SUB SWAP1 SWAP2 AND DUP2 MSTORE PUSH1 0x20 SWAP1 RETURN JUMPDEST POP DUP1 REVERT JUMPDEST POP POP CALLVALUE PUSH2 0x16D JUMPI CALLDATASIZE PUSH1 0x3 NOT ADD SLT PUSH2 0x1B0 JUMPI PUSH2 0x1AD PUSH2 0x18D PUSH2 0xB30 JUMP JUMPDEST PUSH2 0x195 PUSH2 0xB61 JUMP JUMPDEST DUP3 SLOAD PUSH1 0x24 CALLDATALOAD SWAP2 PUSH1 0x1 PUSH1 0x1 PUSH1 0xA0 SHL SUB SWAP2 DUP3 AND SWAP2 AND PUSH2 0xC7A JUMP JUMPDEST DUP1 RETURN JUMPDEST DUP1 REVERT JUMPDEST POP CALLVALUE PUSH2 0x140 JUMPI DUP2 PUSH1 0x3 NOT CALLDATASIZE ADD SLT PUSH2 0x140 JUMPI DUP1 CALLDATALOAD SWAP1 PUSH2 0x1CF PUSH2 0xB4B JUMP JUMPDEST SWAP3 PUSH2 0x1D8 PUSH2 0xB61 JUMP JUMPDEST PUSH2 0x1E0 PUSH2 0xC18 JUMP JUMPDEST DUP3 DUP6 MSTORE PUSH1 0x3 PUSH1 0x20 MSTORE DUP1 DUP6 KECCAK256 PUSH1 0x7 DUP2 ADD DUP1 SLOAD SWAP3 PUSH1 0xFF DUP5 AND PUSH1 0x5 DUP2 LT ISZERO PUSH2 0x341 JUMPI DUP1 PUSH2 0x213 SWAP2 ISZERO SWAP1 DUP2 ISZERO PUSH2 0x336 JUMPI JUMPDEST POP PUSH2 0xC3B JUMP JUMPDEST PUSH1 0x2 DUP4 ADD SWAP2 PUSH1 0x1 DUP1 PUSH1 0xA0 SHL SUB SWAP5 DUP6 DUP1 DUP6 SLOAD AND SWAP10 AND SWAP9 DUP10 EQ SWAP3 DUP4 DUP1 ISZERO PUSH2 0x327 JUMPI JUMPDEST ISZERO PUSH2 0x2E5 JUMPI POP PUSH1 0xFF NOT AND DUP7 OR SWAP1 SSTORE ISZERO PUSH2 0x2B6 JUMPI SWAP1 PUSH2 0x264 PUSH1 0x5 SWAP3 PUSH1 0x3 DUP4 ADD SWAP6 DUP6 DUP1 DUP9 SLOAD AND SWAP3 SLOAD AND SWAP1 DUP5 ADD SLOAD SWAP2 PUSH2 0xC7A JUMP JUMPDEST ADD SLOAD SWAP1 DUP2 PUSH2 0x29C JUMPI JUMPDEST POP POP POP JUMPDEST PUSH32 0x375F119B4731E2220746592815DFE91A8FCF23ACE689F2FDBCFEFD43C4FFCD6A DUP4 DUP1 LOG3 PUSH1 0x1 DUP1 SSTORE DUP1 RETURN JUMPDEST DUP1 PUSH2 0x2AE SWAP4 SLOAD AND SWAP1 PUSH1 0x5 SLOAD AND SWAP1 PUSH2 0xC7A JUMP JUMPDEST CODESIZE DUP1 DUP1 PUSH2 0x26D JUMP JUMPDEST POP PUSH2 0x2CC PUSH2 0x2E0 SWAP4 DUP3 ADD SLOAD PUSH1 0x5 DUP4 ADD SLOAD SWAP1 PUSH2 0xB8D JUMP JUMPDEST SWAP2 PUSH1 0x1 DUP2 PUSH1 0x3 DUP5 ADD SLOAD AND SWAP3 ADD SLOAD AND SWAP1 PUSH2 0xC7A JUMP JUMPDEST PUSH2 0x271 JUMP JUMPDEST MLOAD PUSH3 0x461BCD PUSH1 0xE5 SHL DUP2 MSTORE PUSH1 0x20 DUP2 DUP10 ADD MSTORE PUSH1 0x1E PUSH1 0x24 DUP3 ADD MSTORE PUSH32 0x57696E6E6572206D757374206265206275796572206F722073656C6C65720000 PUSH1 0x44 DUP3 ADD MSTORE PUSH1 0x64 SWAP1 REVERT JUMPDEST POP DUP7 PUSH1 0x1 DUP8 ADD SLOAD AND DUP11 EQ PUSH2 0x233 JUMP JUMPDEST PUSH1 0x3 SWAP2 POP EQ CODESIZE PUSH2 0x20D JUMP JUMPDEST PUSH4 0x4E487B71 PUSH1 0xE0 SHL DUP10 MSTORE PUSH1 0x21 DUP7 MSTORE PUSH1 0x24 DUP10 REVERT JUMPDEST POP POP CALLVALUE PUSH2 0x16D JUMPI PUSH1 0x20 CALLDATASIZE PUSH1 0x3 NOT ADD SLT PUSH2 0x16D JUMPI PUSH1 0x20 PUSH32 0xE5693914D19C789BDEE50A362998C0BC8D035A835F9871DA5D51152F0582C34F SWAP2 PUSH2 0x393 PUSH2 0xB30 JUMP JUMPDEST PUSH2 0x39B PUSH2 0xB61 JUMP JUMPDEST PUSH1 0x5 DUP1 SLOAD PUSH1 0x1 PUSH1 0x1 PUSH1 0xA0 SHL SUB NOT AND PUSH1 0x1 PUSH1 0x1 PUSH1 0xA0 SHL SUB SWAP3 SWAP1 SWAP3 AND SWAP2 DUP3 OR SWAP1 SSTORE SWAP1 MLOAD SWAP1 DUP2 MSTORE LOG1 DUP1 RETURN JUMPDEST POP CALLVALUE PUSH2 0x140 JUMPI DUP3 PUSH1 0x3 NOT CALLDATASIZE ADD SLT PUSH2 0x140 JUMPI PUSH1 0x20 SWAP3 POP SLOAD SWAP1 MLOAD SWAP1 DUP2 MSTORE RETURN JUMPDEST POP POP CALLVALUE PUSH2 0x16D JUMPI DUP2 PUSH1 0x3 NOT CALLDATASIZE ADD SLT PUSH2 0x16D JUMPI SWAP1 SLOAD SWAP1 MLOAD PUSH1 0x1 PUSH1 0x1 PUSH1 0xA0 SHL SUB SWAP1 SWAP2 AND DUP2 MSTORE PUSH1 0x20 SWAP1 RETURN JUMPDEST DUP4 CALLVALUE PUSH2 0x1B0 JUMPI DUP1 PUSH1 0x3 NOT CALLDATASIZE ADD SLT PUSH2 0x1B0 JUMPI PUSH2 0x421 PUSH2 0xB61 JUMP JUMPDEST DUP1 SLOAD PUSH1 0x1 PUSH1 0x1 PUSH1 0xA0 SHL SUB NOT DUP2 AND DUP3 SSTORE DUP2 SWAP1 PUSH1 0x1 PUSH1 0x1 PUSH1 0xA0 SHL SUB AND PUSH32 0x8BE0079C531659141344CD1FD0A4F28419497F9722A3DAAFE3B4186F6B6457E0 DUP3 DUP1 LOG3 DUP1 RETURN JUMPDEST POP SWAP1 CALLVALUE PUSH2 0x140 JUMPI PUSH1 0x20 CALLDATASIZE PUSH1 0x3 NOT ADD SLT PUSH2 0x140 JUMPI DUP2 CALLDATALOAD SWAP2 PUSH2 0x480 PUSH2 0xB61 JUMP JUMPDEST PUSH2 0x1F4 DUP4 GT PUSH2 0x4B9 JUMPI SWAP2 PUSH1 0x20 SWAP2 DUP2 PUSH32 0x8C4D35E54A3F2EF1134138FD8EA3DAEE6A3C89E10D2665996BABDF70261E2C76 SWAP5 SSTORE MLOAD SWAP1 DUP2 MSTORE LOG1 DUP1 RETURN JUMPDEST PUSH1 0x20 PUSH1 0x64 SWAP3 MLOAD SWAP2 PUSH3 0x461BCD PUSH1 0xE5 SHL DUP4 MSTORE DUP3 ADD MSTORE PUSH1 0xA PUSH1 0x24 DUP3 ADD MSTORE PUSH10 0x4D617820666565203525 PUSH1 0xB0 SHL PUSH1 0x44 DUP3 ADD MSTORE REVERT JUMPDEST POP POP CALLVALUE PUSH2 0x16D JUMPI DUP2 PUSH1 0x3 NOT CALLDATASIZE ADD SLT PUSH2 0x16D JUMPI PUSH1 0x20 SWAP1 PUSH1 0x2 SLOAD SWAP1 MLOAD SWAP1 DUP2 MSTORE RETURN JUMPDEST POP CALLVALUE PUSH2 0x140 JUMPI PUSH1 0x20 CALLDATASIZE PUSH1 0x3 NOT ADD SLT PUSH2 0x140 JUMPI DUP1 CALLDATALOAD SWAP2 PUSH2 0x524 PUSH2 0xC18 JUMP JUMPDEST DUP3 DUP5 MSTORE PUSH1 0x3 PUSH1 0x20 MSTORE DUP1 DUP5 KECCAK256 PUSH1 0x7 DUP2 ADD SWAP2 DUP3 SLOAD SWAP4 PUSH1 0xFF DUP6 AND PUSH1 0x5 DUP2 LT ISZERO PUSH2 0x682 JUMPI PUSH2 0x54E SWAP1 ISZERO PUSH2 0xC3B JUMP JUMPDEST PUSH1 0x1 DUP4 ADD SWAP4 PUSH1 0x1 DUP1 PUSH1 0xA0 SHL SUB SWAP6 DUP7 DUP7 SLOAD AND SWAP4 DUP5 CALLER EQ PUSH1 0x0 EQ PUSH2 0x60E JUMPI PUSH1 0x6 DUP7 ADD SLOAD TIMESTAMP GT ISZERO PUSH2 0x5D4 JUMPI POP PUSH2 0x59D PUSH2 0x5A6 SWAP6 SWAP5 SWAP4 DUP9 SWAP4 PUSH1 0x2 PUSH1 0x3 SWAP5 JUMPDEST PUSH1 0xFF NOT AND OR SWAP1 SSTORE DUP6 ADD SLOAD PUSH1 0x5 DUP7 ADD SLOAD SWAP1 PUSH2 0xB8D JUMP JUMPDEST SWAP4 ADD SLOAD AND PUSH2 0xC7A JUMP JUMPDEST SLOAD AND SWAP1 PUSH32 0x68BBFAA8A985659B13E3F23FFAC8FC9039D6CA60199CD9327817CB0CC03EB876 DUP4 DUP1 LOG3 PUSH1 0x1 DUP1 SSTORE DUP1 RETURN JUMPDEST MLOAD PUSH3 0x461BCD PUSH1 0xE5 SHL DUP2 MSTORE PUSH1 0x20 DUP2 DUP6 ADD MSTORE PUSH1 0x15 PUSH1 0x24 DUP3 ADD MSTORE PUSH21 0x151C985919481B9BDD08195E1C1A5C9959081E595D PUSH1 0x5A SHL PUSH1 0x44 DUP3 ADD MSTORE PUSH1 0x64 SWAP1 REVERT JUMPDEST DUP8 DUP11 SLOAD AND CALLER SUB PUSH2 0x62E JUMPI POP PUSH2 0x59D PUSH2 0x5A6 SWAP6 SWAP5 SWAP4 DUP9 SWAP4 PUSH1 0x2 PUSH1 0x3 SWAP5 PUSH2 0x588 JUMP JUMPDEST MLOAD PUSH3 0x461BCD PUSH1 0xE5 SHL DUP2 MSTORE PUSH1 0x20 DUP2 DUP6 ADD MSTORE PUSH1 0x29 PUSH1 0x24 DUP3 ADD MSTORE PUSH32 0x4F6E6C792073656C6C657220286578706972656429206F722061646D696E2063 PUSH1 0x44 DUP3 ADD MSTORE PUSH9 0x185B8818D85B98D95B PUSH1 0xBA SHL PUSH1 0x64 DUP3 ADD MSTORE PUSH1 0x84 SWAP1 REVERT JUMPDEST PUSH4 0x4E487B71 PUSH1 0xE0 SHL DUP9 MSTORE PUSH1 0x21 DUP3 MSTORE PUSH1 0x24 DUP9 REVERT JUMPDEST POP SWAP1 CALLVALUE PUSH2 0x140 JUMPI PUSH1 0x20 CALLDATASIZE PUSH1 0x3 NOT ADD SLT PUSH2 0x140 JUMPI DUP2 CALLDATALOAD SWAP2 PUSH2 0x6B3 PUSH2 0xC18 JUMP JUMPDEST DUP3 DUP5 MSTORE PUSH1 0x3 PUSH1 0x20 MSTORE DUP2 DUP5 KECCAK256 PUSH1 0x7 DUP2 ADD DUP1 SLOAD PUSH1 0xFF DUP2 AND PUSH1 0x5 DUP2 LT ISZERO PUSH2 0x7C7 JUMPI PUSH2 0x6DB SWAP1 ISZERO PUSH2 0xC3B JUMP JUMPDEST PUSH1 0x1 DUP4 ADD SLOAD PUSH1 0x1 PUSH1 0x1 PUSH1 0xA0 SHL SUB SWAP6 SWAP1 DUP7 AND CALLER EQ DUP1 ISZERO PUSH2 0x7BB JUMPI JUMPDEST ISZERO PUSH2 0x779 JUMPI POP PUSH1 0x1 SWAP1 PUSH1 0xFF NOT AND OR SWAP1 SSTORE PUSH1 0x5 PUSH1 0x3 DUP3 ADD SWAP2 PUSH2 0x726 DUP6 DUP5 SLOAD AND PUSH1 0x2 DUP4 ADD SWAP6 DUP8 DUP8 SLOAD AND SWAP1 DUP5 ADD SLOAD SWAP2 PUSH2 0xC7A JUMP JUMPDEST ADD SLOAD DUP4 DUP2 PUSH2 0x760 JUMPI JUMPDEST POP POP POP SLOAD AND SWAP1 PUSH32 0x85025F62E0F6A0D140F0B2284E59D3D554A46AE4E1BAA111132CABA98D0055F5 DUP4 DUP1 LOG3 PUSH1 0x1 DUP1 SSTORE DUP1 RETURN JUMPDEST PUSH2 0x771 SWAP3 SLOAD AND DUP5 PUSH1 0x5 SLOAD AND SWAP1 PUSH2 0xC7A JUMP JUMPDEST CODESIZE DUP1 DUP4 PUSH2 0x72F JUMP JUMPDEST MLOAD PUSH3 0x461BCD PUSH1 0xE5 SHL DUP2 MSTORE PUSH1 0x20 DUP2 DUP7 ADD DUP2 SWAP1 MSTORE PUSH1 0x24 DUP3 ADD MSTORE PUSH32 0x4F6E6C792073656C6C6572206F722061646D696E2063616E2072656C65617365 PUSH1 0x44 DUP3 ADD MSTORE PUSH1 0x64 SWAP1 REVERT JUMPDEST POP DUP6 DUP9 SLOAD AND CALLER EQ PUSH2 0x6F5 JUMP JUMPDEST PUSH4 0x4E487B71 PUSH1 0xE0 SHL DUP9 MSTORE PUSH1 0x21 DUP6 MSTORE PUSH1 0x24 DUP9 REVERT JUMPDEST POP SWAP2 SWAP1 CALLVALUE PUSH2 0x16D JUMPI PUSH1 0x20 CALLDATASIZE PUSH1 0x3 NOT ADD SLT PUSH2 0x16D JUMPI DUP3 CALLDATALOAD DUP3 MSTORE PUSH1 0x3 PUSH1 0x20 MSTORE DUP1 DUP3 KECCAK256 SWAP2 DUP3 SLOAD SWAP3 PUSH1 0x1 DUP1 PUSH1 0xA0 SHL SUB SWAP3 DUP4 PUSH1 0x1 DUP4 ADD SLOAD AND SWAP4 DUP1 PUSH1 0x2 DUP5 ADD SLOAD AND SWAP1 PUSH1 0x3 DUP5 ADD SLOAD AND DUP8 DUP5 ADD SLOAD SWAP2 PUSH1 0x5 DUP6 ADD SLOAD SWAP4 PUSH1 0xFF PUSH1 0x7 PUSH1 0x6 DUP9 ADD SLOAD SWAP8 ADD SLOAD AND SWAP8 DUP2 MLOAD SWAP10 DUP11 MSTORE PUSH1 0x20 DUP11 ADD MSTORE DUP9 ADD MSTORE PUSH1 0x60 DUP8 ADD MSTORE PUSH1 0x80 DUP7 ADD MSTORE PUSH1 0xA0 DUP6 ADD MSTORE PUSH1 0xC0 DUP5 ADD MSTORE PUSH1 0x5 DUP3 LT ISZERO PUSH2 0x86B JUMPI PUSH2 0x100 DUP4 DUP4 PUSH1 0xE0 DUP3 ADD MSTORE RETURN JUMPDEST PUSH4 0x4E487B71 PUSH1 0xE0 SHL DUP2 MSTORE PUSH1 0x21 DUP5 MSTORE PUSH1 0x24 SWAP1 REVERT JUMPDEST POP SWAP2 SWAP1 CALLVALUE PUSH2 0x16D JUMPI PUSH1 0x80 CALLDATASIZE PUSH1 0x3 NOT ADD SLT PUSH2 0x16D JUMPI PUSH2 0x89A PUSH2 0xB30 JUMP JUMPDEST PUSH2 0x8A2 PUSH2 0xB4B JUMP JUMPDEST SWAP1 PUSH1 0x44 CALLDATALOAD PUSH1 0x64 CALLDATALOAD SWAP3 PUSH2 0x8B2 PUSH2 0xC18 JUMP JUMPDEST DUP2 ISZERO PUSH2 0xAF8 JUMPI PUSH1 0x1 PUSH1 0x1 PUSH1 0xA0 SHL SUB SWAP3 DUP4 AND SWAP4 DUP5 ISZERO PUSH2 0xAC5 JUMPI PUSH1 0x2 SLOAD PUSH1 0x0 NOT DUP2 EQ PUSH2 0xAB2 JUMPI PUSH1 0x1 ADD SWAP7 DUP8 PUSH1 0x2 SSTORE DUP9 SLOAD DUP1 DUP6 MUL SWAP1 DUP6 DUP3 DIV SUB PUSH2 0xA9F JUMPI PUSH2 0x2710 SWAP1 DIV SWAP3 DUP6 PUSH2 0x8FD DUP6 DUP8 PUSH2 0xB8D JUMP JUMPDEST SWAP2 AND SWAP6 DUP9 MLOAD SWAP2 PUSH4 0x23B872DD PUSH1 0xE0 SHL PUSH1 0x20 DUP5 ADD MSTORE CALLER PUSH1 0x24 DUP5 ADD MSTORE ADDRESS PUSH1 0x44 DUP5 ADD MSTORE PUSH1 0x64 DUP4 ADD MSTORE PUSH1 0x64 DUP3 MSTORE PUSH1 0xA0 DUP3 ADD SWAP2 PUSH8 0xFFFFFFFFFFFFFFFF SWAP3 DUP2 DUP2 LT DUP5 DUP3 GT OR PUSH2 0xA8C JUMPI DUP11 MSTORE PUSH2 0x94B SWAP1 DUP9 PUSH2 0xBB0 JUMP JUMPDEST PUSH2 0x955 DUP5 TIMESTAMP PUSH2 0xB8D JUMP JUMPDEST SWAP1 DUP10 MLOAD SWAP3 PUSH2 0x100 DUP5 ADD SWAP1 DUP5 DUP3 LT SWAP1 DUP3 GT OR PUSH2 0xA8C JUMPI SWAP2 DUP7 DUP14 DUP10 DUP12 DUP16 DUP16 SWAP7 DUP16 DUP9 PUSH1 0x7 SWAP11 DUP14 SWAP13 SWAP11 MSTORE DUP4 DUP11 MSTORE PUSH1 0x20 DUP11 ADD SWAP4 CALLER DUP6 MSTORE DUP2 DUP12 ADD SWAP3 DUP4 MSTORE PUSH1 0x60 DUP12 ADD SWAP6 DUP7 MSTORE PUSH1 0x80 DUP12 ADD SWAP7 DUP8 MSTORE PUSH1 0xA0 DUP12 ADD SWAP9 DUP10 MSTORE PUSH1 0xC0 DUP12 ADD SWAP10 DUP11 MSTORE PUSH1 0xE0 DUP12 ADD SWAP14 DUP15 MSTORE DUP13 MSTORE PUSH1 0x3 PUSH1 0x20 MSTORE DUP12 KECCAK256 SWAP9 MLOAD DUP10 SSTORE DUP2 PUSH1 0x1 DUP11 ADD SWAP4 MLOAD AND SWAP3 PUSH12 0xFFFFFFFFFFFFFFFFFFFFFFFF PUSH1 0xA0 SHL SWAP4 DUP5 DUP3 SLOAD AND OR SWAP1 SSTORE DUP2 PUSH1 0x2 DUP11 ADD SWAP2 MLOAD AND DUP4 DUP3 SLOAD AND OR SWAP1 SSTORE PUSH1 0x3 DUP9 ADD SWAP3 MLOAD AND SWAP1 DUP3 SLOAD AND OR SWAP1 SSTORE MLOAD SWAP1 DUP5 ADD SSTORE MLOAD PUSH1 0x5 DUP4 ADD SSTORE MLOAD PUSH1 0x6 DUP3 ADD SSTORE ADD SWAP2 MLOAD SWAP1 PUSH1 0x5 DUP3 LT ISZERO PUSH2 0xA79 JUMPI POP PUSH1 0x20 SWAP10 POP SWAP1 PUSH2 0xA35 SWAP3 SWAP2 PUSH1 0xFF DUP1 NOT DUP4 SLOAD AND SWAP2 AND OR SWAP1 SSTORE TIMESTAMP PUSH2 0xB8D JUMP JUMPDEST SWAP2 DUP6 MLOAD SWAP4 DUP5 MSTORE DUP8 DUP5 ADD MSTORE DUP5 DUP4 ADD MSTORE PUSH1 0x60 DUP3 ADD MSTORE DUP4 PUSH32 0x5F41FB7CBDAD789C17F3E3FFEF0A920523917D85E5B27591E00EB1517A06C6E9 PUSH1 0x80 CALLER SWAP4 LOG4 PUSH1 0x1 DUP1 SSTORE MLOAD SWAP1 DUP2 MSTORE RETURN JUMPDEST PUSH4 0x4E487B71 PUSH1 0xE0 SHL DUP2 MSTORE PUSH1 0x21 DUP12 MSTORE PUSH1 0x24 SWAP1 REVERT JUMPDEST PUSH4 0x4E487B71 PUSH1 0xE0 SHL DUP6 MSTORE PUSH1 0x41 DUP14 MSTORE PUSH1 0x24 DUP6 REVERT JUMPDEST PUSH4 0x4E487B71 PUSH1 0xE0 SHL DUP3 MSTORE PUSH1 0x11 DUP11 MSTORE PUSH1 0x24 DUP3 REVERT JUMPDEST PUSH4 0x4E487B71 PUSH1 0xE0 SHL DUP9 MSTORE PUSH1 0x11 DUP10 MSTORE PUSH1 0x24 DUP9 REVERT JUMPDEST DUP6 MLOAD PUSH3 0x461BCD PUSH1 0xE5 SHL DUP2 MSTORE PUSH1 0x20 DUP2 DUP11 ADD MSTORE PUSH1 0xD PUSH1 0x24 DUP3 ADD MSTORE PUSH13 0x24B73B30B634B210313ABCB2B9 PUSH1 0x99 SHL PUSH1 0x44 DUP3 ADD MSTORE PUSH1 0x64 SWAP1 REVERT JUMPDEST DUP5 MLOAD PUSH3 0x461BCD PUSH1 0xE5 SHL DUP2 MSTORE PUSH1 0x20 DUP2 DUP10 ADD MSTORE PUSH1 0x12 PUSH1 0x24 DUP3 ADD MSTORE PUSH18 0x416D6F756E74206D757374206265203E203 PUSH1 0x74 SHL PUSH1 0x44 DUP3 ADD MSTORE PUSH1 0x64 SWAP1 REVERT JUMPDEST PUSH1 0x4 CALLDATALOAD SWAP1 PUSH1 0x1 PUSH1 0x1 PUSH1 0xA0 SHL SUB DUP3 AND DUP3 SUB PUSH2 0xB46 JUMPI JUMP JUMPDEST PUSH1 0x0 DUP1 REVERT JUMPDEST PUSH1 0x24 CALLDATALOAD SWAP1 PUSH1 0x1 PUSH1 0x1 PUSH1 0xA0 SHL SUB DUP3 AND DUP3 SUB PUSH2 0xB46 JUMPI JUMP JUMPDEST PUSH1 0x0 SLOAD PUSH1 0x1 PUSH1 0x1 PUSH1 0xA0 SHL SUB AND CALLER SUB PUSH2 0xB75 JUMPI JUMP JUMPDEST PUSH1 0x40 MLOAD PUSH4 0x118CDAA7 PUSH1 0xE0 SHL DUP2 MSTORE CALLER PUSH1 0x4 DUP3 ADD MSTORE PUSH1 0x24 SWAP1 REVERT JUMPDEST SWAP2 SWAP1 DUP3 ADD DUP1 SWAP3 GT PUSH2 0xB9A JUMPI JUMP JUMPDEST PUSH4 0x4E487B71 PUSH1 0xE0 SHL PUSH1 0x0 MSTORE PUSH1 0x11 PUSH1 0x4 MSTORE PUSH1 0x24 PUSH1 0x0 REVERT JUMPDEST SWAP1 PUSH1 0x0 PUSH1 0x20 SWAP2 DUP3 DUP2 MLOAD SWAP2 ADD DUP3 DUP6 GAS CALL ISZERO PUSH2 0xC0C JUMPI PUSH1 0x0 MLOAD RETURNDATASIZE PUSH2 0xC03 JUMPI POP PUSH1 0x1 PUSH1 0x1 PUSH1 0xA0 SHL SUB DUP2 AND EXTCODESIZE ISZERO JUMPDEST PUSH2 0xBE1 JUMPI POP JUMP JUMPDEST PUSH1 0x40 MLOAD PUSH4 0x5274AFE7 PUSH1 0xE0 SHL DUP2 MSTORE PUSH1 0x1 PUSH1 0x1 PUSH1 0xA0 SHL SUB SWAP1 SWAP2 AND PUSH1 0x4 DUP3 ADD MSTORE PUSH1 0x24 SWAP1 REVERT JUMPDEST PUSH1 0x1 EQ ISZERO PUSH2 0xBDA JUMP JUMPDEST PUSH1 0x40 MLOAD RETURNDATASIZE PUSH1 0x0 DUP3 RETURNDATACOPY RETURNDATASIZE SWAP1 REVERT JUMPDEST PUSH1 0x2 PUSH1 0x1 SLOAD EQ PUSH2 0xC29 JUMPI PUSH1 0x2 PUSH1 0x1 SSTORE JUMP JUMPDEST PUSH1 0x40 MLOAD PUSH4 0x3EE5AEB5 PUSH1 0xE0 SHL DUP2 MSTORE PUSH1 0x4 SWAP1 REVERT JUMPDEST ISZERO PUSH2 0xC42 JUMPI JUMP JUMPDEST PUSH1 0x40 MLOAD PUSH3 0x461BCD PUSH1 0xE5 SHL DUP2 MSTORE PUSH1 0x20 PUSH1 0x4 DUP3 ADD MSTORE PUSH1 0x10 PUSH1 0x24 DUP3 ADD MSTORE PUSH16 0x5472616465206E6F7420616374697665 PUSH1 0x80 SHL PUSH1 0x44 DUP3 ADD MSTORE PUSH1 0x64 SWAP1 REVERT JUMPDEST PUSH1 0x40 MLOAD PUSH4 0xA9059CBB PUSH1 0xE0 SHL PUSH1 0x20 DUP3 ADD MSTORE PUSH1 0x1 PUSH1 0x1 PUSH1 0xA0 SHL SUB SWAP1 SWAP3 AND PUSH1 0x24 DUP4 ADD MSTORE PUSH1 0x44 DUP1 DUP4 ADD SWAP4 SWAP1 SWAP4 MSTORE SWAP2 DUP2 MSTORE PUSH1 0x80 DUP2 ADD SWAP2 PUSH8 0xFFFFFFFFFFFFFFFF DUP4 GT DUP3 DUP5 LT OR PUSH2 0xCCC JUMPI PUSH2 0xCCA SWAP3 PUSH1 0x40 MSTORE PUSH2 0xBB0 JUMP JUMPDEST JUMP JUMPDEST PUSH4 0x4E487B71 PUSH1 0xE0 SHL PUSH1 0x0 MSTORE PUSH1 0x41 PUSH1 0x4 MSTORE PUSH1 0x24 PUSH1 0x0 REVERT INVALID LOG2 PUSH5 0x6970667358 0x22 SLT KECCAK256 0x5E 0xAA 0xE8 0xC2 JUMPDEST 0xCD JUMPI 0xA5 0x4A 0x27 PUSH18 0x68B572F417F01D1F9098FB90117D3BAF65D9 0xBA COINBASE 0x5D PUSH5 0x736F6C6343 STOP ADDMOD EQ STOP CALLER "},"methodIdentifiers":{"cancel(uint256)":"40e58ee5","createTrade(address,address,uint256,uint256)":"1906fb4d","feeCollector()":"c415b95c","feePercentage()":"a001ecdd","owner()":"8da5cb5b","recoverToken(address,uint256)":"b29a8140","release(uint256)":"37bdc99b","renounceOwnership()":"715018a6","resolve(uint256,address)":"af0d467b","setFee(uint256)":"69fe0e2d","setFeeCollector(address)":"a42dce80","tradeCounter()":"660d15b5","trades(uint256)":"1e6c598e","transferOwnership(address)":"f2fde38b"}}}}}