{"contracts/P2PEscrow_dd51270.sol":{"P2PEscrow":{"abi":[{"inputs":[{"internalType":"address","name":"_feeCollector","type":"address"},{"internalType":"address","name":"_usdc","type":"address"}],"stateMutability":"nonpayable","type":"constructor"},{"inputs":[{"internalType":"address","name":"owner","type":"address"}],"name":"OwnableInvalidOwner","type":"error"},{"inputs":[{"internalType":"address","name":"account","type":"address"}],"name":"OwnableUnauthorizedAccount","type":"error"},{"inputs":[],"name":"ReentrancyGuardReentrantCall","type":"error"},{"inputs":[{"internalType":"address","name":"token","type":"address"}],"name":"SafeERC20FailedOperation","type":"error"},{"anonymous":false,"inputs":[{"indexed":true,"internalType":"uint256","name":"tradeId","type":"uint256"},{"indexed":true,"internalType":"address","name":"buyer","type":"address"},{"indexed":false,"internalType":"uint256","name":"buyerReceives","type":"uint256"},{"indexed":false,"internalType":"uint256","name":"feeAmount","type":"uint256"}],"name":"AutoReleased","type":"event"},{"anonymous":false,"inputs":[{"indexed":true,"internalType":"address","name":"user","type":"address"},{"indexed":true,"internalType":"address","name":"token","type":"address"},{"indexed":false,"internalType":"uint256","name":"amount","type":"uint256"}],"name":"Deposit","type":"event"},{"anonymous":false,"inputs":[{"indexed":true,"internalType":"uint256","name":"tradeId","type":"uint256"},{"indexed":true,"internalType":"address","name":"resolver","type":"address"},{"indexed":false,"internalType":"bool","name":"releasedToBuyer","type":"bool"}],"name":"DisputeResolved","type":"event"},{"anonymous":false,"inputs":[{"indexed":false,"internalType":"address","name":"oldCollector","type":"address"},{"indexed":false,"internalType":"address","name":"newCollector","type":"address"}],"name":"FeeCollectorUpdated","type":"event"},{"anonymous":false,"inputs":[{"indexed":false,"internalType":"uint256","name":"oldFee","type":"uint256"},{"indexed":false,"internalType":"uint256","name":"newFee","type":"uint256"}],"name":"FeeUpdated","type":"event"},{"anonymous":false,"inputs":[{"indexed":true,"internalType":"uint256","name":"tradeId","type":"uint256"},{"indexed":true,"internalType":"address","name":"buyer","type":"address"},{"indexed":false,"internalType":"uint256","name":"autoReleaseDeadline","type":"uint256"}],"name":"FiatMarkedSent","type":"event"},{"anonymous":false,"inputs":[{"indexed":true,"internalType":"address","name":"previousOwner","type":"address"},{"indexed":true,"internalType":"address","name":"newOwner","type":"address"}],"name":"OwnershipTransferred","type":"event"},{"anonymous":false,"inputs":[{"indexed":false,"internalType":"address","name":"relayer","type":"address"},{"indexed":false,"internalType":"bool","name":"approved","type":"bool"}],"name":"RelayerUpdated","type":"event"},{"anonymous":false,"inputs":[{"indexed":false,"internalType":"address","name":"token","type":"address"},{"indexed":false,"internalType":"bool","name":"approved","type":"bool"}],"name":"TokenApproved","type":"event"},{"anonymous":false,"inputs":[{"indexed":true,"internalType":"uint256","name":"tradeId","type":"uint256"},{"indexed":true,"internalType":"address","name":"seller","type":"address"}],"name":"TradeCancelled","type":"event"},{"anonymous":false,"inputs":[{"indexed":true,"internalType":"uint256","name":"tradeId","type":"uint256"},{"indexed":true,"internalType":"address","name":"seller","type":"address"},{"indexed":true,"internalType":"address","name":"buyer","type":"address"},{"indexed":false,"internalType":"address","name":"token","type":"address"},{"indexed":false,"internalType":"uint256","name":"amount","type":"uint256"},{"indexed":false,"internalType":"uint256","name":"feeAmount","type":"uint256"},{"indexed":false,"internalType":"uint256","name":"deadline","type":"uint256"}],"name":"TradeCreated","type":"event"},{"anonymous":false,"inputs":[{"indexed":true,"internalType":"uint256","name":"tradeId","type":"uint256"},{"indexed":true,"internalType":"address","name":"initiator","type":"address"},{"indexed":false,"internalType":"string","name":"reason","type":"string"}],"name":"TradeDisputed","type":"event"},{"anonymous":false,"inputs":[{"indexed":true,"internalType":"uint256","name":"tradeId","type":"uint256"},{"indexed":true,"internalType":"address","name":"seller","type":"address"},{"indexed":false,"internalType":"uint256","name":"amount","type":"uint256"}],"name":"TradeRefunded","type":"event"},{"anonymous":false,"inputs":[{"indexed":true,"internalType":"uint256","name":"tradeId","type":"uint256"},{"indexed":true,"internalType":"address","name":"buyer","type":"address"},{"indexed":false,"internalType":"uint256","name":"buyerReceives","type":"uint256"},{"indexed":false,"internalType":"uint256","name":"feeAmount","type":"uint256"}],"name":"TradeReleased","type":"event"},{"anonymous":false,"inputs":[{"indexed":true,"internalType":"address","name":"user","type":"address"},{"indexed":true,"internalType":"address","name":"token","type":"address"},{"indexed":false,"internalType":"uint256","name":"amount","type":"uint256"}],"name":"Withdraw","type":"event"},{"inputs":[],"name":"AUTO_RELEASE_DURATION","outputs":[{"internalType":"uint256","name":"","type":"uint256"}],"stateMutability":"view","type":"function"},{"inputs":[],"name":"DEFAULT_ESCROW_DURATION","outputs":[{"internalType":"uint256","name":"","type":"uint256"}],"stateMutability":"view","type":"function"},{"inputs":[],"name":"MAX_ESCROW_DURATION","outputs":[{"internalType":"uint256","name":"","type":"uint256"}],"stateMutability":"view","type":"function"},{"inputs":[],"name":"MAX_FEE_BPS","outputs":[{"internalType":"uint256","name":"","type":"uint256"}],"stateMutability":"view","type":"function"},{"inputs":[],"name":"MIN_TRADE_AMOUNT","outputs":[{"internalType":"uint256","name":"","type":"uint256"}],"stateMutability":"view","type":"function"},{"inputs":[{"internalType":"address","name":"","type":"address"}],"name":"activeTradeCount","outputs":[{"internalType":"uint256","name":"","type":"uint256"}],"stateMutability":"view","type":"function"},{"inputs":[{"internalType":"address","name":"","type":"address"}],"name":"approvedRelayers","outputs":[{"internalType":"bool","name":"","type":"bool"}],"stateMutability":"view","type":"function"},{"inputs":[{"internalType":"address","name":"","type":"address"}],"name":"approvedTokens","outputs":[{"internalType":"bool","name":"","type":"bool"}],"stateMutability":"view","type":"function"},{"inputs":[{"internalType":"uint256","name":"_tradeId","type":"uint256"}],"name":"autoRelease","outputs":[],"stateMutability":"nonpayable","type":"function"},{"inputs":[{"internalType":"address","name":"","type":"address"},{"internalType":"address","name":"","type":"address"}],"name":"balances","outputs":[{"internalType":"uint256","name":"","type":"uint256"}],"stateMutability":"view","type":"function"},{"inputs":[{"internalType":"uint256","name":"_amount","type":"uint256"}],"name":"calculateFee","outputs":[{"internalType":"uint256","name":"fee","type":"uint256"},{"internalType":"uint256","name":"netAmount","type":"uint256"}],"stateMutability":"view","type":"function"},{"inputs":[{"internalType":"address","name":"_buyer","type":"address"},{"internalType":"address","name":"_token","type":"address"},{"internalType":"uint256","name":"_amount","type":"uint256"},{"internalType":"uint256","name":"_duration","type":"uint256"}],"name":"createTrade","outputs":[{"internalType":"uint256","name":"tradeId","type":"uint256"}],"stateMutability":"nonpayable","type":"function"},{"inputs":[{"internalType":"address","name":"_seller","type":"address"},{"internalType":"address","name":"_buyer","type":"address"},{"internalType":"address","name":"_token","type":"address"},{"internalType":"uint256","name":"_amount","type":"uint256"},{"internalType":"uint256","name":"_duration","type":"uint256"}],"name":"createTradeByRelayer","outputs":[{"internalType":"uint256","name":"tradeId","type":"uint256"}],"stateMutability":"nonpayable","type":"function"},{"inputs":[{"internalType":"address","name":"_token","type":"address"},{"internalType":"uint256","name":"_amount","type":"uint256"}],"name":"deposit","outputs":[],"stateMutability":"nonpayable","type":"function"},{"inputs":[{"internalType":"address","name":"_token","type":"address"},{"internalType":"uint256","name":"_amount","type":"uint256"}],"name":"emergencyWithdraw","outputs":[],"stateMutability":"nonpayable","type":"function"},{"inputs":[],"name":"feeBps","outputs":[{"internalType":"uint256","name":"","type":"uint256"}],"stateMutability":"view","type":"function"},{"inputs":[],"name":"feeCollector","outputs":[{"internalType":"address","name":"","type":"address"}],"stateMutability":"view","type":"function"},{"inputs":[{"internalType":"address","name":"_token","type":"address"}],"name":"getContractBalance","outputs":[{"internalType":"uint256","name":"","type":"uint256"}],"stateMutability":"view","type":"function"},{"inputs":[{"internalType":"uint256","name":"_tradeId","type":"uint256"}],"name":"getTrade","outputs":[{"components":[{"internalType":"address","name":"seller","type":"address"},{"internalType":"address","name":"buyer","type":"address"},{"internalType":"address","name":"token","type":"address"},{"internalType":"uint256","name":"amount","type":"uint256"},{"internalType":"uint256","name":"feeAmount","type":"uint256"},{"internalType":"uint256","name":"buyerReceives","type":"uint256"},{"internalType":"enum P2PEscrow.TradeStatus","name":"status","type":"uint8"},{"internalType":"uint256","name":"createdAt","type":"uint256"},{"internalType":"uint256","name":"deadline","type":"uint256"},{"internalType":"uint256","name":"fiatSentAt","type":"uint256"},{"internalType":"uint256","name":"autoReleaseDeadline","type":"uint256"},{"internalType":"address","name":"disputeInitiator","type":"address"},{"internalType":"string","name":"disputeReason","type":"string"}],"internalType":"struct P2PEscrow.Trade","name":"","type":"tuple"}],"stateMutability":"view","type":"function"},{"inputs":[{"internalType":"uint256","name":"_tradeId","type":"uint256"}],"name":"isExpired","outputs":[{"internalType":"bool","name":"","type":"bool"}],"stateMutability":"view","type":"function"},{"inputs":[{"internalType":"uint256","name":"_tradeId","type":"uint256"}],"name":"markFiatSent","outputs":[],"stateMutability":"nonpayable","type":"function"},{"inputs":[],"name":"maxActiveTradesPerUser","outputs":[{"internalType":"uint256","name":"","type":"uint256"}],"stateMutability":"view","type":"function"},{"inputs":[],"name":"owner","outputs":[{"internalType":"address","name":"","type":"address"}],"stateMutability":"view","type":"function"},{"inputs":[{"internalType":"uint256","name":"_tradeId","type":"uint256"},{"internalType":"string","name":"_reason","type":"string"}],"name":"raiseDispute","outputs":[],"stateMutability":"nonpayable","type":"function"},{"inputs":[{"internalType":"uint256","name":"_tradeId","type":"uint256"}],"name":"refund","outputs":[],"stateMutability":"nonpayable","type":"function"},{"inputs":[{"internalType":"uint256","name":"_tradeId","type":"uint256"}],"name":"release","outputs":[],"stateMutability":"nonpayable","type":"function"},{"inputs":[],"name":"renounceOwnership","outputs":[],"stateMutability":"nonpayable","type":"function"},{"inputs":[{"internalType":"uint256","name":"_tradeId","type":"uint256"},{"internalType":"bool","name":"_releaseToBuyer","type":"bool"}],"name":"resolveDispute","outputs":[],"stateMutability":"nonpayable","type":"function"},{"inputs":[{"internalType":"address","name":"_token","type":"address"},{"internalType":"bool","name":"_approved","type":"bool"}],"name":"setApprovedToken","outputs":[],"stateMutability":"nonpayable","type":"function"},{"inputs":[{"internalType":"uint256","name":"_newFeeBps","type":"uint256"}],"name":"setFeeBps","outputs":[],"stateMutability":"nonpayable","type":"function"},{"inputs":[{"internalType":"address","name":"_newCollector","type":"address"}],"name":"setFeeCollector","outputs":[],"stateMutability":"nonpayable","type":"function"},{"inputs":[{"internalType":"uint256","name":"_max","type":"uint256"}],"name":"setMaxActiveTrades","outputs":[],"stateMutability":"nonpayable","type":"function"},{"inputs":[{"internalType":"address","name":"_relayer","type":"address"},{"internalType":"bool","name":"_approved","type":"bool"}],"name":"setRelayer","outputs":[],"stateMutability":"nonpayable","type":"function"},{"inputs":[{"internalType":"address","name":"","type":"address"}],"name":"totalFeesCollected","outputs":[{"internalType":"uint256","name":"","type":"uint256"}],"stateMutability":"view","type":"function"},{"inputs":[],"name":"tradeCounter","outputs":[{"internalType":"uint256","name":"","type":"uint256"}],"stateMutability":"view","type":"function"},{"inputs":[{"internalType":"uint256","name":"","type":"uint256"}],"name":"trades","outputs":[{"internalType":"address","name":"seller","type":"address"},{"internalType":"address","name":"buyer","type":"address"},{"internalType":"address","name":"token","type":"address"},{"internalType":"uint256","name":"amount","type":"uint256"},{"internalType":"uint256","name":"feeAmount","type":"uint256"},{"internalType":"uint256","name":"buyerReceives","type":"uint256"},{"internalType":"enum P2PEscrow.TradeStatus","name":"status","type":"uint8"},{"internalType":"uint256","name":"createdAt","type":"uint256"},{"internalType":"uint256","name":"deadline","type":"uint256"},{"internalType":"uint256","name":"fiatSentAt","type":"uint256"},{"internalType":"uint256","name":"autoReleaseDeadline","type":"uint256"},{"internalType":"address","name":"disputeInitiator","type":"address"},{"internalType":"string","name":"disputeReason","type":"string"}],"stateMutability":"view","type":"function"},{"inputs":[{"internalType":"address","name":"newOwner","type":"address"}],"name":"transferOwnership","outputs":[],"stateMutability":"nonpayable","type":"function"},{"inputs":[{"internalType":"address","name":"_token","type":"address"},{"internalType":"uint256","name":"_amount","type":"uint256"}],"name":"withdraw","outputs":[],"stateMutability":"nonpayable","type":"function"}],"evm":{"bytecode":{"linkReferences":{},"object":"608034620002005762002dbe90601f38839003908101601f19168201906001600160401b0382118383101762000205578083916040958694855283398101031262000200576200004f816200021b565b6200005e60208093016200021b565b913315620001e85760008054336001600160a01b03198083168217845587519396939590936001600160a01b0393909284929183167f8be0079c531659141344cd1fd0a4f28419497f9722a3daafe3b4186f6b6457e08a80a3600180556032600255600a600b5516948515620001a65750169081156200016257917f54aee4f020b814c26f556399a354577e068193a82445e919505b00b9848512a586859381967f5d16ad41baeb009cd23eb8f6c7cde5c2e0cd5acf4a33926ab488875c37c37f389896600854161760085580865260068452818620600160ff198254161790558151908152600184820152a18351928352820152a151612b8d9081620002318239f35b855162461bcd60e51b815260048101849052601460248201527f496e76616c6964205553444320616464726573730000000000000000000000006044820152606490fd5b62461bcd60e51b815260048101859052601560248201527f496e76616c69642066656520636f6c6c6563746f7200000000000000000000006044820152606490fd5b8351631e4fbdf760e01b815260006004820152602490fd5b600080fd5b634e487b7160e01b600052604160045260246000fd5b51906001600160a01b0382168203620002005756fe608080604052600436101561001357600080fd5b60003560e01c9081630794305e146126cf575080631906fb4d146121c75780631e6c598e146120e557806324a9d853146120c7578063278ecde114611d9c5780632db25e0514611b8e57806331b7d41314611b705780633483cb0214611b5257806334b25ee2146118d157806337bdc99b1461174057806343ab265f146116b0578063459b860e1461149857806347e7ef24146113ab5780635aef573c146110de5780636085c066146110c1578063660d15b5146110a35780636d1ea3fa14611064578063715018a61461100b57806372c27b6214610f705780637e6a340014610ef957806387d2fc8214610e8557806388a40eed14610e4b5780638cba8b6a14610e0c5780638da5cb5b14610de357806395ccea6714610da457806399a5d74714610d68578063a42dce8014610cb6578063afba9e2214610c7c578063c23f001f14610c2b578063c415b95c14610c02578063d55be8c614610be5578063d9548e5314610b96578063ecd8dc3a14610b06578063f2fde38b14610a7d578063f3073c411461047d578063f3fef3a314610389578063f51f4bd21461036c5763fa254c18146101c157600080fd5b3461036757602080600319360112610367576004358015158061035b575b6101e890612ae7565b6000818152600483526040902060018101546001600160a01b031633036103165760068101805460ff81166007811015610300576001036102c857600883015442116102935760029060ff1916179055426009820155610a8c42019283421161027d5783600a7fca4a124546e4d1efb37a421d49b27e91e28818bc73a3385ded0e9dcbc125f54c9301556040519384523393a3005b634e487b7160e01b600052601160045260246000fd5b60405162461bcd60e51b815260048101869052600d60248201526c151c98591948195e1c1a5c9959609a1b6044820152606490fd5b60405162461bcd60e51b815260048101869052601060248201526f5472616465206e6f742061637469766560801b6044820152606490fd5b634e487b7160e01b600052602160045260246000fd5b60405162461bcd60e51b815260048101849052601d60248201527f4f6e6c792062757965722063616e206d61726b20666961742073656e740000006044820152606490fd5b506003548111156101df565b600080fd5b34610367576000366003190112610367576020604051610e108152f35b34610367576040366003190112610367576103a26126eb565b6024356103ad6129d9565b3360005260206005815260406000209260018060a01b0316928360005281528160406000205410610439577f9b1bfa7fa9ee420a16e124f794c35ac9f90472acc99140eb2f6447c714cad8eb9033600052600581526040600020846000528152604060002061041d8482546129fc565b905561042a833386612a09565b6040519283523392a360018055005b6064906040519062461bcd60e51b82526004820152601a60248201527f496e73756666696369656e74207661756c742062616c616e63650000000000006044820152fd5b346103675760a0366003190112610367576104966126eb565b61049e612701565b60449182356001600160a01b038116900361036757608435926104bf6129d9565b8360018060a01b036008541633148015610a69575b15610a30576001600160a01b038416156109fc576001600160a01b03838116908516146109cb57620f42406064351061099b576001600160a01b0383811660009081526005602090815260408083208635909416835292905220546064351161094d576001600160a01b0383166000908152600a6020526040902054600b5411156109175760018060a01b0383166000526005602052604060002060018060a01b03833516600052602052604060002061059160643582546129fc565b90551561090d575b6201518084116108de576127106105b4600254606435612a59565b04926105c2846064356129fc565b906105ce600354612a6c565b94856003556105dd874261291b565b604051936105ea85612751565b60018060a01b038716855260018060a01b038416602086015260018060a01b038635166040860152606435606086015282608086015260a0850152600160c08501524260e085015261010084015260006101208401526000610140840152600061016084015260405161065c8161276e565b6000815261018084015285600052600460205260406000209260018060a01b03815116906001600160601b0360a01b91828654161785556001850160018060a01b03602083015116838254161790556002850160018060a01b0360408301511683825416179055606081015160038601556080810151600486015560a0810151600586015560c0810151916007831015610300576107006101809360068801612a7b565b60e0820151600787015561010082015160088701556101208201516009870155610140820151600a870155600b86019060018060a01b03610160840151169082541617905501519182519767ffffffffffffffff89116108c85788889461077960209b610770600c8a0154612717565b600c8a01612a93565b8a90601f831160011461083d5796600c836107ec946108239694600080516020612b388339815191529a9b600092610832575b50508160011b916000199060031b1c1916179101555b6001600160a01b0389166000908152600a8c526040902080546107e490612a6c565b90554261291b565b604080516001600160a01b039835891681526064356020820152908101949094526060840152908516959094169381906080820190565b0390a460018055604051908152f35b015190508f806107ac565b600c88939298016000528b6000209060005b601f19841681106108ae57506001836107ec9593600080516020612b388339815191529a9b600c946108239997601f19811610610895575b505050811b019101556107c2565b015160001960f88460031b161c191690558f8080610887565b818a01518355988d01988c98506001909201918d0161084f565b634e487b7160e01b600052604160045260246000fd5b60649067546f6f206c6f6e6760c01b6040519162461bcd60e51b83526020600484015260086024840152820152fd5b610e109350610599565b60405162461bcd60e51b815260206004820152600f60248201526e546f6f206d616e792074726164657360881b81840152606490fd5b60405162461bcd60e51b815260206004820152602160248201527f496e73756666696369656e742073656c6c6572207661756c742062616c616e6381840152606560f81b6064820152608490fd5b60405162461bcd60e51b8152602060048201526009602482015268151bdbc81cdb585b1b60ba1b81840152606490fd5b60405162461bcd60e51b815260206004820152600a60248201526953656c6620747261646560b01b81840152606490fd5b60405162461bcd60e51b815260206004820152600d60248201526c24b73b30b634b210313abcb2b960991b81840152606490fd5b60405162461bcd60e51b815260206004820152601260248201527121b0b63632b9103737ba102932b630bcb2b960711b81840152606490fd5b506000546001600160a01b031633146104d4565b3461036757602036600319011261036757610a966126eb565b610a9e6128ae565b6001600160a01b03908116908115610aed57600054826001600160601b0360a01b821617600055167f8be0079c531659141344cd1fd0a4f28419497f9722a3daafe3b4186f6b6457e0600080a3005b604051631e4fbdf760e01b815260006004820152602490fd5b34610367576040366003190112610367577f4b36b2e66f38ed349bec532105790177f1283bcbc094e6cd48565195d3033c43610b406126eb565b610b4861289f565b90610b516128ae565b6001600160a01b0381166000908152600760205260409020805460ff191660ff841515161790555b604080516001600160a01b039290921682529115156020820152a1005b346103675760203660031901126103675760043580151580610bd9575b610bbc90612ae7565b600052600460205260206008604060002001544211604051908152f35b50600354811115610bb3565b346103675760003660031901126103675760206040516101f48152f35b34610367576000366003190112610367576008546040516001600160a01b039091168152602090f35b3461036757604036600319011261036757610c446126eb565b610c4c612701565b9060018060a01b038091166000526005602052604060002091166000526020526020604060002054604051908152f35b34610367576020366003190112610367576001600160a01b03610c9d6126eb565b16600052600a6020526020604060002054604051908152f35b3461036757602036600319011261036757610ccf6126eb565b610cd76128ae565b6001600160a01b039081168015610d31577f5d16ad41baeb009cd23eb8f6c7cde5c2e0cd5acf4a33926ab488875c37c37f389160409160085491816001600160601b0360a01b8416176008558351921682526020820152a1005b60405162461bcd60e51b815260206004820152600f60248201526e496e76616c6964206164647265737360881b6044820152606490fd5b34610367576020366003190112610367576040600435610d98612710610d9060025484612a59565b0480926129fc565b82519182526020820152f35b3461036757604036600319011261036757610de1610dc06126eb565b610dc86128ae565b600054602435916001600160a01b039182169116612a09565b005b34610367576000366003190112610367576000546040516001600160a01b039091168152602090f35b34610367576020366003190112610367576001600160a01b03610e2d6126eb565b166000526007602052602060ff604060002054166040519015158152f35b34610367576020366003190112610367576001600160a01b03610e6c6126eb565b1660005260096020526020604060002054604051908152f35b3461036757602036600319011261036757600435610ea16128ae565b80151580610eee575b15610eb457600b55005b60405162461bcd60e51b8152602060048201526012602482015271496e76616c6964206d61782028312d35302960701b6044820152606490fd5b506032811115610eaa565b34610367576040366003190112610367577f54aee4f020b814c26f556399a354577e068193a82445e919505b00b9848512a5610f336126eb565b610f3b61289f565b90610f446128ae565b6001600160a01b0381166000908152600660205260409020805460ff191660ff84151516179055610b79565b3461036757602036600319011261036757600435610f8c6128ae565b6101f48111610fce5760407f528d9479e9f9889a87a3c30c7f7ba537e5e59c4c85a37733b16e57c62df6130291600254908060025582519182526020820152a1005b60405162461bcd60e51b815260206004820152601560248201527446656520746f6f206869676820286d61782035252960581b6044820152606490fd5b34610367576000366003190112610367576110246128ae565b600080546001600160a01b0319811682556001600160a01b03167f8be0079c531659141344cd1fd0a4f28419497f9722a3daafe3b4186f6b6457e08280a3005b34610367576020366003190112610367576001600160a01b036110856126eb565b166000526006602052602060ff604060002054166040519015158152f35b34610367576000366003190112610367576020600354604051908152f35b34610367576000366003190112610367576020604051610a8c8152f35b346103675760403660031901126103675767ffffffffffffffff600435602480359083821161036757366023830112156103675781600401359384116103675736818584010111610367578215158061139f575b61113b90612ae7565b8260005260209160048352604060002060018060a01b0380825416331490811561138f575b501561134b576006810180549060ff82169160078310156113365760019283811490811561132b575b50156112e75760039060ff1916179055600b8201336001600160601b0360a01b825416179055600c8201906111c8886111c28454612717565b84612a93565b8760009186601f831160011461127c576000938361126f575b50501b906000198960031b1c19161790555b6203f48042019081421161125a57917fb90cad70464bd57459e5d7277e908a9cecfdc1a71b2ed3a578b85bb44ff6563e94939160088894015582604051948086528501520160408301376000604085830101526040813395601f80199101168101030190a3005b83634e487b7160e01b60005260116004526000fd5b870101359250868b6111e1565b50919050601f198916908360005289886000209260005b8a868383106112ce57505050106112b2575b505087811b0190556111f3565b850186013560001960038b901b60f8161c1916905588806112a5565b858b018c0135875590950194938401938d935001611293565b60405162461bcd60e51b815260048101889052601d818801527f5472616465206e6f7420696e2064697370757461626c652073746174650000006044820152606490fd5b60029150148a611189565b85634e487b7160e01b60005260216004526000fd5b60405162461bcd60e51b815260048101859052601e818501527f4f6e6c7920747261646520706172746965732063616e206469737075746500006044820152606490fd5b9050600182015416331487611160565b50600354831115611132565b34610367576040366003190112610367576113c46126eb565b602435906113d06129d9565b60018060a01b0316908160005260066020526113f360ff604060002054166128da565b801561145e5761140581303385612928565b336000526005602052604060002082600052602052604060002061142a82825461291b565b90556040519081527f5548c837ab068cf56a2c2479df0882a4922fd203edb7517321831d95078c5f6260203392a360018055005b60405162461bcd60e51b81526020600482015260126024820152710416d6f756e74206d757374206265203e20360741b6044820152606490fd5b3461036757602080600319360112610367576004356114b56129d9565b801515806116a4575b6114c790612ae7565b806000526004825260406000209160068301805460ff811660078110156103005760020361165f57600a8501548015611623574211156115d3579160409160047f489d0b4f43659843daba0a17983382a3e77f5399083ac5405143fcf6806f8ca09460ff191617905560018060a01b039081865416600052600a8152826000206115518154612b2a565b90556002860191808354169660046001820191611579848454169a600583019b8c5491612a09565b019384548061159b575b5050541695549154908351928352820152a360018055005b6115ae9084835416856008541690612a09565b828554915416600052600984526115ca8660002091825461291b565b90558880611583565b60405162461bcd60e51b815260048101849052602260248201527f4175746f2d72656c656173652074696d6572206e6f7420657870697265642079604482015261195d60f21b6064820152608490fd5b60405162461bcd60e51b8152600481018590526014602482015273105d5d1bcb5c995b19585cd9481b9bdd081cd95d60621b6044820152606490fd5b60405162461bcd60e51b815260048101849052601760248201527f46696174206e6f74206d61726b65642061732073656e740000000000000000006044820152606490fd5b506003548111156114be565b3461036757602080600319360112610367576024816001600160a01b036116d56126eb565b16604051928380926370a0823160e01b82523060048301525afa90811561173457600091611707575b50604051908152f35b90508181813d831161172d575b61171e818361278a565b810103126103675751826116fe565b503d611714565b6040513d6000823e3d90fd5b34610367576020806003193601126103675760043561175d6129d9565b801515806118c5575b61176f90612ae7565b60008181526004835260409020805490926001600160a01b0391821633811480156118ae575b80156118a1575b1561185c5760068501805460ff811660078110156103005760018114908115611851575b501561180c57916040939160047f97927b87dc09cc0b1ac68bfececc490c2797c23dd6b778d344690cda6b0e95fc969460ff1916179055600052600a8152826000206115518154612b2a565b60405162461bcd60e51b815260048101859052601d60248201527f5472616465206e6f7420696e2072656c65617361626c652073746174650000006044820152606490fd5b6002915014886117c0565b60405162461bcd60e51b815260048101839052601960248201527f4e6f7420617574686f72697a656420746f2072656c65617365000000000000006044820152606490fd5b508260005416331461179c565b50336000526007825260ff60406000205416611795565b50600354811115611766565b34610367576040366003190112610367576004356118ed61289f565b906118f66129d9565b80151580611b46575b61190890612ae7565b3360005260206007815260ff604060002054168015611b32575b15611aee57816000526004815260406000206006810160ff815416600781101561030057600303611ab45790837f8fdd4548a8481406b6e29c0d6f25e27cd72502f79f4adf409468502e7920dabc939260018060a01b0380845416600052600a855260406000206119938154612b2a565b9055848815611a5957506040907f97927b87dc09cc0b1ac68bfececc490c2797c23dd6b778d344690cda6b0e95fc92600460ff1982541617905560028501908082541695600460018201916119f38484541699600583019a8b5491612a09565b0192835480611a21575b5050541694549054825191825286820152a35b60405193151584523393a360018055005b611a349084835416856008541690612a09565b82845491541660005260098952611a508560002091825461291b565b90558b806119fd565b907f598cf7b1037a2cbb27645d4ef91a50ab4b13db45cc85ebd8edeea26233ea928892600560ff198254161790558060028601541694611aa482825416966003830197885491612a09565b54169354604051908152a3611a10565b60405162461bcd60e51b8152600481018490526012602482015271151c985919481b9bdd08191a5cdc1d5d195960721b6044820152606490fd5b6064906040519062461bcd60e51b82526004820152601e60248201527f4f6e6c792061646d696e2f72656c617965722063616e207265736f6c766500006044820152fd5b506000546001600160a01b03163314611922565b506003548111156118ff565b34610367576000366003190112610367576020600b54604051908152f35b34610367576000366003190112610367576020604051620f42408152f35b34610367576020366003190112610367576060610180604051611bb081612751565b60008152600060208201526000604082015260008382015260006080820152600060a0820152600060c0820152600060e08201526000610100820152600061012082015260006101408201526000610160820152015260043560005260046020526040600020604051611c2281612751565b81546001600160a01b03908116825260018301548116602083015260028301541660408201526003820154606082015260048201546080820152600582015460a0820152600682015460ff169160078310156103005760c0820192909252600782015460e082015260088201546101008201526009820154610120820152600a820154610140820152600b8201546001600160a01b031661016082015261018091611ccf90600c016127ac565b82820152611d986040519283926020845260018060a01b03815116602085015260018060a01b03602082015116604085015260018060a01b03604082015116606085015260608101516080850152608081015160a085015260a081015160c0850152611d4360c082015160e0860190612852565b60e081015161010085015261010081015161012085015261012081015161014085015261014081015161016085015260018060a01b03610160820151168285015201516101a0808401526101c083019061285f565b0390f35b346103675760208060031936011261036757600435611db96129d9565b801515806120bb575b611dcb90612ae7565b8060005260048252604060002091600883015442119060018060a01b0380855416331492336000526007835260ff6040600020541680156120ae575b8115611f70575060ff600687015416600781101561030057600103611f05575b8015611eb9575b7f598cf7b1037a2cbb27645d4ef91a50ab4b13db45cc85ebd8edeea26233ea9288935015611eaf57611e6560065b60068701612a7b565b80855416600052600a82526040600020611e7f8154612b2a565b90558060028601541694611e9e82825416966003830197885491612a09565b54169354604051908152a360018055005b611e656005611e5c565b509180611ee9575b917f598cf7b1037a2cbb27645d4ef91a50ab4b13db45cc85ebd8edeea26233ea928892611e2e565b5060ff6006850154169160078310156103005791600114611ec1565b60405162461bcd60e51b815260048101849052603860248201527f4669617420616c72656164792073656e74202d20757365206175746f52656c6560448201527f61736520666f722062757965722070726f74656374696f6e00000000000000006064820152608490fd5b8415611fd4575060ff600687015416600781101561030057600114611e275760405162461bcd60e51b815260048101849052601d60248201527f43616e6e6f742063616e63656c20616674657220666961742073656e740000006044820152606490fd5b156120695760ff60068701541660078110159081610300576001811491821561205b575b821561204a575b5050611e275760405162461bcd60e51b815260048101849052601d60248201527f5472616465206e6f7420696e20726566756e6461626c652073746174650000006044820152606490fd5b909150610300576003148780611fff565b506002811491506000611ff8565b60405162461bcd60e51b815260048101849052601860248201527f4e6f7420617574686f72697a656420746f20726566756e6400000000000000006044820152606490fd5b5081600054163314611e07565b50600354811115611dc2565b34610367576000366003190112610367576020600254604051908152f35b346103675760203660031901126103675760043560005260046020526040600020600160a01b60019003808254169080600184015416928160028201541691600382015460048301546005840154600685015460ff16600786015491600887015493600988015495600a89015497600b8a01541698600c01612166906127ac565b996040519c8d9c8d5260208d015260408c015260608b015260808a015260a089015260c0880161219591612852565b60e08701526101008601526101208501526101408401526101608301526101a0806101808401528201611d989161285f565b34610367576080366003190112610367576121e06126eb565b6121e8612701565b906064918235926121f76129d9565b836001600160a01b03841615612694576001600160a01b0384163314612651576001600160a01b03831660009081526006602052604090205461223c9060ff166128da565b620f42406044351061260e5733600052600a602052604060002054600b5411156125d257156125c8575b6201518084116125865750612710612282600254604435612a59565b0490612290826044356129fc565b9361229c600354612a6c565b93846003556122ab824261291b565b604051966122b888612751565b33885260018060a01b038316602089015260018060a01b0385166040890152604435606089015285608089015260a0880152600160c08801524260e08801526101008701526000610120870152600061014087015260006101608701526040516123218161276e565b6000815261018087015284600052600460205260406000209560018060a01b03815116906001600160601b0360a01b91828954161788556001880160018060a01b03602083015116838254161790556002880160018060a01b0360408301511683825416179055606081015160038901556080810151600489015560a0810151600589015560c0810151916007831015610300576123c56101809360068b01612a7b565b60e082015160078a015561010082015160088a015561012082015160098a0155610140820151600a8a0155600b89019060018060a01b03610160840151169082541617905501519182519667ffffffffffffffff88116108c85787879461243e60209a612435600c860154612717565b600c8601612a93565b8990601f83116001146124fb5782600080516020612b388339815191529695936124ba9593600c936000926124f0575b50508160011b916000199060031b1c1916179101555b33600052600a8952604060002061249b8154612a6c565b90556124b460443530336001600160a01b038a16612928565b4261291b565b604080516001600160a01b0396871681526044356020820152908101969096526060860152909216923392908060808101610823565b015190508d8061246e565b959493929190600c83016000528a6000209660005b601f198416811061256c575082600080516020612b388339815191529798600c936001936124ba989796601f19811610612553575b505050811b01910155612484565b015160001960f88460031b161c191690558d8080612545565b8282015189556001909801978b9750918c01918c01612510565b60405162461bcd60e51b815260206004820152601b60248201527f4475726174696f6e20746f6f206c6f6e6720286d6178203234682900000000006044820152fd5b610e109350612266565b5060405162461bcd60e51b8152602060048201526016602482015275546f6f206d616e79206163746976652074726164657360501b6044820152fd5b5060405162461bcd60e51b815260206004820152601d60248201527f416d6f756e7420746f6f20736d616c6c20286d696e20312055534443290000006044820152fd5b5060405162461bcd60e51b815260206004820152601a60248201527f43616e6e6f74207472616465207769746820796f757273656c660000000000006044820152fd5b5060405162461bcd60e51b8152602060048201526015602482015274496e76616c6964206275796572206164647265737360581b6044820152fd5b3461036757600036600319011261036757806201518060209252f35b600435906001600160a01b038216820361036757565b602435906001600160a01b038216820361036757565b90600182811c92168015612747575b602083101461273157565b634e487b7160e01b600052602260045260246000fd5b91607f1691612726565b6101a0810190811067ffffffffffffffff8211176108c857604052565b6020810190811067ffffffffffffffff8211176108c857604052565b90601f8019910116810190811067ffffffffffffffff8211176108c857604052565b90604051918260008254926127c084612717565b90818452600194858116908160001461282f57506001146127ec575b50506127ea9250038361278a565b565b9093915060005260209081600020936000915b8183106128175750506127ea935082010138806127dc565b855488840185015294850194879450918301916127ff565b9150506127ea94506020925060ff191682840152151560051b82010138806127dc565b9060078210156103005752565b919082519283825260005b84811061288b575050826000602080949584010152601f8019910116010190565b60208183018101518483018201520161286a565b60243590811515820361036757565b6000546001600160a01b031633036128c257565b60405163118cdaa760e01b8152336004820152602490fd5b156128e157565b60405162461bcd60e51b8152602060048201526012602482015271151bdad95b881b9bdd08185c1c1c9bdd995960721b6044820152606490fd5b9190820180921161027d57565b6040516323b872dd60e01b60208201526001600160a01b03928316602482015292909116604483015260648083019390935291815260a081019181831067ffffffffffffffff8411176108c8576127ea926040525b906000602091828151910182855af115611734576000513d6129d057506001600160a01b0381163b155b6129ae5750565b604051635274afe760e01b81526001600160a01b039091166004820152602490fd5b600114156129a7565b6002600154146129ea576002600155565b604051633ee5aeb560e01b8152600490fd5b9190820391821161027d57565b60405163a9059cbb60e01b60208201526001600160a01b039092166024830152604480830193909352918152608081019167ffffffffffffffff8311828410176108c8576127ea9260405261297d565b8181029291811591840414171561027d57565b600019811461027d5760010190565b9060078110156103005760ff80198354169116179055565b90601f8111612aa157505050565b600091825260208220906020601f850160051c83019410612add575b601f0160051c01915b828110612ad257505050565b818155600101612ac6565b9092508290612abd565b15612aee57565b60405162461bcd60e51b8152602060048201526014602482015273151c98591948191bd95cc81b9bdd08195e1a5cdd60621b6044820152606490fd5b801561027d57600019019056fe5f41fb7cbdad789c17f3e3ffef0a920523917d85e5b27591e00eb1517a06c6e9a2646970667358221220aca5a71170380acf42b4847775f5d0ce73d9434e395bc9a3df1e53798be277e264736f6c63430008140033","opcodes":"PUSH1 0x80 CALLVALUE PUSH3 0x200 JUMPI PUSH3 0x2DBE SWAP1 PUSH1 0x1F CODESIZE DUP4 SWAP1 SUB SWAP1 DUP2 ADD PUSH1 0x1F NOT AND DUP3 ADD SWAP1 PUSH1 0x1 PUSH1 0x1 PUSH1 0x40 SHL SUB DUP3 GT DUP4 DUP4 LT OR PUSH3 0x205 JUMPI DUP1 DUP4 SWAP2 PUSH1 0x40 SWAP6 DUP7 SWAP5 DUP6 MSTORE DUP4 CODECOPY DUP2 ADD SUB SLT PUSH3 0x200 JUMPI PUSH3 0x4F DUP2 PUSH3 0x21B JUMP JUMPDEST PUSH3 0x5E PUSH1 0x20 DUP1 SWAP4 ADD PUSH3 0x21B JUMP JUMPDEST SWAP2 CALLER ISZERO PUSH3 0x1E8 JUMPI PUSH1 0x0 DUP1 SLOAD CALLER PUSH1 0x1 PUSH1 0x1 PUSH1 0xA0 SHL SUB NOT DUP1 DUP4 AND DUP3 OR DUP5 SSTORE DUP8 MLOAD SWAP4 SWAP7 SWAP4 SWAP6 SWAP1 SWAP4 PUSH1 0x1 PUSH1 0x1 PUSH1 0xA0 SHL SUB SWAP4 SWAP1 SWAP3 DUP5 SWAP3 SWAP2 DUP4 AND PUSH32 0x8BE0079C531659141344CD1FD0A4F28419497F9722A3DAAFE3B4186F6B6457E0 DUP11 DUP1 LOG3 PUSH1 0x1 DUP1 SSTORE PUSH1 0x32 PUSH1 0x2 SSTORE PUSH1 0xA PUSH1 0xB SSTORE AND SWAP5 DUP6 ISZERO PUSH3 0x1A6 JUMPI POP AND SWAP1 DUP2 ISZERO PUSH3 0x162 JUMPI SWAP2 PUSH32 0x54AEE4F020B814C26F556399A354577E068193A82445E919505B00B9848512A5 DUP7 DUP6 SWAP4 DUP2 SWAP7 PUSH32 0x5D16AD41BAEB009CD23EB8F6C7CDE5C2E0CD5ACF4A33926AB488875C37C37F38 SWAP9 SWAP7 PUSH1 0x8 SLOAD AND OR PUSH1 0x8 SSTORE DUP1 DUP7 MSTORE PUSH1 0x6 DUP5 MSTORE DUP2 DUP7 KECCAK256 PUSH1 0x1 PUSH1 0xFF NOT DUP3 SLOAD AND OR SWAP1 SSTORE DUP2 MLOAD SWAP1 DUP2 MSTORE PUSH1 0x1 DUP5 DUP3 ADD MSTORE LOG1 DUP4 MLOAD SWAP3 DUP4 MSTORE DUP3 ADD MSTORE LOG1 MLOAD PUSH2 0x2B8D SWAP1 DUP2 PUSH3 0x231 DUP3 CODECOPY RETURN JUMPDEST DUP6 MLOAD PUSH3 0x461BCD PUSH1 0xE5 SHL DUP2 MSTORE PUSH1 0x4 DUP2 ADD DUP5 SWAP1 MSTORE PUSH1 0x14 PUSH1 0x24 DUP3 ADD MSTORE PUSH32 0x496E76616C696420555344432061646472657373000000000000000000000000 PUSH1 0x44 DUP3 ADD MSTORE PUSH1 0x64 SWAP1 REVERT JUMPDEST PUSH3 0x461BCD PUSH1 0xE5 SHL DUP2 MSTORE PUSH1 0x4 DUP2 ADD DUP6 SWAP1 MSTORE PUSH1 0x15 PUSH1 0x24 DUP3 ADD MSTORE PUSH32 0x496E76616C69642066656520636F6C6C6563746F720000000000000000000000 PUSH1 0x44 DUP3 ADD MSTORE PUSH1 0x64 SWAP1 REVERT JUMPDEST DUP4 MLOAD PUSH4 0x1E4FBDF7 PUSH1 0xE0 SHL DUP2 MSTORE PUSH1 0x0 PUSH1 0x4 DUP3 ADD MSTORE PUSH1 0x24 SWAP1 REVERT JUMPDEST PUSH1 0x0 DUP1 REVERT JUMPDEST PUSH4 0x4E487B71 PUSH1 0xE0 SHL PUSH1 0x0 MSTORE PUSH1 0x41 PUSH1 0x4 MSTORE PUSH1 0x24 PUSH1 0x0 REVERT JUMPDEST MLOAD SWAP1 PUSH1 0x1 PUSH1 0x1 PUSH1 0xA0 SHL SUB DUP3 AND DUP3 SUB PUSH3 0x200 JUMPI JUMP INVALID PUSH1 0x80 DUP1 PUSH1 0x40 MSTORE PUSH1 0x4 CALLDATASIZE LT ISZERO PUSH2 0x13 JUMPI PUSH1 0x0 DUP1 REVERT JUMPDEST PUSH1 0x0 CALLDATALOAD PUSH1 0xE0 SHR SWAP1 DUP2 PUSH4 0x794305E EQ PUSH2 0x26CF JUMPI POP DUP1 PUSH4 0x1906FB4D EQ PUSH2 0x21C7 JUMPI DUP1 PUSH4 0x1E6C598E EQ PUSH2 0x20E5 JUMPI DUP1 PUSH4 0x24A9D853 EQ PUSH2 0x20C7 JUMPI DUP1 PUSH4 0x278ECDE1 EQ PUSH2 0x1D9C JUMPI DUP1 PUSH4 0x2DB25E05 EQ PUSH2 0x1B8E JUMPI DUP1 PUSH4 0x31B7D413 EQ PUSH2 0x1B70 JUMPI DUP1 PUSH4 0x3483CB02 EQ PUSH2 0x1B52 JUMPI DUP1 PUSH4 0x34B25EE2 EQ PUSH2 0x18D1 JUMPI DUP1 PUSH4 0x37BDC99B EQ PUSH2 0x1740 JUMPI DUP1 PUSH4 0x43AB265F EQ PUSH2 0x16B0 JUMPI DUP1 PUSH4 0x459B860E EQ PUSH2 0x1498 JUMPI DUP1 PUSH4 0x47E7EF24 EQ PUSH2 0x13AB JUMPI DUP1 PUSH4 0x5AEF573C EQ PUSH2 0x10DE JUMPI DUP1 PUSH4 0x6085C066 EQ PUSH2 0x10C1 JUMPI DUP1 PUSH4 0x660D15B5 EQ PUSH2 0x10A3 JUMPI DUP1 PUSH4 0x6D1EA3FA EQ PUSH2 0x1064 JUMPI DUP1 PUSH4 0x715018A6 EQ PUSH2 0x100B JUMPI DUP1 PUSH4 0x72C27B62 EQ PUSH2 0xF70 JUMPI DUP1 PUSH4 0x7E6A3400 EQ PUSH2 0xEF9 JUMPI DUP1 PUSH4 0x87D2FC82 EQ PUSH2 0xE85 JUMPI DUP1 PUSH4 0x88A40EED EQ PUSH2 0xE4B JUMPI DUP1 PUSH4 0x8CBA8B6A EQ PUSH2 0xE0C JUMPI DUP1 PUSH4 0x8DA5CB5B EQ PUSH2 0xDE3 JUMPI DUP1 PUSH4 0x95CCEA67 EQ PUSH2 0xDA4 JUMPI DUP1 PUSH4 0x99A5D747 EQ PUSH2 0xD68 JUMPI DUP1 PUSH4 0xA42DCE80 EQ PUSH2 0xCB6 JUMPI DUP1 PUSH4 0xAFBA9E22 EQ PUSH2 0xC7C JUMPI DUP1 PUSH4 0xC23F001F EQ PUSH2 0xC2B JUMPI DUP1 PUSH4 0xC415B95C EQ PUSH2 0xC02 JUMPI DUP1 PUSH4 0xD55BE8C6 EQ PUSH2 0xBE5 JUMPI DUP1 PUSH4 0xD9548E53 EQ PUSH2 0xB96 JUMPI DUP1 PUSH4 0xECD8DC3A EQ PUSH2 0xB06 JUMPI DUP1 PUSH4 0xF2FDE38B EQ PUSH2 0xA7D JUMPI DUP1 PUSH4 0xF3073C41 EQ PUSH2 0x47D JUMPI DUP1 PUSH4 0xF3FEF3A3 EQ PUSH2 0x389 JUMPI DUP1 PUSH4 0xF51F4BD2 EQ PUSH2 0x36C JUMPI PUSH4 0xFA254C18 EQ PUSH2 0x1C1 JUMPI PUSH1 0x0 DUP1 REVERT JUMPDEST CALLVALUE PUSH2 0x367 JUMPI PUSH1 0x20 DUP1 PUSH1 0x3 NOT CALLDATASIZE ADD SLT PUSH2 0x367 JUMPI PUSH1 0x4 CALLDATALOAD DUP1 ISZERO ISZERO DUP1 PUSH2 0x35B JUMPI JUMPDEST PUSH2 0x1E8 SWAP1 PUSH2 0x2AE7 JUMP JUMPDEST PUSH1 0x0 DUP2 DUP2 MSTORE PUSH1 0x4 DUP4 MSTORE PUSH1 0x40 SWAP1 KECCAK256 PUSH1 0x1 DUP2 ADD SLOAD PUSH1 0x1 PUSH1 0x1 PUSH1 0xA0 SHL SUB AND CALLER SUB PUSH2 0x316 JUMPI PUSH1 0x6 DUP2 ADD DUP1 SLOAD PUSH1 0xFF DUP2 AND PUSH1 0x7 DUP2 LT ISZERO PUSH2 0x300 JUMPI PUSH1 0x1 SUB PUSH2 0x2C8 JUMPI PUSH1 0x8 DUP4 ADD SLOAD TIMESTAMP GT PUSH2 0x293 JUMPI PUSH1 0x2 SWAP1 PUSH1 0xFF NOT AND OR SWAP1 SSTORE TIMESTAMP PUSH1 0x9 DUP3 ADD SSTORE PUSH2 0xA8C TIMESTAMP ADD SWAP3 DUP4 TIMESTAMP GT PUSH2 0x27D JUMPI DUP4 PUSH1 0xA PUSH32 0xCA4A124546E4D1EFB37A421D49B27E91E28818BC73A3385DED0E9DCBC125F54C SWAP4 ADD SSTORE PUSH1 0x40 MLOAD SWAP4 DUP5 MSTORE CALLER SWAP4 LOG3 STOP JUMPDEST PUSH4 0x4E487B71 PUSH1 0xE0 SHL PUSH1 0x0 MSTORE PUSH1 0x11 PUSH1 0x4 MSTORE PUSH1 0x24 PUSH1 0x0 REVERT JUMPDEST PUSH1 0x40 MLOAD PUSH3 0x461BCD PUSH1 0xE5 SHL DUP2 MSTORE PUSH1 0x4 DUP2 ADD DUP7 SWAP1 MSTORE PUSH1 0xD PUSH1 0x24 DUP3 ADD MSTORE PUSH13 0x151C98591948195E1C1A5C9959 PUSH1 0x9A SHL PUSH1 0x44 DUP3 ADD MSTORE PUSH1 0x64 SWAP1 REVERT JUMPDEST PUSH1 0x40 MLOAD PUSH3 0x461BCD PUSH1 0xE5 SHL DUP2 MSTORE PUSH1 0x4 DUP2 ADD DUP7 SWAP1 MSTORE PUSH1 0x10 PUSH1 0x24 DUP3 ADD MSTORE PUSH16 0x5472616465206E6F7420616374697665 PUSH1 0x80 SHL PUSH1 0x44 DUP3 ADD MSTORE PUSH1 0x64 SWAP1 REVERT JUMPDEST PUSH4 0x4E487B71 PUSH1 0xE0 SHL PUSH1 0x0 MSTORE PUSH1 0x21 PUSH1 0x4 MSTORE PUSH1 0x24 PUSH1 0x0 REVERT JUMPDEST PUSH1 0x40 MLOAD PUSH3 0x461BCD PUSH1 0xE5 SHL DUP2 MSTORE PUSH1 0x4 DUP2 ADD DUP5 SWAP1 MSTORE PUSH1 0x1D PUSH1 0x24 DUP3 ADD MSTORE PUSH32 0x4F6E6C792062757965722063616E206D61726B20666961742073656E74000000 PUSH1 0x44 DUP3 ADD MSTORE PUSH1 0x64 SWAP1 REVERT JUMPDEST POP PUSH1 0x3 SLOAD DUP2 GT ISZERO PUSH2 0x1DF JUMP JUMPDEST PUSH1 0x0 DUP1 REVERT JUMPDEST CALLVALUE PUSH2 0x367 JUMPI PUSH1 0x0 CALLDATASIZE PUSH1 0x3 NOT ADD SLT PUSH2 0x367 JUMPI PUSH1 0x20 PUSH1 0x40 MLOAD PUSH2 0xE10 DUP2 MSTORE RETURN JUMPDEST CALLVALUE PUSH2 0x367 JUMPI PUSH1 0x40 CALLDATASIZE PUSH1 0x3 NOT ADD SLT PUSH2 0x367 JUMPI PUSH2 0x3A2 PUSH2 0x26EB JUMP JUMPDEST PUSH1 0x24 CALLDATALOAD PUSH2 0x3AD PUSH2 0x29D9 JUMP JUMPDEST CALLER PUSH1 0x0 MSTORE PUSH1 0x20 PUSH1 0x5 DUP2 MSTORE PUSH1 0x40 PUSH1 0x0 KECCAK256 SWAP3 PUSH1 0x1 DUP1 PUSH1 0xA0 SHL SUB AND SWAP3 DUP4 PUSH1 0x0 MSTORE DUP2 MSTORE DUP2 PUSH1 0x40 PUSH1 0x0 KECCAK256 SLOAD LT PUSH2 0x439 JUMPI PUSH32 0x9B1BFA7FA9EE420A16E124F794C35AC9F90472ACC99140EB2F6447C714CAD8EB SWAP1 CALLER PUSH1 0x0 MSTORE PUSH1 0x5 DUP2 MSTORE PUSH1 0x40 PUSH1 0x0 KECCAK256 DUP5 PUSH1 0x0 MSTORE DUP2 MSTORE PUSH1 0x40 PUSH1 0x0 KECCAK256 PUSH2 0x41D DUP5 DUP3 SLOAD PUSH2 0x29FC JUMP JUMPDEST SWAP1 SSTORE PUSH2 0x42A DUP4 CALLER DUP7 PUSH2 0x2A09 JUMP JUMPDEST PUSH1 0x40 MLOAD SWAP3 DUP4 MSTORE CALLER SWAP3 LOG3 PUSH1 0x1 DUP1 SSTORE STOP JUMPDEST PUSH1 0x64 SWAP1 PUSH1 0x40 MLOAD SWAP1 PUSH3 0x461BCD PUSH1 0xE5 SHL DUP3 MSTORE PUSH1 0x4 DUP3 ADD MSTORE PUSH1 0x1A PUSH1 0x24 DUP3 ADD MSTORE PUSH32 0x496E73756666696369656E74207661756C742062616C616E6365000000000000 PUSH1 0x44 DUP3 ADD MSTORE REVERT JUMPDEST CALLVALUE PUSH2 0x367 JUMPI PUSH1 0xA0 CALLDATASIZE PUSH1 0x3 NOT ADD SLT PUSH2 0x367 JUMPI PUSH2 0x496 PUSH2 0x26EB JUMP JUMPDEST PUSH2 0x49E PUSH2 0x2701 JUMP JUMPDEST PUSH1 0x44 SWAP2 DUP3 CALLDATALOAD PUSH1 0x1 PUSH1 0x1 PUSH1 0xA0 SHL SUB DUP2 AND SWAP1 SUB PUSH2 0x367 JUMPI PUSH1 0x84 CALLDATALOAD SWAP3 PUSH2 0x4BF PUSH2 0x29D9 JUMP JUMPDEST DUP4 PUSH1 0x1 DUP1 PUSH1 0xA0 SHL SUB PUSH1 0x8 SLOAD AND CALLER EQ DUP1 ISZERO PUSH2 0xA69 JUMPI JUMPDEST ISZERO PUSH2 0xA30 JUMPI PUSH1 0x1 PUSH1 0x1 PUSH1 0xA0 SHL SUB DUP5 AND ISZERO PUSH2 0x9FC JUMPI PUSH1 0x1 PUSH1 0x1 PUSH1 0xA0 SHL SUB DUP4 DUP2 AND SWAP1 DUP6 AND EQ PUSH2 0x9CB JUMPI PUSH3 0xF4240 PUSH1 0x64 CALLDATALOAD LT PUSH2 0x99B JUMPI PUSH1 0x1 PUSH1 0x1 PUSH1 0xA0 SHL SUB DUP4 DUP2 AND PUSH1 0x0 SWAP1 DUP2 MSTORE PUSH1 0x5 PUSH1 0x20 SWAP1 DUP2 MSTORE PUSH1 0x40 DUP1 DUP4 KECCAK256 DUP7 CALLDATALOAD SWAP1 SWAP5 AND DUP4 MSTORE SWAP3 SWAP1 MSTORE KECCAK256 SLOAD PUSH1 0x64 CALLDATALOAD GT PUSH2 0x94D JUMPI PUSH1 0x1 PUSH1 0x1 PUSH1 0xA0 SHL SUB DUP4 AND PUSH1 0x0 SWAP1 DUP2 MSTORE PUSH1 0xA PUSH1 0x20 MSTORE PUSH1 0x40 SWAP1 KECCAK256 SLOAD PUSH1 0xB SLOAD GT ISZERO PUSH2 0x917 JUMPI PUSH1 0x1 DUP1 PUSH1 0xA0 SHL SUB DUP4 AND PUSH1 0x0 MSTORE PUSH1 0x5 PUSH1 0x20 MSTORE PUSH1 0x40 PUSH1 0x0 KECCAK256 PUSH1 0x1 DUP1 PUSH1 0xA0 SHL SUB DUP4 CALLDATALOAD AND PUSH1 0x0 MSTORE PUSH1 0x20 MSTORE PUSH1 0x40 PUSH1 0x0 KECCAK256 PUSH2 0x591 PUSH1 0x64 CALLDATALOAD DUP3 SLOAD PUSH2 0x29FC JUMP JUMPDEST SWAP1 SSTORE ISZERO PUSH2 0x90D JUMPI JUMPDEST PUSH3 0x15180 DUP5 GT PUSH2 0x8DE JUMPI PUSH2 0x2710 PUSH2 0x5B4 PUSH1 0x2 SLOAD PUSH1 0x64 CALLDATALOAD PUSH2 0x2A59 JUMP JUMPDEST DIV SWAP3 PUSH2 0x5C2 DUP5 PUSH1 0x64 CALLDATALOAD PUSH2 0x29FC JUMP JUMPDEST SWAP1 PUSH2 0x5CE PUSH1 0x3 SLOAD PUSH2 0x2A6C JUMP JUMPDEST SWAP5 DUP6 PUSH1 0x3 SSTORE PUSH2 0x5DD DUP8 TIMESTAMP PUSH2 0x291B JUMP JUMPDEST PUSH1 0x40 MLOAD SWAP4 PUSH2 0x5EA DUP6 PUSH2 0x2751 JUMP JUMPDEST PUSH1 0x1 DUP1 PUSH1 0xA0 SHL SUB DUP8 AND DUP6 MSTORE PUSH1 0x1 DUP1 PUSH1 0xA0 SHL SUB DUP5 AND PUSH1 0x20 DUP7 ADD MSTORE PUSH1 0x1 DUP1 PUSH1 0xA0 SHL SUB DUP7 CALLDATALOAD AND PUSH1 0x40 DUP7 ADD MSTORE PUSH1 0x64 CALLDATALOAD PUSH1 0x60 DUP7 ADD MSTORE DUP3 PUSH1 0x80 DUP7 ADD MSTORE PUSH1 0xA0 DUP6 ADD MSTORE PUSH1 0x1 PUSH1 0xC0 DUP6 ADD MSTORE TIMESTAMP PUSH1 0xE0 DUP6 ADD MSTORE PUSH2 0x100 DUP5 ADD MSTORE PUSH1 0x0 PUSH2 0x120 DUP5 ADD MSTORE PUSH1 0x0 PUSH2 0x140 DUP5 ADD MSTORE PUSH1 0x0 PUSH2 0x160 DUP5 ADD MSTORE PUSH1 0x40 MLOAD PUSH2 0x65C DUP2 PUSH2 0x276E JUMP JUMPDEST PUSH1 0x0 DUP2 MSTORE PUSH2 0x180 DUP5 ADD MSTORE DUP6 PUSH1 0x0 MSTORE PUSH1 0x4 PUSH1 0x20 MSTORE PUSH1 0x40 PUSH1 0x0 KECCAK256 SWAP3 PUSH1 0x1 DUP1 PUSH1 0xA0 SHL SUB DUP2 MLOAD AND SWAP1 PUSH1 0x1 PUSH1 0x1 PUSH1 0x60 SHL SUB PUSH1 0xA0 SHL SWAP2 DUP3 DUP7 SLOAD AND OR DUP6 SSTORE PUSH1 0x1 DUP6 ADD PUSH1 0x1 DUP1 PUSH1 0xA0 SHL SUB PUSH1 0x20 DUP4 ADD MLOAD AND DUP4 DUP3 SLOAD AND OR SWAP1 SSTORE PUSH1 0x2 DUP6 ADD PUSH1 0x1 DUP1 PUSH1 0xA0 SHL SUB PUSH1 0x40 DUP4 ADD MLOAD AND DUP4 DUP3 SLOAD AND OR SWAP1 SSTORE PUSH1 0x60 DUP2 ADD MLOAD PUSH1 0x3 DUP7 ADD SSTORE PUSH1 0x80 DUP2 ADD MLOAD PUSH1 0x4 DUP7 ADD SSTORE PUSH1 0xA0 DUP2 ADD MLOAD PUSH1 0x5 DUP7 ADD SSTORE PUSH1 0xC0 DUP2 ADD MLOAD SWAP2 PUSH1 0x7 DUP4 LT ISZERO PUSH2 0x300 JUMPI PUSH2 0x700 PUSH2 0x180 SWAP4 PUSH1 0x6 DUP9 ADD PUSH2 0x2A7B JUMP JUMPDEST PUSH1 0xE0 DUP3 ADD MLOAD PUSH1 0x7 DUP8 ADD SSTORE PUSH2 0x100 DUP3 ADD MLOAD PUSH1 0x8 DUP8 ADD SSTORE PUSH2 0x120 DUP3 ADD MLOAD PUSH1 0x9 DUP8 ADD SSTORE PUSH2 0x140 DUP3 ADD MLOAD PUSH1 0xA DUP8 ADD SSTORE PUSH1 0xB DUP7 ADD SWAP1 PUSH1 0x1 DUP1 PUSH1 0xA0 SHL SUB PUSH2 0x160 DUP5 ADD MLOAD AND SWAP1 DUP3 SLOAD AND OR SWAP1 SSTORE ADD MLOAD SWAP2 DUP3 MLOAD SWAP8 PUSH8 0xFFFFFFFFFFFFFFFF DUP10 GT PUSH2 0x8C8 JUMPI DUP9 DUP9 SWAP5 PUSH2 0x779 PUSH1 0x20 SWAP12 PUSH2 0x770 PUSH1 0xC DUP11 ADD SLOAD PUSH2 0x2717 JUMP JUMPDEST PUSH1 0xC DUP11 ADD PUSH2 0x2A93 JUMP JUMPDEST DUP11 SWAP1 PUSH1 0x1F DUP4 GT PUSH1 0x1 EQ PUSH2 0x83D JUMPI SWAP7 PUSH1 0xC DUP4 PUSH2 0x7EC SWAP5 PUSH2 0x823 SWAP7 SWAP5 PUSH1 0x0 DUP1 MLOAD PUSH1 0x20 PUSH2 0x2B38 DUP4 CODECOPY DUP2 MLOAD SWAP2 MSTORE SWAP11 SWAP12 PUSH1 0x0 SWAP3 PUSH2 0x832 JUMPI JUMPDEST POP POP DUP2 PUSH1 0x1 SHL SWAP2 PUSH1 0x0 NOT SWAP1 PUSH1 0x3 SHL SHR NOT AND OR SWAP2 ADD SSTORE JUMPDEST PUSH1 0x1 PUSH1 0x1 PUSH1 0xA0 SHL SUB DUP10 AND PUSH1 0x0 SWAP1 DUP2 MSTORE PUSH1 0xA DUP13 MSTORE PUSH1 0x40 SWAP1 KECCAK256 DUP1 SLOAD PUSH2 0x7E4 SWAP1 PUSH2 0x2A6C JUMP JUMPDEST SWAP1 SSTORE TIMESTAMP PUSH2 0x291B JUMP JUMPDEST PUSH1 0x40 DUP1 MLOAD PUSH1 0x1 PUSH1 0x1 PUSH1 0xA0 SHL SUB SWAP9 CALLDATALOAD DUP10 AND DUP2 MSTORE PUSH1 0x64 CALLDATALOAD PUSH1 0x20 DUP3 ADD MSTORE SWAP1 DUP2 ADD SWAP5 SWAP1 SWAP5 MSTORE PUSH1 0x60 DUP5 ADD MSTORE SWAP1 DUP6 AND SWAP6 SWAP1 SWAP5 AND SWAP4 DUP2 SWAP1 PUSH1 0x80 DUP3 ADD SWAP1 JUMP JUMPDEST SUB SWAP1 LOG4 PUSH1 0x1 DUP1 SSTORE PUSH1 0x40 MLOAD SWAP1 DUP2 MSTORE RETURN JUMPDEST ADD MLOAD SWAP1 POP DUP16 DUP1 PUSH2 0x7AC JUMP JUMPDEST PUSH1 0xC DUP9 SWAP4 SWAP3 SWAP9 ADD PUSH1 0x0 MSTORE DUP12 PUSH1 0x0 KECCAK256 SWAP1 PUSH1 0x0 JUMPDEST PUSH1 0x1F NOT DUP5 AND DUP2 LT PUSH2 0x8AE JUMPI POP PUSH1 0x1 DUP4 PUSH2 0x7EC SWAP6 SWAP4 PUSH1 0x0 DUP1 MLOAD PUSH1 0x20 PUSH2 0x2B38 DUP4 CODECOPY DUP2 MLOAD SWAP2 MSTORE SWAP11 SWAP12 PUSH1 0xC SWAP5 PUSH2 0x823 SWAP10 SWAP8 PUSH1 0x1F NOT DUP2 AND LT PUSH2 0x895 JUMPI JUMPDEST POP POP POP DUP2 SHL ADD SWAP2 ADD SSTORE PUSH2 0x7C2 JUMP JUMPDEST ADD MLOAD PUSH1 0x0 NOT PUSH1 0xF8 DUP5 PUSH1 0x3 SHL AND SHR NOT AND SWAP1 SSTORE DUP16 DUP1 DUP1 PUSH2 0x887 JUMP JUMPDEST DUP2 DUP11 ADD MLOAD DUP4 SSTORE SWAP9 DUP14 ADD SWAP9 DUP13 SWAP9 POP PUSH1 0x1 SWAP1 SWAP3 ADD SWAP2 DUP14 ADD PUSH2 0x84F JUMP JUMPDEST PUSH4 0x4E487B71 PUSH1 0xE0 SHL PUSH1 0x0 MSTORE PUSH1 0x41 PUSH1 0x4 MSTORE PUSH1 0x24 PUSH1 0x0 REVERT JUMPDEST PUSH1 0x64 SWAP1 PUSH8 0x546F6F206C6F6E67 PUSH1 0xC0 SHL PUSH1 0x40 MLOAD SWAP2 PUSH3 0x461BCD PUSH1 0xE5 SHL DUP4 MSTORE PUSH1 0x20 PUSH1 0x4 DUP5 ADD MSTORE PUSH1 0x8 PUSH1 0x24 DUP5 ADD MSTORE DUP3 ADD MSTORE REVERT JUMPDEST PUSH2 0xE10 SWAP4 POP PUSH2 0x599 JUMP JUMPDEST PUSH1 0x40 MLOAD PUSH3 0x461BCD PUSH1 0xE5 SHL DUP2 MSTORE PUSH1 0x20 PUSH1 0x4 DUP3 ADD MSTORE PUSH1 0xF PUSH1 0x24 DUP3 ADD MSTORE PUSH15 0x546F6F206D616E7920747261646573 PUSH1 0x88 SHL DUP2 DUP5 ADD MSTORE PUSH1 0x64 SWAP1 REVERT JUMPDEST PUSH1 0x40 MLOAD PUSH3 0x461BCD PUSH1 0xE5 SHL DUP2 MSTORE PUSH1 0x20 PUSH1 0x4 DUP3 ADD MSTORE PUSH1 0x21 PUSH1 0x24 DUP3 ADD MSTORE PUSH32 0x496E73756666696369656E742073656C6C6572207661756C742062616C616E63 DUP2 DUP5 ADD MSTORE PUSH1 0x65 PUSH1 0xF8 SHL PUSH1 0x64 DUP3 ADD MSTORE PUSH1 0x84 SWAP1 REVERT JUMPDEST PUSH1 0x40 MLOAD PUSH3 0x461BCD PUSH1 0xE5 SHL DUP2 MSTORE PUSH1 0x20 PUSH1 0x4 DUP3 ADD MSTORE PUSH1 0x9 PUSH1 0x24 DUP3 ADD MSTORE PUSH9 0x151BDBC81CDB585B1B PUSH1 0xBA SHL DUP2 DUP5 ADD MSTORE PUSH1 0x64 SWAP1 REVERT JUMPDEST PUSH1 0x40 MLOAD PUSH3 0x461BCD PUSH1 0xE5 SHL DUP2 MSTORE PUSH1 0x20 PUSH1 0x4 DUP3 ADD MSTORE PUSH1 0xA PUSH1 0x24 DUP3 ADD MSTORE PUSH10 0x53656C66207472616465 PUSH1 0xB0 SHL DUP2 DUP5 ADD MSTORE PUSH1 0x64 SWAP1 REVERT JUMPDEST PUSH1 0x40 MLOAD PUSH3 0x461BCD PUSH1 0xE5 SHL DUP2 MSTORE PUSH1 0x20 PUSH1 0x4 DUP3 ADD MSTORE PUSH1 0xD PUSH1 0x24 DUP3 ADD MSTORE PUSH13 0x24B73B30B634B210313ABCB2B9 PUSH1 0x99 SHL DUP2 DUP5 ADD MSTORE PUSH1 0x64 SWAP1 REVERT JUMPDEST PUSH1 0x40 MLOAD PUSH3 0x461BCD PUSH1 0xE5 SHL DUP2 MSTORE PUSH1 0x20 PUSH1 0x4 DUP3 ADD MSTORE PUSH1 0x12 PUSH1 0x24 DUP3 ADD MSTORE PUSH18 0x21B0B63632B9103737BA102932B630BCB2B9 PUSH1 0x71 SHL DUP2 DUP5 ADD MSTORE PUSH1 0x64 SWAP1 REVERT JUMPDEST POP PUSH1 0x0 SLOAD PUSH1 0x1 PUSH1 0x1 PUSH1 0xA0 SHL SUB AND CALLER EQ PUSH2 0x4D4 JUMP JUMPDEST CALLVALUE PUSH2 0x367 JUMPI PUSH1 0x20 CALLDATASIZE PUSH1 0x3 NOT ADD SLT PUSH2 0x367 JUMPI PUSH2 0xA96 PUSH2 0x26EB JUMP JUMPDEST PUSH2 0xA9E PUSH2 0x28AE JUMP JUMPDEST PUSH1 0x1 PUSH1 0x1 PUSH1 0xA0 SHL SUB SWAP1 DUP2 AND SWAP1 DUP2 ISZERO PUSH2 0xAED JUMPI PUSH1 0x0 SLOAD DUP3 PUSH1 0x1 PUSH1 0x1 PUSH1 0x60 SHL SUB PUSH1 0xA0 SHL DUP3 AND OR PUSH1 0x0 SSTORE AND PUSH32 0x8BE0079C531659141344CD1FD0A4F28419497F9722A3DAAFE3B4186F6B6457E0 PUSH1 0x0 DUP1 LOG3 STOP JUMPDEST PUSH1 0x40 MLOAD PUSH4 0x1E4FBDF7 PUSH1 0xE0 SHL DUP2 MSTORE PUSH1 0x0 PUSH1 0x4 DUP3 ADD MSTORE PUSH1 0x24 SWAP1 REVERT JUMPDEST CALLVALUE PUSH2 0x367 JUMPI PUSH1 0x40 CALLDATASIZE PUSH1 0x3 NOT ADD SLT PUSH2 0x367 JUMPI PUSH32 0x4B36B2E66F38ED349BEC532105790177F1283BCBC094E6CD48565195D3033C43 PUSH2 0xB40 PUSH2 0x26EB JUMP JUMPDEST PUSH2 0xB48 PUSH2 0x289F JUMP JUMPDEST SWAP1 PUSH2 0xB51 PUSH2 0x28AE JUMP JUMPDEST PUSH1 0x1 PUSH1 0x1 PUSH1 0xA0 SHL SUB DUP2 AND PUSH1 0x0 SWAP1 DUP2 MSTORE PUSH1 0x7 PUSH1 0x20 MSTORE PUSH1 0x40 SWAP1 KECCAK256 DUP1 SLOAD PUSH1 0xFF NOT AND PUSH1 0xFF DUP5 ISZERO ISZERO AND OR SWAP1 SSTORE JUMPDEST PUSH1 0x40 DUP1 MLOAD PUSH1 0x1 PUSH1 0x1 PUSH1 0xA0 SHL SUB SWAP3 SWAP1 SWAP3 AND DUP3 MSTORE SWAP2 ISZERO ISZERO PUSH1 0x20 DUP3 ADD MSTORE LOG1 STOP JUMPDEST CALLVALUE PUSH2 0x367 JUMPI PUSH1 0x20 CALLDATASIZE PUSH1 0x3 NOT ADD SLT PUSH2 0x367 JUMPI PUSH1 0x4 CALLDATALOAD DUP1 ISZERO ISZERO DUP1 PUSH2 0xBD9 JUMPI JUMPDEST PUSH2 0xBBC SWAP1 PUSH2 0x2AE7 JUMP JUMPDEST PUSH1 0x0 MSTORE PUSH1 0x4 PUSH1 0x20 MSTORE PUSH1 0x20 PUSH1 0x8 PUSH1 0x40 PUSH1 0x0 KECCAK256 ADD SLOAD TIMESTAMP GT PUSH1 0x40 MLOAD SWAP1 DUP2 MSTORE RETURN JUMPDEST POP PUSH1 0x3 SLOAD DUP2 GT ISZERO PUSH2 0xBB3 JUMP JUMPDEST CALLVALUE PUSH2 0x367 JUMPI PUSH1 0x0 CALLDATASIZE PUSH1 0x3 NOT ADD SLT PUSH2 0x367 JUMPI PUSH1 0x20 PUSH1 0x40 MLOAD PUSH2 0x1F4 DUP2 MSTORE RETURN JUMPDEST CALLVALUE PUSH2 0x367 JUMPI PUSH1 0x0 CALLDATASIZE PUSH1 0x3 NOT ADD SLT PUSH2 0x367 JUMPI PUSH1 0x8 SLOAD PUSH1 0x40 MLOAD PUSH1 0x1 PUSH1 0x1 PUSH1 0xA0 SHL SUB SWAP1 SWAP2 AND DUP2 MSTORE PUSH1 0x20 SWAP1 RETURN JUMPDEST CALLVALUE PUSH2 0x367 JUMPI PUSH1 0x40 CALLDATASIZE PUSH1 0x3 NOT ADD SLT PUSH2 0x367 JUMPI PUSH2 0xC44 PUSH2 0x26EB JUMP JUMPDEST PUSH2 0xC4C PUSH2 0x2701 JUMP JUMPDEST SWAP1 PUSH1 0x1 DUP1 PUSH1 0xA0 SHL SUB DUP1 SWAP2 AND PUSH1 0x0 MSTORE PUSH1 0x5 PUSH1 0x20 MSTORE PUSH1 0x40 PUSH1 0x0 KECCAK256 SWAP2 AND PUSH1 0x0 MSTORE PUSH1 0x20 MSTORE PUSH1 0x20 PUSH1 0x40 PUSH1 0x0 KECCAK256 SLOAD PUSH1 0x40 MLOAD SWAP1 DUP2 MSTORE RETURN JUMPDEST CALLVALUE PUSH2 0x367 JUMPI PUSH1 0x20 CALLDATASIZE PUSH1 0x3 NOT ADD SLT PUSH2 0x367 JUMPI PUSH1 0x1 PUSH1 0x1 PUSH1 0xA0 SHL SUB PUSH2 0xC9D PUSH2 0x26EB JUMP JUMPDEST AND PUSH1 0x0 MSTORE PUSH1 0xA PUSH1 0x20 MSTORE PUSH1 0x20 PUSH1 0x40 PUSH1 0x0 KECCAK256 SLOAD PUSH1 0x40 MLOAD SWAP1 DUP2 MSTORE RETURN JUMPDEST CALLVALUE PUSH2 0x367 JUMPI PUSH1 0x20 CALLDATASIZE PUSH1 0x3 NOT ADD SLT PUSH2 0x367 JUMPI PUSH2 0xCCF PUSH2 0x26EB JUMP JUMPDEST PUSH2 0xCD7 PUSH2 0x28AE JUMP JUMPDEST PUSH1 0x1 PUSH1 0x1 PUSH1 0xA0 SHL SUB SWAP1 DUP2 AND DUP1 ISZERO PUSH2 0xD31 JUMPI PUSH32 0x5D16AD41BAEB009CD23EB8F6C7CDE5C2E0CD5ACF4A33926AB488875C37C37F38 SWAP2 PUSH1 0x40 SWAP2 PUSH1 0x8 SLOAD SWAP2 DUP2 PUSH1 0x1 PUSH1 0x1 PUSH1 0x60 SHL SUB PUSH1 0xA0 SHL DUP5 AND OR PUSH1 0x8 SSTORE DUP4 MLOAD SWAP3 AND DUP3 MSTORE PUSH1 0x20 DUP3 ADD MSTORE LOG1 STOP JUMPDEST PUSH1 0x40 MLOAD PUSH3 0x461BCD PUSH1 0xE5 SHL DUP2 MSTORE PUSH1 0x20 PUSH1 0x4 DUP3 ADD MSTORE PUSH1 0xF PUSH1 0x24 DUP3 ADD MSTORE PUSH15 0x496E76616C69642061646472657373 PUSH1 0x88 SHL PUSH1 0x44 DUP3 ADD MSTORE PUSH1 0x64 SWAP1 REVERT JUMPDEST CALLVALUE PUSH2 0x367 JUMPI PUSH1 0x20 CALLDATASIZE PUSH1 0x3 NOT ADD SLT PUSH2 0x367 JUMPI PUSH1 0x40 PUSH1 0x4 CALLDATALOAD PUSH2 0xD98 PUSH2 0x2710 PUSH2 0xD90 PUSH1 0x2 SLOAD DUP5 PUSH2 0x2A59 JUMP JUMPDEST DIV DUP1 SWAP3 PUSH2 0x29FC JUMP JUMPDEST DUP3 MLOAD SWAP2 DUP3 MSTORE PUSH1 0x20 DUP3 ADD MSTORE RETURN JUMPDEST CALLVALUE PUSH2 0x367 JUMPI PUSH1 0x40 CALLDATASIZE PUSH1 0x3 NOT ADD SLT PUSH2 0x367 JUMPI PUSH2 0xDE1 PUSH2 0xDC0 PUSH2 0x26EB JUMP JUMPDEST PUSH2 0xDC8 PUSH2 0x28AE JUMP JUMPDEST PUSH1 0x0 SLOAD PUSH1 0x24 CALLDATALOAD SWAP2 PUSH1 0x1 PUSH1 0x1 PUSH1 0xA0 SHL SUB SWAP2 DUP3 AND SWAP2 AND PUSH2 0x2A09 JUMP JUMPDEST STOP JUMPDEST CALLVALUE PUSH2 0x367 JUMPI PUSH1 0x0 CALLDATASIZE PUSH1 0x3 NOT ADD SLT PUSH2 0x367 JUMPI PUSH1 0x0 SLOAD PUSH1 0x40 MLOAD PUSH1 0x1 PUSH1 0x1 PUSH1 0xA0 SHL SUB SWAP1 SWAP2 AND DUP2 MSTORE PUSH1 0x20 SWAP1 RETURN JUMPDEST CALLVALUE PUSH2 0x367 JUMPI PUSH1 0x20 CALLDATASIZE PUSH1 0x3 NOT ADD SLT PUSH2 0x367 JUMPI PUSH1 0x1 PUSH1 0x1 PUSH1 0xA0 SHL SUB PUSH2 0xE2D PUSH2 0x26EB JUMP JUMPDEST AND PUSH1 0x0 MSTORE PUSH1 0x7 PUSH1 0x20 MSTORE PUSH1 0x20 PUSH1 0xFF PUSH1 0x40 PUSH1 0x0 KECCAK256 SLOAD AND PUSH1 0x40 MLOAD SWAP1 ISZERO ISZERO DUP2 MSTORE RETURN JUMPDEST CALLVALUE PUSH2 0x367 JUMPI PUSH1 0x20 CALLDATASIZE PUSH1 0x3 NOT ADD SLT PUSH2 0x367 JUMPI PUSH1 0x1 PUSH1 0x1 PUSH1 0xA0 SHL SUB PUSH2 0xE6C PUSH2 0x26EB JUMP JUMPDEST AND PUSH1 0x0 MSTORE PUSH1 0x9 PUSH1 0x20 MSTORE PUSH1 0x20 PUSH1 0x40 PUSH1 0x0 KECCAK256 SLOAD PUSH1 0x40 MLOAD SWAP1 DUP2 MSTORE RETURN JUMPDEST CALLVALUE PUSH2 0x367 JUMPI PUSH1 0x20 CALLDATASIZE PUSH1 0x3 NOT ADD SLT PUSH2 0x367 JUMPI PUSH1 0x4 CALLDATALOAD PUSH2 0xEA1 PUSH2 0x28AE JUMP JUMPDEST DUP1 ISZERO ISZERO DUP1 PUSH2 0xEEE JUMPI JUMPDEST ISZERO PUSH2 0xEB4 JUMPI PUSH1 0xB SSTORE STOP JUMPDEST PUSH1 0x40 MLOAD PUSH3 0x461BCD PUSH1 0xE5 SHL DUP2 MSTORE PUSH1 0x20 PUSH1 0x4 DUP3 ADD MSTORE PUSH1 0x12 PUSH1 0x24 DUP3 ADD MSTORE PUSH18 0x496E76616C6964206D61782028312D353029 PUSH1 0x70 SHL PUSH1 0x44 DUP3 ADD MSTORE PUSH1 0x64 SWAP1 REVERT JUMPDEST POP PUSH1 0x32 DUP2 GT ISZERO PUSH2 0xEAA JUMP JUMPDEST CALLVALUE PUSH2 0x367 JUMPI PUSH1 0x40 CALLDATASIZE PUSH1 0x3 NOT ADD SLT PUSH2 0x367 JUMPI PUSH32 0x54AEE4F020B814C26F556399A354577E068193A82445E919505B00B9848512A5 PUSH2 0xF33 PUSH2 0x26EB JUMP JUMPDEST PUSH2 0xF3B PUSH2 0x289F JUMP JUMPDEST SWAP1 PUSH2 0xF44 PUSH2 0x28AE JUMP JUMPDEST PUSH1 0x1 PUSH1 0x1 PUSH1 0xA0 SHL SUB DUP2 AND PUSH1 0x0 SWAP1 DUP2 MSTORE PUSH1 0x6 PUSH1 0x20 MSTORE PUSH1 0x40 SWAP1 KECCAK256 DUP1 SLOAD PUSH1 0xFF NOT AND PUSH1 0xFF DUP5 ISZERO ISZERO AND OR SWAP1 SSTORE PUSH2 0xB79 JUMP JUMPDEST CALLVALUE PUSH2 0x367 JUMPI PUSH1 0x20 CALLDATASIZE PUSH1 0x3 NOT ADD SLT PUSH2 0x367 JUMPI PUSH1 0x4 CALLDATALOAD PUSH2 0xF8C PUSH2 0x28AE JUMP JUMPDEST PUSH2 0x1F4 DUP2 GT PUSH2 0xFCE JUMPI PUSH1 0x40 PUSH32 0x528D9479E9F9889A87A3C30C7F7BA537E5E59C4C85A37733B16E57C62DF61302 SWAP2 PUSH1 0x2 SLOAD SWAP1 DUP1 PUSH1 0x2 SSTORE DUP3 MLOAD SWAP2 DUP3 MSTORE PUSH1 0x20 DUP3 ADD MSTORE LOG1 STOP JUMPDEST PUSH1 0x40 MLOAD PUSH3 0x461BCD PUSH1 0xE5 SHL DUP2 MSTORE PUSH1 0x20 PUSH1 0x4 DUP3 ADD MSTORE PUSH1 0x15 PUSH1 0x24 DUP3 ADD MSTORE PUSH21 0x46656520746F6F206869676820286D617820352529 PUSH1 0x58 SHL PUSH1 0x44 DUP3 ADD MSTORE PUSH1 0x64 SWAP1 REVERT JUMPDEST CALLVALUE PUSH2 0x367 JUMPI PUSH1 0x0 CALLDATASIZE PUSH1 0x3 NOT ADD SLT PUSH2 0x367 JUMPI PUSH2 0x1024 PUSH2 0x28AE JUMP JUMPDEST PUSH1 0x0 DUP1 SLOAD PUSH1 0x1 PUSH1 0x1 PUSH1 0xA0 SHL SUB NOT DUP2 AND DUP3 SSTORE PUSH1 0x1 PUSH1 0x1 PUSH1 0xA0 SHL SUB AND PUSH32 0x8BE0079C531659141344CD1FD0A4F28419497F9722A3DAAFE3B4186F6B6457E0 DUP3 DUP1 LOG3 STOP JUMPDEST CALLVALUE PUSH2 0x367 JUMPI PUSH1 0x20 CALLDATASIZE PUSH1 0x3 NOT ADD SLT PUSH2 0x367 JUMPI PUSH1 0x1 PUSH1 0x1 PUSH1 0xA0 SHL SUB PUSH2 0x1085 PUSH2 0x26EB JUMP JUMPDEST AND PUSH1 0x0 MSTORE PUSH1 0x6 PUSH1 0x20 MSTORE PUSH1 0x20 PUSH1 0xFF PUSH1 0x40 PUSH1 0x0 KECCAK256 SLOAD AND PUSH1 0x40 MLOAD SWAP1 ISZERO ISZERO DUP2 MSTORE RETURN JUMPDEST CALLVALUE PUSH2 0x367 JUMPI PUSH1 0x0 CALLDATASIZE PUSH1 0x3 NOT ADD SLT PUSH2 0x367 JUMPI PUSH1 0x20 PUSH1 0x3 SLOAD PUSH1 0x40 MLOAD SWAP1 DUP2 MSTORE RETURN JUMPDEST CALLVALUE PUSH2 0x367 JUMPI PUSH1 0x0 CALLDATASIZE PUSH1 0x3 NOT ADD SLT PUSH2 0x367 JUMPI PUSH1 0x20 PUSH1 0x40 MLOAD PUSH2 0xA8C DUP2 MSTORE RETURN JUMPDEST CALLVALUE PUSH2 0x367 JUMPI PUSH1 0x40 CALLDATASIZE PUSH1 0x3 NOT ADD SLT PUSH2 0x367 JUMPI PUSH8 0xFFFFFFFFFFFFFFFF PUSH1 0x4 CALLDATALOAD PUSH1 0x24 DUP1 CALLDATALOAD SWAP1 DUP4 DUP3 GT PUSH2 0x367 JUMPI CALLDATASIZE PUSH1 0x23 DUP4 ADD SLT ISZERO PUSH2 0x367 JUMPI DUP2 PUSH1 0x4 ADD CALLDATALOAD SWAP4 DUP5 GT PUSH2 0x367 JUMPI CALLDATASIZE DUP2 DUP6 DUP5 ADD ADD GT PUSH2 0x367 JUMPI DUP3 ISZERO ISZERO DUP1 PUSH2 0x139F JUMPI JUMPDEST PUSH2 0x113B SWAP1 PUSH2 0x2AE7 JUMP JUMPDEST DUP3 PUSH1 0x0 MSTORE PUSH1 0x20 SWAP2 PUSH1 0x4 DUP4 MSTORE PUSH1 0x40 PUSH1 0x0 KECCAK256 PUSH1 0x1 DUP1 PUSH1 0xA0 SHL SUB DUP1 DUP3 SLOAD AND CALLER EQ SWAP1 DUP2 ISZERO PUSH2 0x138F JUMPI JUMPDEST POP ISZERO PUSH2 0x134B JUMPI PUSH1 0x6 DUP2 ADD DUP1 SLOAD SWAP1 PUSH1 0xFF DUP3 AND SWAP2 PUSH1 0x7 DUP4 LT ISZERO PUSH2 0x1336 JUMPI PUSH1 0x1 SWAP3 DUP4 DUP2 EQ SWAP1 DUP2 ISZERO PUSH2 0x132B JUMPI JUMPDEST POP ISZERO PUSH2 0x12E7 JUMPI PUSH1 0x3 SWAP1 PUSH1 0xFF NOT AND OR SWAP1 SSTORE PUSH1 0xB DUP3 ADD CALLER PUSH1 0x1 PUSH1 0x1 PUSH1 0x60 SHL SUB PUSH1 0xA0 SHL DUP3 SLOAD AND OR SWAP1 SSTORE PUSH1 0xC DUP3 ADD SWAP1 PUSH2 0x11C8 DUP9 PUSH2 0x11C2 DUP5 SLOAD PUSH2 0x2717 JUMP JUMPDEST DUP5 PUSH2 0x2A93 JUMP JUMPDEST DUP8 PUSH1 0x0 SWAP2 DUP7 PUSH1 0x1F DUP4 GT PUSH1 0x1 EQ PUSH2 0x127C JUMPI PUSH1 0x0 SWAP4 DUP4 PUSH2 0x126F JUMPI JUMPDEST POP POP SHL SWAP1 PUSH1 0x0 NOT DUP10 PUSH1 0x3 SHL SHR NOT AND OR SWAP1 SSTORE JUMPDEST PUSH3 0x3F480 TIMESTAMP ADD SWAP1 DUP2 TIMESTAMP GT PUSH2 0x125A JUMPI SWAP2 PUSH32 0xB90CAD70464BD57459E5D7277E908A9CECFDC1A71B2ED3A578B85BB44FF6563E SWAP5 SWAP4 SWAP2 PUSH1 0x8 DUP9 SWAP5 ADD SSTORE DUP3 PUSH1 0x40 MLOAD SWAP5 DUP1 DUP7 MSTORE DUP6 ADD MSTORE ADD PUSH1 0x40 DUP4 ADD CALLDATACOPY PUSH1 0x0 PUSH1 0x40 DUP6 DUP4 ADD ADD MSTORE PUSH1 0x40 DUP2 CALLER SWAP6 PUSH1 0x1F DUP1 NOT SWAP2 ADD AND DUP2 ADD SUB ADD SWAP1 LOG3 STOP JUMPDEST DUP4 PUSH4 0x4E487B71 PUSH1 0xE0 SHL PUSH1 0x0 MSTORE PUSH1 0x11 PUSH1 0x4 MSTORE PUSH1 0x0 REVERT JUMPDEST DUP8 ADD ADD CALLDATALOAD SWAP3 POP DUP7 DUP12 PUSH2 0x11E1 JUMP JUMPDEST POP SWAP2 SWAP1 POP PUSH1 0x1F NOT DUP10 AND SWAP1 DUP4 PUSH1 0x0 MSTORE DUP10 DUP9 PUSH1 0x0 KECCAK256 SWAP3 PUSH1 0x0 JUMPDEST DUP11 DUP7 DUP4 DUP4 LT PUSH2 0x12CE JUMPI POP POP POP LT PUSH2 0x12B2 JUMPI JUMPDEST POP POP DUP8 DUP2 SHL ADD SWAP1 SSTORE PUSH2 0x11F3 JUMP JUMPDEST DUP6 ADD DUP7 ADD CALLDATALOAD PUSH1 0x0 NOT PUSH1 0x3 DUP12 SWAP1 SHL PUSH1 0xF8 AND SHR NOT AND SWAP1 SSTORE DUP9 DUP1 PUSH2 0x12A5 JUMP JUMPDEST DUP6 DUP12 ADD DUP13 ADD CALLDATALOAD DUP8 SSTORE SWAP1 SWAP6 ADD SWAP5 SWAP4 DUP5 ADD SWAP4 DUP14 SWAP4 POP ADD PUSH2 0x1293 JUMP JUMPDEST PUSH1 0x40 MLOAD PUSH3 0x461BCD PUSH1 0xE5 SHL DUP2 MSTORE PUSH1 0x4 DUP2 ADD DUP9 SWAP1 MSTORE PUSH1 0x1D DUP2 DUP9 ADD MSTORE PUSH32 0x5472616465206E6F7420696E2064697370757461626C65207374617465000000 PUSH1 0x44 DUP3 ADD MSTORE PUSH1 0x64 SWAP1 REVERT JUMPDEST PUSH1 0x2 SWAP2 POP EQ DUP11 PUSH2 0x1189 JUMP JUMPDEST DUP6 PUSH4 0x4E487B71 PUSH1 0xE0 SHL PUSH1 0x0 MSTORE PUSH1 0x21 PUSH1 0x4 MSTORE PUSH1 0x0 REVERT JUMPDEST PUSH1 0x40 MLOAD PUSH3 0x461BCD PUSH1 0xE5 SHL DUP2 MSTORE PUSH1 0x4 DUP2 ADD DUP6 SWAP1 MSTORE PUSH1 0x1E DUP2 DUP6 ADD MSTORE PUSH32 0x4F6E6C7920747261646520706172746965732063616E20646973707574650000 PUSH1 0x44 DUP3 ADD MSTORE PUSH1 0x64 SWAP1 REVERT JUMPDEST SWAP1 POP PUSH1 0x1 DUP3 ADD SLOAD AND CALLER EQ DUP8 PUSH2 0x1160 JUMP JUMPDEST POP PUSH1 0x3 SLOAD DUP4 GT ISZERO PUSH2 0x1132 JUMP JUMPDEST CALLVALUE PUSH2 0x367 JUMPI PUSH1 0x40 CALLDATASIZE PUSH1 0x3 NOT ADD SLT PUSH2 0x367 JUMPI PUSH2 0x13C4 PUSH2 0x26EB JUMP JUMPDEST PUSH1 0x24 CALLDATALOAD SWAP1 PUSH2 0x13D0 PUSH2 0x29D9 JUMP JUMPDEST PUSH1 0x1 DUP1 PUSH1 0xA0 SHL SUB AND SWAP1 DUP2 PUSH1 0x0 MSTORE PUSH1 0x6 PUSH1 0x20 MSTORE PUSH2 0x13F3 PUSH1 0xFF PUSH1 0x40 PUSH1 0x0 KECCAK256 SLOAD AND PUSH2 0x28DA JUMP JUMPDEST DUP1 ISZERO PUSH2 0x145E JUMPI PUSH2 0x1405 DUP2 ADDRESS CALLER DUP6 PUSH2 0x2928 JUMP JUMPDEST CALLER PUSH1 0x0 MSTORE PUSH1 0x5 PUSH1 0x20 MSTORE PUSH1 0x40 PUSH1 0x0 KECCAK256 DUP3 PUSH1 0x0 MSTORE PUSH1 0x20 MSTORE PUSH1 0x40 PUSH1 0x0 KECCAK256 PUSH2 0x142A DUP3 DUP3 SLOAD PUSH2 0x291B JUMP JUMPDEST SWAP1 SSTORE PUSH1 0x40 MLOAD SWAP1 DUP2 MSTORE PUSH32 0x5548C837AB068CF56A2C2479DF0882A4922FD203EDB7517321831D95078C5F62 PUSH1 0x20 CALLER SWAP3 LOG3 PUSH1 0x1 DUP1 SSTORE STOP JUMPDEST PUSH1 0x40 MLOAD PUSH3 0x461BCD PUSH1 0xE5 SHL DUP2 MSTORE PUSH1 0x20 PUSH1 0x4 DUP3 ADD MSTORE PUSH1 0x12 PUSH1 0x24 DUP3 ADD MSTORE PUSH18 0x416D6F756E74206D757374206265203E203 PUSH1 0x74 SHL PUSH1 0x44 DUP3 ADD MSTORE PUSH1 0x64 SWAP1 REVERT JUMPDEST CALLVALUE PUSH2 0x367 JUMPI PUSH1 0x20 DUP1 PUSH1 0x3 NOT CALLDATASIZE ADD SLT PUSH2 0x367 JUMPI PUSH1 0x4 CALLDATALOAD PUSH2 0x14B5 PUSH2 0x29D9 JUMP JUMPDEST DUP1 ISZERO ISZERO DUP1 PUSH2 0x16A4 JUMPI JUMPDEST PUSH2 0x14C7 SWAP1 PUSH2 0x2AE7 JUMP JUMPDEST DUP1 PUSH1 0x0 MSTORE PUSH1 0x4 DUP3 MSTORE PUSH1 0x40 PUSH1 0x0 KECCAK256 SWAP2 PUSH1 0x6 DUP4 ADD DUP1 SLOAD PUSH1 0xFF DUP2 AND PUSH1 0x7 DUP2 LT ISZERO PUSH2 0x300 JUMPI PUSH1 0x2 SUB PUSH2 0x165F JUMPI PUSH1 0xA DUP6 ADD SLOAD DUP1 ISZERO PUSH2 0x1623 JUMPI TIMESTAMP GT ISZERO PUSH2 0x15D3 JUMPI SWAP2 PUSH1 0x40 SWAP2 PUSH1 0x4 PUSH32 0x489D0B4F43659843DABA0A17983382A3E77F5399083AC5405143FCF6806F8CA0 SWAP5 PUSH1 0xFF NOT AND OR SWAP1 SSTORE PUSH1 0x1 DUP1 PUSH1 0xA0 SHL SUB SWAP1 DUP2 DUP7 SLOAD AND PUSH1 0x0 MSTORE PUSH1 0xA DUP2 MSTORE DUP3 PUSH1 0x0 KECCAK256 PUSH2 0x1551 DUP2 SLOAD PUSH2 0x2B2A JUMP JUMPDEST SWAP1 SSTORE PUSH1 0x2 DUP7 ADD SWAP2 DUP1 DUP4 SLOAD AND SWAP7 PUSH1 0x4 PUSH1 0x1 DUP3 ADD SWAP2 PUSH2 0x1579 DUP5 DUP5 SLOAD AND SWAP11 PUSH1 0x5 DUP4 ADD SWAP12 DUP13 SLOAD SWAP2 PUSH2 0x2A09 JUMP JUMPDEST ADD SWAP4 DUP5 SLOAD DUP1 PUSH2 0x159B JUMPI JUMPDEST POP POP SLOAD AND SWAP6 SLOAD SWAP2 SLOAD SWAP1 DUP4 MLOAD SWAP3 DUP4 MSTORE DUP3 ADD MSTORE LOG3 PUSH1 0x1 DUP1 SSTORE STOP JUMPDEST PUSH2 0x15AE SWAP1 DUP5 DUP4 SLOAD AND DUP6 PUSH1 0x8 SLOAD AND SWAP1 PUSH2 0x2A09 JUMP JUMPDEST DUP3 DUP6 SLOAD SWAP2 SLOAD AND PUSH1 0x0 MSTORE PUSH1 0x9 DUP5 MSTORE PUSH2 0x15CA DUP7 PUSH1 0x0 KECCAK256 SWAP2 DUP3 SLOAD PUSH2 0x291B JUMP JUMPDEST SWAP1 SSTORE DUP9 DUP1 PUSH2 0x1583 JUMP JUMPDEST PUSH1 0x40 MLOAD PUSH3 0x461BCD PUSH1 0xE5 SHL DUP2 MSTORE PUSH1 0x4 DUP2 ADD DUP5 SWAP1 MSTORE PUSH1 0x22 PUSH1 0x24 DUP3 ADD MSTORE PUSH32 0x4175746F2D72656C656173652074696D6572206E6F7420657870697265642079 PUSH1 0x44 DUP3 ADD MSTORE PUSH2 0x195D PUSH1 0xF2 SHL PUSH1 0x64 DUP3 ADD MSTORE PUSH1 0x84 SWAP1 REVERT JUMPDEST PUSH1 0x40 MLOAD PUSH3 0x461BCD PUSH1 0xE5 SHL DUP2 MSTORE PUSH1 0x4 DUP2 ADD DUP6 SWAP1 MSTORE PUSH1 0x14 PUSH1 0x24 DUP3 ADD MSTORE PUSH20 0x105D5D1BCB5C995B19585CD9481B9BDD081CD95D PUSH1 0x62 SHL PUSH1 0x44 DUP3 ADD MSTORE PUSH1 0x64 SWAP1 REVERT JUMPDEST PUSH1 0x40 MLOAD PUSH3 0x461BCD PUSH1 0xE5 SHL DUP2 MSTORE PUSH1 0x4 DUP2 ADD DUP5 SWAP1 MSTORE PUSH1 0x17 PUSH1 0x24 DUP3 ADD MSTORE PUSH32 0x46696174206E6F74206D61726B65642061732073656E74000000000000000000 PUSH1 0x44 DUP3 ADD MSTORE PUSH1 0x64 SWAP1 REVERT JUMPDEST POP PUSH1 0x3 SLOAD DUP2 GT ISZERO PUSH2 0x14BE JUMP JUMPDEST CALLVALUE PUSH2 0x367 JUMPI PUSH1 0x20 DUP1 PUSH1 0x3 NOT CALLDATASIZE ADD SLT PUSH2 0x367 JUMPI PUSH1 0x24 DUP2 PUSH1 0x1 PUSH1 0x1 PUSH1 0xA0 SHL SUB PUSH2 0x16D5 PUSH2 0x26EB JUMP JUMPDEST AND PUSH1 0x40 MLOAD SWAP3 DUP4 DUP1 SWAP3 PUSH4 0x70A08231 PUSH1 0xE0 SHL DUP3 MSTORE ADDRESS PUSH1 0x4 DUP4 ADD MSTORE GAS STATICCALL SWAP1 DUP2 ISZERO PUSH2 0x1734 JUMPI PUSH1 0x0 SWAP2 PUSH2 0x1707 JUMPI JUMPDEST POP PUSH1 0x40 MLOAD SWAP1 DUP2 MSTORE RETURN JUMPDEST SWAP1 POP DUP2 DUP2 DUP2 RETURNDATASIZE DUP4 GT PUSH2 0x172D JUMPI JUMPDEST PUSH2 0x171E DUP2 DUP4 PUSH2 0x278A JUMP JUMPDEST DUP2 ADD SUB SLT PUSH2 0x367 JUMPI MLOAD DUP3 PUSH2 0x16FE JUMP JUMPDEST POP RETURNDATASIZE PUSH2 0x1714 JUMP JUMPDEST PUSH1 0x40 MLOAD RETURNDATASIZE PUSH1 0x0 DUP3 RETURNDATACOPY RETURNDATASIZE SWAP1 REVERT JUMPDEST CALLVALUE PUSH2 0x367 JUMPI PUSH1 0x20 DUP1 PUSH1 0x3 NOT CALLDATASIZE ADD SLT PUSH2 0x367 JUMPI PUSH1 0x4 CALLDATALOAD PUSH2 0x175D PUSH2 0x29D9 JUMP JUMPDEST DUP1 ISZERO ISZERO DUP1 PUSH2 0x18C5 JUMPI JUMPDEST PUSH2 0x176F SWAP1 PUSH2 0x2AE7 JUMP JUMPDEST PUSH1 0x0 DUP2 DUP2 MSTORE PUSH1 0x4 DUP4 MSTORE PUSH1 0x40 SWAP1 KECCAK256 DUP1 SLOAD SWAP1 SWAP3 PUSH1 0x1 PUSH1 0x1 PUSH1 0xA0 SHL SUB SWAP2 DUP3 AND CALLER DUP2 EQ DUP1 ISZERO PUSH2 0x18AE JUMPI JUMPDEST DUP1 ISZERO PUSH2 0x18A1 JUMPI JUMPDEST ISZERO PUSH2 0x185C JUMPI PUSH1 0x6 DUP6 ADD DUP1 SLOAD PUSH1 0xFF DUP2 AND PUSH1 0x7 DUP2 LT ISZERO PUSH2 0x300 JUMPI PUSH1 0x1 DUP2 EQ SWAP1 DUP2 ISZERO PUSH2 0x1851 JUMPI JUMPDEST POP ISZERO PUSH2 0x180C JUMPI SWAP2 PUSH1 0x40 SWAP4 SWAP2 PUSH1 0x4 PUSH32 0x97927B87DC09CC0B1AC68BFECECC490C2797C23DD6B778D344690CDA6B0E95FC SWAP7 SWAP5 PUSH1 0xFF NOT AND OR SWAP1 SSTORE PUSH1 0x0 MSTORE PUSH1 0xA DUP2 MSTORE DUP3 PUSH1 0x0 KECCAK256 PUSH2 0x1551 DUP2 SLOAD PUSH2 0x2B2A JUMP JUMPDEST PUSH1 0x40 MLOAD PUSH3 0x461BCD PUSH1 0xE5 SHL DUP2 MSTORE PUSH1 0x4 DUP2 ADD DUP6 SWAP1 MSTORE PUSH1 0x1D PUSH1 0x24 DUP3 ADD MSTORE PUSH32 0x5472616465206E6F7420696E2072656C65617361626C65207374617465000000 PUSH1 0x44 DUP3 ADD MSTORE PUSH1 0x64 SWAP1 REVERT JUMPDEST PUSH1 0x2 SWAP2 POP EQ DUP9 PUSH2 0x17C0 JUMP JUMPDEST PUSH1 0x40 MLOAD PUSH3 0x461BCD PUSH1 0xE5 SHL DUP2 MSTORE PUSH1 0x4 DUP2 ADD DUP4 SWAP1 MSTORE PUSH1 0x19 PUSH1 0x24 DUP3 ADD MSTORE PUSH32 0x4E6F7420617574686F72697A656420746F2072656C6561736500000000000000 PUSH1 0x44 DUP3 ADD MSTORE PUSH1 0x64 SWAP1 REVERT JUMPDEST POP DUP3 PUSH1 0x0 SLOAD AND CALLER EQ PUSH2 0x179C JUMP JUMPDEST POP CALLER PUSH1 0x0 MSTORE PUSH1 0x7 DUP3 MSTORE PUSH1 0xFF PUSH1 0x40 PUSH1 0x0 KECCAK256 SLOAD AND PUSH2 0x1795 JUMP JUMPDEST POP PUSH1 0x3 SLOAD DUP2 GT ISZERO PUSH2 0x1766 JUMP JUMPDEST CALLVALUE PUSH2 0x367 JUMPI PUSH1 0x40 CALLDATASIZE PUSH1 0x3 NOT ADD SLT PUSH2 0x367 JUMPI PUSH1 0x4 CALLDATALOAD PUSH2 0x18ED PUSH2 0x289F JUMP JUMPDEST SWAP1 PUSH2 0x18F6 PUSH2 0x29D9 JUMP JUMPDEST DUP1 ISZERO ISZERO DUP1 PUSH2 0x1B46 JUMPI JUMPDEST PUSH2 0x1908 SWAP1 PUSH2 0x2AE7 JUMP JUMPDEST CALLER PUSH1 0x0 MSTORE PUSH1 0x20 PUSH1 0x7 DUP2 MSTORE PUSH1 0xFF PUSH1 0x40 PUSH1 0x0 KECCAK256 SLOAD AND DUP1 ISZERO PUSH2 0x1B32 JUMPI JUMPDEST ISZERO PUSH2 0x1AEE JUMPI DUP2 PUSH1 0x0 MSTORE PUSH1 0x4 DUP2 MSTORE PUSH1 0x40 PUSH1 0x0 KECCAK256 PUSH1 0x6 DUP2 ADD PUSH1 0xFF DUP2 SLOAD AND PUSH1 0x7 DUP2 LT ISZERO PUSH2 0x300 JUMPI PUSH1 0x3 SUB PUSH2 0x1AB4 JUMPI SWAP1 DUP4 PUSH32 0x8FDD4548A8481406B6E29C0D6F25E27CD72502F79F4ADF409468502E7920DABC SWAP4 SWAP3 PUSH1 0x1 DUP1 PUSH1 0xA0 SHL SUB DUP1 DUP5 SLOAD AND PUSH1 0x0 MSTORE PUSH1 0xA DUP6 MSTORE PUSH1 0x40 PUSH1 0x0 KECCAK256 PUSH2 0x1993 DUP2 SLOAD PUSH2 0x2B2A JUMP JUMPDEST SWAP1 SSTORE DUP5 DUP9 ISZERO PUSH2 0x1A59 JUMPI POP PUSH1 0x40 SWAP1 PUSH32 0x97927B87DC09CC0B1AC68BFECECC490C2797C23DD6B778D344690CDA6B0E95FC SWAP3 PUSH1 0x4 PUSH1 0xFF NOT DUP3 SLOAD AND OR SWAP1 SSTORE PUSH1 0x2 DUP6 ADD SWAP1 DUP1 DUP3 SLOAD AND SWAP6 PUSH1 0x4 PUSH1 0x1 DUP3 ADD SWAP2 PUSH2 0x19F3 DUP5 DUP5 SLOAD AND SWAP10 PUSH1 0x5 DUP4 ADD SWAP11 DUP12 SLOAD SWAP2 PUSH2 0x2A09 JUMP JUMPDEST ADD SWAP3 DUP4 SLOAD DUP1 PUSH2 0x1A21 JUMPI JUMPDEST POP POP SLOAD AND SWAP5 SLOAD SWAP1 SLOAD DUP3 MLOAD SWAP2 DUP3 MSTORE DUP7 DUP3 ADD MSTORE LOG3 JUMPDEST PUSH1 0x40 MLOAD SWAP4 ISZERO ISZERO DUP5 MSTORE CALLER SWAP4 LOG3 PUSH1 0x1 DUP1 SSTORE STOP JUMPDEST PUSH2 0x1A34 SWAP1 DUP5 DUP4 SLOAD AND DUP6 PUSH1 0x8 SLOAD AND SWAP1 PUSH2 0x2A09 JUMP JUMPDEST DUP3 DUP5 SLOAD SWAP2 SLOAD AND PUSH1 0x0 MSTORE PUSH1 0x9 DUP10 MSTORE PUSH2 0x1A50 DUP6 PUSH1 0x0 KECCAK256 SWAP2 DUP3 SLOAD PUSH2 0x291B JUMP JUMPDEST SWAP1 SSTORE DUP12 DUP1 PUSH2 0x19FD JUMP JUMPDEST SWAP1 PUSH32 0x598CF7B1037A2CBB27645D4EF91A50AB4B13DB45CC85EBD8EDEEA26233EA9288 SWAP3 PUSH1 0x5 PUSH1 0xFF NOT DUP3 SLOAD AND OR SWAP1 SSTORE DUP1 PUSH1 0x2 DUP7 ADD SLOAD AND SWAP5 PUSH2 0x1AA4 DUP3 DUP3 SLOAD AND SWAP7 PUSH1 0x3 DUP4 ADD SWAP8 DUP9 SLOAD SWAP2 PUSH2 0x2A09 JUMP JUMPDEST SLOAD AND SWAP4 SLOAD PUSH1 0x40 MLOAD SWAP1 DUP2 MSTORE LOG3 PUSH2 0x1A10 JUMP JUMPDEST PUSH1 0x40 MLOAD PUSH3 0x461BCD PUSH1 0xE5 SHL DUP2 MSTORE PUSH1 0x4 DUP2 ADD DUP5 SWAP1 MSTORE PUSH1 0x12 PUSH1 0x24 DUP3 ADD MSTORE PUSH18 0x151C985919481B9BDD08191A5CDC1D5D1959 PUSH1 0x72 SHL PUSH1 0x44 DUP3 ADD MSTORE PUSH1 0x64 SWAP1 REVERT JUMPDEST PUSH1 0x64 SWAP1 PUSH1 0x40 MLOAD SWAP1 PUSH3 0x461BCD PUSH1 0xE5 SHL DUP3 MSTORE PUSH1 0x4 DUP3 ADD MSTORE PUSH1 0x1E PUSH1 0x24 DUP3 ADD MSTORE PUSH32 0x4F6E6C792061646D696E2F72656C617965722063616E207265736F6C76650000 PUSH1 0x44 DUP3 ADD MSTORE REVERT JUMPDEST POP PUSH1 0x0 SLOAD PUSH1 0x1 PUSH1 0x1 PUSH1 0xA0 SHL SUB AND CALLER EQ PUSH2 0x1922 JUMP JUMPDEST POP PUSH1 0x3 SLOAD DUP2 GT ISZERO PUSH2 0x18FF JUMP JUMPDEST CALLVALUE PUSH2 0x367 JUMPI PUSH1 0x0 CALLDATASIZE PUSH1 0x3 NOT ADD SLT PUSH2 0x367 JUMPI PUSH1 0x20 PUSH1 0xB SLOAD PUSH1 0x40 MLOAD SWAP1 DUP2 MSTORE RETURN JUMPDEST CALLVALUE PUSH2 0x367 JUMPI PUSH1 0x0 CALLDATASIZE PUSH1 0x3 NOT ADD SLT PUSH2 0x367 JUMPI PUSH1 0x20 PUSH1 0x40 MLOAD PUSH3 0xF4240 DUP2 MSTORE RETURN JUMPDEST CALLVALUE PUSH2 0x367 JUMPI PUSH1 0x20 CALLDATASIZE PUSH1 0x3 NOT ADD SLT PUSH2 0x367 JUMPI PUSH1 0x60 PUSH2 0x180 PUSH1 0x40 MLOAD PUSH2 0x1BB0 DUP2 PUSH2 0x2751 JUMP JUMPDEST PUSH1 0x0 DUP2 MSTORE PUSH1 0x0 PUSH1 0x20 DUP3 ADD MSTORE PUSH1 0x0 PUSH1 0x40 DUP3 ADD MSTORE PUSH1 0x0 DUP4 DUP3 ADD MSTORE PUSH1 0x0 PUSH1 0x80 DUP3 ADD MSTORE PUSH1 0x0 PUSH1 0xA0 DUP3 ADD MSTORE PUSH1 0x0 PUSH1 0xC0 DUP3 ADD MSTORE PUSH1 0x0 PUSH1 0xE0 DUP3 ADD MSTORE PUSH1 0x0 PUSH2 0x100 DUP3 ADD MSTORE PUSH1 0x0 PUSH2 0x120 DUP3 ADD MSTORE PUSH1 0x0 PUSH2 0x140 DUP3 ADD MSTORE PUSH1 0x0 PUSH2 0x160 DUP3 ADD MSTORE ADD MSTORE PUSH1 0x4 CALLDATALOAD PUSH1 0x0 MSTORE PUSH1 0x4 PUSH1 0x20 MSTORE PUSH1 0x40 PUSH1 0x0 KECCAK256 PUSH1 0x40 MLOAD PUSH2 0x1C22 DUP2 PUSH2 0x2751 JUMP JUMPDEST DUP2 SLOAD PUSH1 0x1 PUSH1 0x1 PUSH1 0xA0 SHL SUB SWAP1 DUP2 AND DUP3 MSTORE PUSH1 0x1 DUP4 ADD SLOAD DUP2 AND PUSH1 0x20 DUP4 ADD MSTORE PUSH1 0x2 DUP4 ADD SLOAD AND PUSH1 0x40 DUP3 ADD MSTORE PUSH1 0x3 DUP3 ADD SLOAD PUSH1 0x60 DUP3 ADD MSTORE PUSH1 0x4 DUP3 ADD SLOAD PUSH1 0x80 DUP3 ADD MSTORE PUSH1 0x5 DUP3 ADD SLOAD PUSH1 0xA0 DUP3 ADD MSTORE PUSH1 0x6 DUP3 ADD SLOAD PUSH1 0xFF AND SWAP2 PUSH1 0x7 DUP4 LT ISZERO PUSH2 0x300 JUMPI PUSH1 0xC0 DUP3 ADD SWAP3 SWAP1 SWAP3 MSTORE PUSH1 0x7 DUP3 ADD SLOAD PUSH1 0xE0 DUP3 ADD MSTORE PUSH1 0x8 DUP3 ADD SLOAD PUSH2 0x100 DUP3 ADD MSTORE PUSH1 0x9 DUP3 ADD SLOAD PUSH2 0x120 DUP3 ADD MSTORE PUSH1 0xA DUP3 ADD SLOAD PUSH2 0x140 DUP3 ADD MSTORE PUSH1 0xB DUP3 ADD SLOAD PUSH1 0x1 PUSH1 0x1 PUSH1 0xA0 SHL SUB AND PUSH2 0x160 DUP3 ADD MSTORE PUSH2 0x180 SWAP2 PUSH2 0x1CCF SWAP1 PUSH1 0xC ADD PUSH2 0x27AC JUMP JUMPDEST DUP3 DUP3 ADD MSTORE PUSH2 0x1D98 PUSH1 0x40 MLOAD SWAP3 DUP4 SWAP3 PUSH1 0x20 DUP5 MSTORE PUSH1 0x1 DUP1 PUSH1 0xA0 SHL SUB DUP2 MLOAD AND PUSH1 0x20 DUP6 ADD MSTORE PUSH1 0x1 DUP1 PUSH1 0xA0 SHL SUB PUSH1 0x20 DUP3 ADD MLOAD AND PUSH1 0x40 DUP6 ADD MSTORE PUSH1 0x1 DUP1 PUSH1 0xA0 SHL SUB PUSH1 0x40 DUP3 ADD MLOAD AND PUSH1 0x60 DUP6 ADD MSTORE PUSH1 0x60 DUP2 ADD MLOAD PUSH1 0x80 DUP6 ADD MSTORE PUSH1 0x80 DUP2 ADD MLOAD PUSH1 0xA0 DUP6 ADD MSTORE PUSH1 0xA0 DUP2 ADD MLOAD PUSH1 0xC0 DUP6 ADD MSTORE PUSH2 0x1D43 PUSH1 0xC0 DUP3 ADD MLOAD PUSH1 0xE0 DUP7 ADD SWAP1 PUSH2 0x2852 JUMP JUMPDEST PUSH1 0xE0 DUP2 ADD MLOAD PUSH2 0x100 DUP6 ADD MSTORE PUSH2 0x100 DUP2 ADD MLOAD PUSH2 0x120 DUP6 ADD MSTORE PUSH2 0x120 DUP2 ADD MLOAD PUSH2 0x140 DUP6 ADD MSTORE PUSH2 0x140 DUP2 ADD MLOAD PUSH2 0x160 DUP6 ADD MSTORE PUSH1 0x1 DUP1 PUSH1 0xA0 SHL SUB PUSH2 0x160 DUP3 ADD MLOAD AND DUP3 DUP6 ADD MSTORE ADD MLOAD PUSH2 0x1A0 DUP1 DUP5 ADD MSTORE PUSH2 0x1C0 DUP4 ADD SWAP1 PUSH2 0x285F JUMP JUMPDEST SUB SWAP1 RETURN JUMPDEST CALLVALUE PUSH2 0x367 JUMPI PUSH1 0x20 DUP1 PUSH1 0x3 NOT CALLDATASIZE ADD SLT PUSH2 0x367 JUMPI PUSH1 0x4 CALLDATALOAD PUSH2 0x1DB9 PUSH2 0x29D9 JUMP JUMPDEST DUP1 ISZERO ISZERO DUP1 PUSH2 0x20BB JUMPI JUMPDEST PUSH2 0x1DCB SWAP1 PUSH2 0x2AE7 JUMP JUMPDEST DUP1 PUSH1 0x0 MSTORE PUSH1 0x4 DUP3 MSTORE PUSH1 0x40 PUSH1 0x0 KECCAK256 SWAP2 PUSH1 0x8 DUP4 ADD SLOAD TIMESTAMP GT SWAP1 PUSH1 0x1 DUP1 PUSH1 0xA0 SHL SUB DUP1 DUP6 SLOAD AND CALLER EQ SWAP3 CALLER PUSH1 0x0 MSTORE PUSH1 0x7 DUP4 MSTORE PUSH1 0xFF PUSH1 0x40 PUSH1 0x0 KECCAK256 SLOAD AND DUP1 ISZERO PUSH2 0x20AE JUMPI JUMPDEST DUP2 ISZERO PUSH2 0x1F70 JUMPI POP PUSH1 0xFF PUSH1 0x6 DUP8 ADD SLOAD AND PUSH1 0x7 DUP2 LT ISZERO PUSH2 0x300 JUMPI PUSH1 0x1 SUB PUSH2 0x1F05 JUMPI JUMPDEST DUP1 ISZERO PUSH2 0x1EB9 JUMPI JUMPDEST PUSH32 0x598CF7B1037A2CBB27645D4EF91A50AB4B13DB45CC85EBD8EDEEA26233EA9288 SWAP4 POP ISZERO PUSH2 0x1EAF JUMPI PUSH2 0x1E65 PUSH1 0x6 JUMPDEST PUSH1 0x6 DUP8 ADD PUSH2 0x2A7B JUMP JUMPDEST DUP1 DUP6 SLOAD AND PUSH1 0x0 MSTORE PUSH1 0xA DUP3 MSTORE PUSH1 0x40 PUSH1 0x0 KECCAK256 PUSH2 0x1E7F DUP2 SLOAD PUSH2 0x2B2A JUMP JUMPDEST SWAP1 SSTORE DUP1 PUSH1 0x2 DUP7 ADD SLOAD AND SWAP5 PUSH2 0x1E9E DUP3 DUP3 SLOAD AND SWAP7 PUSH1 0x3 DUP4 ADD SWAP8 DUP9 SLOAD SWAP2 PUSH2 0x2A09 JUMP JUMPDEST SLOAD AND SWAP4 SLOAD PUSH1 0x40 MLOAD SWAP1 DUP2 MSTORE LOG3 PUSH1 0x1 DUP1 SSTORE STOP JUMPDEST PUSH2 0x1E65 PUSH1 0x5 PUSH2 0x1E5C JUMP JUMPDEST POP SWAP2 DUP1 PUSH2 0x1EE9 JUMPI JUMPDEST SWAP2 PUSH32 0x598CF7B1037A2CBB27645D4EF91A50AB4B13DB45CC85EBD8EDEEA26233EA9288 SWAP3 PUSH2 0x1E2E JUMP JUMPDEST POP PUSH1 0xFF PUSH1 0x6 DUP6 ADD SLOAD AND SWAP2 PUSH1 0x7 DUP4 LT ISZERO PUSH2 0x300 JUMPI SWAP2 PUSH1 0x1 EQ PUSH2 0x1EC1 JUMP JUMPDEST PUSH1 0x40 MLOAD PUSH3 0x461BCD PUSH1 0xE5 SHL DUP2 MSTORE PUSH1 0x4 DUP2 ADD DUP5 SWAP1 MSTORE PUSH1 0x38 PUSH1 0x24 DUP3 ADD MSTORE PUSH32 0x4669617420616C72656164792073656E74202D20757365206175746F52656C65 PUSH1 0x44 DUP3 ADD MSTORE PUSH32 0x61736520666F722062757965722070726F74656374696F6E0000000000000000 PUSH1 0x64 DUP3 ADD MSTORE PUSH1 0x84 SWAP1 REVERT JUMPDEST DUP5 ISZERO PUSH2 0x1FD4 JUMPI POP PUSH1 0xFF PUSH1 0x6 DUP8 ADD SLOAD AND PUSH1 0x7 DUP2 LT ISZERO PUSH2 0x300 JUMPI PUSH1 0x1 EQ PUSH2 0x1E27 JUMPI PUSH1 0x40 MLOAD PUSH3 0x461BCD PUSH1 0xE5 SHL DUP2 MSTORE PUSH1 0x4 DUP2 ADD DUP5 SWAP1 MSTORE PUSH1 0x1D PUSH1 0x24 DUP3 ADD MSTORE PUSH32 0x43616E6E6F742063616E63656C20616674657220666961742073656E74000000 PUSH1 0x44 DUP3 ADD MSTORE PUSH1 0x64 SWAP1 REVERT JUMPDEST ISZERO PUSH2 0x2069 JUMPI PUSH1 0xFF PUSH1 0x6 DUP8 ADD SLOAD AND PUSH1 0x7 DUP2 LT ISZERO SWAP1 DUP2 PUSH2 0x300 JUMPI PUSH1 0x1 DUP2 EQ SWAP2 DUP3 ISZERO PUSH2 0x205B JUMPI JUMPDEST DUP3 ISZERO PUSH2 0x204A JUMPI JUMPDEST POP POP PUSH2 0x1E27 JUMPI PUSH1 0x40 MLOAD PUSH3 0x461BCD PUSH1 0xE5 SHL DUP2 MSTORE PUSH1 0x4 DUP2 ADD DUP5 SWAP1 MSTORE PUSH1 0x1D PUSH1 0x24 DUP3 ADD MSTORE PUSH32 0x5472616465206E6F7420696E20726566756E6461626C65207374617465000000 PUSH1 0x44 DUP3 ADD MSTORE PUSH1 0x64 SWAP1 REVERT JUMPDEST SWAP1 SWAP2 POP PUSH2 0x300 JUMPI PUSH1 0x3 EQ DUP8 DUP1 PUSH2 0x1FFF JUMP JUMPDEST POP PUSH1 0x2 DUP2 EQ SWAP2 POP PUSH1 0x0 PUSH2 0x1FF8 JUMP JUMPDEST PUSH1 0x40 MLOAD PUSH3 0x461BCD PUSH1 0xE5 SHL DUP2 MSTORE PUSH1 0x4 DUP2 ADD DUP5 SWAP1 MSTORE PUSH1 0x18 PUSH1 0x24 DUP3 ADD MSTORE PUSH32 0x4E6F7420617574686F72697A656420746F20726566756E640000000000000000 PUSH1 0x44 DUP3 ADD MSTORE PUSH1 0x64 SWAP1 REVERT JUMPDEST POP DUP2 PUSH1 0x0 SLOAD AND CALLER EQ PUSH2 0x1E07 JUMP JUMPDEST POP PUSH1 0x3 SLOAD DUP2 GT ISZERO PUSH2 0x1DC2 JUMP JUMPDEST CALLVALUE PUSH2 0x367 JUMPI PUSH1 0x0 CALLDATASIZE PUSH1 0x3 NOT ADD SLT PUSH2 0x367 JUMPI PUSH1 0x20 PUSH1 0x2 SLOAD PUSH1 0x40 MLOAD SWAP1 DUP2 MSTORE RETURN JUMPDEST CALLVALUE PUSH2 0x367 JUMPI PUSH1 0x20 CALLDATASIZE PUSH1 0x3 NOT ADD SLT PUSH2 0x367 JUMPI PUSH1 0x4 CALLDATALOAD PUSH1 0x0 MSTORE PUSH1 0x4 PUSH1 0x20 MSTORE PUSH1 0x40 PUSH1 0x0 KECCAK256 PUSH1 0x1 PUSH1 0xA0 SHL PUSH1 0x1 SWAP1 SUB DUP1 DUP3 SLOAD AND SWAP1 DUP1 PUSH1 0x1 DUP5 ADD SLOAD AND SWAP3 DUP2 PUSH1 0x2 DUP3 ADD SLOAD AND SWAP2 PUSH1 0x3 DUP3 ADD SLOAD PUSH1 0x4 DUP4 ADD SLOAD PUSH1 0x5 DUP5 ADD SLOAD PUSH1 0x6 DUP6 ADD SLOAD PUSH1 0xFF AND PUSH1 0x7 DUP7 ADD SLOAD SWAP2 PUSH1 0x8 DUP8 ADD SLOAD SWAP4 PUSH1 0x9 DUP9 ADD SLOAD SWAP6 PUSH1 0xA DUP10 ADD SLOAD SWAP8 PUSH1 0xB DUP11 ADD SLOAD AND SWAP9 PUSH1 0xC ADD PUSH2 0x2166 SWAP1 PUSH2 0x27AC JUMP JUMPDEST SWAP10 PUSH1 0x40 MLOAD SWAP13 DUP14 SWAP13 DUP14 MSTORE PUSH1 0x20 DUP14 ADD MSTORE PUSH1 0x40 DUP13 ADD MSTORE PUSH1 0x60 DUP12 ADD MSTORE PUSH1 0x80 DUP11 ADD MSTORE PUSH1 0xA0 DUP10 ADD MSTORE PUSH1 0xC0 DUP9 ADD PUSH2 0x2195 SWAP2 PUSH2 0x2852 JUMP JUMPDEST PUSH1 0xE0 DUP8 ADD MSTORE PUSH2 0x100 DUP7 ADD MSTORE PUSH2 0x120 DUP6 ADD MSTORE PUSH2 0x140 DUP5 ADD MSTORE PUSH2 0x160 DUP4 ADD MSTORE PUSH2 0x1A0 DUP1 PUSH2 0x180 DUP5 ADD MSTORE DUP3 ADD PUSH2 0x1D98 SWAP2 PUSH2 0x285F JUMP JUMPDEST CALLVALUE PUSH2 0x367 JUMPI PUSH1 0x80 CALLDATASIZE PUSH1 0x3 NOT ADD SLT PUSH2 0x367 JUMPI PUSH2 0x21E0 PUSH2 0x26EB JUMP JUMPDEST PUSH2 0x21E8 PUSH2 0x2701 JUMP JUMPDEST SWAP1 PUSH1 0x64 SWAP2 DUP3 CALLDATALOAD SWAP3 PUSH2 0x21F7 PUSH2 0x29D9 JUMP JUMPDEST DUP4 PUSH1 0x1 PUSH1 0x1 PUSH1 0xA0 SHL SUB DUP5 AND ISZERO PUSH2 0x2694 JUMPI PUSH1 0x1 PUSH1 0x1 PUSH1 0xA0 SHL SUB DUP5 AND CALLER EQ PUSH2 0x2651 JUMPI PUSH1 0x1 PUSH1 0x1 PUSH1 0xA0 SHL SUB DUP4 AND PUSH1 0x0 SWAP1 DUP2 MSTORE PUSH1 0x6 PUSH1 0x20 MSTORE PUSH1 0x40 SWAP1 KECCAK256 SLOAD PUSH2 0x223C SWAP1 PUSH1 0xFF AND PUSH2 0x28DA JUMP JUMPDEST PUSH3 0xF4240 PUSH1 0x44 CALLDATALOAD LT PUSH2 0x260E JUMPI CALLER PUSH1 0x0 MSTORE PUSH1 0xA PUSH1 0x20 MSTORE PUSH1 0x40 PUSH1 0x0 KECCAK256 SLOAD PUSH1 0xB SLOAD GT ISZERO PUSH2 0x25D2 JUMPI ISZERO PUSH2 0x25C8 JUMPI JUMPDEST PUSH3 0x15180 DUP5 GT PUSH2 0x2586 JUMPI POP PUSH2 0x2710 PUSH2 0x2282 PUSH1 0x2 SLOAD PUSH1 0x44 CALLDATALOAD PUSH2 0x2A59 JUMP JUMPDEST DIV SWAP1 PUSH2 0x2290 DUP3 PUSH1 0x44 CALLDATALOAD PUSH2 0x29FC JUMP JUMPDEST SWAP4 PUSH2 0x229C PUSH1 0x3 SLOAD PUSH2 0x2A6C JUMP JUMPDEST SWAP4 DUP5 PUSH1 0x3 SSTORE PUSH2 0x22AB DUP3 TIMESTAMP PUSH2 0x291B JUMP JUMPDEST PUSH1 0x40 MLOAD SWAP7 PUSH2 0x22B8 DUP9 PUSH2 0x2751 JUMP JUMPDEST CALLER DUP9 MSTORE PUSH1 0x1 DUP1 PUSH1 0xA0 SHL SUB DUP4 AND PUSH1 0x20 DUP10 ADD MSTORE PUSH1 0x1 DUP1 PUSH1 0xA0 SHL SUB DUP6 AND PUSH1 0x40 DUP10 ADD MSTORE PUSH1 0x44 CALLDATALOAD PUSH1 0x60 DUP10 ADD MSTORE DUP6 PUSH1 0x80 DUP10 ADD MSTORE PUSH1 0xA0 DUP9 ADD MSTORE PUSH1 0x1 PUSH1 0xC0 DUP9 ADD MSTORE TIMESTAMP PUSH1 0xE0 DUP9 ADD MSTORE PUSH2 0x100 DUP8 ADD MSTORE PUSH1 0x0 PUSH2 0x120 DUP8 ADD MSTORE PUSH1 0x0 PUSH2 0x140 DUP8 ADD MSTORE PUSH1 0x0 PUSH2 0x160 DUP8 ADD MSTORE PUSH1 0x40 MLOAD PUSH2 0x2321 DUP2 PUSH2 0x276E JUMP JUMPDEST PUSH1 0x0 DUP2 MSTORE PUSH2 0x180 DUP8 ADD MSTORE DUP5 PUSH1 0x0 MSTORE PUSH1 0x4 PUSH1 0x20 MSTORE PUSH1 0x40 PUSH1 0x0 KECCAK256 SWAP6 PUSH1 0x1 DUP1 PUSH1 0xA0 SHL SUB DUP2 MLOAD AND SWAP1 PUSH1 0x1 PUSH1 0x1 PUSH1 0x60 SHL SUB PUSH1 0xA0 SHL SWAP2 DUP3 DUP10 SLOAD AND OR DUP9 SSTORE PUSH1 0x1 DUP9 ADD PUSH1 0x1 DUP1 PUSH1 0xA0 SHL SUB PUSH1 0x20 DUP4 ADD MLOAD AND DUP4 DUP3 SLOAD AND OR SWAP1 SSTORE PUSH1 0x2 DUP9 ADD PUSH1 0x1 DUP1 PUSH1 0xA0 SHL SUB PUSH1 0x40 DUP4 ADD MLOAD AND DUP4 DUP3 SLOAD AND OR SWAP1 SSTORE PUSH1 0x60 DUP2 ADD MLOAD PUSH1 0x3 DUP10 ADD SSTORE PUSH1 0x80 DUP2 ADD MLOAD PUSH1 0x4 DUP10 ADD SSTORE PUSH1 0xA0 DUP2 ADD MLOAD PUSH1 0x5 DUP10 ADD SSTORE PUSH1 0xC0 DUP2 ADD MLOAD SWAP2 PUSH1 0x7 DUP4 LT ISZERO PUSH2 0x300 JUMPI PUSH2 0x23C5 PUSH2 0x180 SWAP4 PUSH1 0x6 DUP12 ADD PUSH2 0x2A7B JUMP JUMPDEST PUSH1 0xE0 DUP3 ADD MLOAD PUSH1 0x7 DUP11 ADD SSTORE PUSH2 0x100 DUP3 ADD MLOAD PUSH1 0x8 DUP11 ADD SSTORE PUSH2 0x120 DUP3 ADD MLOAD PUSH1 0x9 DUP11 ADD SSTORE PUSH2 0x140 DUP3 ADD MLOAD PUSH1 0xA DUP11 ADD SSTORE PUSH1 0xB DUP10 ADD SWAP1 PUSH1 0x1 DUP1 PUSH1 0xA0 SHL SUB PUSH2 0x160 DUP5 ADD MLOAD AND SWAP1 DUP3 SLOAD AND OR SWAP1 SSTORE ADD MLOAD SWAP2 DUP3 MLOAD SWAP7 PUSH8 0xFFFFFFFFFFFFFFFF DUP9 GT PUSH2 0x8C8 JUMPI DUP8 DUP8 SWAP5 PUSH2 0x243E PUSH1 0x20 SWAP11 PUSH2 0x2435 PUSH1 0xC DUP7 ADD SLOAD PUSH2 0x2717 JUMP JUMPDEST PUSH1 0xC DUP7 ADD PUSH2 0x2A93 JUMP JUMPDEST DUP10 SWAP1 PUSH1 0x1F DUP4 GT PUSH1 0x1 EQ PUSH2 0x24FB JUMPI DUP3 PUSH1 0x0 DUP1 MLOAD PUSH1 0x20 PUSH2 0x2B38 DUP4 CODECOPY DUP2 MLOAD SWAP2 MSTORE SWAP7 SWAP6 SWAP4 PUSH2 0x24BA SWAP6 SWAP4 PUSH1 0xC SWAP4 PUSH1 0x0 SWAP3 PUSH2 0x24F0 JUMPI JUMPDEST POP POP DUP2 PUSH1 0x1 SHL SWAP2 PUSH1 0x0 NOT SWAP1 PUSH1 0x3 SHL SHR NOT AND OR SWAP2 ADD SSTORE JUMPDEST CALLER PUSH1 0x0 MSTORE PUSH1 0xA DUP10 MSTORE PUSH1 0x40 PUSH1 0x0 KECCAK256 PUSH2 0x249B DUP2 SLOAD PUSH2 0x2A6C JUMP JUMPDEST SWAP1 SSTORE PUSH2 0x24B4 PUSH1 0x44 CALLDATALOAD ADDRESS CALLER PUSH1 0x1 PUSH1 0x1 PUSH1 0xA0 SHL SUB DUP11 AND PUSH2 0x2928 JUMP JUMPDEST TIMESTAMP PUSH2 0x291B JUMP JUMPDEST PUSH1 0x40 DUP1 MLOAD PUSH1 0x1 PUSH1 0x1 PUSH1 0xA0 SHL SUB SWAP7 DUP8 AND DUP2 MSTORE PUSH1 0x44 CALLDATALOAD PUSH1 0x20 DUP3 ADD MSTORE SWAP1 DUP2 ADD SWAP7 SWAP1 SWAP7 MSTORE PUSH1 0x60 DUP7 ADD MSTORE SWAP1 SWAP3 AND SWAP3 CALLER SWAP3 SWAP1 DUP1 PUSH1 0x80 DUP2 ADD PUSH2 0x823 JUMP JUMPDEST ADD MLOAD SWAP1 POP DUP14 DUP1 PUSH2 0x246E JUMP JUMPDEST SWAP6 SWAP5 SWAP4 SWAP3 SWAP2 SWAP1 PUSH1 0xC DUP4 ADD PUSH1 0x0 MSTORE DUP11 PUSH1 0x0 KECCAK256 SWAP7 PUSH1 0x0 JUMPDEST PUSH1 0x1F NOT DUP5 AND DUP2 LT PUSH2 0x256C JUMPI POP DUP3 PUSH1 0x0 DUP1 MLOAD PUSH1 0x20 PUSH2 0x2B38 DUP4 CODECOPY DUP2 MLOAD SWAP2 MSTORE SWAP8 SWAP9 PUSH1 0xC SWAP4 PUSH1 0x1 SWAP4 PUSH2 0x24BA SWAP9 SWAP8 SWAP7 PUSH1 0x1F NOT DUP2 AND LT PUSH2 0x2553 JUMPI JUMPDEST POP POP POP DUP2 SHL ADD SWAP2 ADD SSTORE PUSH2 0x2484 JUMP JUMPDEST ADD MLOAD PUSH1 0x0 NOT PUSH1 0xF8 DUP5 PUSH1 0x3 SHL AND SHR NOT AND SWAP1 SSTORE DUP14 DUP1 DUP1 PUSH2 0x2545 JUMP JUMPDEST DUP3 DUP3 ADD MLOAD DUP10 SSTORE PUSH1 0x1 SWAP1 SWAP9 ADD SWAP8 DUP12 SWAP8 POP SWAP2 DUP13 ADD SWAP2 DUP13 ADD PUSH2 0x2510 JUMP JUMPDEST PUSH1 0x40 MLOAD PUSH3 0x461BCD PUSH1 0xE5 SHL DUP2 MSTORE PUSH1 0x20 PUSH1 0x4 DUP3 ADD MSTORE PUSH1 0x1B PUSH1 0x24 DUP3 ADD MSTORE PUSH32 0x4475726174696F6E20746F6F206C6F6E6720286D617820323468290000000000 PUSH1 0x44 DUP3 ADD MSTORE REVERT JUMPDEST PUSH2 0xE10 SWAP4 POP PUSH2 0x2266 JUMP JUMPDEST POP PUSH1 0x40 MLOAD PUSH3 0x461BCD PUSH1 0xE5 SHL DUP2 MSTORE PUSH1 0x20 PUSH1 0x4 DUP3 ADD MSTORE PUSH1 0x16 PUSH1 0x24 DUP3 ADD MSTORE PUSH22 0x546F6F206D616E792061637469766520747261646573 PUSH1 0x50 SHL PUSH1 0x44 DUP3 ADD MSTORE REVERT JUMPDEST POP PUSH1 0x40 MLOAD PUSH3 0x461BCD PUSH1 0xE5 SHL DUP2 MSTORE PUSH1 0x20 PUSH1 0x4 DUP3 ADD MSTORE PUSH1 0x1D PUSH1 0x24 DUP3 ADD MSTORE PUSH32 0x416D6F756E7420746F6F20736D616C6C20286D696E2031205553444329000000 PUSH1 0x44 DUP3 ADD MSTORE REVERT JUMPDEST POP PUSH1 0x40 MLOAD PUSH3 0x461BCD PUSH1 0xE5 SHL DUP2 MSTORE PUSH1 0x20 PUSH1 0x4 DUP3 ADD MSTORE PUSH1 0x1A PUSH1 0x24 DUP3 ADD MSTORE PUSH32 0x43616E6E6F74207472616465207769746820796F757273656C66000000000000 PUSH1 0x44 DUP3 ADD MSTORE REVERT JUMPDEST POP PUSH1 0x40 MLOAD PUSH3 0x461BCD PUSH1 0xE5 SHL DUP2 MSTORE PUSH1 0x20 PUSH1 0x4 DUP3 ADD MSTORE PUSH1 0x15 PUSH1 0x24 DUP3 ADD MSTORE PUSH21 0x496E76616C69642062757965722061646472657373 PUSH1 0x58 SHL PUSH1 0x44 DUP3 ADD MSTORE REVERT JUMPDEST CALLVALUE PUSH2 0x367 JUMPI PUSH1 0x0 CALLDATASIZE PUSH1 0x3 NOT ADD SLT PUSH2 0x367 JUMPI DUP1 PUSH3 0x15180 PUSH1 0x20 SWAP3 MSTORE RETURN JUMPDEST PUSH1 0x4 CALLDATALOAD SWAP1 PUSH1 0x1 PUSH1 0x1 PUSH1 0xA0 SHL SUB DUP3 AND DUP3 SUB PUSH2 0x367 JUMPI JUMP JUMPDEST PUSH1 0x24 CALLDATALOAD SWAP1 PUSH1 0x1 PUSH1 0x1 PUSH1 0xA0 SHL SUB DUP3 AND DUP3 SUB PUSH2 0x367 JUMPI JUMP JUMPDEST SWAP1 PUSH1 0x1 DUP3 DUP2 SHR SWAP3 AND DUP1 ISZERO PUSH2 0x2747 JUMPI JUMPDEST PUSH1 0x20 DUP4 LT EQ PUSH2 0x2731 JUMPI JUMP JUMPDEST PUSH4 0x4E487B71 PUSH1 0xE0 SHL PUSH1 0x0 MSTORE PUSH1 0x22 PUSH1 0x4 MSTORE PUSH1 0x24 PUSH1 0x0 REVERT JUMPDEST SWAP2 PUSH1 0x7F AND SWAP2 PUSH2 0x2726 JUMP JUMPDEST PUSH2 0x1A0 DUP2 ADD SWAP1 DUP2 LT PUSH8 0xFFFFFFFFFFFFFFFF DUP3 GT OR PUSH2 0x8C8 JUMPI PUSH1 0x40 MSTORE JUMP JUMPDEST PUSH1 0x20 DUP2 ADD SWAP1 DUP2 LT PUSH8 0xFFFFFFFFFFFFFFFF DUP3 GT OR PUSH2 0x8C8 JUMPI PUSH1 0x40 MSTORE JUMP JUMPDEST SWAP1 PUSH1 0x1F DUP1 NOT SWAP2 ADD AND DUP2 ADD SWAP1 DUP2 LT PUSH8 0xFFFFFFFFFFFFFFFF DUP3 GT OR PUSH2 0x8C8 JUMPI PUSH1 0x40 MSTORE JUMP JUMPDEST SWAP1 PUSH1 0x40 MLOAD SWAP2 DUP3 PUSH1 0x0 DUP3 SLOAD SWAP3 PUSH2 0x27C0 DUP5 PUSH2 0x2717 JUMP JUMPDEST SWAP1 DUP2 DUP5 MSTORE PUSH1 0x1 SWAP5 DUP6 DUP2 AND SWAP1 DUP2 PUSH1 0x0 EQ PUSH2 0x282F JUMPI POP PUSH1 0x1 EQ PUSH2 0x27EC JUMPI JUMPDEST POP POP PUSH2 0x27EA SWAP3 POP SUB DUP4 PUSH2 0x278A JUMP JUMPDEST JUMP JUMPDEST SWAP1 SWAP4 SWAP2 POP PUSH1 0x0 MSTORE PUSH1 0x20 SWAP1 DUP2 PUSH1 0x0 KECCAK256 SWAP4 PUSH1 0x0 SWAP2 JUMPDEST DUP2 DUP4 LT PUSH2 0x2817 JUMPI POP POP PUSH2 0x27EA SWAP4 POP DUP3 ADD ADD CODESIZE DUP1 PUSH2 0x27DC JUMP JUMPDEST DUP6 SLOAD DUP9 DUP5 ADD DUP6 ADD MSTORE SWAP5 DUP6 ADD SWAP5 DUP8 SWAP5 POP SWAP2 DUP4 ADD SWAP2 PUSH2 0x27FF JUMP JUMPDEST SWAP2 POP POP PUSH2 0x27EA SWAP5 POP PUSH1 0x20 SWAP3 POP PUSH1 0xFF NOT AND DUP3 DUP5 ADD MSTORE ISZERO ISZERO PUSH1 0x5 SHL DUP3 ADD ADD CODESIZE DUP1 PUSH2 0x27DC JUMP JUMPDEST SWAP1 PUSH1 0x7 DUP3 LT ISZERO PUSH2 0x300 JUMPI MSTORE JUMP JUMPDEST SWAP2 SWAP1 DUP3 MLOAD SWAP3 DUP4 DUP3 MSTORE PUSH1 0x0 JUMPDEST DUP5 DUP2 LT PUSH2 0x288B JUMPI POP POP DUP3 PUSH1 0x0 PUSH1 0x20 DUP1 SWAP5 SWAP6 DUP5 ADD ADD MSTORE PUSH1 0x1F DUP1 NOT SWAP2 ADD AND ADD ADD SWAP1 JUMP JUMPDEST PUSH1 0x20 DUP2 DUP4 ADD DUP2 ADD MLOAD DUP5 DUP4 ADD DUP3 ADD MSTORE ADD PUSH2 0x286A JUMP JUMPDEST PUSH1 0x24 CALLDATALOAD SWAP1 DUP2 ISZERO ISZERO DUP3 SUB PUSH2 0x367 JUMPI JUMP JUMPDEST PUSH1 0x0 SLOAD PUSH1 0x1 PUSH1 0x1 PUSH1 0xA0 SHL SUB AND CALLER SUB PUSH2 0x28C2 JUMPI JUMP JUMPDEST PUSH1 0x40 MLOAD PUSH4 0x118CDAA7 PUSH1 0xE0 SHL DUP2 MSTORE CALLER PUSH1 0x4 DUP3 ADD MSTORE PUSH1 0x24 SWAP1 REVERT JUMPDEST ISZERO PUSH2 0x28E1 JUMPI JUMP JUMPDEST PUSH1 0x40 MLOAD PUSH3 0x461BCD PUSH1 0xE5 SHL DUP2 MSTORE PUSH1 0x20 PUSH1 0x4 DUP3 ADD MSTORE PUSH1 0x12 PUSH1 0x24 DUP3 ADD MSTORE PUSH18 0x151BDAD95B881B9BDD08185C1C1C9BDD9959 PUSH1 0x72 SHL PUSH1 0x44 DUP3 ADD MSTORE PUSH1 0x64 SWAP1 REVERT JUMPDEST SWAP2 SWAP1 DUP3 ADD DUP1 SWAP3 GT PUSH2 0x27D JUMPI JUMP JUMPDEST PUSH1 0x40 MLOAD PUSH4 0x23B872DD PUSH1 0xE0 SHL PUSH1 0x20 DUP3 ADD MSTORE PUSH1 0x1 PUSH1 0x1 PUSH1 0xA0 SHL SUB SWAP3 DUP4 AND PUSH1 0x24 DUP3 ADD MSTORE SWAP3 SWAP1 SWAP2 AND PUSH1 0x44 DUP4 ADD MSTORE PUSH1 0x64 DUP1 DUP4 ADD SWAP4 SWAP1 SWAP4 MSTORE SWAP2 DUP2 MSTORE PUSH1 0xA0 DUP2 ADD SWAP2 DUP2 DUP4 LT PUSH8 0xFFFFFFFFFFFFFFFF DUP5 GT OR PUSH2 0x8C8 JUMPI PUSH2 0x27EA SWAP3 PUSH1 0x40 MSTORE JUMPDEST SWAP1 PUSH1 0x0 PUSH1 0x20 SWAP2 DUP3 DUP2 MLOAD SWAP2 ADD DUP3 DUP6 GAS CALL ISZERO PUSH2 0x1734 JUMPI PUSH1 0x0 MLOAD RETURNDATASIZE PUSH2 0x29D0 JUMPI POP PUSH1 0x1 PUSH1 0x1 PUSH1 0xA0 SHL SUB DUP2 AND EXTCODESIZE ISZERO JUMPDEST PUSH2 0x29AE JUMPI POP JUMP JUMPDEST PUSH1 0x40 MLOAD PUSH4 0x5274AFE7 PUSH1 0xE0 SHL DUP2 MSTORE PUSH1 0x1 PUSH1 0x1 PUSH1 0xA0 SHL SUB SWAP1 SWAP2 AND PUSH1 0x4 DUP3 ADD MSTORE PUSH1 0x24 SWAP1 REVERT JUMPDEST PUSH1 0x1 EQ ISZERO PUSH2 0x29A7 JUMP JUMPDEST PUSH1 0x2 PUSH1 0x1 SLOAD EQ PUSH2 0x29EA JUMPI PUSH1 0x2 PUSH1 0x1 SSTORE JUMP JUMPDEST PUSH1 0x40 MLOAD PUSH4 0x3EE5AEB5 PUSH1 0xE0 SHL DUP2 MSTORE PUSH1 0x4 SWAP1 REVERT JUMPDEST SWAP2 SWAP1 DUP3 SUB SWAP2 DUP3 GT PUSH2 0x27D JUMPI JUMP JUMPDEST PUSH1 0x40 MLOAD PUSH4 0xA9059CBB PUSH1 0xE0 SHL PUSH1 0x20 DUP3 ADD MSTORE PUSH1 0x1 PUSH1 0x1 PUSH1 0xA0 SHL SUB SWAP1 SWAP3 AND PUSH1 0x24 DUP4 ADD MSTORE PUSH1 0x44 DUP1 DUP4 ADD SWAP4 SWAP1 SWAP4 MSTORE SWAP2 DUP2 MSTORE PUSH1 0x80 DUP2 ADD SWAP2 PUSH8 0xFFFFFFFFFFFFFFFF DUP4 GT DUP3 DUP5 LT OR PUSH2 0x8C8 JUMPI PUSH2 0x27EA SWAP3 PUSH1 0x40 MSTORE PUSH2 0x297D JUMP JUMPDEST DUP2 DUP2 MUL SWAP3 SWAP2 DUP2 ISZERO SWAP2 DUP5 DIV EQ OR ISZERO PUSH2 0x27D JUMPI JUMP JUMPDEST PUSH1 0x0 NOT DUP2 EQ PUSH2 0x27D JUMPI PUSH1 0x1 ADD SWAP1 JUMP JUMPDEST SWAP1 PUSH1 0x7 DUP2 LT ISZERO PUSH2 0x300 JUMPI PUSH1 0xFF DUP1 NOT DUP4 SLOAD AND SWAP2 AND OR SWAP1 SSTORE JUMP JUMPDEST SWAP1 PUSH1 0x1F DUP2 GT PUSH2 0x2AA1 JUMPI POP POP POP JUMP JUMPDEST PUSH1 0x0 SWAP2 DUP3 MSTORE PUSH1 0x20 DUP3 KECCAK256 SWAP1 PUSH1 0x20 PUSH1 0x1F DUP6 ADD PUSH1 0x5 SHR DUP4 ADD SWAP5 LT PUSH2 0x2ADD JUMPI JUMPDEST PUSH1 0x1F ADD PUSH1 0x5 SHR ADD SWAP2 JUMPDEST DUP3 DUP2 LT PUSH2 0x2AD2 JUMPI POP POP POP JUMP JUMPDEST DUP2 DUP2 SSTORE PUSH1 0x1 ADD PUSH2 0x2AC6 JUMP JUMPDEST SWAP1 SWAP3 POP DUP3 SWAP1 PUSH2 0x2ABD JUMP JUMPDEST ISZERO PUSH2 0x2AEE JUMPI JUMP JUMPDEST PUSH1 0x40 MLOAD PUSH3 0x461BCD PUSH1 0xE5 SHL DUP2 MSTORE PUSH1 0x20 PUSH1 0x4 DUP3 ADD MSTORE PUSH1 0x14 PUSH1 0x24 DUP3 ADD MSTORE PUSH20 0x151C98591948191BD95CC81B9BDD08195E1A5CDD PUSH1 0x62 SHL PUSH1 0x44 DUP3 ADD MSTORE PUSH1 0x64 SWAP1 REVERT JUMPDEST DUP1 ISZERO PUSH2 0x27D JUMPI PUSH1 0x0 NOT ADD SWAP1 JUMP INVALID PUSH0 COINBASE 0xFB PUSH29 0xBDAD789C17F3E3FFEF0A920523917D85E5B27591E00EB1517A06C6E9A2 PUSH5 0x6970667358 0x22 SLT KECCAK256 0xAC 0xA5 0xA7 GT PUSH17 0x380ACF42B4847775F5D0CE73D9434E395B 0xC9 LOG3 0xDF 0x1E MSTORE8 PUSH26 0x8BE277E264736F6C634300081400330000000000000000000000 "},"methodIdentifiers":{"AUTO_RELEASE_DURATION()":"6085c066","DEFAULT_ESCROW_DURATION()":"f51f4bd2","MAX_ESCROW_DURATION()":"0794305e","MAX_FEE_BPS()":"d55be8c6","MIN_TRADE_AMOUNT()":"31b7d413","activeTradeCount(address)":"afba9e22","approvedRelayers(address)":"8cba8b6a","approvedTokens(address)":"6d1ea3fa","autoRelease(uint256)":"459b860e","balances(address,address)":"c23f001f","calculateFee(uint256)":"99a5d747","createTrade(address,address,uint256,uint256)":"1906fb4d","createTradeByRelayer(address,address,address,uint256,uint256)":"f3073c41","deposit(address,uint256)":"47e7ef24","emergencyWithdraw(address,uint256)":"95ccea67","feeBps()":"24a9d853","feeCollector()":"c415b95c","getContractBalance(address)":"43ab265f","getTrade(uint256)":"2db25e05","isExpired(uint256)":"d9548e53","markFiatSent(uint256)":"fa254c18","maxActiveTradesPerUser()":"3483cb02","owner()":"8da5cb5b","raiseDispute(uint256,string)":"5aef573c","refund(uint256)":"278ecde1","release(uint256)":"37bdc99b","renounceOwnership()":"715018a6","resolveDispute(uint256,bool)":"34b25ee2","setApprovedToken(address,bool)":"7e6a3400","setFeeBps(uint256)":"72c27b62","setFeeCollector(address)":"a42dce80","setMaxActiveTrades(uint256)":"87d2fc82","setRelayer(address,bool)":"ecd8dc3a","totalFeesCollected(address)":"88a40eed","tradeCounter()":"660d15b5","trades(uint256)":"1e6c598e","transferOwnership(address)":"f2fde38b","withdraw(address,uint256)":"f3fef3a3"}}}}}