{"contracts/P2PEscrow.sol":{"P2PEscrow":{"abi":[{"inputs":[{"internalType":"address","name":"_feeCollector","type":"address"},{"internalType":"address","name":"_usdc","type":"address"}],"stateMutability":"nonpayable","type":"constructor"},{"inputs":[{"internalType":"address","name":"owner","type":"address"}],"name":"OwnableInvalidOwner","type":"error"},{"inputs":[{"internalType":"address","name":"account","type":"address"}],"name":"OwnableUnauthorizedAccount","type":"error"},{"inputs":[],"name":"ReentrancyGuardReentrantCall","type":"error"},{"inputs":[{"internalType":"address","name":"token","type":"address"}],"name":"SafeERC20FailedOperation","type":"error"},{"anonymous":false,"inputs":[{"indexed":true,"internalType":"address","name":"user","type":"address"},{"indexed":true,"internalType":"address","name":"token","type":"address"},{"indexed":false,"internalType":"uint256","name":"amount","type":"uint256"}],"name":"Deposit","type":"event"},{"anonymous":false,"inputs":[{"indexed":true,"internalType":"uint256","name":"tradeId","type":"uint256"},{"indexed":true,"internalType":"address","name":"resolver","type":"address"},{"indexed":false,"internalType":"bool","name":"releasedToBuyer","type":"bool"}],"name":"DisputeResolved","type":"event"},{"anonymous":false,"inputs":[{"indexed":false,"internalType":"address","name":"oldCollector","type":"address"},{"indexed":false,"internalType":"address","name":"newCollector","type":"address"}],"name":"FeeCollectorUpdated","type":"event"},{"anonymous":false,"inputs":[{"indexed":false,"internalType":"uint256","name":"oldFee","type":"uint256"},{"indexed":false,"internalType":"uint256","name":"newFee","type":"uint256"}],"name":"FeeUpdated","type":"event"},{"anonymous":false,"inputs":[{"indexed":true,"internalType":"uint256","name":"tradeId","type":"uint256"},{"indexed":true,"internalType":"address","name":"buyer","type":"address"}],"name":"FiatMarkedSent","type":"event"},{"anonymous":false,"inputs":[{"indexed":true,"internalType":"address","name":"previousOwner","type":"address"},{"indexed":true,"internalType":"address","name":"newOwner","type":"address"}],"name":"OwnershipTransferred","type":"event"},{"anonymous":false,"inputs":[{"indexed":false,"internalType":"address","name":"relayer","type":"address"},{"indexed":false,"internalType":"bool","name":"approved","type":"bool"}],"name":"RelayerUpdated","type":"event"},{"anonymous":false,"inputs":[{"indexed":false,"internalType":"address","name":"token","type":"address"},{"indexed":false,"internalType":"bool","name":"approved","type":"bool"}],"name":"TokenApproved","type":"event"},{"anonymous":false,"inputs":[{"indexed":true,"internalType":"uint256","name":"tradeId","type":"uint256"},{"indexed":true,"internalType":"address","name":"seller","type":"address"}],"name":"TradeCancelled","type":"event"},{"anonymous":false,"inputs":[{"indexed":true,"internalType":"uint256","name":"tradeId","type":"uint256"},{"indexed":true,"internalType":"address","name":"seller","type":"address"},{"indexed":true,"internalType":"address","name":"buyer","type":"address"},{"indexed":false,"internalType":"address","name":"token","type":"address"},{"indexed":false,"internalType":"uint256","name":"amount","type":"uint256"},{"indexed":false,"internalType":"uint256","name":"feeAmount","type":"uint256"},{"indexed":false,"internalType":"uint256","name":"deadline","type":"uint256"}],"name":"TradeCreated","type":"event"},{"anonymous":false,"inputs":[{"indexed":true,"internalType":"uint256","name":"tradeId","type":"uint256"},{"indexed":true,"internalType":"address","name":"initiator","type":"address"},{"indexed":false,"internalType":"string","name":"reason","type":"string"}],"name":"TradeDisputed","type":"event"},{"anonymous":false,"inputs":[{"indexed":true,"internalType":"uint256","name":"tradeId","type":"uint256"},{"indexed":true,"internalType":"address","name":"seller","type":"address"},{"indexed":false,"internalType":"uint256","name":"amount","type":"uint256"}],"name":"TradeRefunded","type":"event"},{"anonymous":false,"inputs":[{"indexed":true,"internalType":"uint256","name":"tradeId","type":"uint256"},{"indexed":true,"internalType":"address","name":"buyer","type":"address"},{"indexed":false,"internalType":"uint256","name":"buyerReceives","type":"uint256"},{"indexed":false,"internalType":"uint256","name":"feeAmount","type":"uint256"}],"name":"TradeReleased","type":"event"},{"anonymous":false,"inputs":[{"indexed":true,"internalType":"address","name":"user","type":"address"},{"indexed":true,"internalType":"address","name":"token","type":"address"},{"indexed":false,"internalType":"uint256","name":"amount","type":"uint256"}],"name":"Withdraw","type":"event"},{"inputs":[],"name":"DEFAULT_ESCROW_DURATION","outputs":[{"internalType":"uint256","name":"","type":"uint256"}],"stateMutability":"view","type":"function"},{"inputs":[],"name":"MAX_ESCROW_DURATION","outputs":[{"internalType":"uint256","name":"","type":"uint256"}],"stateMutability":"view","type":"function"},{"inputs":[],"name":"MAX_FEE_BPS","outputs":[{"internalType":"uint256","name":"","type":"uint256"}],"stateMutability":"view","type":"function"},{"inputs":[],"name":"MIN_TRADE_AMOUNT","outputs":[{"internalType":"uint256","name":"","type":"uint256"}],"stateMutability":"view","type":"function"},{"inputs":[{"internalType":"address","name":"","type":"address"}],"name":"activeTradeCount","outputs":[{"internalType":"uint256","name":"","type":"uint256"}],"stateMutability":"view","type":"function"},{"inputs":[{"internalType":"address","name":"","type":"address"}],"name":"approvedRelayers","outputs":[{"internalType":"bool","name":"","type":"bool"}],"stateMutability":"view","type":"function"},{"inputs":[{"internalType":"address","name":"","type":"address"}],"name":"approvedTokens","outputs":[{"internalType":"bool","name":"","type":"bool"}],"stateMutability":"view","type":"function"},{"inputs":[{"internalType":"address","name":"","type":"address"},{"internalType":"address","name":"","type":"address"}],"name":"balances","outputs":[{"internalType":"uint256","name":"","type":"uint256"}],"stateMutability":"view","type":"function"},{"inputs":[{"internalType":"uint256","name":"_amount","type":"uint256"}],"name":"calculateFee","outputs":[{"internalType":"uint256","name":"fee","type":"uint256"},{"internalType":"uint256","name":"netAmount","type":"uint256"}],"stateMutability":"view","type":"function"},{"inputs":[{"internalType":"address","name":"_buyer","type":"address"},{"internalType":"address","name":"_token","type":"address"},{"internalType":"uint256","name":"_amount","type":"uint256"},{"internalType":"uint256","name":"_duration","type":"uint256"}],"name":"createTrade","outputs":[{"internalType":"uint256","name":"tradeId","type":"uint256"}],"stateMutability":"nonpayable","type":"function"},{"inputs":[{"internalType":"address","name":"_seller","type":"address"},{"internalType":"address","name":"_buyer","type":"address"},{"internalType":"address","name":"_token","type":"address"},{"internalType":"uint256","name":"_amount","type":"uint256"},{"internalType":"uint256","name":"_duration","type":"uint256"}],"name":"createTradeByRelayer","outputs":[{"internalType":"uint256","name":"tradeId","type":"uint256"}],"stateMutability":"nonpayable","type":"function"},{"inputs":[{"internalType":"address","name":"_token","type":"address"},{"internalType":"uint256","name":"_amount","type":"uint256"}],"name":"deposit","outputs":[],"stateMutability":"nonpayable","type":"function"},{"inputs":[{"internalType":"address","name":"_token","type":"address"},{"internalType":"uint256","name":"_amount","type":"uint256"}],"name":"emergencyWithdraw","outputs":[],"stateMutability":"nonpayable","type":"function"},{"inputs":[],"name":"feeBps","outputs":[{"internalType":"uint256","name":"","type":"uint256"}],"stateMutability":"view","type":"function"},{"inputs":[],"name":"feeCollector","outputs":[{"internalType":"address","name":"","type":"address"}],"stateMutability":"view","type":"function"},{"inputs":[{"internalType":"address","name":"_token","type":"address"}],"name":"getContractBalance","outputs":[{"internalType":"uint256","name":"","type":"uint256"}],"stateMutability":"view","type":"function"},{"inputs":[{"internalType":"uint256","name":"_tradeId","type":"uint256"}],"name":"getTrade","outputs":[{"components":[{"internalType":"address","name":"seller","type":"address"},{"internalType":"address","name":"buyer","type":"address"},{"internalType":"address","name":"token","type":"address"},{"internalType":"uint256","name":"amount","type":"uint256"},{"internalType":"uint256","name":"feeAmount","type":"uint256"},{"internalType":"uint256","name":"buyerReceives","type":"uint256"},{"internalType":"enum P2PEscrow.TradeStatus","name":"status","type":"uint8"},{"internalType":"uint256","name":"createdAt","type":"uint256"},{"internalType":"uint256","name":"deadline","type":"uint256"},{"internalType":"uint256","name":"fiatSentAt","type":"uint256"},{"internalType":"address","name":"disputeInitiator","type":"address"},{"internalType":"string","name":"disputeReason","type":"string"}],"internalType":"struct P2PEscrow.Trade","name":"","type":"tuple"}],"stateMutability":"view","type":"function"},{"inputs":[{"internalType":"uint256","name":"_tradeId","type":"uint256"}],"name":"isExpired","outputs":[{"internalType":"bool","name":"","type":"bool"}],"stateMutability":"view","type":"function"},{"inputs":[{"internalType":"uint256","name":"_tradeId","type":"uint256"}],"name":"markFiatSent","outputs":[],"stateMutability":"nonpayable","type":"function"},{"inputs":[],"name":"maxActiveTradesPerUser","outputs":[{"internalType":"uint256","name":"","type":"uint256"}],"stateMutability":"view","type":"function"},{"inputs":[],"name":"owner","outputs":[{"internalType":"address","name":"","type":"address"}],"stateMutability":"view","type":"function"},{"inputs":[{"internalType":"uint256","name":"_tradeId","type":"uint256"},{"internalType":"string","name":"_reason","type":"string"}],"name":"raiseDispute","outputs":[],"stateMutability":"nonpayable","type":"function"},{"inputs":[{"internalType":"uint256","name":"_tradeId","type":"uint256"}],"name":"refund","outputs":[],"stateMutability":"nonpayable","type":"function"},{"inputs":[{"internalType":"uint256","name":"_tradeId","type":"uint256"}],"name":"release","outputs":[],"stateMutability":"nonpayable","type":"function"},{"inputs":[],"name":"renounceOwnership","outputs":[],"stateMutability":"nonpayable","type":"function"},{"inputs":[{"internalType":"uint256","name":"_tradeId","type":"uint256"},{"internalType":"bool","name":"_releaseToBuyer","type":"bool"}],"name":"resolveDispute","outputs":[],"stateMutability":"nonpayable","type":"function"},{"inputs":[{"internalType":"address","name":"_token","type":"address"},{"internalType":"bool","name":"_approved","type":"bool"}],"name":"setApprovedToken","outputs":[],"stateMutability":"nonpayable","type":"function"},{"inputs":[{"internalType":"uint256","name":"_newFeeBps","type":"uint256"}],"name":"setFeeBps","outputs":[],"stateMutability":"nonpayable","type":"function"},{"inputs":[{"internalType":"address","name":"_newCollector","type":"address"}],"name":"setFeeCollector","outputs":[],"stateMutability":"nonpayable","type":"function"},{"inputs":[{"internalType":"uint256","name":"_max","type":"uint256"}],"name":"setMaxActiveTrades","outputs":[],"stateMutability":"nonpayable","type":"function"},{"inputs":[{"internalType":"address","name":"_relayer","type":"address"},{"internalType":"bool","name":"_approved","type":"bool"}],"name":"setRelayer","outputs":[],"stateMutability":"nonpayable","type":"function"},{"inputs":[{"internalType":"address","name":"","type":"address"}],"name":"totalFeesCollected","outputs":[{"internalType":"uint256","name":"","type":"uint256"}],"stateMutability":"view","type":"function"},{"inputs":[],"name":"tradeCounter","outputs":[{"internalType":"uint256","name":"","type":"uint256"}],"stateMutability":"view","type":"function"},{"inputs":[{"internalType":"uint256","name":"","type":"uint256"}],"name":"trades","outputs":[{"internalType":"address","name":"seller","type":"address"},{"internalType":"address","name":"buyer","type":"address"},{"internalType":"address","name":"token","type":"address"},{"internalType":"uint256","name":"amount","type":"uint256"},{"internalType":"uint256","name":"feeAmount","type":"uint256"},{"internalType":"uint256","name":"buyerReceives","type":"uint256"},{"internalType":"enum P2PEscrow.TradeStatus","name":"status","type":"uint8"},{"internalType":"uint256","name":"createdAt","type":"uint256"},{"internalType":"uint256","name":"deadline","type":"uint256"},{"internalType":"uint256","name":"fiatSentAt","type":"uint256"},{"internalType":"address","name":"disputeInitiator","type":"address"},{"internalType":"string","name":"disputeReason","type":"string"}],"stateMutability":"view","type":"function"},{"inputs":[{"internalType":"address","name":"newOwner","type":"address"}],"name":"transferOwnership","outputs":[],"stateMutability":"nonpayable","type":"function"},{"inputs":[{"internalType":"address","name":"_token","type":"address"},{"internalType":"uint256","name":"_amount","type":"uint256"}],"name":"withdraw","outputs":[],"stateMutability":"nonpayable","type":"function"}],"evm":{"bytecode":{"linkReferences":{},"object":"608034620002005762002b8f90601f38839003908101601f19168201906001600160401b0382118383101762000205578083916040958694855283398101031262000200576200004f816200021b565b6200005e60208093016200021b565b913315620001e85760008054336001600160a01b03198083168217845587519396939590936001600160a01b0393909284929183167f8be0079c531659141344cd1fd0a4f28419497f9722a3daafe3b4186f6b6457e08a80a3600180556032600255600a600b5516948515620001a65750169081156200016257917f54aee4f020b814c26f556399a354577e068193a82445e919505b00b9848512a586859381967f5d16ad41baeb009cd23eb8f6c7cde5c2e0cd5acf4a33926ab488875c37c37f389896600854161760085580865260068452818620600160ff198254161790558151908152600184820152a18351928352820152a15161295e9081620002318239f35b855162461bcd60e51b815260048101849052601460248201527f496e76616c6964205553444320616464726573730000000000000000000000006044820152606490fd5b62461bcd60e51b815260048101859052601560248201527f496e76616c69642066656520636f6c6c6563746f7200000000000000000000006044820152606490fd5b8351631e4fbdf760e01b815260006004820152602490fd5b600080fd5b634e487b7160e01b600052604160045260246000fd5b51906001600160a01b0382168203620002005756fe608080604052600436101561001357600080fd5b60003560e01c9081630794305e1461248a575080631906fb4d14611f955780631e6c598e14611ec157806324a9d85314611ea3578063278ecde114611b785780632db25e051461198957806331b7d4131461196b5780633483cb021461194d57806334b25ee2146116cc57806337bdc99b146114b957806343ab265f1461142957806347e7ef241461133c5780635aef573c1461106f578063660d15b5146110515780636d1ea3fa14611012578063715018a614610fb957806372c27b6214610f1e5780637e6a340014610ea757806387d2fc8214610e3357806388a40eed14610df95780638cba8b6a14610dba5780638da5cb5b14610d9157806395ccea6714610d5257806399a5d74714610d16578063a42dce8014610c64578063afba9e2214610c2a578063c23f001f14610bd9578063c415b95c14610bb0578063d55be8c614610b93578063d9548e5314610b44578063ecd8dc3a14610ab4578063f2fde38b14610a2b578063f3073c411461043b578063f3fef3a314610347578063f51f4bd21461032a5763fa254c18146101ab57600080fd5b346103255760203660031901126103255760043580151580610319575b6101d1906128b8565b600081815260046020526040902060018101546001600160a01b031633036102d45760068101805460ff811660078110156102be5760010361028657600883015442116102515760029060ff191617905560094291015533907fa7b13f117ab1aaf50feb35b788292244b765b0c7b9bda1b9d9e3e29ffc7e88e8600080a3005b60405162461bcd60e51b815260206004820152600d60248201526c151c98591948195e1c1a5c9959609a1b6044820152606490fd5b60405162461bcd60e51b815260206004820152601060248201526f5472616465206e6f742061637469766560801b6044820152606490fd5b634e487b7160e01b600052602160045260246000fd5b60405162461bcd60e51b815260206004820152601d60248201527f4f6e6c792062757965722063616e206d61726b20666961742073656e740000006044820152606490fd5b506003548111156101c8565b600080fd5b34610325576000366003190112610325576020604051610e108152f35b34610325576040366003190112610325576103606124a6565b60243561036b6127aa565b3360005260206005815260406000209260018060a01b03169283600052815281604060002054106103f7577f9b1bfa7fa9ee420a16e124f794c35ac9f90472acc99140eb2f6447c714cad8eb903360005260058152604060002084600052815260406000206103db8482546127cd565b90556103e88333866127da565b6040519283523392a360018055005b6064906040519062461bcd60e51b82526004820152601a60248201527f496e73756666696369656e74207661756c742062616c616e63650000000000006044820152fd5b346103255760a0366003190112610325576104546124a6565b61045c6124bc565b60449182356001600160a01b0381169003610325576084359261047d6127aa565b8333600052600760205260ff604060002054168015610a17575b156109de576001600160a01b038416156109aa576001600160a01b038381169085161461097957620f424060643510610949576001600160a01b038381166000908152600560209081526040808320863590941683529290522054606435116108fb576001600160a01b0383166000908152600a6020526040902054600b5411156108c55760018060a01b0383166000526005602052604060002060018060a01b03833516600052602052604060002061055460643582546127cd565b9055156108bb575b62015180841161088c5761271061057760025460643561282a565b0492610585846064356127cd565b9061059160035461283d565b94856003556105a087426126d6565b604051936105ad8561250c565b6001600160a01b038781168652848116602087015286351660408087019190915260643560608701526080860184905260a0860191909152600160c08601524260e0860152610100850191909152600061012085018190526101408501525161061581612529565b6000815261016084015285600052600460205260406000209260018060a01b03815116906001600160601b0360a01b91828654161785556001850160018060a01b03602083015116838254161790556002850160018060a01b0360408301511683825416179055606081015160038601556080810151600486015560a0810151600586015560c08101519160078310156102be576106b9610160936006880161284c565b60e0820151600787015561010082015160088701556101208201516009870155600a86019060018060a01b03610140840151169082541617905501519182519767ffffffffffffffff89116108765788889461072760209b61071e600b8a01546124d2565b600b8a01612864565b8a90601f83116001146107eb5796600b8361079a946107d196946000805160206129098339815191529a9b6000926107e0575b50508160011b916000199060031b1c1916179101555b6001600160a01b0389166000908152600a8c526040902080546107929061283d565b9055426126d6565b604080516001600160a01b039835891681526064356020820152908101949094526060840152908516959094169381906080820190565b0390a460018055604051908152f35b015190508f8061075a565b600b88939298016000528b6000209060005b601f198416811061085c575060018361079a95936000805160206129098339815191529a9b600b946107d19997601f19811610610843575b505050811b01910155610770565b015160001960f88460031b161c191690558f8080610835565b818a01518355988d01988c98506001909201918d016107fd565b634e487b7160e01b600052604160045260246000fd5b60649067546f6f206c6f6e6760c01b6040519162461bcd60e51b83526020600484015260086024840152820152fd5b610e10935061055c565b60405162461bcd60e51b815260206004820152600f60248201526e546f6f206d616e792074726164657360881b81840152606490fd5b60405162461bcd60e51b815260206004820152602160248201527f496e73756666696369656e742073656c6c6572207661756c742062616c616e6381840152606560f81b6064820152608490fd5b60405162461bcd60e51b8152602060048201526009602482015268151bdbc81cdb585b1b60ba1b81840152606490fd5b60405162461bcd60e51b815260206004820152600a60248201526953656c6620747261646560b01b81840152606490fd5b60405162461bcd60e51b815260206004820152600d60248201526c24b73b30b634b210313abcb2b960991b81840152606490fd5b60405162461bcd60e51b815260206004820152601260248201527121b0b63632b9103737ba102932b630bcb2b960711b81840152606490fd5b506000546001600160a01b03163314610497565b3461032557602036600319011261032557610a446124a6565b610a4c612669565b6001600160a01b03908116908115610a9b57600054826001600160601b0360a01b821617600055167f8be0079c531659141344cd1fd0a4f28419497f9722a3daafe3b4186f6b6457e0600080a3005b604051631e4fbdf760e01b815260006004820152602490fd5b34610325576040366003190112610325577f4b36b2e66f38ed349bec532105790177f1283bcbc094e6cd48565195d3033c43610aee6124a6565b610af661265a565b90610aff612669565b6001600160a01b0381166000908152600760205260409020805460ff191660ff841515161790555b604080516001600160a01b039290921682529115156020820152a1005b346103255760203660031901126103255760043580151580610b87575b610b6a906128b8565b600052600460205260206008604060002001544211604051908152f35b50600354811115610b61565b346103255760003660031901126103255760206040516101f48152f35b34610325576000366003190112610325576008546040516001600160a01b039091168152602090f35b3461032557604036600319011261032557610bf26124a6565b610bfa6124bc565b9060018060a01b038091166000526005602052604060002091166000526020526020604060002054604051908152f35b34610325576020366003190112610325576001600160a01b03610c4b6124a6565b16600052600a6020526020604060002054604051908152f35b3461032557602036600319011261032557610c7d6124a6565b610c85612669565b6001600160a01b039081168015610cdf577f5d16ad41baeb009cd23eb8f6c7cde5c2e0cd5acf4a33926ab488875c37c37f389160409160085491816001600160601b0360a01b8416176008558351921682526020820152a1005b60405162461bcd60e51b815260206004820152600f60248201526e496e76616c6964206164647265737360881b6044820152606490fd5b34610325576020366003190112610325576040600435610d46612710610d3e6002548461282a565b0480926127cd565b82519182526020820152f35b3461032557604036600319011261032557610d8f610d6e6124a6565b610d76612669565b600054602435916001600160a01b0391821691166127da565b005b34610325576000366003190112610325576000546040516001600160a01b039091168152602090f35b34610325576020366003190112610325576001600160a01b03610ddb6124a6565b166000526007602052602060ff604060002054166040519015158152f35b34610325576020366003190112610325576001600160a01b03610e1a6124a6565b1660005260096020526020604060002054604051908152f35b3461032557602036600319011261032557600435610e4f612669565b80151580610e9c575b15610e6257600b55005b60405162461bcd60e51b8152602060048201526012602482015271496e76616c6964206d61782028312d35302960701b6044820152606490fd5b506032811115610e58565b34610325576040366003190112610325577f54aee4f020b814c26f556399a354577e068193a82445e919505b00b9848512a5610ee16124a6565b610ee961265a565b90610ef2612669565b6001600160a01b0381166000908152600660205260409020805460ff191660ff84151516179055610b27565b3461032557602036600319011261032557600435610f3a612669565b6101f48111610f7c5760407f528d9479e9f9889a87a3c30c7f7ba537e5e59c4c85a37733b16e57c62df6130291600254908060025582519182526020820152a1005b60405162461bcd60e51b815260206004820152601560248201527446656520746f6f206869676820286d61782035252960581b6044820152606490fd5b3461032557600036600319011261032557610fd2612669565b600080546001600160a01b0319811682556001600160a01b03167f8be0079c531659141344cd1fd0a4f28419497f9722a3daafe3b4186f6b6457e08280a3005b34610325576020366003190112610325576001600160a01b036110336124a6565b166000526006602052602060ff604060002054166040519015158152f35b34610325576000366003190112610325576020600354604051908152f35b346103255760403660031901126103255767ffffffffffffffff6004356024803590838211610325573660238301121561032557816004013593841161032557368185840101116103255782151580611330575b6110cc906128b8565b8260005260209160048352604060002060018060a01b03808254163314908115611320575b50156112dc576006810180549060ff82169160078310156112c7576001928381149081156112bc575b50156112785760039060ff1916179055600a8201336001600160601b0360a01b825416179055600b8201906111598861115384546124d2565b84612864565b8760009186601f831160011461120d5760009383611200575b50501b906000198960031b1c19161790555b6203f4804201908142116111eb57917fb90cad70464bd57459e5d7277e908a9cecfdc1a71b2ed3a578b85bb44ff6563e94939160088894015582604051948086528501520160408301376000604085830101526040813395601f80199101168101030190a3005b83634e487b7160e01b60005260116004526000fd5b870101359250868b611172565b50919050601f198916908360005289886000209260005b8a8683831061125f5750505010611243575b505087811b019055611184565b850186013560001960038b901b60f8161c191690558880611236565b858b018c0135875590950194938401938d935001611224565b60405162461bcd60e51b815260048101889052601d818801527f5472616465206e6f7420696e2064697370757461626c652073746174650000006044820152606490fd5b60029150148a61111a565b85634e487b7160e01b60005260216004526000fd5b60405162461bcd60e51b815260048101859052601e818501527f4f6e6c7920747261646520706172746965732063616e206469737075746500006044820152606490fd5b90506001820154163314876110f1565b506003548311156110c3565b34610325576040366003190112610325576113556124a6565b602435906113616127aa565b60018060a01b03169081600052600660205261138460ff60406000205416612695565b80156113ef57611396813033856126f9565b33600052600560205260406000208260005260205260406000206113bb8282546126d6565b90556040519081527f5548c837ab068cf56a2c2479df0882a4922fd203edb7517321831d95078c5f6260203392a360018055005b60405162461bcd60e51b81526020600482015260126024820152710416d6f756e74206d757374206265203e20360741b6044820152606490fd5b3461032557602080600319360112610325576024816001600160a01b0361144e6124a6565b16604051928380926370a0823160e01b82523060048301525afa9081156114ad57600091611480575b50604051908152f35b90508181813d83116114a6575b6114978183612545565b81010312610325575182611477565b503d61148d565b6040513d6000823e3d90fd5b3461032557602080600319360112610325576004356114d66127aa565b801515806116c0575b6114e8906128b8565b60008181526004835260409020805490926001600160a01b0391821633811480156116a9575b801561169c575b156116575760068501805460ff811660078110156102be576001811490811561164c575b501561160757916040939160047f97927b87dc09cc0b1ac68bfececc490c2797c23dd6b778d344690cda6b0e95fc969460ff1916179055600052600a81528260002061158581546128fb565b905560028601918083541696600460018201916115ad848454169a600583019b8c54916127da565b01938454806115cf575b5050541695549154908351928352820152a360018055005b6115e290848354168560085416906127da565b828554915416600052600984526115fe866000209182546126d6565b905588806115b7565b60405162461bcd60e51b815260048101859052601d60248201527f5472616465206e6f7420696e2072656c65617361626c652073746174650000006044820152606490fd5b600291501488611539565b60405162461bcd60e51b815260048101839052601960248201527f4e6f7420617574686f72697a656420746f2072656c65617365000000000000006044820152606490fd5b5082600054163314611515565b50336000526007825260ff6040600020541661150e565b506003548111156114df565b34610325576040366003190112610325576004356116e861265a565b906116f16127aa565b80151580611941575b611703906128b8565b3360005260206007815260ff60406000205416801561192d575b156118e957816000526004815260406000206006810160ff81541660078110156102be576003036118af5790837f8fdd4548a8481406b6e29c0d6f25e27cd72502f79f4adf409468502e7920dabc939260018060a01b0380845416600052600a8552604060002061178e81546128fb565b905584881561185457506040907f97927b87dc09cc0b1ac68bfececc490c2797c23dd6b778d344690cda6b0e95fc92600460ff1982541617905560028501908082541695600460018201916117ee8484541699600583019a8b54916127da565b019283548061181c575b5050541694549054825191825286820152a35b60405193151584523393a360018055005b61182f90848354168560085416906127da565b8284549154166000526009895261184b856000209182546126d6565b90558b806117f8565b907f598cf7b1037a2cbb27645d4ef91a50ab4b13db45cc85ebd8edeea26233ea928892600560ff19825416179055806002860154169461189f828254169660038301978854916127da565b54169354604051908152a361180b565b60405162461bcd60e51b8152600481018490526012602482015271151c985919481b9bdd08191a5cdc1d5d195960721b6044820152606490fd5b6064906040519062461bcd60e51b82526004820152601e60248201527f4f6e6c792061646d696e2f72656c617965722063616e207265736f6c766500006044820152fd5b506000546001600160a01b0316331461171d565b506003548111156116fa565b34610325576000366003190112610325576020600b54604051908152f35b34610325576000366003190112610325576020604051620f42408152f35b346103255760203660031901126103255760606101606040516119ab8161250c565b60008152600060208201526000604082015260008382015260006080820152600060a0820152600060c0820152600060e0820152600061010082015260006101208201526000610140820152015260043560005260046020526040600020604051611a158161250c565b81546001600160a01b03908116825260018301548116602083015260028301541660408201526003820154606082015260048201546080820152600582015460a0820152600682015460ff169160078310156102be5760c0820192909252600782015460e082015260088201546101008201526009820154610120820152600a8201546001600160a01b031661014082015261016091611ab790600b01612567565b82820152611b746040519283926020845260018060a01b03815116602085015260018060a01b03602082015116604085015260018060a01b03604082015116606085015260608101516080850152608081015160a085015260a081015160c0850152611b2b60c082015160e086019061260d565b60e081015161010085015261010081015161012085015261012081015161014085015260018060a01b0361014082015116828501520151610180808401526101a083019061261a565b0390f35b346103255760208060031936011261032557600435611b956127aa565b80151580611e97575b611ba7906128b8565b8060005260048252604060002091600883015442119060018060a01b0380855416331492336000526007835260ff604060002054168015611e8a575b8115611d4c575060ff60068701541660078110156102be57600103611ce1575b8015611c95575b7f598cf7b1037a2cbb27645d4ef91a50ab4b13db45cc85ebd8edeea26233ea9288935015611c8b57611c4160065b6006870161284c565b80855416600052600a82526040600020611c5b81546128fb565b90558060028601541694611c7a828254169660038301978854916127da565b54169354604051908152a360018055005b611c416005611c38565b509180611cc5575b917f598cf7b1037a2cbb27645d4ef91a50ab4b13db45cc85ebd8edeea26233ea928892611c0a565b5060ff6006850154169160078310156102be5791600114611c9d565b60405162461bcd60e51b815260048101849052603860248201527f4669617420616c72656164792073656e74202d20757365206175746f52656c6560448201527f61736520666f722062757965722070726f74656374696f6e00000000000000006064820152608490fd5b8415611db0575060ff60068701541660078110156102be57600114611c035760405162461bcd60e51b815260048101849052601d60248201527f43616e6e6f742063616e63656c20616674657220666961742073656e740000006044820152606490fd5b15611e455760ff600687015416600781101590816102be5760018114918215611e37575b8215611e26575b5050611c035760405162461bcd60e51b815260048101849052601d60248201527f5472616465206e6f7420696e20726566756e6461626c652073746174650000006044820152606490fd5b9091506102be576003148780611ddb565b506002811491506000611dd4565b60405162461bcd60e51b815260048101849052601860248201527f4e6f7420617574686f72697a656420746f20726566756e6400000000000000006044820152606490fd5b5081600054163314611be3565b50600354811115611b9e565b34610325576000366003190112610325576020600254604051908152f35b3461032557602036600319011261032557600435600052600460205260206040600020611b7460018060a01b0380835416928160018201541691806002830154166003830154611f6c6004850154600586015460ff60068801541691600788015494600889015496611f41600b60098c01549a600a8d0154169b01612567565b9a6040519e8f9e8f908152015260408d015260608c015260808b015260a08a015260c089019061260d565b60e08701526101008601526101208501526101408401526101808061016085015283019061261a565b3461032557608036600319011261032557611fae6124a6565b611fb66124bc565b90606491823592611fc56127aa565b836001600160a01b0384161561244f576001600160a01b038416331461240c576001600160a01b03831660009081526006602052604090205461200a9060ff16612695565b620f4240604435106123c95733600052600a602052604060002054600b54111561238d5715612383575b620151808411612341575061271061205060025460443561282a565b049061205e826044356127cd565b9361206a60035461283d565b938460035561207982426126d6565b604051966120868861250c565b33885260018060a01b038316602089015260018060a01b0385166040890152604435606089015285608089015260a0880152600160c08801524260e0880152610100870152600061012087015260006101408701526040516120e781612529565b6000815261016087015284600052600460205260406000209560018060a01b03815116906001600160601b0360a01b91828954161788556001880160018060a01b03602083015116838254161790556002880160018060a01b0360408301511683825416179055606081015160038901556080810151600489015560a0810151600589015560c08101519160078310156102be5761218b6101609360068b0161284c565b60e082015160078a015561010082015160088a015561012082015160098a0155600a89019060018060a01b03610140840151169082541617905501519182519667ffffffffffffffff8811610876578787946121f960209a6121f0600b8601546124d2565b600b8601612864565b8990601f83116001146122b657826000805160206129098339815191529695936122759593600b936000926122ab575b50508160011b916000199060031b1c1916179101555b33600052600a89526040600020612256815461283d565b905561226f60443530336001600160a01b038a166126f9565b426126d6565b604080516001600160a01b03968716815260443560208201529081019690965260608601529092169233929080608081016107d1565b015190508d80612229565b959493929190600b83016000528a6000209660005b601f19841681106123275750826000805160206129098339815191529798600b93600193612275989796601f1981161061230e575b505050811b0191015561223f565b015160001960f88460031b161c191690558d8080612300565b8282015189556001909801978b9750918c01918c016122cb565b60405162461bcd60e51b815260206004820152601b60248201527f4475726174696f6e20746f6f206c6f6e6720286d6178203234682900000000006044820152fd5b610e109350612034565b5060405162461bcd60e51b8152602060048201526016602482015275546f6f206d616e79206163746976652074726164657360501b6044820152fd5b5060405162461bcd60e51b815260206004820152601d60248201527f416d6f756e7420746f6f20736d616c6c20286d696e20312055534443290000006044820152fd5b5060405162461bcd60e51b815260206004820152601a60248201527f43616e6e6f74207472616465207769746820796f757273656c660000000000006044820152fd5b5060405162461bcd60e51b8152602060048201526015602482015274496e76616c6964206275796572206164647265737360581b6044820152fd5b3461032557600036600319011261032557806201518060209252f35b600435906001600160a01b038216820361032557565b602435906001600160a01b038216820361032557565b90600182811c92168015612502575b60208310146124ec57565b634e487b7160e01b600052602260045260246000fd5b91607f16916124e1565b610180810190811067ffffffffffffffff82111761087657604052565b6020810190811067ffffffffffffffff82111761087657604052565b90601f8019910116810190811067ffffffffffffffff82111761087657604052565b906040519182600082549261257b846124d2565b9081845260019485811690816000146125ea57506001146125a7575b50506125a592500383612545565b565b9093915060005260209081600020936000915b8183106125d25750506125a593508201013880612597565b855488840185015294850194879450918301916125ba565b9150506125a594506020925060ff191682840152151560051b8201013880612597565b9060078210156102be5752565b919082519283825260005b848110612646575050826000602080949584010152601f8019910116010190565b602081830181015184830182015201612625565b60243590811515820361032557565b6000546001600160a01b0316330361267d57565b60405163118cdaa760e01b8152336004820152602490fd5b1561269c57565b60405162461bcd60e51b8152602060048201526012602482015271151bdad95b881b9bdd08185c1c1c9bdd995960721b6044820152606490fd5b919082018092116126e357565b634e487b7160e01b600052601160045260246000fd5b6040516323b872dd60e01b60208201526001600160a01b03928316602482015292909116604483015260648083019390935291815260a081019181831067ffffffffffffffff841117610876576125a5926040525b906000602091828151910182855af1156114ad576000513d6127a157506001600160a01b0381163b155b61277f5750565b604051635274afe760e01b81526001600160a01b039091166004820152602490fd5b60011415612778565b6002600154146127bb576002600155565b604051633ee5aeb560e01b8152600490fd5b919082039182116126e357565b60405163a9059cbb60e01b60208201526001600160a01b039092166024830152604480830193909352918152608081019167ffffffffffffffff831182841017610876576125a59260405261274e565b818102929181159184041417156126e357565b60001981146126e35760010190565b9060078110156102be5760ff80198354169116179055565b90601f811161287257505050565b600091825260208220906020601f850160051c830194106128ae575b601f0160051c01915b8281106128a357505050565b818155600101612897565b909250829061288e565b156128bf57565b60405162461bcd60e51b8152602060048201526014602482015273151c98591948191bd95cc81b9bdd08195e1a5cdd60621b6044820152606490fd5b80156126e357600019019056fe5f41fb7cbdad789c17f3e3ffef0a920523917d85e5b27591e00eb1517a06c6e9a2646970667358221220c807fc3fe946a6d5501ceab87d7ff8058f2fcc38b7c7bc6e32707ca582a2fb4664736f6c63430008140033","opcodes":"PUSH1 0x80 CALLVALUE PUSH3 0x200 JUMPI PUSH3 0x2B8F SWAP1 PUSH1 0x1F CODESIZE DUP4 SWAP1 SUB SWAP1 DUP2 ADD PUSH1 0x1F NOT AND DUP3 ADD SWAP1 PUSH1 0x1 PUSH1 0x1 PUSH1 0x40 SHL SUB DUP3 GT DUP4 DUP4 LT OR PUSH3 0x205 JUMPI DUP1 DUP4 SWAP2 PUSH1 0x40 SWAP6 DUP7 SWAP5 DUP6 MSTORE DUP4 CODECOPY DUP2 ADD SUB SLT PUSH3 0x200 JUMPI PUSH3 0x4F DUP2 PUSH3 0x21B JUMP JUMPDEST PUSH3 0x5E PUSH1 0x20 DUP1 SWAP4 ADD PUSH3 0x21B JUMP JUMPDEST SWAP2 CALLER ISZERO PUSH3 0x1E8 JUMPI PUSH1 0x0 DUP1 SLOAD CALLER PUSH1 0x1 PUSH1 0x1 PUSH1 0xA0 SHL SUB NOT DUP1 DUP4 AND DUP3 OR DUP5 SSTORE DUP8 MLOAD SWAP4 SWAP7 SWAP4 SWAP6 SWAP1 SWAP4 PUSH1 0x1 PUSH1 0x1 PUSH1 0xA0 SHL SUB SWAP4 SWAP1 SWAP3 DUP5 SWAP3 SWAP2 DUP4 AND PUSH32 0x8BE0079C531659141344CD1FD0A4F28419497F9722A3DAAFE3B4186F6B6457E0 DUP11 DUP1 LOG3 PUSH1 0x1 DUP1 SSTORE PUSH1 0x32 PUSH1 0x2 SSTORE PUSH1 0xA PUSH1 0xB SSTORE AND SWAP5 DUP6 ISZERO PUSH3 0x1A6 JUMPI POP AND SWAP1 DUP2 ISZERO PUSH3 0x162 JUMPI SWAP2 PUSH32 0x54AEE4F020B814C26F556399A354577E068193A82445E919505B00B9848512A5 DUP7 DUP6 SWAP4 DUP2 SWAP7 PUSH32 0x5D16AD41BAEB009CD23EB8F6C7CDE5C2E0CD5ACF4A33926AB488875C37C37F38 SWAP9 SWAP7 PUSH1 0x8 SLOAD AND OR PUSH1 0x8 SSTORE DUP1 DUP7 MSTORE PUSH1 0x6 DUP5 MSTORE DUP2 DUP7 KECCAK256 PUSH1 0x1 PUSH1 0xFF NOT DUP3 SLOAD AND OR SWAP1 SSTORE DUP2 MLOAD SWAP1 DUP2 MSTORE PUSH1 0x1 DUP5 DUP3 ADD MSTORE LOG1 DUP4 MLOAD SWAP3 DUP4 MSTORE DUP3 ADD MSTORE LOG1 MLOAD PUSH2 0x295E SWAP1 DUP2 PUSH3 0x231 DUP3 CODECOPY RETURN JUMPDEST DUP6 MLOAD PUSH3 0x461BCD PUSH1 0xE5 SHL DUP2 MSTORE PUSH1 0x4 DUP2 ADD DUP5 SWAP1 MSTORE PUSH1 0x14 PUSH1 0x24 DUP3 ADD MSTORE PUSH32 0x496E76616C696420555344432061646472657373000000000000000000000000 PUSH1 0x44 DUP3 ADD MSTORE PUSH1 0x64 SWAP1 REVERT JUMPDEST PUSH3 0x461BCD PUSH1 0xE5 SHL DUP2 MSTORE PUSH1 0x4 DUP2 ADD DUP6 SWAP1 MSTORE PUSH1 0x15 PUSH1 0x24 DUP3 ADD MSTORE PUSH32 0x496E76616C69642066656520636F6C6C6563746F720000000000000000000000 PUSH1 0x44 DUP3 ADD MSTORE PUSH1 0x64 SWAP1 REVERT JUMPDEST DUP4 MLOAD PUSH4 0x1E4FBDF7 PUSH1 0xE0 SHL DUP2 MSTORE PUSH1 0x0 PUSH1 0x4 DUP3 ADD MSTORE PUSH1 0x24 SWAP1 REVERT JUMPDEST PUSH1 0x0 DUP1 REVERT JUMPDEST PUSH4 0x4E487B71 PUSH1 0xE0 SHL PUSH1 0x0 MSTORE PUSH1 0x41 PUSH1 0x4 MSTORE PUSH1 0x24 PUSH1 0x0 REVERT JUMPDEST MLOAD SWAP1 PUSH1 0x1 PUSH1 0x1 PUSH1 0xA0 SHL SUB DUP3 AND DUP3 SUB PUSH3 0x200 JUMPI JUMP INVALID PUSH1 0x80 DUP1 PUSH1 0x40 MSTORE PUSH1 0x4 CALLDATASIZE LT ISZERO PUSH2 0x13 JUMPI PUSH1 0x0 DUP1 REVERT JUMPDEST PUSH1 0x0 CALLDATALOAD PUSH1 0xE0 SHR SWAP1 DUP2 PUSH4 0x794305E EQ PUSH2 0x248A JUMPI POP DUP1 PUSH4 0x1906FB4D EQ PUSH2 0x1F95 JUMPI DUP1 PUSH4 0x1E6C598E EQ PUSH2 0x1EC1 JUMPI DUP1 PUSH4 0x24A9D853 EQ PUSH2 0x1EA3 JUMPI DUP1 PUSH4 0x278ECDE1 EQ PUSH2 0x1B78 JUMPI DUP1 PUSH4 0x2DB25E05 EQ PUSH2 0x1989 JUMPI DUP1 PUSH4 0x31B7D413 EQ PUSH2 0x196B JUMPI DUP1 PUSH4 0x3483CB02 EQ PUSH2 0x194D JUMPI DUP1 PUSH4 0x34B25EE2 EQ PUSH2 0x16CC JUMPI DUP1 PUSH4 0x37BDC99B EQ PUSH2 0x14B9 JUMPI DUP1 PUSH4 0x43AB265F EQ PUSH2 0x1429 JUMPI DUP1 PUSH4 0x47E7EF24 EQ PUSH2 0x133C JUMPI DUP1 PUSH4 0x5AEF573C EQ PUSH2 0x106F JUMPI DUP1 PUSH4 0x660D15B5 EQ PUSH2 0x1051 JUMPI DUP1 PUSH4 0x6D1EA3FA EQ PUSH2 0x1012 JUMPI DUP1 PUSH4 0x715018A6 EQ PUSH2 0xFB9 JUMPI DUP1 PUSH4 0x72C27B62 EQ PUSH2 0xF1E JUMPI DUP1 PUSH4 0x7E6A3400 EQ PUSH2 0xEA7 JUMPI DUP1 PUSH4 0x87D2FC82 EQ PUSH2 0xE33 JUMPI DUP1 PUSH4 0x88A40EED EQ PUSH2 0xDF9 JUMPI DUP1 PUSH4 0x8CBA8B6A EQ PUSH2 0xDBA JUMPI DUP1 PUSH4 0x8DA5CB5B EQ PUSH2 0xD91 JUMPI DUP1 PUSH4 0x95CCEA67 EQ PUSH2 0xD52 JUMPI DUP1 PUSH4 0x99A5D747 EQ PUSH2 0xD16 JUMPI DUP1 PUSH4 0xA42DCE80 EQ PUSH2 0xC64 JUMPI DUP1 PUSH4 0xAFBA9E22 EQ PUSH2 0xC2A JUMPI DUP1 PUSH4 0xC23F001F EQ PUSH2 0xBD9 JUMPI DUP1 PUSH4 0xC415B95C EQ PUSH2 0xBB0 JUMPI DUP1 PUSH4 0xD55BE8C6 EQ PUSH2 0xB93 JUMPI DUP1 PUSH4 0xD9548E53 EQ PUSH2 0xB44 JUMPI DUP1 PUSH4 0xECD8DC3A EQ PUSH2 0xAB4 JUMPI DUP1 PUSH4 0xF2FDE38B EQ PUSH2 0xA2B JUMPI DUP1 PUSH4 0xF3073C41 EQ PUSH2 0x43B JUMPI DUP1 PUSH4 0xF3FEF3A3 EQ PUSH2 0x347 JUMPI DUP1 PUSH4 0xF51F4BD2 EQ PUSH2 0x32A JUMPI PUSH4 0xFA254C18 EQ PUSH2 0x1AB JUMPI PUSH1 0x0 DUP1 REVERT JUMPDEST CALLVALUE PUSH2 0x325 JUMPI PUSH1 0x20 CALLDATASIZE PUSH1 0x3 NOT ADD SLT PUSH2 0x325 JUMPI PUSH1 0x4 CALLDATALOAD DUP1 ISZERO ISZERO DUP1 PUSH2 0x319 JUMPI JUMPDEST PUSH2 0x1D1 SWAP1 PUSH2 0x28B8 JUMP JUMPDEST PUSH1 0x0 DUP2 DUP2 MSTORE PUSH1 0x4 PUSH1 0x20 MSTORE PUSH1 0x40 SWAP1 KECCAK256 PUSH1 0x1 DUP2 ADD SLOAD PUSH1 0x1 PUSH1 0x1 PUSH1 0xA0 SHL SUB AND CALLER SUB PUSH2 0x2D4 JUMPI PUSH1 0x6 DUP2 ADD DUP1 SLOAD PUSH1 0xFF DUP2 AND PUSH1 0x7 DUP2 LT ISZERO PUSH2 0x2BE JUMPI PUSH1 0x1 SUB PUSH2 0x286 JUMPI PUSH1 0x8 DUP4 ADD SLOAD TIMESTAMP GT PUSH2 0x251 JUMPI PUSH1 0x2 SWAP1 PUSH1 0xFF NOT AND OR SWAP1 SSTORE PUSH1 0x9 TIMESTAMP SWAP2 ADD SSTORE CALLER SWAP1 PUSH32 0xA7B13F117AB1AAF50FEB35B788292244B765B0C7B9BDA1B9D9E3E29FFC7E88E8 PUSH1 0x0 DUP1 LOG3 STOP JUMPDEST PUSH1 0x40 MLOAD PUSH3 0x461BCD PUSH1 0xE5 SHL DUP2 MSTORE PUSH1 0x20 PUSH1 0x4 DUP3 ADD MSTORE PUSH1 0xD PUSH1 0x24 DUP3 ADD MSTORE PUSH13 0x151C98591948195E1C1A5C9959 PUSH1 0x9A SHL PUSH1 0x44 DUP3 ADD MSTORE PUSH1 0x64 SWAP1 REVERT JUMPDEST PUSH1 0x40 MLOAD PUSH3 0x461BCD PUSH1 0xE5 SHL DUP2 MSTORE PUSH1 0x20 PUSH1 0x4 DUP3 ADD MSTORE PUSH1 0x10 PUSH1 0x24 DUP3 ADD MSTORE PUSH16 0x5472616465206E6F7420616374697665 PUSH1 0x80 SHL PUSH1 0x44 DUP3 ADD MSTORE PUSH1 0x64 SWAP1 REVERT JUMPDEST PUSH4 0x4E487B71 PUSH1 0xE0 SHL PUSH1 0x0 MSTORE PUSH1 0x21 PUSH1 0x4 MSTORE PUSH1 0x24 PUSH1 0x0 REVERT JUMPDEST PUSH1 0x40 MLOAD PUSH3 0x461BCD PUSH1 0xE5 SHL DUP2 MSTORE PUSH1 0x20 PUSH1 0x4 DUP3 ADD MSTORE PUSH1 0x1D PUSH1 0x24 DUP3 ADD MSTORE PUSH32 0x4F6E6C792062757965722063616E206D61726B20666961742073656E74000000 PUSH1 0x44 DUP3 ADD MSTORE PUSH1 0x64 SWAP1 REVERT JUMPDEST POP PUSH1 0x3 SLOAD DUP2 GT ISZERO PUSH2 0x1C8 JUMP JUMPDEST PUSH1 0x0 DUP1 REVERT JUMPDEST CALLVALUE PUSH2 0x325 JUMPI PUSH1 0x0 CALLDATASIZE PUSH1 0x3 NOT ADD SLT PUSH2 0x325 JUMPI PUSH1 0x20 PUSH1 0x40 MLOAD PUSH2 0xE10 DUP2 MSTORE RETURN JUMPDEST CALLVALUE PUSH2 0x325 JUMPI PUSH1 0x40 CALLDATASIZE PUSH1 0x3 NOT ADD SLT PUSH2 0x325 JUMPI PUSH2 0x360 PUSH2 0x24A6 JUMP JUMPDEST PUSH1 0x24 CALLDATALOAD PUSH2 0x36B PUSH2 0x27AA JUMP JUMPDEST CALLER PUSH1 0x0 MSTORE PUSH1 0x20 PUSH1 0x5 DUP2 MSTORE PUSH1 0x40 PUSH1 0x0 KECCAK256 SWAP3 PUSH1 0x1 DUP1 PUSH1 0xA0 SHL SUB AND SWAP3 DUP4 PUSH1 0x0 MSTORE DUP2 MSTORE DUP2 PUSH1 0x40 PUSH1 0x0 KECCAK256 SLOAD LT PUSH2 0x3F7 JUMPI PUSH32 0x9B1BFA7FA9EE420A16E124F794C35AC9F90472ACC99140EB2F6447C714CAD8EB SWAP1 CALLER PUSH1 0x0 MSTORE PUSH1 0x5 DUP2 MSTORE PUSH1 0x40 PUSH1 0x0 KECCAK256 DUP5 PUSH1 0x0 MSTORE DUP2 MSTORE PUSH1 0x40 PUSH1 0x0 KECCAK256 PUSH2 0x3DB DUP5 DUP3 SLOAD PUSH2 0x27CD JUMP JUMPDEST SWAP1 SSTORE PUSH2 0x3E8 DUP4 CALLER DUP7 PUSH2 0x27DA JUMP JUMPDEST PUSH1 0x40 MLOAD SWAP3 DUP4 MSTORE CALLER SWAP3 LOG3 PUSH1 0x1 DUP1 SSTORE STOP JUMPDEST PUSH1 0x64 SWAP1 PUSH1 0x40 MLOAD SWAP1 PUSH3 0x461BCD PUSH1 0xE5 SHL DUP3 MSTORE PUSH1 0x4 DUP3 ADD MSTORE PUSH1 0x1A PUSH1 0x24 DUP3 ADD MSTORE PUSH32 0x496E73756666696369656E74207661756C742062616C616E6365000000000000 PUSH1 0x44 DUP3 ADD MSTORE REVERT JUMPDEST CALLVALUE PUSH2 0x325 JUMPI PUSH1 0xA0 CALLDATASIZE PUSH1 0x3 NOT ADD SLT PUSH2 0x325 JUMPI PUSH2 0x454 PUSH2 0x24A6 JUMP JUMPDEST PUSH2 0x45C PUSH2 0x24BC JUMP JUMPDEST PUSH1 0x44 SWAP2 DUP3 CALLDATALOAD PUSH1 0x1 PUSH1 0x1 PUSH1 0xA0 SHL SUB DUP2 AND SWAP1 SUB PUSH2 0x325 JUMPI PUSH1 0x84 CALLDATALOAD SWAP3 PUSH2 0x47D PUSH2 0x27AA JUMP JUMPDEST DUP4 CALLER PUSH1 0x0 MSTORE PUSH1 0x7 PUSH1 0x20 MSTORE PUSH1 0xFF PUSH1 0x40 PUSH1 0x0 KECCAK256 SLOAD AND DUP1 ISZERO PUSH2 0xA17 JUMPI JUMPDEST ISZERO PUSH2 0x9DE JUMPI PUSH1 0x1 PUSH1 0x1 PUSH1 0xA0 SHL SUB DUP5 AND ISZERO PUSH2 0x9AA JUMPI PUSH1 0x1 PUSH1 0x1 PUSH1 0xA0 SHL SUB DUP4 DUP2 AND SWAP1 DUP6 AND EQ PUSH2 0x979 JUMPI PUSH3 0xF4240 PUSH1 0x64 CALLDATALOAD LT PUSH2 0x949 JUMPI PUSH1 0x1 PUSH1 0x1 PUSH1 0xA0 SHL SUB DUP4 DUP2 AND PUSH1 0x0 SWAP1 DUP2 MSTORE PUSH1 0x5 PUSH1 0x20 SWAP1 DUP2 MSTORE PUSH1 0x40 DUP1 DUP4 KECCAK256 DUP7 CALLDATALOAD SWAP1 SWAP5 AND DUP4 MSTORE SWAP3 SWAP1 MSTORE KECCAK256 SLOAD PUSH1 0x64 CALLDATALOAD GT PUSH2 0x8FB JUMPI PUSH1 0x1 PUSH1 0x1 PUSH1 0xA0 SHL SUB DUP4 AND PUSH1 0x0 SWAP1 DUP2 MSTORE PUSH1 0xA PUSH1 0x20 MSTORE PUSH1 0x40 SWAP1 KECCAK256 SLOAD PUSH1 0xB SLOAD GT ISZERO PUSH2 0x8C5 JUMPI PUSH1 0x1 DUP1 PUSH1 0xA0 SHL SUB DUP4 AND PUSH1 0x0 MSTORE PUSH1 0x5 PUSH1 0x20 MSTORE PUSH1 0x40 PUSH1 0x0 KECCAK256 PUSH1 0x1 DUP1 PUSH1 0xA0 SHL SUB DUP4 CALLDATALOAD AND PUSH1 0x0 MSTORE PUSH1 0x20 MSTORE PUSH1 0x40 PUSH1 0x0 KECCAK256 PUSH2 0x554 PUSH1 0x64 CALLDATALOAD DUP3 SLOAD PUSH2 0x27CD JUMP JUMPDEST SWAP1 SSTORE ISZERO PUSH2 0x8BB JUMPI JUMPDEST PUSH3 0x15180 DUP5 GT PUSH2 0x88C JUMPI PUSH2 0x2710 PUSH2 0x577 PUSH1 0x2 SLOAD PUSH1 0x64 CALLDATALOAD PUSH2 0x282A JUMP JUMPDEST DIV SWAP3 PUSH2 0x585 DUP5 PUSH1 0x64 CALLDATALOAD PUSH2 0x27CD JUMP JUMPDEST SWAP1 PUSH2 0x591 PUSH1 0x3 SLOAD PUSH2 0x283D JUMP JUMPDEST SWAP5 DUP6 PUSH1 0x3 SSTORE PUSH2 0x5A0 DUP8 TIMESTAMP PUSH2 0x26D6 JUMP JUMPDEST PUSH1 0x40 MLOAD SWAP4 PUSH2 0x5AD DUP6 PUSH2 0x250C JUMP JUMPDEST PUSH1 0x1 PUSH1 0x1 PUSH1 0xA0 SHL SUB DUP8 DUP2 AND DUP7 MSTORE DUP5 DUP2 AND PUSH1 0x20 DUP8 ADD MSTORE DUP7 CALLDATALOAD AND PUSH1 0x40 DUP1 DUP8 ADD SWAP2 SWAP1 SWAP2 MSTORE PUSH1 0x64 CALLDATALOAD PUSH1 0x60 DUP8 ADD MSTORE PUSH1 0x80 DUP7 ADD DUP5 SWAP1 MSTORE PUSH1 0xA0 DUP7 ADD SWAP2 SWAP1 SWAP2 MSTORE PUSH1 0x1 PUSH1 0xC0 DUP7 ADD MSTORE TIMESTAMP PUSH1 0xE0 DUP7 ADD MSTORE PUSH2 0x100 DUP6 ADD SWAP2 SWAP1 SWAP2 MSTORE PUSH1 0x0 PUSH2 0x120 DUP6 ADD DUP2 SWAP1 MSTORE PUSH2 0x140 DUP6 ADD MSTORE MLOAD PUSH2 0x615 DUP2 PUSH2 0x2529 JUMP JUMPDEST PUSH1 0x0 DUP2 MSTORE PUSH2 0x160 DUP5 ADD MSTORE DUP6 PUSH1 0x0 MSTORE PUSH1 0x4 PUSH1 0x20 MSTORE PUSH1 0x40 PUSH1 0x0 KECCAK256 SWAP3 PUSH1 0x1 DUP1 PUSH1 0xA0 SHL SUB DUP2 MLOAD AND SWAP1 PUSH1 0x1 PUSH1 0x1 PUSH1 0x60 SHL SUB PUSH1 0xA0 SHL SWAP2 DUP3 DUP7 SLOAD AND OR DUP6 SSTORE PUSH1 0x1 DUP6 ADD PUSH1 0x1 DUP1 PUSH1 0xA0 SHL SUB PUSH1 0x20 DUP4 ADD MLOAD AND DUP4 DUP3 SLOAD AND OR SWAP1 SSTORE PUSH1 0x2 DUP6 ADD PUSH1 0x1 DUP1 PUSH1 0xA0 SHL SUB PUSH1 0x40 DUP4 ADD MLOAD AND DUP4 DUP3 SLOAD AND OR SWAP1 SSTORE PUSH1 0x60 DUP2 ADD MLOAD PUSH1 0x3 DUP7 ADD SSTORE PUSH1 0x80 DUP2 ADD MLOAD PUSH1 0x4 DUP7 ADD SSTORE PUSH1 0xA0 DUP2 ADD MLOAD PUSH1 0x5 DUP7 ADD SSTORE PUSH1 0xC0 DUP2 ADD MLOAD SWAP2 PUSH1 0x7 DUP4 LT ISZERO PUSH2 0x2BE JUMPI PUSH2 0x6B9 PUSH2 0x160 SWAP4 PUSH1 0x6 DUP9 ADD PUSH2 0x284C JUMP JUMPDEST PUSH1 0xE0 DUP3 ADD MLOAD PUSH1 0x7 DUP8 ADD SSTORE PUSH2 0x100 DUP3 ADD MLOAD PUSH1 0x8 DUP8 ADD SSTORE PUSH2 0x120 DUP3 ADD MLOAD PUSH1 0x9 DUP8 ADD SSTORE PUSH1 0xA DUP7 ADD SWAP1 PUSH1 0x1 DUP1 PUSH1 0xA0 SHL SUB PUSH2 0x140 DUP5 ADD MLOAD AND SWAP1 DUP3 SLOAD AND OR SWAP1 SSTORE ADD MLOAD SWAP2 DUP3 MLOAD SWAP8 PUSH8 0xFFFFFFFFFFFFFFFF DUP10 GT PUSH2 0x876 JUMPI DUP9 DUP9 SWAP5 PUSH2 0x727 PUSH1 0x20 SWAP12 PUSH2 0x71E PUSH1 0xB DUP11 ADD SLOAD PUSH2 0x24D2 JUMP JUMPDEST PUSH1 0xB DUP11 ADD PUSH2 0x2864 JUMP JUMPDEST DUP11 SWAP1 PUSH1 0x1F DUP4 GT PUSH1 0x1 EQ PUSH2 0x7EB JUMPI SWAP7 PUSH1 0xB DUP4 PUSH2 0x79A SWAP5 PUSH2 0x7D1 SWAP7 SWAP5 PUSH1 0x0 DUP1 MLOAD PUSH1 0x20 PUSH2 0x2909 DUP4 CODECOPY DUP2 MLOAD SWAP2 MSTORE SWAP11 SWAP12 PUSH1 0x0 SWAP3 PUSH2 0x7E0 JUMPI JUMPDEST POP POP DUP2 PUSH1 0x1 SHL SWAP2 PUSH1 0x0 NOT SWAP1 PUSH1 0x3 SHL SHR NOT AND OR SWAP2 ADD SSTORE JUMPDEST PUSH1 0x1 PUSH1 0x1 PUSH1 0xA0 SHL SUB DUP10 AND PUSH1 0x0 SWAP1 DUP2 MSTORE PUSH1 0xA DUP13 MSTORE PUSH1 0x40 SWAP1 KECCAK256 DUP1 SLOAD PUSH2 0x792 SWAP1 PUSH2 0x283D JUMP JUMPDEST SWAP1 SSTORE TIMESTAMP PUSH2 0x26D6 JUMP JUMPDEST PUSH1 0x40 DUP1 MLOAD PUSH1 0x1 PUSH1 0x1 PUSH1 0xA0 SHL SUB SWAP9 CALLDATALOAD DUP10 AND DUP2 MSTORE PUSH1 0x64 CALLDATALOAD PUSH1 0x20 DUP3 ADD MSTORE SWAP1 DUP2 ADD SWAP5 SWAP1 SWAP5 MSTORE PUSH1 0x60 DUP5 ADD MSTORE SWAP1 DUP6 AND SWAP6 SWAP1 SWAP5 AND SWAP4 DUP2 SWAP1 PUSH1 0x80 DUP3 ADD SWAP1 JUMP JUMPDEST SUB SWAP1 LOG4 PUSH1 0x1 DUP1 SSTORE PUSH1 0x40 MLOAD SWAP1 DUP2 MSTORE RETURN JUMPDEST ADD MLOAD SWAP1 POP DUP16 DUP1 PUSH2 0x75A JUMP JUMPDEST PUSH1 0xB DUP9 SWAP4 SWAP3 SWAP9 ADD PUSH1 0x0 MSTORE DUP12 PUSH1 0x0 KECCAK256 SWAP1 PUSH1 0x0 JUMPDEST PUSH1 0x1F NOT DUP5 AND DUP2 LT PUSH2 0x85C JUMPI POP PUSH1 0x1 DUP4 PUSH2 0x79A SWAP6 SWAP4 PUSH1 0x0 DUP1 MLOAD PUSH1 0x20 PUSH2 0x2909 DUP4 CODECOPY DUP2 MLOAD SWAP2 MSTORE SWAP11 SWAP12 PUSH1 0xB SWAP5 PUSH2 0x7D1 SWAP10 SWAP8 PUSH1 0x1F NOT DUP2 AND LT PUSH2 0x843 JUMPI JUMPDEST POP POP POP DUP2 SHL ADD SWAP2 ADD SSTORE PUSH2 0x770 JUMP JUMPDEST ADD MLOAD PUSH1 0x0 NOT PUSH1 0xF8 DUP5 PUSH1 0x3 SHL AND SHR NOT AND SWAP1 SSTORE DUP16 DUP1 DUP1 PUSH2 0x835 JUMP JUMPDEST DUP2 DUP11 ADD MLOAD DUP4 SSTORE SWAP9 DUP14 ADD SWAP9 DUP13 SWAP9 POP PUSH1 0x1 SWAP1 SWAP3 ADD SWAP2 DUP14 ADD PUSH2 0x7FD JUMP JUMPDEST PUSH4 0x4E487B71 PUSH1 0xE0 SHL PUSH1 0x0 MSTORE PUSH1 0x41 PUSH1 0x4 MSTORE PUSH1 0x24 PUSH1 0x0 REVERT JUMPDEST PUSH1 0x64 SWAP1 PUSH8 0x546F6F206C6F6E67 PUSH1 0xC0 SHL PUSH1 0x40 MLOAD SWAP2 PUSH3 0x461BCD PUSH1 0xE5 SHL DUP4 MSTORE PUSH1 0x20 PUSH1 0x4 DUP5 ADD MSTORE PUSH1 0x8 PUSH1 0x24 DUP5 ADD MSTORE DUP3 ADD MSTORE REVERT JUMPDEST PUSH2 0xE10 SWAP4 POP PUSH2 0x55C JUMP JUMPDEST PUSH1 0x40 MLOAD PUSH3 0x461BCD PUSH1 0xE5 SHL DUP2 MSTORE PUSH1 0x20 PUSH1 0x4 DUP3 ADD MSTORE PUSH1 0xF PUSH1 0x24 DUP3 ADD MSTORE PUSH15 0x546F6F206D616E7920747261646573 PUSH1 0x88 SHL DUP2 DUP5 ADD MSTORE PUSH1 0x64 SWAP1 REVERT JUMPDEST PUSH1 0x40 MLOAD PUSH3 0x461BCD PUSH1 0xE5 SHL DUP2 MSTORE PUSH1 0x20 PUSH1 0x4 DUP3 ADD MSTORE PUSH1 0x21 PUSH1 0x24 DUP3 ADD MSTORE PUSH32 0x496E73756666696369656E742073656C6C6572207661756C742062616C616E63 DUP2 DUP5 ADD MSTORE PUSH1 0x65 PUSH1 0xF8 SHL PUSH1 0x64 DUP3 ADD MSTORE PUSH1 0x84 SWAP1 REVERT JUMPDEST PUSH1 0x40 MLOAD PUSH3 0x461BCD PUSH1 0xE5 SHL DUP2 MSTORE PUSH1 0x20 PUSH1 0x4 DUP3 ADD MSTORE PUSH1 0x9 PUSH1 0x24 DUP3 ADD MSTORE PUSH9 0x151BDBC81CDB585B1B PUSH1 0xBA SHL DUP2 DUP5 ADD MSTORE PUSH1 0x64 SWAP1 REVERT JUMPDEST PUSH1 0x40 MLOAD PUSH3 0x461BCD PUSH1 0xE5 SHL DUP2 MSTORE PUSH1 0x20 PUSH1 0x4 DUP3 ADD MSTORE PUSH1 0xA PUSH1 0x24 DUP3 ADD MSTORE PUSH10 0x53656C66207472616465 PUSH1 0xB0 SHL DUP2 DUP5 ADD MSTORE PUSH1 0x64 SWAP1 REVERT JUMPDEST PUSH1 0x40 MLOAD PUSH3 0x461BCD PUSH1 0xE5 SHL DUP2 MSTORE PUSH1 0x20 PUSH1 0x4 DUP3 ADD MSTORE PUSH1 0xD PUSH1 0x24 DUP3 ADD MSTORE PUSH13 0x24B73B30B634B210313ABCB2B9 PUSH1 0x99 SHL DUP2 DUP5 ADD MSTORE PUSH1 0x64 SWAP1 REVERT JUMPDEST PUSH1 0x40 MLOAD PUSH3 0x461BCD PUSH1 0xE5 SHL DUP2 MSTORE PUSH1 0x20 PUSH1 0x4 DUP3 ADD MSTORE PUSH1 0x12 PUSH1 0x24 DUP3 ADD MSTORE PUSH18 0x21B0B63632B9103737BA102932B630BCB2B9 PUSH1 0x71 SHL DUP2 DUP5 ADD MSTORE PUSH1 0x64 SWAP1 REVERT JUMPDEST POP PUSH1 0x0 SLOAD PUSH1 0x1 PUSH1 0x1 PUSH1 0xA0 SHL SUB AND CALLER EQ PUSH2 0x497 JUMP JUMPDEST CALLVALUE PUSH2 0x325 JUMPI PUSH1 0x20 CALLDATASIZE PUSH1 0x3 NOT ADD SLT PUSH2 0x325 JUMPI PUSH2 0xA44 PUSH2 0x24A6 JUMP JUMPDEST PUSH2 0xA4C PUSH2 0x2669 JUMP JUMPDEST PUSH1 0x1 PUSH1 0x1 PUSH1 0xA0 SHL SUB SWAP1 DUP2 AND SWAP1 DUP2 ISZERO PUSH2 0xA9B JUMPI PUSH1 0x0 SLOAD DUP3 PUSH1 0x1 PUSH1 0x1 PUSH1 0x60 SHL SUB PUSH1 0xA0 SHL DUP3 AND OR PUSH1 0x0 SSTORE AND PUSH32 0x8BE0079C531659141344CD1FD0A4F28419497F9722A3DAAFE3B4186F6B6457E0 PUSH1 0x0 DUP1 LOG3 STOP JUMPDEST PUSH1 0x40 MLOAD PUSH4 0x1E4FBDF7 PUSH1 0xE0 SHL DUP2 MSTORE PUSH1 0x0 PUSH1 0x4 DUP3 ADD MSTORE PUSH1 0x24 SWAP1 REVERT JUMPDEST CALLVALUE PUSH2 0x325 JUMPI PUSH1 0x40 CALLDATASIZE PUSH1 0x3 NOT ADD SLT PUSH2 0x325 JUMPI PUSH32 0x4B36B2E66F38ED349BEC532105790177F1283BCBC094E6CD48565195D3033C43 PUSH2 0xAEE PUSH2 0x24A6 JUMP JUMPDEST PUSH2 0xAF6 PUSH2 0x265A JUMP JUMPDEST SWAP1 PUSH2 0xAFF PUSH2 0x2669 JUMP JUMPDEST PUSH1 0x1 PUSH1 0x1 PUSH1 0xA0 SHL SUB DUP2 AND PUSH1 0x0 SWAP1 DUP2 MSTORE PUSH1 0x7 PUSH1 0x20 MSTORE PUSH1 0x40 SWAP1 KECCAK256 DUP1 SLOAD PUSH1 0xFF NOT AND PUSH1 0xFF DUP5 ISZERO ISZERO AND OR SWAP1 SSTORE JUMPDEST PUSH1 0x40 DUP1 MLOAD PUSH1 0x1 PUSH1 0x1 PUSH1 0xA0 SHL SUB SWAP3 SWAP1 SWAP3 AND DUP3 MSTORE SWAP2 ISZERO ISZERO PUSH1 0x20 DUP3 ADD MSTORE LOG1 STOP JUMPDEST CALLVALUE PUSH2 0x325 JUMPI PUSH1 0x20 CALLDATASIZE PUSH1 0x3 NOT ADD SLT PUSH2 0x325 JUMPI PUSH1 0x4 CALLDATALOAD DUP1 ISZERO ISZERO DUP1 PUSH2 0xB87 JUMPI JUMPDEST PUSH2 0xB6A SWAP1 PUSH2 0x28B8 JUMP JUMPDEST PUSH1 0x0 MSTORE PUSH1 0x4 PUSH1 0x20 MSTORE PUSH1 0x20 PUSH1 0x8 PUSH1 0x40 PUSH1 0x0 KECCAK256 ADD SLOAD TIMESTAMP GT PUSH1 0x40 MLOAD SWAP1 DUP2 MSTORE RETURN JUMPDEST POP PUSH1 0x3 SLOAD DUP2 GT ISZERO PUSH2 0xB61 JUMP JUMPDEST CALLVALUE PUSH2 0x325 JUMPI PUSH1 0x0 CALLDATASIZE PUSH1 0x3 NOT ADD SLT PUSH2 0x325 JUMPI PUSH1 0x20 PUSH1 0x40 MLOAD PUSH2 0x1F4 DUP2 MSTORE RETURN JUMPDEST CALLVALUE PUSH2 0x325 JUMPI PUSH1 0x0 CALLDATASIZE PUSH1 0x3 NOT ADD SLT PUSH2 0x325 JUMPI PUSH1 0x8 SLOAD PUSH1 0x40 MLOAD PUSH1 0x1 PUSH1 0x1 PUSH1 0xA0 SHL SUB SWAP1 SWAP2 AND DUP2 MSTORE PUSH1 0x20 SWAP1 RETURN JUMPDEST CALLVALUE PUSH2 0x325 JUMPI PUSH1 0x40 CALLDATASIZE PUSH1 0x3 NOT ADD SLT PUSH2 0x325 JUMPI PUSH2 0xBF2 PUSH2 0x24A6 JUMP JUMPDEST PUSH2 0xBFA PUSH2 0x24BC JUMP JUMPDEST SWAP1 PUSH1 0x1 DUP1 PUSH1 0xA0 SHL SUB DUP1 SWAP2 AND PUSH1 0x0 MSTORE PUSH1 0x5 PUSH1 0x20 MSTORE PUSH1 0x40 PUSH1 0x0 KECCAK256 SWAP2 AND PUSH1 0x0 MSTORE PUSH1 0x20 MSTORE PUSH1 0x20 PUSH1 0x40 PUSH1 0x0 KECCAK256 SLOAD PUSH1 0x40 MLOAD SWAP1 DUP2 MSTORE RETURN JUMPDEST CALLVALUE PUSH2 0x325 JUMPI PUSH1 0x20 CALLDATASIZE PUSH1 0x3 NOT ADD SLT PUSH2 0x325 JUMPI PUSH1 0x1 PUSH1 0x1 PUSH1 0xA0 SHL SUB PUSH2 0xC4B PUSH2 0x24A6 JUMP JUMPDEST AND PUSH1 0x0 MSTORE PUSH1 0xA PUSH1 0x20 MSTORE PUSH1 0x20 PUSH1 0x40 PUSH1 0x0 KECCAK256 SLOAD PUSH1 0x40 MLOAD SWAP1 DUP2 MSTORE RETURN JUMPDEST CALLVALUE PUSH2 0x325 JUMPI PUSH1 0x20 CALLDATASIZE PUSH1 0x3 NOT ADD SLT PUSH2 0x325 JUMPI PUSH2 0xC7D PUSH2 0x24A6 JUMP JUMPDEST PUSH2 0xC85 PUSH2 0x2669 JUMP JUMPDEST PUSH1 0x1 PUSH1 0x1 PUSH1 0xA0 SHL SUB SWAP1 DUP2 AND DUP1 ISZERO PUSH2 0xCDF JUMPI PUSH32 0x5D16AD41BAEB009CD23EB8F6C7CDE5C2E0CD5ACF4A33926AB488875C37C37F38 SWAP2 PUSH1 0x40 SWAP2 PUSH1 0x8 SLOAD SWAP2 DUP2 PUSH1 0x1 PUSH1 0x1 PUSH1 0x60 SHL SUB PUSH1 0xA0 SHL DUP5 AND OR PUSH1 0x8 SSTORE DUP4 MLOAD SWAP3 AND DUP3 MSTORE PUSH1 0x20 DUP3 ADD MSTORE LOG1 STOP JUMPDEST PUSH1 0x40 MLOAD PUSH3 0x461BCD PUSH1 0xE5 SHL DUP2 MSTORE PUSH1 0x20 PUSH1 0x4 DUP3 ADD MSTORE PUSH1 0xF PUSH1 0x24 DUP3 ADD MSTORE PUSH15 0x496E76616C69642061646472657373 PUSH1 0x88 SHL PUSH1 0x44 DUP3 ADD MSTORE PUSH1 0x64 SWAP1 REVERT JUMPDEST CALLVALUE PUSH2 0x325 JUMPI PUSH1 0x20 CALLDATASIZE PUSH1 0x3 NOT ADD SLT PUSH2 0x325 JUMPI PUSH1 0x40 PUSH1 0x4 CALLDATALOAD PUSH2 0xD46 PUSH2 0x2710 PUSH2 0xD3E PUSH1 0x2 SLOAD DUP5 PUSH2 0x282A JUMP JUMPDEST DIV DUP1 SWAP3 PUSH2 0x27CD JUMP JUMPDEST DUP3 MLOAD SWAP2 DUP3 MSTORE PUSH1 0x20 DUP3 ADD MSTORE RETURN JUMPDEST CALLVALUE PUSH2 0x325 JUMPI PUSH1 0x40 CALLDATASIZE PUSH1 0x3 NOT ADD SLT PUSH2 0x325 JUMPI PUSH2 0xD8F PUSH2 0xD6E PUSH2 0x24A6 JUMP JUMPDEST PUSH2 0xD76 PUSH2 0x2669 JUMP JUMPDEST PUSH1 0x0 SLOAD PUSH1 0x24 CALLDATALOAD SWAP2 PUSH1 0x1 PUSH1 0x1 PUSH1 0xA0 SHL SUB SWAP2 DUP3 AND SWAP2 AND PUSH2 0x27DA JUMP JUMPDEST STOP JUMPDEST CALLVALUE PUSH2 0x325 JUMPI PUSH1 0x0 CALLDATASIZE PUSH1 0x3 NOT ADD SLT PUSH2 0x325 JUMPI PUSH1 0x0 SLOAD PUSH1 0x40 MLOAD PUSH1 0x1 PUSH1 0x1 PUSH1 0xA0 SHL SUB SWAP1 SWAP2 AND DUP2 MSTORE PUSH1 0x20 SWAP1 RETURN JUMPDEST CALLVALUE PUSH2 0x325 JUMPI PUSH1 0x20 CALLDATASIZE PUSH1 0x3 NOT ADD SLT PUSH2 0x325 JUMPI PUSH1 0x1 PUSH1 0x1 PUSH1 0xA0 SHL SUB PUSH2 0xDDB PUSH2 0x24A6 JUMP JUMPDEST AND PUSH1 0x0 MSTORE PUSH1 0x7 PUSH1 0x20 MSTORE PUSH1 0x20 PUSH1 0xFF PUSH1 0x40 PUSH1 0x0 KECCAK256 SLOAD AND PUSH1 0x40 MLOAD SWAP1 ISZERO ISZERO DUP2 MSTORE RETURN JUMPDEST CALLVALUE PUSH2 0x325 JUMPI PUSH1 0x20 CALLDATASIZE PUSH1 0x3 NOT ADD SLT PUSH2 0x325 JUMPI PUSH1 0x1 PUSH1 0x1 PUSH1 0xA0 SHL SUB PUSH2 0xE1A PUSH2 0x24A6 JUMP JUMPDEST AND PUSH1 0x0 MSTORE PUSH1 0x9 PUSH1 0x20 MSTORE PUSH1 0x20 PUSH1 0x40 PUSH1 0x0 KECCAK256 SLOAD PUSH1 0x40 MLOAD SWAP1 DUP2 MSTORE RETURN JUMPDEST CALLVALUE PUSH2 0x325 JUMPI PUSH1 0x20 CALLDATASIZE PUSH1 0x3 NOT ADD SLT PUSH2 0x325 JUMPI PUSH1 0x4 CALLDATALOAD PUSH2 0xE4F PUSH2 0x2669 JUMP JUMPDEST DUP1 ISZERO ISZERO DUP1 PUSH2 0xE9C JUMPI JUMPDEST ISZERO PUSH2 0xE62 JUMPI PUSH1 0xB SSTORE STOP JUMPDEST PUSH1 0x40 MLOAD PUSH3 0x461BCD PUSH1 0xE5 SHL DUP2 MSTORE PUSH1 0x20 PUSH1 0x4 DUP3 ADD MSTORE PUSH1 0x12 PUSH1 0x24 DUP3 ADD MSTORE PUSH18 0x496E76616C6964206D61782028312D353029 PUSH1 0x70 SHL PUSH1 0x44 DUP3 ADD MSTORE PUSH1 0x64 SWAP1 REVERT JUMPDEST POP PUSH1 0x32 DUP2 GT ISZERO PUSH2 0xE58 JUMP JUMPDEST CALLVALUE PUSH2 0x325 JUMPI PUSH1 0x40 CALLDATASIZE PUSH1 0x3 NOT ADD SLT PUSH2 0x325 JUMPI PUSH32 0x54AEE4F020B814C26F556399A354577E068193A82445E919505B00B9848512A5 PUSH2 0xEE1 PUSH2 0x24A6 JUMP JUMPDEST PUSH2 0xEE9 PUSH2 0x265A JUMP JUMPDEST SWAP1 PUSH2 0xEF2 PUSH2 0x2669 JUMP JUMPDEST PUSH1 0x1 PUSH1 0x1 PUSH1 0xA0 SHL SUB DUP2 AND PUSH1 0x0 SWAP1 DUP2 MSTORE PUSH1 0x6 PUSH1 0x20 MSTORE PUSH1 0x40 SWAP1 KECCAK256 DUP1 SLOAD PUSH1 0xFF NOT AND PUSH1 0xFF DUP5 ISZERO ISZERO AND OR SWAP1 SSTORE PUSH2 0xB27 JUMP JUMPDEST CALLVALUE PUSH2 0x325 JUMPI PUSH1 0x20 CALLDATASIZE PUSH1 0x3 NOT ADD SLT PUSH2 0x325 JUMPI PUSH1 0x4 CALLDATALOAD PUSH2 0xF3A PUSH2 0x2669 JUMP JUMPDEST PUSH2 0x1F4 DUP2 GT PUSH2 0xF7C JUMPI PUSH1 0x40 PUSH32 0x528D9479E9F9889A87A3C30C7F7BA537E5E59C4C85A37733B16E57C62DF61302 SWAP2 PUSH1 0x2 SLOAD SWAP1 DUP1 PUSH1 0x2 SSTORE DUP3 MLOAD SWAP2 DUP3 MSTORE PUSH1 0x20 DUP3 ADD MSTORE LOG1 STOP JUMPDEST PUSH1 0x40 MLOAD PUSH3 0x461BCD PUSH1 0xE5 SHL DUP2 MSTORE PUSH1 0x20 PUSH1 0x4 DUP3 ADD MSTORE PUSH1 0x15 PUSH1 0x24 DUP3 ADD MSTORE PUSH21 0x46656520746F6F206869676820286D617820352529 PUSH1 0x58 SHL PUSH1 0x44 DUP3 ADD MSTORE PUSH1 0x64 SWAP1 REVERT JUMPDEST CALLVALUE PUSH2 0x325 JUMPI PUSH1 0x0 CALLDATASIZE PUSH1 0x3 NOT ADD SLT PUSH2 0x325 JUMPI PUSH2 0xFD2 PUSH2 0x2669 JUMP JUMPDEST PUSH1 0x0 DUP1 SLOAD PUSH1 0x1 PUSH1 0x1 PUSH1 0xA0 SHL SUB NOT DUP2 AND DUP3 SSTORE PUSH1 0x1 PUSH1 0x1 PUSH1 0xA0 SHL SUB AND PUSH32 0x8BE0079C531659141344CD1FD0A4F28419497F9722A3DAAFE3B4186F6B6457E0 DUP3 DUP1 LOG3 STOP JUMPDEST CALLVALUE PUSH2 0x325 JUMPI PUSH1 0x20 CALLDATASIZE PUSH1 0x3 NOT ADD SLT PUSH2 0x325 JUMPI PUSH1 0x1 PUSH1 0x1 PUSH1 0xA0 SHL SUB PUSH2 0x1033 PUSH2 0x24A6 JUMP JUMPDEST AND PUSH1 0x0 MSTORE PUSH1 0x6 PUSH1 0x20 MSTORE PUSH1 0x20 PUSH1 0xFF PUSH1 0x40 PUSH1 0x0 KECCAK256 SLOAD AND PUSH1 0x40 MLOAD SWAP1 ISZERO ISZERO DUP2 MSTORE RETURN JUMPDEST CALLVALUE PUSH2 0x325 JUMPI PUSH1 0x0 CALLDATASIZE PUSH1 0x3 NOT ADD SLT PUSH2 0x325 JUMPI PUSH1 0x20 PUSH1 0x3 SLOAD PUSH1 0x40 MLOAD SWAP1 DUP2 MSTORE RETURN JUMPDEST CALLVALUE PUSH2 0x325 JUMPI PUSH1 0x40 CALLDATASIZE PUSH1 0x3 NOT ADD SLT PUSH2 0x325 JUMPI PUSH8 0xFFFFFFFFFFFFFFFF PUSH1 0x4 CALLDATALOAD PUSH1 0x24 DUP1 CALLDATALOAD SWAP1 DUP4 DUP3 GT PUSH2 0x325 JUMPI CALLDATASIZE PUSH1 0x23 DUP4 ADD SLT ISZERO PUSH2 0x325 JUMPI DUP2 PUSH1 0x4 ADD CALLDATALOAD SWAP4 DUP5 GT PUSH2 0x325 JUMPI CALLDATASIZE DUP2 DUP6 DUP5 ADD ADD GT PUSH2 0x325 JUMPI DUP3 ISZERO ISZERO DUP1 PUSH2 0x1330 JUMPI JUMPDEST PUSH2 0x10CC SWAP1 PUSH2 0x28B8 JUMP JUMPDEST DUP3 PUSH1 0x0 MSTORE PUSH1 0x20 SWAP2 PUSH1 0x4 DUP4 MSTORE PUSH1 0x40 PUSH1 0x0 KECCAK256 PUSH1 0x1 DUP1 PUSH1 0xA0 SHL SUB DUP1 DUP3 SLOAD AND CALLER EQ SWAP1 DUP2 ISZERO PUSH2 0x1320 JUMPI JUMPDEST POP ISZERO PUSH2 0x12DC JUMPI PUSH1 0x6 DUP2 ADD DUP1 SLOAD SWAP1 PUSH1 0xFF DUP3 AND SWAP2 PUSH1 0x7 DUP4 LT ISZERO PUSH2 0x12C7 JUMPI PUSH1 0x1 SWAP3 DUP4 DUP2 EQ SWAP1 DUP2 ISZERO PUSH2 0x12BC JUMPI JUMPDEST POP ISZERO PUSH2 0x1278 JUMPI PUSH1 0x3 SWAP1 PUSH1 0xFF NOT AND OR SWAP1 SSTORE PUSH1 0xA DUP3 ADD CALLER PUSH1 0x1 PUSH1 0x1 PUSH1 0x60 SHL SUB PUSH1 0xA0 SHL DUP3 SLOAD AND OR SWAP1 SSTORE PUSH1 0xB DUP3 ADD SWAP1 PUSH2 0x1159 DUP9 PUSH2 0x1153 DUP5 SLOAD PUSH2 0x24D2 JUMP JUMPDEST DUP5 PUSH2 0x2864 JUMP JUMPDEST DUP8 PUSH1 0x0 SWAP2 DUP7 PUSH1 0x1F DUP4 GT PUSH1 0x1 EQ PUSH2 0x120D JUMPI PUSH1 0x0 SWAP4 DUP4 PUSH2 0x1200 JUMPI JUMPDEST POP POP SHL SWAP1 PUSH1 0x0 NOT DUP10 PUSH1 0x3 SHL SHR NOT AND OR SWAP1 SSTORE JUMPDEST PUSH3 0x3F480 TIMESTAMP ADD SWAP1 DUP2 TIMESTAMP GT PUSH2 0x11EB JUMPI SWAP2 PUSH32 0xB90CAD70464BD57459E5D7277E908A9CECFDC1A71B2ED3A578B85BB44FF6563E SWAP5 SWAP4 SWAP2 PUSH1 0x8 DUP9 SWAP5 ADD SSTORE DUP3 PUSH1 0x40 MLOAD SWAP5 DUP1 DUP7 MSTORE DUP6 ADD MSTORE ADD PUSH1 0x40 DUP4 ADD CALLDATACOPY PUSH1 0x0 PUSH1 0x40 DUP6 DUP4 ADD ADD MSTORE PUSH1 0x40 DUP2 CALLER SWAP6 PUSH1 0x1F DUP1 NOT SWAP2 ADD AND DUP2 ADD SUB ADD SWAP1 LOG3 STOP JUMPDEST DUP4 PUSH4 0x4E487B71 PUSH1 0xE0 SHL PUSH1 0x0 MSTORE PUSH1 0x11 PUSH1 0x4 MSTORE PUSH1 0x0 REVERT JUMPDEST DUP8 ADD ADD CALLDATALOAD SWAP3 POP DUP7 DUP12 PUSH2 0x1172 JUMP JUMPDEST POP SWAP2 SWAP1 POP PUSH1 0x1F NOT DUP10 AND SWAP1 DUP4 PUSH1 0x0 MSTORE DUP10 DUP9 PUSH1 0x0 KECCAK256 SWAP3 PUSH1 0x0 JUMPDEST DUP11 DUP7 DUP4 DUP4 LT PUSH2 0x125F JUMPI POP POP POP LT PUSH2 0x1243 JUMPI JUMPDEST POP POP DUP8 DUP2 SHL ADD SWAP1 SSTORE PUSH2 0x1184 JUMP JUMPDEST DUP6 ADD DUP7 ADD CALLDATALOAD PUSH1 0x0 NOT PUSH1 0x3 DUP12 SWAP1 SHL PUSH1 0xF8 AND SHR NOT AND SWAP1 SSTORE DUP9 DUP1 PUSH2 0x1236 JUMP JUMPDEST DUP6 DUP12 ADD DUP13 ADD CALLDATALOAD DUP8 SSTORE SWAP1 SWAP6 ADD SWAP5 SWAP4 DUP5 ADD SWAP4 DUP14 SWAP4 POP ADD PUSH2 0x1224 JUMP JUMPDEST PUSH1 0x40 MLOAD PUSH3 0x461BCD PUSH1 0xE5 SHL DUP2 MSTORE PUSH1 0x4 DUP2 ADD DUP9 SWAP1 MSTORE PUSH1 0x1D DUP2 DUP9 ADD MSTORE PUSH32 0x5472616465206E6F7420696E2064697370757461626C65207374617465000000 PUSH1 0x44 DUP3 ADD MSTORE PUSH1 0x64 SWAP1 REVERT JUMPDEST PUSH1 0x2 SWAP2 POP EQ DUP11 PUSH2 0x111A JUMP JUMPDEST DUP6 PUSH4 0x4E487B71 PUSH1 0xE0 SHL PUSH1 0x0 MSTORE PUSH1 0x21 PUSH1 0x4 MSTORE PUSH1 0x0 REVERT JUMPDEST PUSH1 0x40 MLOAD PUSH3 0x461BCD PUSH1 0xE5 SHL DUP2 MSTORE PUSH1 0x4 DUP2 ADD DUP6 SWAP1 MSTORE PUSH1 0x1E DUP2 DUP6 ADD MSTORE PUSH32 0x4F6E6C7920747261646520706172746965732063616E20646973707574650000 PUSH1 0x44 DUP3 ADD MSTORE PUSH1 0x64 SWAP1 REVERT JUMPDEST SWAP1 POP PUSH1 0x1 DUP3 ADD SLOAD AND CALLER EQ DUP8 PUSH2 0x10F1 JUMP JUMPDEST POP PUSH1 0x3 SLOAD DUP4 GT ISZERO PUSH2 0x10C3 JUMP JUMPDEST CALLVALUE PUSH2 0x325 JUMPI PUSH1 0x40 CALLDATASIZE PUSH1 0x3 NOT ADD SLT PUSH2 0x325 JUMPI PUSH2 0x1355 PUSH2 0x24A6 JUMP JUMPDEST PUSH1 0x24 CALLDATALOAD SWAP1 PUSH2 0x1361 PUSH2 0x27AA JUMP JUMPDEST PUSH1 0x1 DUP1 PUSH1 0xA0 SHL SUB AND SWAP1 DUP2 PUSH1 0x0 MSTORE PUSH1 0x6 PUSH1 0x20 MSTORE PUSH2 0x1384 PUSH1 0xFF PUSH1 0x40 PUSH1 0x0 KECCAK256 SLOAD AND PUSH2 0x2695 JUMP JUMPDEST DUP1 ISZERO PUSH2 0x13EF JUMPI PUSH2 0x1396 DUP2 ADDRESS CALLER DUP6 PUSH2 0x26F9 JUMP JUMPDEST CALLER PUSH1 0x0 MSTORE PUSH1 0x5 PUSH1 0x20 MSTORE PUSH1 0x40 PUSH1 0x0 KECCAK256 DUP3 PUSH1 0x0 MSTORE PUSH1 0x20 MSTORE PUSH1 0x40 PUSH1 0x0 KECCAK256 PUSH2 0x13BB DUP3 DUP3 SLOAD PUSH2 0x26D6 JUMP JUMPDEST SWAP1 SSTORE PUSH1 0x40 MLOAD SWAP1 DUP2 MSTORE PUSH32 0x5548C837AB068CF56A2C2479DF0882A4922FD203EDB7517321831D95078C5F62 PUSH1 0x20 CALLER SWAP3 LOG3 PUSH1 0x1 DUP1 SSTORE STOP JUMPDEST PUSH1 0x40 MLOAD PUSH3 0x461BCD PUSH1 0xE5 SHL DUP2 MSTORE PUSH1 0x20 PUSH1 0x4 DUP3 ADD MSTORE PUSH1 0x12 PUSH1 0x24 DUP3 ADD MSTORE PUSH18 0x416D6F756E74206D757374206265203E203 PUSH1 0x74 SHL PUSH1 0x44 DUP3 ADD MSTORE PUSH1 0x64 SWAP1 REVERT JUMPDEST CALLVALUE PUSH2 0x325 JUMPI PUSH1 0x20 DUP1 PUSH1 0x3 NOT CALLDATASIZE ADD SLT PUSH2 0x325 JUMPI PUSH1 0x24 DUP2 PUSH1 0x1 PUSH1 0x1 PUSH1 0xA0 SHL SUB PUSH2 0x144E PUSH2 0x24A6 JUMP JUMPDEST AND PUSH1 0x40 MLOAD SWAP3 DUP4 DUP1 SWAP3 PUSH4 0x70A08231 PUSH1 0xE0 SHL DUP3 MSTORE ADDRESS PUSH1 0x4 DUP4 ADD MSTORE GAS STATICCALL SWAP1 DUP2 ISZERO PUSH2 0x14AD JUMPI PUSH1 0x0 SWAP2 PUSH2 0x1480 JUMPI JUMPDEST POP PUSH1 0x40 MLOAD SWAP1 DUP2 MSTORE RETURN JUMPDEST SWAP1 POP DUP2 DUP2 DUP2 RETURNDATASIZE DUP4 GT PUSH2 0x14A6 JUMPI JUMPDEST PUSH2 0x1497 DUP2 DUP4 PUSH2 0x2545 JUMP JUMPDEST DUP2 ADD SUB SLT PUSH2 0x325 JUMPI MLOAD DUP3 PUSH2 0x1477 JUMP JUMPDEST POP RETURNDATASIZE PUSH2 0x148D JUMP JUMPDEST PUSH1 0x40 MLOAD RETURNDATASIZE PUSH1 0x0 DUP3 RETURNDATACOPY RETURNDATASIZE SWAP1 REVERT JUMPDEST CALLVALUE PUSH2 0x325 JUMPI PUSH1 0x20 DUP1 PUSH1 0x3 NOT CALLDATASIZE ADD SLT PUSH2 0x325 JUMPI PUSH1 0x4 CALLDATALOAD PUSH2 0x14D6 PUSH2 0x27AA JUMP JUMPDEST DUP1 ISZERO ISZERO DUP1 PUSH2 0x16C0 JUMPI JUMPDEST PUSH2 0x14E8 SWAP1 PUSH2 0x28B8 JUMP JUMPDEST PUSH1 0x0 DUP2 DUP2 MSTORE PUSH1 0x4 DUP4 MSTORE PUSH1 0x40 SWAP1 KECCAK256 DUP1 SLOAD SWAP1 SWAP3 PUSH1 0x1 PUSH1 0x1 PUSH1 0xA0 SHL SUB SWAP2 DUP3 AND CALLER DUP2 EQ DUP1 ISZERO PUSH2 0x16A9 JUMPI JUMPDEST DUP1 ISZERO PUSH2 0x169C JUMPI JUMPDEST ISZERO PUSH2 0x1657 JUMPI PUSH1 0x6 DUP6 ADD DUP1 SLOAD PUSH1 0xFF DUP2 AND PUSH1 0x7 DUP2 LT ISZERO PUSH2 0x2BE JUMPI PUSH1 0x1 DUP2 EQ SWAP1 DUP2 ISZERO PUSH2 0x164C JUMPI JUMPDEST POP ISZERO PUSH2 0x1607 JUMPI SWAP2 PUSH1 0x40 SWAP4 SWAP2 PUSH1 0x4 PUSH32 0x97927B87DC09CC0B1AC68BFECECC490C2797C23DD6B778D344690CDA6B0E95FC SWAP7 SWAP5 PUSH1 0xFF NOT AND OR SWAP1 SSTORE PUSH1 0x0 MSTORE PUSH1 0xA DUP2 MSTORE DUP3 PUSH1 0x0 KECCAK256 PUSH2 0x1585 DUP2 SLOAD PUSH2 0x28FB JUMP JUMPDEST SWAP1 SSTORE PUSH1 0x2 DUP7 ADD SWAP2 DUP1 DUP4 SLOAD AND SWAP7 PUSH1 0x4 PUSH1 0x1 DUP3 ADD SWAP2 PUSH2 0x15AD DUP5 DUP5 SLOAD AND SWAP11 PUSH1 0x5 DUP4 ADD SWAP12 DUP13 SLOAD SWAP2 PUSH2 0x27DA JUMP JUMPDEST ADD SWAP4 DUP5 SLOAD DUP1 PUSH2 0x15CF JUMPI JUMPDEST POP POP SLOAD AND SWAP6 SLOAD SWAP2 SLOAD SWAP1 DUP4 MLOAD SWAP3 DUP4 MSTORE DUP3 ADD MSTORE LOG3 PUSH1 0x1 DUP1 SSTORE STOP JUMPDEST PUSH2 0x15E2 SWAP1 DUP5 DUP4 SLOAD AND DUP6 PUSH1 0x8 SLOAD AND SWAP1 PUSH2 0x27DA JUMP JUMPDEST DUP3 DUP6 SLOAD SWAP2 SLOAD AND PUSH1 0x0 MSTORE PUSH1 0x9 DUP5 MSTORE PUSH2 0x15FE DUP7 PUSH1 0x0 KECCAK256 SWAP2 DUP3 SLOAD PUSH2 0x26D6 JUMP JUMPDEST SWAP1 SSTORE DUP9 DUP1 PUSH2 0x15B7 JUMP JUMPDEST PUSH1 0x40 MLOAD PUSH3 0x461BCD PUSH1 0xE5 SHL DUP2 MSTORE PUSH1 0x4 DUP2 ADD DUP6 SWAP1 MSTORE PUSH1 0x1D PUSH1 0x24 DUP3 ADD MSTORE PUSH32 0x5472616465206E6F7420696E2072656C65617361626C65207374617465000000 PUSH1 0x44 DUP3 ADD MSTORE PUSH1 0x64 SWAP1 REVERT JUMPDEST PUSH1 0x2 SWAP2 POP EQ DUP9 PUSH2 0x1539 JUMP JUMPDEST PUSH1 0x40 MLOAD PUSH3 0x461BCD PUSH1 0xE5 SHL DUP2 MSTORE PUSH1 0x4 DUP2 ADD DUP4 SWAP1 MSTORE PUSH1 0x19 PUSH1 0x24 DUP3 ADD MSTORE PUSH32 0x4E6F7420617574686F72697A656420746F2072656C6561736500000000000000 PUSH1 0x44 DUP3 ADD MSTORE PUSH1 0x64 SWAP1 REVERT JUMPDEST POP DUP3 PUSH1 0x0 SLOAD AND CALLER EQ PUSH2 0x1515 JUMP JUMPDEST POP CALLER PUSH1 0x0 MSTORE PUSH1 0x7 DUP3 MSTORE PUSH1 0xFF PUSH1 0x40 PUSH1 0x0 KECCAK256 SLOAD AND PUSH2 0x150E JUMP JUMPDEST POP PUSH1 0x3 SLOAD DUP2 GT ISZERO PUSH2 0x14DF JUMP JUMPDEST CALLVALUE PUSH2 0x325 JUMPI PUSH1 0x40 CALLDATASIZE PUSH1 0x3 NOT ADD SLT PUSH2 0x325 JUMPI PUSH1 0x4 CALLDATALOAD PUSH2 0x16E8 PUSH2 0x265A JUMP JUMPDEST SWAP1 PUSH2 0x16F1 PUSH2 0x27AA JUMP JUMPDEST DUP1 ISZERO ISZERO DUP1 PUSH2 0x1941 JUMPI JUMPDEST PUSH2 0x1703 SWAP1 PUSH2 0x28B8 JUMP JUMPDEST CALLER PUSH1 0x0 MSTORE PUSH1 0x20 PUSH1 0x7 DUP2 MSTORE PUSH1 0xFF PUSH1 0x40 PUSH1 0x0 KECCAK256 SLOAD AND DUP1 ISZERO PUSH2 0x192D JUMPI JUMPDEST ISZERO PUSH2 0x18E9 JUMPI DUP2 PUSH1 0x0 MSTORE PUSH1 0x4 DUP2 MSTORE PUSH1 0x40 PUSH1 0x0 KECCAK256 PUSH1 0x6 DUP2 ADD PUSH1 0xFF DUP2 SLOAD AND PUSH1 0x7 DUP2 LT ISZERO PUSH2 0x2BE JUMPI PUSH1 0x3 SUB PUSH2 0x18AF JUMPI SWAP1 DUP4 PUSH32 0x8FDD4548A8481406B6E29C0D6F25E27CD72502F79F4ADF409468502E7920DABC SWAP4 SWAP3 PUSH1 0x1 DUP1 PUSH1 0xA0 SHL SUB DUP1 DUP5 SLOAD AND PUSH1 0x0 MSTORE PUSH1 0xA DUP6 MSTORE PUSH1 0x40 PUSH1 0x0 KECCAK256 PUSH2 0x178E DUP2 SLOAD PUSH2 0x28FB JUMP JUMPDEST SWAP1 SSTORE DUP5 DUP9 ISZERO PUSH2 0x1854 JUMPI POP PUSH1 0x40 SWAP1 PUSH32 0x97927B87DC09CC0B1AC68BFECECC490C2797C23DD6B778D344690CDA6B0E95FC SWAP3 PUSH1 0x4 PUSH1 0xFF NOT DUP3 SLOAD AND OR SWAP1 SSTORE PUSH1 0x2 DUP6 ADD SWAP1 DUP1 DUP3 SLOAD AND SWAP6 PUSH1 0x4 PUSH1 0x1 DUP3 ADD SWAP2 PUSH2 0x17EE DUP5 DUP5 SLOAD AND SWAP10 PUSH1 0x5 DUP4 ADD SWAP11 DUP12 SLOAD SWAP2 PUSH2 0x27DA JUMP JUMPDEST ADD SWAP3 DUP4 SLOAD DUP1 PUSH2 0x181C JUMPI JUMPDEST POP POP SLOAD AND SWAP5 SLOAD SWAP1 SLOAD DUP3 MLOAD SWAP2 DUP3 MSTORE DUP7 DUP3 ADD MSTORE LOG3 JUMPDEST PUSH1 0x40 MLOAD SWAP4 ISZERO ISZERO DUP5 MSTORE CALLER SWAP4 LOG3 PUSH1 0x1 DUP1 SSTORE STOP JUMPDEST PUSH2 0x182F SWAP1 DUP5 DUP4 SLOAD AND DUP6 PUSH1 0x8 SLOAD AND SWAP1 PUSH2 0x27DA JUMP JUMPDEST DUP3 DUP5 SLOAD SWAP2 SLOAD AND PUSH1 0x0 MSTORE PUSH1 0x9 DUP10 MSTORE PUSH2 0x184B DUP6 PUSH1 0x0 KECCAK256 SWAP2 DUP3 SLOAD PUSH2 0x26D6 JUMP JUMPDEST SWAP1 SSTORE DUP12 DUP1 PUSH2 0x17F8 JUMP JUMPDEST SWAP1 PUSH32 0x598CF7B1037A2CBB27645D4EF91A50AB4B13DB45CC85EBD8EDEEA26233EA9288 SWAP3 PUSH1 0x5 PUSH1 0xFF NOT DUP3 SLOAD AND OR SWAP1 SSTORE DUP1 PUSH1 0x2 DUP7 ADD SLOAD AND SWAP5 PUSH2 0x189F DUP3 DUP3 SLOAD AND SWAP7 PUSH1 0x3 DUP4 ADD SWAP8 DUP9 SLOAD SWAP2 PUSH2 0x27DA JUMP JUMPDEST SLOAD AND SWAP4 SLOAD PUSH1 0x40 MLOAD SWAP1 DUP2 MSTORE LOG3 PUSH2 0x180B JUMP JUMPDEST PUSH1 0x40 MLOAD PUSH3 0x461BCD PUSH1 0xE5 SHL DUP2 MSTORE PUSH1 0x4 DUP2 ADD DUP5 SWAP1 MSTORE PUSH1 0x12 PUSH1 0x24 DUP3 ADD MSTORE PUSH18 0x151C985919481B9BDD08191A5CDC1D5D1959 PUSH1 0x72 SHL PUSH1 0x44 DUP3 ADD MSTORE PUSH1 0x64 SWAP1 REVERT JUMPDEST PUSH1 0x64 SWAP1 PUSH1 0x40 MLOAD SWAP1 PUSH3 0x461BCD PUSH1 0xE5 SHL DUP3 MSTORE PUSH1 0x4 DUP3 ADD MSTORE PUSH1 0x1E PUSH1 0x24 DUP3 ADD MSTORE PUSH32 0x4F6E6C792061646D696E2F72656C617965722063616E207265736F6C76650000 PUSH1 0x44 DUP3 ADD MSTORE REVERT JUMPDEST POP PUSH1 0x0 SLOAD PUSH1 0x1 PUSH1 0x1 PUSH1 0xA0 SHL SUB AND CALLER EQ PUSH2 0x171D JUMP JUMPDEST POP PUSH1 0x3 SLOAD DUP2 GT ISZERO PUSH2 0x16FA JUMP JUMPDEST CALLVALUE PUSH2 0x325 JUMPI PUSH1 0x0 CALLDATASIZE PUSH1 0x3 NOT ADD SLT PUSH2 0x325 JUMPI PUSH1 0x20 PUSH1 0xB SLOAD PUSH1 0x40 MLOAD SWAP1 DUP2 MSTORE RETURN JUMPDEST CALLVALUE PUSH2 0x325 JUMPI PUSH1 0x0 CALLDATASIZE PUSH1 0x3 NOT ADD SLT PUSH2 0x325 JUMPI PUSH1 0x20 PUSH1 0x40 MLOAD PUSH3 0xF4240 DUP2 MSTORE RETURN JUMPDEST CALLVALUE PUSH2 0x325 JUMPI PUSH1 0x20 CALLDATASIZE PUSH1 0x3 NOT ADD SLT PUSH2 0x325 JUMPI PUSH1 0x60 PUSH2 0x160 PUSH1 0x40 MLOAD PUSH2 0x19AB DUP2 PUSH2 0x250C JUMP JUMPDEST PUSH1 0x0 DUP2 MSTORE PUSH1 0x0 PUSH1 0x20 DUP3 ADD MSTORE PUSH1 0x0 PUSH1 0x40 DUP3 ADD MSTORE PUSH1 0x0 DUP4 DUP3 ADD MSTORE PUSH1 0x0 PUSH1 0x80 DUP3 ADD MSTORE PUSH1 0x0 PUSH1 0xA0 DUP3 ADD MSTORE PUSH1 0x0 PUSH1 0xC0 DUP3 ADD MSTORE PUSH1 0x0 PUSH1 0xE0 DUP3 ADD MSTORE PUSH1 0x0 PUSH2 0x100 DUP3 ADD MSTORE PUSH1 0x0 PUSH2 0x120 DUP3 ADD MSTORE PUSH1 0x0 PUSH2 0x140 DUP3 ADD MSTORE ADD MSTORE PUSH1 0x4 CALLDATALOAD PUSH1 0x0 MSTORE PUSH1 0x4 PUSH1 0x20 MSTORE PUSH1 0x40 PUSH1 0x0 KECCAK256 PUSH1 0x40 MLOAD PUSH2 0x1A15 DUP2 PUSH2 0x250C JUMP JUMPDEST DUP2 SLOAD PUSH1 0x1 PUSH1 0x1 PUSH1 0xA0 SHL SUB SWAP1 DUP2 AND DUP3 MSTORE PUSH1 0x1 DUP4 ADD SLOAD DUP2 AND PUSH1 0x20 DUP4 ADD MSTORE PUSH1 0x2 DUP4 ADD SLOAD AND PUSH1 0x40 DUP3 ADD MSTORE PUSH1 0x3 DUP3 ADD SLOAD PUSH1 0x60 DUP3 ADD MSTORE PUSH1 0x4 DUP3 ADD SLOAD PUSH1 0x80 DUP3 ADD MSTORE PUSH1 0x5 DUP3 ADD SLOAD PUSH1 0xA0 DUP3 ADD MSTORE PUSH1 0x6 DUP3 ADD SLOAD PUSH1 0xFF AND SWAP2 PUSH1 0x7 DUP4 LT ISZERO PUSH2 0x2BE JUMPI PUSH1 0xC0 DUP3 ADD SWAP3 SWAP1 SWAP3 MSTORE PUSH1 0x7 DUP3 ADD SLOAD PUSH1 0xE0 DUP3 ADD MSTORE PUSH1 0x8 DUP3 ADD SLOAD PUSH2 0x100 DUP3 ADD MSTORE PUSH1 0x9 DUP3 ADD SLOAD PUSH2 0x120 DUP3 ADD MSTORE PUSH1 0xA DUP3 ADD SLOAD PUSH1 0x1 PUSH1 0x1 PUSH1 0xA0 SHL SUB AND PUSH2 0x140 DUP3 ADD MSTORE PUSH2 0x160 SWAP2 PUSH2 0x1AB7 SWAP1 PUSH1 0xB ADD PUSH2 0x2567 JUMP JUMPDEST DUP3 DUP3 ADD MSTORE PUSH2 0x1B74 PUSH1 0x40 MLOAD SWAP3 DUP4 SWAP3 PUSH1 0x20 DUP5 MSTORE PUSH1 0x1 DUP1 PUSH1 0xA0 SHL SUB DUP2 MLOAD AND PUSH1 0x20 DUP6 ADD MSTORE PUSH1 0x1 DUP1 PUSH1 0xA0 SHL SUB PUSH1 0x20 DUP3 ADD MLOAD AND PUSH1 0x40 DUP6 ADD MSTORE PUSH1 0x1 DUP1 PUSH1 0xA0 SHL SUB PUSH1 0x40 DUP3 ADD MLOAD AND PUSH1 0x60 DUP6 ADD MSTORE PUSH1 0x60 DUP2 ADD MLOAD PUSH1 0x80 DUP6 ADD MSTORE PUSH1 0x80 DUP2 ADD MLOAD PUSH1 0xA0 DUP6 ADD MSTORE PUSH1 0xA0 DUP2 ADD MLOAD PUSH1 0xC0 DUP6 ADD MSTORE PUSH2 0x1B2B PUSH1 0xC0 DUP3 ADD MLOAD PUSH1 0xE0 DUP7 ADD SWAP1 PUSH2 0x260D JUMP JUMPDEST PUSH1 0xE0 DUP2 ADD MLOAD PUSH2 0x100 DUP6 ADD MSTORE PUSH2 0x100 DUP2 ADD MLOAD PUSH2 0x120 DUP6 ADD MSTORE PUSH2 0x120 DUP2 ADD MLOAD PUSH2 0x140 DUP6 ADD MSTORE PUSH1 0x1 DUP1 PUSH1 0xA0 SHL SUB PUSH2 0x140 DUP3 ADD MLOAD AND DUP3 DUP6 ADD MSTORE ADD MLOAD PUSH2 0x180 DUP1 DUP5 ADD MSTORE PUSH2 0x1A0 DUP4 ADD SWAP1 PUSH2 0x261A JUMP JUMPDEST SUB SWAP1 RETURN JUMPDEST CALLVALUE PUSH2 0x325 JUMPI PUSH1 0x20 DUP1 PUSH1 0x3 NOT CALLDATASIZE ADD SLT PUSH2 0x325 JUMPI PUSH1 0x4 CALLDATALOAD PUSH2 0x1B95 PUSH2 0x27AA JUMP JUMPDEST DUP1 ISZERO ISZERO DUP1 PUSH2 0x1E97 JUMPI JUMPDEST PUSH2 0x1BA7 SWAP1 PUSH2 0x28B8 JUMP JUMPDEST DUP1 PUSH1 0x0 MSTORE PUSH1 0x4 DUP3 MSTORE PUSH1 0x40 PUSH1 0x0 KECCAK256 SWAP2 PUSH1 0x8 DUP4 ADD SLOAD TIMESTAMP GT SWAP1 PUSH1 0x1 DUP1 PUSH1 0xA0 SHL SUB DUP1 DUP6 SLOAD AND CALLER EQ SWAP3 CALLER PUSH1 0x0 MSTORE PUSH1 0x7 DUP4 MSTORE PUSH1 0xFF PUSH1 0x40 PUSH1 0x0 KECCAK256 SLOAD AND DUP1 ISZERO PUSH2 0x1E8A JUMPI JUMPDEST DUP2 ISZERO PUSH2 0x1D4C JUMPI POP PUSH1 0xFF PUSH1 0x6 DUP8 ADD SLOAD AND PUSH1 0x7 DUP2 LT ISZERO PUSH2 0x2BE JUMPI PUSH1 0x1 SUB PUSH2 0x1CE1 JUMPI JUMPDEST DUP1 ISZERO PUSH2 0x1C95 JUMPI JUMPDEST PUSH32 0x598CF7B1037A2CBB27645D4EF91A50AB4B13DB45CC85EBD8EDEEA26233EA9288 SWAP4 POP ISZERO PUSH2 0x1C8B JUMPI PUSH2 0x1C41 PUSH1 0x6 JUMPDEST PUSH1 0x6 DUP8 ADD PUSH2 0x284C JUMP JUMPDEST DUP1 DUP6 SLOAD AND PUSH1 0x0 MSTORE PUSH1 0xA DUP3 MSTORE PUSH1 0x40 PUSH1 0x0 KECCAK256 PUSH2 0x1C5B DUP2 SLOAD PUSH2 0x28FB JUMP JUMPDEST SWAP1 SSTORE DUP1 PUSH1 0x2 DUP7 ADD SLOAD AND SWAP5 PUSH2 0x1C7A DUP3 DUP3 SLOAD AND SWAP7 PUSH1 0x3 DUP4 ADD SWAP8 DUP9 SLOAD SWAP2 PUSH2 0x27DA JUMP JUMPDEST SLOAD AND SWAP4 SLOAD PUSH1 0x40 MLOAD SWAP1 DUP2 MSTORE LOG3 PUSH1 0x1 DUP1 SSTORE STOP JUMPDEST PUSH2 0x1C41 PUSH1 0x5 PUSH2 0x1C38 JUMP JUMPDEST POP SWAP2 DUP1 PUSH2 0x1CC5 JUMPI JUMPDEST SWAP2 PUSH32 0x598CF7B1037A2CBB27645D4EF91A50AB4B13DB45CC85EBD8EDEEA26233EA9288 SWAP3 PUSH2 0x1C0A JUMP JUMPDEST POP PUSH1 0xFF PUSH1 0x6 DUP6 ADD SLOAD AND SWAP2 PUSH1 0x7 DUP4 LT ISZERO PUSH2 0x2BE JUMPI SWAP2 PUSH1 0x1 EQ PUSH2 0x1C9D JUMP JUMPDEST PUSH1 0x40 MLOAD PUSH3 0x461BCD PUSH1 0xE5 SHL DUP2 MSTORE PUSH1 0x4 DUP2 ADD DUP5 SWAP1 MSTORE PUSH1 0x38 PUSH1 0x24 DUP3 ADD MSTORE PUSH32 0x4669617420616C72656164792073656E74202D20757365206175746F52656C65 PUSH1 0x44 DUP3 ADD MSTORE PUSH32 0x61736520666F722062757965722070726F74656374696F6E0000000000000000 PUSH1 0x64 DUP3 ADD MSTORE PUSH1 0x84 SWAP1 REVERT JUMPDEST DUP5 ISZERO PUSH2 0x1DB0 JUMPI POP PUSH1 0xFF PUSH1 0x6 DUP8 ADD SLOAD AND PUSH1 0x7 DUP2 LT ISZERO PUSH2 0x2BE JUMPI PUSH1 0x1 EQ PUSH2 0x1C03 JUMPI PUSH1 0x40 MLOAD PUSH3 0x461BCD PUSH1 0xE5 SHL DUP2 MSTORE PUSH1 0x4 DUP2 ADD DUP5 SWAP1 MSTORE PUSH1 0x1D PUSH1 0x24 DUP3 ADD MSTORE PUSH32 0x43616E6E6F742063616E63656C20616674657220666961742073656E74000000 PUSH1 0x44 DUP3 ADD MSTORE PUSH1 0x64 SWAP1 REVERT JUMPDEST ISZERO PUSH2 0x1E45 JUMPI PUSH1 0xFF PUSH1 0x6 DUP8 ADD SLOAD AND PUSH1 0x7 DUP2 LT ISZERO SWAP1 DUP2 PUSH2 0x2BE JUMPI PUSH1 0x1 DUP2 EQ SWAP2 DUP3 ISZERO PUSH2 0x1E37 JUMPI JUMPDEST DUP3 ISZERO PUSH2 0x1E26 JUMPI JUMPDEST POP POP PUSH2 0x1C03 JUMPI PUSH1 0x40 MLOAD PUSH3 0x461BCD PUSH1 0xE5 SHL DUP2 MSTORE PUSH1 0x4 DUP2 ADD DUP5 SWAP1 MSTORE PUSH1 0x1D PUSH1 0x24 DUP3 ADD MSTORE PUSH32 0x5472616465206E6F7420696E20726566756E6461626C65207374617465000000 PUSH1 0x44 DUP3 ADD MSTORE PUSH1 0x64 SWAP1 REVERT JUMPDEST SWAP1 SWAP2 POP PUSH2 0x2BE JUMPI PUSH1 0x3 EQ DUP8 DUP1 PUSH2 0x1DDB JUMP JUMPDEST POP PUSH1 0x2 DUP2 EQ SWAP2 POP PUSH1 0x0 PUSH2 0x1DD4 JUMP JUMPDEST PUSH1 0x40 MLOAD PUSH3 0x461BCD PUSH1 0xE5 SHL DUP2 MSTORE PUSH1 0x4 DUP2 ADD DUP5 SWAP1 MSTORE PUSH1 0x18 PUSH1 0x24 DUP3 ADD MSTORE PUSH32 0x4E6F7420617574686F72697A656420746F20726566756E640000000000000000 PUSH1 0x44 DUP3 ADD MSTORE PUSH1 0x64 SWAP1 REVERT JUMPDEST POP DUP2 PUSH1 0x0 SLOAD AND CALLER EQ PUSH2 0x1BE3 JUMP JUMPDEST POP PUSH1 0x3 SLOAD DUP2 GT ISZERO PUSH2 0x1B9E JUMP JUMPDEST CALLVALUE PUSH2 0x325 JUMPI PUSH1 0x0 CALLDATASIZE PUSH1 0x3 NOT ADD SLT PUSH2 0x325 JUMPI PUSH1 0x20 PUSH1 0x2 SLOAD PUSH1 0x40 MLOAD SWAP1 DUP2 MSTORE RETURN JUMPDEST CALLVALUE PUSH2 0x325 JUMPI PUSH1 0x20 CALLDATASIZE PUSH1 0x3 NOT ADD SLT PUSH2 0x325 JUMPI PUSH1 0x4 CALLDATALOAD PUSH1 0x0 MSTORE PUSH1 0x4 PUSH1 0x20 MSTORE PUSH1 0x20 PUSH1 0x40 PUSH1 0x0 KECCAK256 PUSH2 0x1B74 PUSH1 0x1 DUP1 PUSH1 0xA0 SHL SUB DUP1 DUP4 SLOAD AND SWAP3 DUP2 PUSH1 0x1 DUP3 ADD SLOAD AND SWAP2 DUP1 PUSH1 0x2 DUP4 ADD SLOAD AND PUSH1 0x3 DUP4 ADD SLOAD PUSH2 0x1F6C PUSH1 0x4 DUP6 ADD SLOAD PUSH1 0x5 DUP7 ADD SLOAD PUSH1 0xFF PUSH1 0x6 DUP9 ADD SLOAD AND SWAP2 PUSH1 0x7 DUP9 ADD SLOAD SWAP5 PUSH1 0x8 DUP10 ADD SLOAD SWAP7 PUSH2 0x1F41 PUSH1 0xB PUSH1 0x9 DUP13 ADD SLOAD SWAP11 PUSH1 0xA DUP14 ADD SLOAD AND SWAP12 ADD PUSH2 0x2567 JUMP JUMPDEST SWAP11 PUSH1 0x40 MLOAD SWAP15 DUP16 SWAP15 DUP16 SWAP1 DUP2 MSTORE ADD MSTORE PUSH1 0x40 DUP14 ADD MSTORE PUSH1 0x60 DUP13 ADD MSTORE PUSH1 0x80 DUP12 ADD MSTORE PUSH1 0xA0 DUP11 ADD MSTORE PUSH1 0xC0 DUP10 ADD SWAP1 PUSH2 0x260D JUMP JUMPDEST PUSH1 0xE0 DUP8 ADD MSTORE PUSH2 0x100 DUP7 ADD MSTORE PUSH2 0x120 DUP6 ADD MSTORE PUSH2 0x140 DUP5 ADD MSTORE PUSH2 0x180 DUP1 PUSH2 0x160 DUP6 ADD MSTORE DUP4 ADD SWAP1 PUSH2 0x261A JUMP JUMPDEST CALLVALUE PUSH2 0x325 JUMPI PUSH1 0x80 CALLDATASIZE PUSH1 0x3 NOT ADD SLT PUSH2 0x325 JUMPI PUSH2 0x1FAE PUSH2 0x24A6 JUMP JUMPDEST PUSH2 0x1FB6 PUSH2 0x24BC JUMP JUMPDEST SWAP1 PUSH1 0x64 SWAP2 DUP3 CALLDATALOAD SWAP3 PUSH2 0x1FC5 PUSH2 0x27AA JUMP JUMPDEST DUP4 PUSH1 0x1 PUSH1 0x1 PUSH1 0xA0 SHL SUB DUP5 AND ISZERO PUSH2 0x244F JUMPI PUSH1 0x1 PUSH1 0x1 PUSH1 0xA0 SHL SUB DUP5 AND CALLER EQ PUSH2 0x240C JUMPI PUSH1 0x1 PUSH1 0x1 PUSH1 0xA0 SHL SUB DUP4 AND PUSH1 0x0 SWAP1 DUP2 MSTORE PUSH1 0x6 PUSH1 0x20 MSTORE PUSH1 0x40 SWAP1 KECCAK256 SLOAD PUSH2 0x200A SWAP1 PUSH1 0xFF AND PUSH2 0x2695 JUMP JUMPDEST PUSH3 0xF4240 PUSH1 0x44 CALLDATALOAD LT PUSH2 0x23C9 JUMPI CALLER PUSH1 0x0 MSTORE PUSH1 0xA PUSH1 0x20 MSTORE PUSH1 0x40 PUSH1 0x0 KECCAK256 SLOAD PUSH1 0xB SLOAD GT ISZERO PUSH2 0x238D JUMPI ISZERO PUSH2 0x2383 JUMPI JUMPDEST PUSH3 0x15180 DUP5 GT PUSH2 0x2341 JUMPI POP PUSH2 0x2710 PUSH2 0x2050 PUSH1 0x2 SLOAD PUSH1 0x44 CALLDATALOAD PUSH2 0x282A JUMP JUMPDEST DIV SWAP1 PUSH2 0x205E DUP3 PUSH1 0x44 CALLDATALOAD PUSH2 0x27CD JUMP JUMPDEST SWAP4 PUSH2 0x206A PUSH1 0x3 SLOAD PUSH2 0x283D JUMP JUMPDEST SWAP4 DUP5 PUSH1 0x3 SSTORE PUSH2 0x2079 DUP3 TIMESTAMP PUSH2 0x26D6 JUMP JUMPDEST PUSH1 0x40 MLOAD SWAP7 PUSH2 0x2086 DUP9 PUSH2 0x250C JUMP JUMPDEST CALLER DUP9 MSTORE PUSH1 0x1 DUP1 PUSH1 0xA0 SHL SUB DUP4 AND PUSH1 0x20 DUP10 ADD MSTORE PUSH1 0x1 DUP1 PUSH1 0xA0 SHL SUB DUP6 AND PUSH1 0x40 DUP10 ADD MSTORE PUSH1 0x44 CALLDATALOAD PUSH1 0x60 DUP10 ADD MSTORE DUP6 PUSH1 0x80 DUP10 ADD MSTORE PUSH1 0xA0 DUP9 ADD MSTORE PUSH1 0x1 PUSH1 0xC0 DUP9 ADD MSTORE TIMESTAMP PUSH1 0xE0 DUP9 ADD MSTORE PUSH2 0x100 DUP8 ADD MSTORE PUSH1 0x0 PUSH2 0x120 DUP8 ADD MSTORE PUSH1 0x0 PUSH2 0x140 DUP8 ADD MSTORE PUSH1 0x40 MLOAD PUSH2 0x20E7 DUP2 PUSH2 0x2529 JUMP JUMPDEST PUSH1 0x0 DUP2 MSTORE PUSH2 0x160 DUP8 ADD MSTORE DUP5 PUSH1 0x0 MSTORE PUSH1 0x4 PUSH1 0x20 MSTORE PUSH1 0x40 PUSH1 0x0 KECCAK256 SWAP6 PUSH1 0x1 DUP1 PUSH1 0xA0 SHL SUB DUP2 MLOAD AND SWAP1 PUSH1 0x1 PUSH1 0x1 PUSH1 0x60 SHL SUB PUSH1 0xA0 SHL SWAP2 DUP3 DUP10 SLOAD AND OR DUP9 SSTORE PUSH1 0x1 DUP9 ADD PUSH1 0x1 DUP1 PUSH1 0xA0 SHL SUB PUSH1 0x20 DUP4 ADD MLOAD AND DUP4 DUP3 SLOAD AND OR SWAP1 SSTORE PUSH1 0x2 DUP9 ADD PUSH1 0x1 DUP1 PUSH1 0xA0 SHL SUB PUSH1 0x40 DUP4 ADD MLOAD AND DUP4 DUP3 SLOAD AND OR SWAP1 SSTORE PUSH1 0x60 DUP2 ADD MLOAD PUSH1 0x3 DUP10 ADD SSTORE PUSH1 0x80 DUP2 ADD MLOAD PUSH1 0x4 DUP10 ADD SSTORE PUSH1 0xA0 DUP2 ADD MLOAD PUSH1 0x5 DUP10 ADD SSTORE PUSH1 0xC0 DUP2 ADD MLOAD SWAP2 PUSH1 0x7 DUP4 LT ISZERO PUSH2 0x2BE JUMPI PUSH2 0x218B PUSH2 0x160 SWAP4 PUSH1 0x6 DUP12 ADD PUSH2 0x284C JUMP JUMPDEST PUSH1 0xE0 DUP3 ADD MLOAD PUSH1 0x7 DUP11 ADD SSTORE PUSH2 0x100 DUP3 ADD MLOAD PUSH1 0x8 DUP11 ADD SSTORE PUSH2 0x120 DUP3 ADD MLOAD PUSH1 0x9 DUP11 ADD SSTORE PUSH1 0xA DUP10 ADD SWAP1 PUSH1 0x1 DUP1 PUSH1 0xA0 SHL SUB PUSH2 0x140 DUP5 ADD MLOAD AND SWAP1 DUP3 SLOAD AND OR SWAP1 SSTORE ADD MLOAD SWAP2 DUP3 MLOAD SWAP7 PUSH8 0xFFFFFFFFFFFFFFFF DUP9 GT PUSH2 0x876 JUMPI DUP8 DUP8 SWAP5 PUSH2 0x21F9 PUSH1 0x20 SWAP11 PUSH2 0x21F0 PUSH1 0xB DUP7 ADD SLOAD PUSH2 0x24D2 JUMP JUMPDEST PUSH1 0xB DUP7 ADD PUSH2 0x2864 JUMP JUMPDEST DUP10 SWAP1 PUSH1 0x1F DUP4 GT PUSH1 0x1 EQ PUSH2 0x22B6 JUMPI DUP3 PUSH1 0x0 DUP1 MLOAD PUSH1 0x20 PUSH2 0x2909 DUP4 CODECOPY DUP2 MLOAD SWAP2 MSTORE SWAP7 SWAP6 SWAP4 PUSH2 0x2275 SWAP6 SWAP4 PUSH1 0xB SWAP4 PUSH1 0x0 SWAP3 PUSH2 0x22AB JUMPI JUMPDEST POP POP DUP2 PUSH1 0x1 SHL SWAP2 PUSH1 0x0 NOT SWAP1 PUSH1 0x3 SHL SHR NOT AND OR SWAP2 ADD SSTORE JUMPDEST CALLER PUSH1 0x0 MSTORE PUSH1 0xA DUP10 MSTORE PUSH1 0x40 PUSH1 0x0 KECCAK256 PUSH2 0x2256 DUP2 SLOAD PUSH2 0x283D JUMP JUMPDEST SWAP1 SSTORE PUSH2 0x226F PUSH1 0x44 CALLDATALOAD ADDRESS CALLER PUSH1 0x1 PUSH1 0x1 PUSH1 0xA0 SHL SUB DUP11 AND PUSH2 0x26F9 JUMP JUMPDEST TIMESTAMP PUSH2 0x26D6 JUMP JUMPDEST PUSH1 0x40 DUP1 MLOAD PUSH1 0x1 PUSH1 0x1 PUSH1 0xA0 SHL SUB SWAP7 DUP8 AND DUP2 MSTORE PUSH1 0x44 CALLDATALOAD PUSH1 0x20 DUP3 ADD MSTORE SWAP1 DUP2 ADD SWAP7 SWAP1 SWAP7 MSTORE PUSH1 0x60 DUP7 ADD MSTORE SWAP1 SWAP3 AND SWAP3 CALLER SWAP3 SWAP1 DUP1 PUSH1 0x80 DUP2 ADD PUSH2 0x7D1 JUMP JUMPDEST ADD MLOAD SWAP1 POP DUP14 DUP1 PUSH2 0x2229 JUMP JUMPDEST SWAP6 SWAP5 SWAP4 SWAP3 SWAP2 SWAP1 PUSH1 0xB DUP4 ADD PUSH1 0x0 MSTORE DUP11 PUSH1 0x0 KECCAK256 SWAP7 PUSH1 0x0 JUMPDEST PUSH1 0x1F NOT DUP5 AND DUP2 LT PUSH2 0x2327 JUMPI POP DUP3 PUSH1 0x0 DUP1 MLOAD PUSH1 0x20 PUSH2 0x2909 DUP4 CODECOPY DUP2 MLOAD SWAP2 MSTORE SWAP8 SWAP9 PUSH1 0xB SWAP4 PUSH1 0x1 SWAP4 PUSH2 0x2275 SWAP9 SWAP8 SWAP7 PUSH1 0x1F NOT DUP2 AND LT PUSH2 0x230E JUMPI JUMPDEST POP POP POP DUP2 SHL ADD SWAP2 ADD SSTORE PUSH2 0x223F JUMP JUMPDEST ADD MLOAD PUSH1 0x0 NOT PUSH1 0xF8 DUP5 PUSH1 0x3 SHL AND SHR NOT AND SWAP1 SSTORE DUP14 DUP1 DUP1 PUSH2 0x2300 JUMP JUMPDEST DUP3 DUP3 ADD MLOAD DUP10 SSTORE PUSH1 0x1 SWAP1 SWAP9 ADD SWAP8 DUP12 SWAP8 POP SWAP2 DUP13 ADD SWAP2 DUP13 ADD PUSH2 0x22CB JUMP JUMPDEST PUSH1 0x40 MLOAD PUSH3 0x461BCD PUSH1 0xE5 SHL DUP2 MSTORE PUSH1 0x20 PUSH1 0x4 DUP3 ADD MSTORE PUSH1 0x1B PUSH1 0x24 DUP3 ADD MSTORE PUSH32 0x4475726174696F6E20746F6F206C6F6E6720286D617820323468290000000000 PUSH1 0x44 DUP3 ADD MSTORE REVERT JUMPDEST PUSH2 0xE10 SWAP4 POP PUSH2 0x2034 JUMP JUMPDEST POP PUSH1 0x40 MLOAD PUSH3 0x461BCD PUSH1 0xE5 SHL DUP2 MSTORE PUSH1 0x20 PUSH1 0x4 DUP3 ADD MSTORE PUSH1 0x16 PUSH1 0x24 DUP3 ADD MSTORE PUSH22 0x546F6F206D616E792061637469766520747261646573 PUSH1 0x50 SHL PUSH1 0x44 DUP3 ADD MSTORE REVERT JUMPDEST POP PUSH1 0x40 MLOAD PUSH3 0x461BCD PUSH1 0xE5 SHL DUP2 MSTORE PUSH1 0x20 PUSH1 0x4 DUP3 ADD MSTORE PUSH1 0x1D PUSH1 0x24 DUP3 ADD MSTORE PUSH32 0x416D6F756E7420746F6F20736D616C6C20286D696E2031205553444329000000 PUSH1 0x44 DUP3 ADD MSTORE REVERT JUMPDEST POP PUSH1 0x40 MLOAD PUSH3 0x461BCD PUSH1 0xE5 SHL DUP2 MSTORE PUSH1 0x20 PUSH1 0x4 DUP3 ADD MSTORE PUSH1 0x1A PUSH1 0x24 DUP3 ADD MSTORE PUSH32 0x43616E6E6F74207472616465207769746820796F757273656C66000000000000 PUSH1 0x44 DUP3 ADD MSTORE REVERT JUMPDEST POP PUSH1 0x40 MLOAD PUSH3 0x461BCD PUSH1 0xE5 SHL DUP2 MSTORE PUSH1 0x20 PUSH1 0x4 DUP3 ADD MSTORE PUSH1 0x15 PUSH1 0x24 DUP3 ADD MSTORE PUSH21 0x496E76616C69642062757965722061646472657373 PUSH1 0x58 SHL PUSH1 0x44 DUP3 ADD MSTORE REVERT JUMPDEST CALLVALUE PUSH2 0x325 JUMPI PUSH1 0x0 CALLDATASIZE PUSH1 0x3 NOT ADD SLT PUSH2 0x325 JUMPI DUP1 PUSH3 0x15180 PUSH1 0x20 SWAP3 MSTORE RETURN JUMPDEST PUSH1 0x4 CALLDATALOAD SWAP1 PUSH1 0x1 PUSH1 0x1 PUSH1 0xA0 SHL SUB DUP3 AND DUP3 SUB PUSH2 0x325 JUMPI JUMP JUMPDEST PUSH1 0x24 CALLDATALOAD SWAP1 PUSH1 0x1 PUSH1 0x1 PUSH1 0xA0 SHL SUB DUP3 AND DUP3 SUB PUSH2 0x325 JUMPI JUMP JUMPDEST SWAP1 PUSH1 0x1 DUP3 DUP2 SHR SWAP3 AND DUP1 ISZERO PUSH2 0x2502 JUMPI JUMPDEST PUSH1 0x20 DUP4 LT EQ PUSH2 0x24EC JUMPI JUMP JUMPDEST PUSH4 0x4E487B71 PUSH1 0xE0 SHL PUSH1 0x0 MSTORE PUSH1 0x22 PUSH1 0x4 MSTORE PUSH1 0x24 PUSH1 0x0 REVERT JUMPDEST SWAP2 PUSH1 0x7F AND SWAP2 PUSH2 0x24E1 JUMP JUMPDEST PUSH2 0x180 DUP2 ADD SWAP1 DUP2 LT PUSH8 0xFFFFFFFFFFFFFFFF DUP3 GT OR PUSH2 0x876 JUMPI PUSH1 0x40 MSTORE JUMP JUMPDEST PUSH1 0x20 DUP2 ADD SWAP1 DUP2 LT PUSH8 0xFFFFFFFFFFFFFFFF DUP3 GT OR PUSH2 0x876 JUMPI PUSH1 0x40 MSTORE JUMP JUMPDEST SWAP1 PUSH1 0x1F DUP1 NOT SWAP2 ADD AND DUP2 ADD SWAP1 DUP2 LT PUSH8 0xFFFFFFFFFFFFFFFF DUP3 GT OR PUSH2 0x876 JUMPI PUSH1 0x40 MSTORE JUMP JUMPDEST SWAP1 PUSH1 0x40 MLOAD SWAP2 DUP3 PUSH1 0x0 DUP3 SLOAD SWAP3 PUSH2 0x257B DUP5 PUSH2 0x24D2 JUMP JUMPDEST SWAP1 DUP2 DUP5 MSTORE PUSH1 0x1 SWAP5 DUP6 DUP2 AND SWAP1 DUP2 PUSH1 0x0 EQ PUSH2 0x25EA JUMPI POP PUSH1 0x1 EQ PUSH2 0x25A7 JUMPI JUMPDEST POP POP PUSH2 0x25A5 SWAP3 POP SUB DUP4 PUSH2 0x2545 JUMP JUMPDEST JUMP JUMPDEST SWAP1 SWAP4 SWAP2 POP PUSH1 0x0 MSTORE PUSH1 0x20 SWAP1 DUP2 PUSH1 0x0 KECCAK256 SWAP4 PUSH1 0x0 SWAP2 JUMPDEST DUP2 DUP4 LT PUSH2 0x25D2 JUMPI POP POP PUSH2 0x25A5 SWAP4 POP DUP3 ADD ADD CODESIZE DUP1 PUSH2 0x2597 JUMP JUMPDEST DUP6 SLOAD DUP9 DUP5 ADD DUP6 ADD MSTORE SWAP5 DUP6 ADD SWAP5 DUP8 SWAP5 POP SWAP2 DUP4 ADD SWAP2 PUSH2 0x25BA JUMP JUMPDEST SWAP2 POP POP PUSH2 0x25A5 SWAP5 POP PUSH1 0x20 SWAP3 POP PUSH1 0xFF NOT AND DUP3 DUP5 ADD MSTORE ISZERO ISZERO PUSH1 0x5 SHL DUP3 ADD ADD CODESIZE DUP1 PUSH2 0x2597 JUMP JUMPDEST SWAP1 PUSH1 0x7 DUP3 LT ISZERO PUSH2 0x2BE JUMPI MSTORE JUMP JUMPDEST SWAP2 SWAP1 DUP3 MLOAD SWAP3 DUP4 DUP3 MSTORE PUSH1 0x0 JUMPDEST DUP5 DUP2 LT PUSH2 0x2646 JUMPI POP POP DUP3 PUSH1 0x0 PUSH1 0x20 DUP1 SWAP5 SWAP6 DUP5 ADD ADD MSTORE PUSH1 0x1F DUP1 NOT SWAP2 ADD AND ADD ADD SWAP1 JUMP JUMPDEST PUSH1 0x20 DUP2 DUP4 ADD DUP2 ADD MLOAD DUP5 DUP4 ADD DUP3 ADD MSTORE ADD PUSH2 0x2625 JUMP JUMPDEST PUSH1 0x24 CALLDATALOAD SWAP1 DUP2 ISZERO ISZERO DUP3 SUB PUSH2 0x325 JUMPI JUMP JUMPDEST PUSH1 0x0 SLOAD PUSH1 0x1 PUSH1 0x1 PUSH1 0xA0 SHL SUB AND CALLER SUB PUSH2 0x267D JUMPI JUMP JUMPDEST PUSH1 0x40 MLOAD PUSH4 0x118CDAA7 PUSH1 0xE0 SHL DUP2 MSTORE CALLER PUSH1 0x4 DUP3 ADD MSTORE PUSH1 0x24 SWAP1 REVERT JUMPDEST ISZERO PUSH2 0x269C JUMPI JUMP JUMPDEST PUSH1 0x40 MLOAD PUSH3 0x461BCD PUSH1 0xE5 SHL DUP2 MSTORE PUSH1 0x20 PUSH1 0x4 DUP3 ADD MSTORE PUSH1 0x12 PUSH1 0x24 DUP3 ADD MSTORE PUSH18 0x151BDAD95B881B9BDD08185C1C1C9BDD9959 PUSH1 0x72 SHL PUSH1 0x44 DUP3 ADD MSTORE PUSH1 0x64 SWAP1 REVERT JUMPDEST SWAP2 SWAP1 DUP3 ADD DUP1 SWAP3 GT PUSH2 0x26E3 JUMPI JUMP JUMPDEST PUSH4 0x4E487B71 PUSH1 0xE0 SHL PUSH1 0x0 MSTORE PUSH1 0x11 PUSH1 0x4 MSTORE PUSH1 0x24 PUSH1 0x0 REVERT JUMPDEST PUSH1 0x40 MLOAD PUSH4 0x23B872DD PUSH1 0xE0 SHL PUSH1 0x20 DUP3 ADD MSTORE PUSH1 0x1 PUSH1 0x1 PUSH1 0xA0 SHL SUB SWAP3 DUP4 AND PUSH1 0x24 DUP3 ADD MSTORE SWAP3 SWAP1 SWAP2 AND PUSH1 0x44 DUP4 ADD MSTORE PUSH1 0x64 DUP1 DUP4 ADD SWAP4 SWAP1 SWAP4 MSTORE SWAP2 DUP2 MSTORE PUSH1 0xA0 DUP2 ADD SWAP2 DUP2 DUP4 LT PUSH8 0xFFFFFFFFFFFFFFFF DUP5 GT OR PUSH2 0x876 JUMPI PUSH2 0x25A5 SWAP3 PUSH1 0x40 MSTORE JUMPDEST SWAP1 PUSH1 0x0 PUSH1 0x20 SWAP2 DUP3 DUP2 MLOAD SWAP2 ADD DUP3 DUP6 GAS CALL ISZERO PUSH2 0x14AD JUMPI PUSH1 0x0 MLOAD RETURNDATASIZE PUSH2 0x27A1 JUMPI POP PUSH1 0x1 PUSH1 0x1 PUSH1 0xA0 SHL SUB DUP2 AND EXTCODESIZE ISZERO JUMPDEST PUSH2 0x277F JUMPI POP JUMP JUMPDEST PUSH1 0x40 MLOAD PUSH4 0x5274AFE7 PUSH1 0xE0 SHL DUP2 MSTORE PUSH1 0x1 PUSH1 0x1 PUSH1 0xA0 SHL SUB SWAP1 SWAP2 AND PUSH1 0x4 DUP3 ADD MSTORE PUSH1 0x24 SWAP1 REVERT JUMPDEST PUSH1 0x1 EQ ISZERO PUSH2 0x2778 JUMP JUMPDEST PUSH1 0x2 PUSH1 0x1 SLOAD EQ PUSH2 0x27BB JUMPI PUSH1 0x2 PUSH1 0x1 SSTORE JUMP JUMPDEST PUSH1 0x40 MLOAD PUSH4 0x3EE5AEB5 PUSH1 0xE0 SHL DUP2 MSTORE PUSH1 0x4 SWAP1 REVERT JUMPDEST SWAP2 SWAP1 DUP3 SUB SWAP2 DUP3 GT PUSH2 0x26E3 JUMPI JUMP JUMPDEST PUSH1 0x40 MLOAD PUSH4 0xA9059CBB PUSH1 0xE0 SHL PUSH1 0x20 DUP3 ADD MSTORE PUSH1 0x1 PUSH1 0x1 PUSH1 0xA0 SHL SUB SWAP1 SWAP3 AND PUSH1 0x24 DUP4 ADD MSTORE PUSH1 0x44 DUP1 DUP4 ADD SWAP4 SWAP1 SWAP4 MSTORE SWAP2 DUP2 MSTORE PUSH1 0x80 DUP2 ADD SWAP2 PUSH8 0xFFFFFFFFFFFFFFFF DUP4 GT DUP3 DUP5 LT OR PUSH2 0x876 JUMPI PUSH2 0x25A5 SWAP3 PUSH1 0x40 MSTORE PUSH2 0x274E JUMP JUMPDEST DUP2 DUP2 MUL SWAP3 SWAP2 DUP2 ISZERO SWAP2 DUP5 DIV EQ OR ISZERO PUSH2 0x26E3 JUMPI JUMP JUMPDEST PUSH1 0x0 NOT DUP2 EQ PUSH2 0x26E3 JUMPI PUSH1 0x1 ADD SWAP1 JUMP JUMPDEST SWAP1 PUSH1 0x7 DUP2 LT ISZERO PUSH2 0x2BE JUMPI PUSH1 0xFF DUP1 NOT DUP4 SLOAD AND SWAP2 AND OR SWAP1 SSTORE JUMP JUMPDEST SWAP1 PUSH1 0x1F DUP2 GT PUSH2 0x2872 JUMPI POP POP POP JUMP JUMPDEST PUSH1 0x0 SWAP2 DUP3 MSTORE PUSH1 0x20 DUP3 KECCAK256 SWAP1 PUSH1 0x20 PUSH1 0x1F DUP6 ADD PUSH1 0x5 SHR DUP4 ADD SWAP5 LT PUSH2 0x28AE JUMPI JUMPDEST PUSH1 0x1F ADD PUSH1 0x5 SHR ADD SWAP2 JUMPDEST DUP3 DUP2 LT PUSH2 0x28A3 JUMPI POP POP POP JUMP JUMPDEST DUP2 DUP2 SSTORE PUSH1 0x1 ADD PUSH2 0x2897 JUMP JUMPDEST SWAP1 SWAP3 POP DUP3 SWAP1 PUSH2 0x288E JUMP JUMPDEST ISZERO PUSH2 0x28BF JUMPI JUMP JUMPDEST PUSH1 0x40 MLOAD PUSH3 0x461BCD PUSH1 0xE5 SHL DUP2 MSTORE PUSH1 0x20 PUSH1 0x4 DUP3 ADD MSTORE PUSH1 0x14 PUSH1 0x24 DUP3 ADD MSTORE PUSH20 0x151C98591948191BD95CC81B9BDD08195E1A5CDD PUSH1 0x62 SHL PUSH1 0x44 DUP3 ADD MSTORE PUSH1 0x64 SWAP1 REVERT JUMPDEST DUP1 ISZERO PUSH2 0x26E3 JUMPI PUSH1 0x0 NOT ADD SWAP1 JUMP INVALID PUSH0 COINBASE 0xFB PUSH29 0xBDAD789C17F3E3FFEF0A920523917D85E5B27591E00EB1517A06C6E9A2 PUSH5 0x6970667358 0x22 SLT KECCAK256 0xC8 SMOD 0xFC EXTCODEHASH 0xE9 CHAINID 0xA6 0xD5 POP SHR 0xEA 0xB8 PUSH30 0x7FF8058F2FCC38B7C7BC6E32707CA582A2FB4664736F6C63430008140033 "},"methodIdentifiers":{"DEFAULT_ESCROW_DURATION()":"f51f4bd2","MAX_ESCROW_DURATION()":"0794305e","MAX_FEE_BPS()":"d55be8c6","MIN_TRADE_AMOUNT()":"31b7d413","activeTradeCount(address)":"afba9e22","approvedRelayers(address)":"8cba8b6a","approvedTokens(address)":"6d1ea3fa","balances(address,address)":"c23f001f","calculateFee(uint256)":"99a5d747","createTrade(address,address,uint256,uint256)":"1906fb4d","createTradeByRelayer(address,address,address,uint256,uint256)":"f3073c41","deposit(address,uint256)":"47e7ef24","emergencyWithdraw(address,uint256)":"95ccea67","feeBps()":"24a9d853","feeCollector()":"c415b95c","getContractBalance(address)":"43ab265f","getTrade(uint256)":"2db25e05","isExpired(uint256)":"d9548e53","markFiatSent(uint256)":"fa254c18","maxActiveTradesPerUser()":"3483cb02","owner()":"8da5cb5b","raiseDispute(uint256,string)":"5aef573c","refund(uint256)":"278ecde1","release(uint256)":"37bdc99b","renounceOwnership()":"715018a6","resolveDispute(uint256,bool)":"34b25ee2","setApprovedToken(address,bool)":"7e6a3400","setFeeBps(uint256)":"72c27b62","setFeeCollector(address)":"a42dce80","setMaxActiveTrades(uint256)":"87d2fc82","setRelayer(address,bool)":"ecd8dc3a","totalFeesCollected(address)":"88a40eed","tradeCounter()":"660d15b5","trades(uint256)":"1e6c598e","transferOwnership(address)":"f2fde38b","withdraw(address,uint256)":"f3fef3a3"}}}}}