{
  "_format": "hh-sol-artifact-1",
  "contractName": "P2PEscrow",
  "sourceName": "contracts/P2PEscrow_V2.sol",
  "abi": [
    {
      "inputs": [
        {
          "internalType": "address",
          "name": "_feeCollector",
          "type": "address"
        },
        {
          "internalType": "address",
          "name": "_usdc",
          "type": "address"
        }
      ],
      "stateMutability": "nonpayable",
      "type": "constructor"
    },
    {
      "inputs": [
        {
          "internalType": "address",
          "name": "owner",
          "type": "address"
        }
      ],
      "name": "OwnableInvalidOwner",
      "type": "error"
    },
    {
      "inputs": [
        {
          "internalType": "address",
          "name": "account",
          "type": "address"
        }
      ],
      "name": "OwnableUnauthorizedAccount",
      "type": "error"
    },
    {
      "inputs": [],
      "name": "ReentrancyGuardReentrantCall",
      "type": "error"
    },
    {
      "inputs": [
        {
          "internalType": "address",
          "name": "token",
          "type": "address"
        }
      ],
      "name": "SafeERC20FailedOperation",
      "type": "error"
    },
    {
      "anonymous": false,
      "inputs": [
        {
          "indexed": true,
          "internalType": "address",
          "name": "user",
          "type": "address"
        },
        {
          "indexed": true,
          "internalType": "address",
          "name": "token",
          "type": "address"
        },
        {
          "indexed": false,
          "internalType": "uint256",
          "name": "amount",
          "type": "uint256"
        }
      ],
      "name": "Deposit",
      "type": "event"
    },
    {
      "anonymous": false,
      "inputs": [
        {
          "indexed": true,
          "internalType": "uint256",
          "name": "tradeId",
          "type": "uint256"
        },
        {
          "indexed": true,
          "internalType": "address",
          "name": "resolver",
          "type": "address"
        },
        {
          "indexed": false,
          "internalType": "bool",
          "name": "releasedToBuyer",
          "type": "bool"
        }
      ],
      "name": "DisputeResolved",
      "type": "event"
    },
    {
      "anonymous": false,
      "inputs": [
        {
          "indexed": false,
          "internalType": "address",
          "name": "oldCollector",
          "type": "address"
        },
        {
          "indexed": false,
          "internalType": "address",
          "name": "newCollector",
          "type": "address"
        }
      ],
      "name": "FeeCollectorUpdated",
      "type": "event"
    },
    {
      "anonymous": false,
      "inputs": [
        {
          "indexed": false,
          "internalType": "uint256",
          "name": "oldFee",
          "type": "uint256"
        },
        {
          "indexed": false,
          "internalType": "uint256",
          "name": "newFee",
          "type": "uint256"
        }
      ],
      "name": "FeeUpdated",
      "type": "event"
    },
    {
      "anonymous": false,
      "inputs": [
        {
          "indexed": true,
          "internalType": "uint256",
          "name": "tradeId",
          "type": "uint256"
        },
        {
          "indexed": true,
          "internalType": "address",
          "name": "buyer",
          "type": "address"
        }
      ],
      "name": "FiatMarkedSent",
      "type": "event"
    },
    {
      "anonymous": false,
      "inputs": [
        {
          "indexed": true,
          "internalType": "address",
          "name": "token",
          "type": "address"
        },
        {
          "indexed": false,
          "internalType": "uint256",
          "name": "amount",
          "type": "uint256"
        }
      ],
      "name": "MinAmountUpdated",
      "type": "event"
    },
    {
      "anonymous": false,
      "inputs": [
        {
          "indexed": true,
          "internalType": "address",
          "name": "previousOwner",
          "type": "address"
        },
        {
          "indexed": true,
          "internalType": "address",
          "name": "newOwner",
          "type": "address"
        }
      ],
      "name": "OwnershipTransferred",
      "type": "event"
    },
    {
      "anonymous": false,
      "inputs": [
        {
          "indexed": false,
          "internalType": "address",
          "name": "relayer",
          "type": "address"
        },
        {
          "indexed": false,
          "internalType": "bool",
          "name": "approved",
          "type": "bool"
        }
      ],
      "name": "RelayerUpdated",
      "type": "event"
    },
    {
      "anonymous": false,
      "inputs": [
        {
          "indexed": false,
          "internalType": "address",
          "name": "token",
          "type": "address"
        },
        {
          "indexed": false,
          "internalType": "bool",
          "name": "approved",
          "type": "bool"
        }
      ],
      "name": "TokenApproved",
      "type": "event"
    },
    {
      "anonymous": false,
      "inputs": [
        {
          "indexed": true,
          "internalType": "uint256",
          "name": "tradeId",
          "type": "uint256"
        },
        {
          "indexed": true,
          "internalType": "address",
          "name": "seller",
          "type": "address"
        }
      ],
      "name": "TradeCancelled",
      "type": "event"
    },
    {
      "anonymous": false,
      "inputs": [
        {
          "indexed": true,
          "internalType": "uint256",
          "name": "tradeId",
          "type": "uint256"
        },
        {
          "indexed": true,
          "internalType": "address",
          "name": "seller",
          "type": "address"
        },
        {
          "indexed": true,
          "internalType": "address",
          "name": "buyer",
          "type": "address"
        },
        {
          "indexed": false,
          "internalType": "address",
          "name": "token",
          "type": "address"
        },
        {
          "indexed": false,
          "internalType": "uint256",
          "name": "amount",
          "type": "uint256"
        },
        {
          "indexed": false,
          "internalType": "uint256",
          "name": "feeAmount",
          "type": "uint256"
        },
        {
          "indexed": false,
          "internalType": "uint256",
          "name": "deadline",
          "type": "uint256"
        }
      ],
      "name": "TradeCreated",
      "type": "event"
    },
    {
      "anonymous": false,
      "inputs": [
        {
          "indexed": true,
          "internalType": "uint256",
          "name": "tradeId",
          "type": "uint256"
        },
        {
          "indexed": true,
          "internalType": "address",
          "name": "initiator",
          "type": "address"
        },
        {
          "indexed": false,
          "internalType": "string",
          "name": "reason",
          "type": "string"
        }
      ],
      "name": "TradeDisputed",
      "type": "event"
    },
    {
      "anonymous": false,
      "inputs": [
        {
          "indexed": true,
          "internalType": "uint256",
          "name": "tradeId",
          "type": "uint256"
        },
        {
          "indexed": true,
          "internalType": "address",
          "name": "seller",
          "type": "address"
        },
        {
          "indexed": false,
          "internalType": "uint256",
          "name": "amount",
          "type": "uint256"
        }
      ],
      "name": "TradeRefunded",
      "type": "event"
    },
    {
      "anonymous": false,
      "inputs": [
        {
          "indexed": true,
          "internalType": "uint256",
          "name": "tradeId",
          "type": "uint256"
        },
        {
          "indexed": true,
          "internalType": "address",
          "name": "buyer",
          "type": "address"
        },
        {
          "indexed": false,
          "internalType": "uint256",
          "name": "buyerReceives",
          "type": "uint256"
        },
        {
          "indexed": false,
          "internalType": "uint256",
          "name": "feeAmount",
          "type": "uint256"
        }
      ],
      "name": "TradeReleased",
      "type": "event"
    },
    {
      "anonymous": false,
      "inputs": [
        {
          "indexed": true,
          "internalType": "address",
          "name": "user",
          "type": "address"
        },
        {
          "indexed": true,
          "internalType": "address",
          "name": "token",
          "type": "address"
        },
        {
          "indexed": false,
          "internalType": "uint256",
          "name": "amount",
          "type": "uint256"
        }
      ],
      "name": "Withdraw",
      "type": "event"
    },
    {
      "inputs": [],
      "name": "DEFAULT_ESCROW_DURATION",
      "outputs": [
        {
          "internalType": "uint256",
          "name": "",
          "type": "uint256"
        }
      ],
      "stateMutability": "view",
      "type": "function"
    },
    {
      "inputs": [],
      "name": "MAX_ESCROW_DURATION",
      "outputs": [
        {
          "internalType": "uint256",
          "name": "",
          "type": "uint256"
        }
      ],
      "stateMutability": "view",
      "type": "function"
    },
    {
      "inputs": [],
      "name": "MAX_FEE_BPS",
      "outputs": [
        {
          "internalType": "uint256",
          "name": "",
          "type": "uint256"
        }
      ],
      "stateMutability": "view",
      "type": "function"
    },
    {
      "inputs": [
        {
          "internalType": "address",
          "name": "",
          "type": "address"
        }
      ],
      "name": "activeTradeCount",
      "outputs": [
        {
          "internalType": "uint256",
          "name": "",
          "type": "uint256"
        }
      ],
      "stateMutability": "view",
      "type": "function"
    },
    {
      "inputs": [
        {
          "internalType": "address",
          "name": "",
          "type": "address"
        }
      ],
      "name": "approvedRelayers",
      "outputs": [
        {
          "internalType": "bool",
          "name": "",
          "type": "bool"
        }
      ],
      "stateMutability": "view",
      "type": "function"
    },
    {
      "inputs": [
        {
          "internalType": "address",
          "name": "",
          "type": "address"
        }
      ],
      "name": "approvedTokens",
      "outputs": [
        {
          "internalType": "bool",
          "name": "",
          "type": "bool"
        }
      ],
      "stateMutability": "view",
      "type": "function"
    },
    {
      "inputs": [
        {
          "internalType": "address",
          "name": "",
          "type": "address"
        },
        {
          "internalType": "address",
          "name": "",
          "type": "address"
        }
      ],
      "name": "balances",
      "outputs": [
        {
          "internalType": "uint256",
          "name": "",
          "type": "uint256"
        }
      ],
      "stateMutability": "view",
      "type": "function"
    },
    {
      "inputs": [
        {
          "internalType": "address",
          "name": "_buyer",
          "type": "address"
        },
        {
          "internalType": "address",
          "name": "_token",
          "type": "address"
        },
        {
          "internalType": "uint256",
          "name": "_amount",
          "type": "uint256"
        },
        {
          "internalType": "uint256",
          "name": "_duration",
          "type": "uint256"
        }
      ],
      "name": "createTrade",
      "outputs": [
        {
          "internalType": "uint256",
          "name": "tradeId",
          "type": "uint256"
        }
      ],
      "stateMutability": "payable",
      "type": "function"
    },
    {
      "inputs": [
        {
          "internalType": "address",
          "name": "_seller",
          "type": "address"
        },
        {
          "internalType": "address",
          "name": "_buyer",
          "type": "address"
        },
        {
          "internalType": "address",
          "name": "_token",
          "type": "address"
        },
        {
          "internalType": "uint256",
          "name": "_amount",
          "type": "uint256"
        },
        {
          "internalType": "uint256",
          "name": "_duration",
          "type": "uint256"
        }
      ],
      "name": "createTradeByRelayer",
      "outputs": [
        {
          "internalType": "uint256",
          "name": "tradeId",
          "type": "uint256"
        }
      ],
      "stateMutability": "nonpayable",
      "type": "function"
    },
    {
      "inputs": [
        {
          "internalType": "address",
          "name": "_token",
          "type": "address"
        },
        {
          "internalType": "uint256",
          "name": "_amount",
          "type": "uint256"
        }
      ],
      "name": "deposit",
      "outputs": [],
      "stateMutability": "payable",
      "type": "function"
    },
    {
      "inputs": [
        {
          "internalType": "address",
          "name": "_token",
          "type": "address"
        },
        {
          "internalType": "uint256",
          "name": "_amount",
          "type": "uint256"
        }
      ],
      "name": "emergencyWithdraw",
      "outputs": [],
      "stateMutability": "nonpayable",
      "type": "function"
    },
    {
      "inputs": [],
      "name": "feeBps",
      "outputs": [
        {
          "internalType": "uint256",
          "name": "",
          "type": "uint256"
        }
      ],
      "stateMutability": "view",
      "type": "function"
    },
    {
      "inputs": [],
      "name": "feeCollector",
      "outputs": [
        {
          "internalType": "address",
          "name": "",
          "type": "address"
        }
      ],
      "stateMutability": "view",
      "type": "function"
    },
    {
      "inputs": [
        {
          "internalType": "uint256",
          "name": "_tradeId",
          "type": "uint256"
        }
      ],
      "name": "markFiatSent",
      "outputs": [],
      "stateMutability": "nonpayable",
      "type": "function"
    },
    {
      "inputs": [],
      "name": "maxActiveTradesPerUser",
      "outputs": [
        {
          "internalType": "uint256",
          "name": "",
          "type": "uint256"
        }
      ],
      "stateMutability": "view",
      "type": "function"
    },
    {
      "inputs": [
        {
          "internalType": "address",
          "name": "",
          "type": "address"
        }
      ],
      "name": "minTradeAmount",
      "outputs": [
        {
          "internalType": "uint256",
          "name": "",
          "type": "uint256"
        }
      ],
      "stateMutability": "view",
      "type": "function"
    },
    {
      "inputs": [],
      "name": "owner",
      "outputs": [
        {
          "internalType": "address",
          "name": "",
          "type": "address"
        }
      ],
      "stateMutability": "view",
      "type": "function"
    },
    {
      "inputs": [
        {
          "internalType": "uint256",
          "name": "_tradeId",
          "type": "uint256"
        }
      ],
      "name": "refund",
      "outputs": [],
      "stateMutability": "nonpayable",
      "type": "function"
    },
    {
      "inputs": [
        {
          "internalType": "uint256",
          "name": "_tradeId",
          "type": "uint256"
        }
      ],
      "name": "release",
      "outputs": [],
      "stateMutability": "nonpayable",
      "type": "function"
    },
    {
      "inputs": [],
      "name": "renounceOwnership",
      "outputs": [],
      "stateMutability": "nonpayable",
      "type": "function"
    },
    {
      "inputs": [
        {
          "internalType": "address",
          "name": "_token",
          "type": "address"
        },
        {
          "internalType": "bool",
          "name": "_approved",
          "type": "bool"
        }
      ],
      "name": "setApprovedToken",
      "outputs": [],
      "stateMutability": "nonpayable",
      "type": "function"
    },
    {
      "inputs": [
        {
          "internalType": "uint256",
          "name": "_newFeeBps",
          "type": "uint256"
        }
      ],
      "name": "setFeeBps",
      "outputs": [],
      "stateMutability": "nonpayable",
      "type": "function"
    },
    {
      "inputs": [
        {
          "internalType": "address",
          "name": "_newCollector",
          "type": "address"
        }
      ],
      "name": "setFeeCollector",
      "outputs": [],
      "stateMutability": "nonpayable",
      "type": "function"
    },
    {
      "inputs": [
        {
          "internalType": "address",
          "name": "_token",
          "type": "address"
        },
        {
          "internalType": "uint256",
          "name": "_amount",
          "type": "uint256"
        }
      ],
      "name": "setMinTradeAmount",
      "outputs": [],
      "stateMutability": "nonpayable",
      "type": "function"
    },
    {
      "inputs": [
        {
          "internalType": "address",
          "name": "_relayer",
          "type": "address"
        },
        {
          "internalType": "bool",
          "name": "_approved",
          "type": "bool"
        }
      ],
      "name": "setRelayer",
      "outputs": [],
      "stateMutability": "nonpayable",
      "type": "function"
    },
    {
      "inputs": [
        {
          "internalType": "address",
          "name": "",
          "type": "address"
        }
      ],
      "name": "totalFeesCollected",
      "outputs": [
        {
          "internalType": "uint256",
          "name": "",
          "type": "uint256"
        }
      ],
      "stateMutability": "view",
      "type": "function"
    },
    {
      "inputs": [],
      "name": "tradeCounter",
      "outputs": [
        {
          "internalType": "uint256",
          "name": "",
          "type": "uint256"
        }
      ],
      "stateMutability": "view",
      "type": "function"
    },
    {
      "inputs": [
        {
          "internalType": "uint256",
          "name": "",
          "type": "uint256"
        }
      ],
      "name": "trades",
      "outputs": [
        {
          "internalType": "address",
          "name": "seller",
          "type": "address"
        },
        {
          "internalType": "address",
          "name": "buyer",
          "type": "address"
        },
        {
          "internalType": "address",
          "name": "token",
          "type": "address"
        },
        {
          "internalType": "uint256",
          "name": "amount",
          "type": "uint256"
        },
        {
          "internalType": "uint256",
          "name": "feeAmount",
          "type": "uint256"
        },
        {
          "internalType": "uint256",
          "name": "buyerReceives",
          "type": "uint256"
        },
        {
          "internalType": "enum P2PEscrow.TradeStatus",
          "name": "status",
          "type": "uint8"
        },
        {
          "internalType": "uint256",
          "name": "createdAt",
          "type": "uint256"
        },
        {
          "internalType": "uint256",
          "name": "deadline",
          "type": "uint256"
        },
        {
          "internalType": "uint256",
          "name": "fiatSentAt",
          "type": "uint256"
        },
        {
          "internalType": "address",
          "name": "disputeInitiator",
          "type": "address"
        },
        {
          "internalType": "string",
          "name": "disputeReason",
          "type": "string"
        }
      ],
      "stateMutability": "view",
      "type": "function"
    },
    {
      "inputs": [
        {
          "internalType": "address",
          "name": "newOwner",
          "type": "address"
        }
      ],
      "name": "transferOwnership",
      "outputs": [],
      "stateMutability": "nonpayable",
      "type": "function"
    },
    {
      "inputs": [
        {
          "internalType": "address",
          "name": "_token",
          "type": "address"
        },
        {
          "internalType": "uint256",
          "name": "_amount",
          "type": "uint256"
        }
      ],
      "name": "withdraw",
      "outputs": [],
      "stateMutability": "nonpayable",
      "type": "function"
    },
    {
      "stateMutability": "payable",
      "type": "receive"
    }
  ],
  "bytecode": "0x6080346200023c57620023d390601f38839003908101601f19168201906001600160401b038211838310176200024157808391604095869485528339810103126200023c576200004f8162000257565b906200005f602080920162000257565b903315620002245760008054336001600160a01b03198083168217845587519396939590926001600160a01b03929083167f8be0079c531659141344cd1fd0a4f28419497f9722a3daafe3b4186f6b6457e08980a3816001948580556032600255600a600c5516958615620001e25750169081156200019e578685937f5d16ad41baeb009cd23eb8f6c7cde5c2e0cd5acf4a33926ab488875c37c37f389795938297839460095416176009558087526006855282872060ff19908382825416179055878052828489209182541617905580875260088552620f42408388205586805266038d7ea4c6800083882055825190815281858201527f54aee4f020b814c26f556399a354577e068193a82445e919505b00b9848512a5938491a181519086825284820152a18351928352820152a15161216690816200026d8239f35b865162461bcd60e51b815260048101859052601460248201527f496e76616c6964205553444320616464726573730000000000000000000000006044820152606490fd5b62461bcd60e51b815260048101869052601560248201527f496e76616c69642066656520636f6c6c6563746f7200000000000000000000006044820152606490fd5b8351631e4fbdf760e01b815260006004820152602490fd5b600080fd5b634e487b7160e01b600052604160045260246000fd5b51906001600160a01b03821682036200023c5756fe608080604052600436101561001d575b50361561001b57600080fd5b005b60003560e01c9081630794305e14611d27575080631906fb4d1461180a5780631e6c598e1461166257806324a9d85314611644578063278ecde1146113f05780633483cb02146113d257806337bdc99b146110f457806340e016501461108957806347e7ef2414610f0c578063660d15b514610eee5780636d1ea3fa14610eaf578063715018a614610e5657806372c27b6214610dc85780637e6a340014610d6457806388a40eed14610d2a5780638cba8b6a14610ceb5780638da5cb5b14610cc257806395ccea6714610c2a578063a42dce8014610b78578063afba9e2214610b3e578063c23f001f14610aed578063c415b95c14610ac4578063d55be8c614610aa7578063ecd8dc3a14610a2a578063eeea3152146109f0578063f2fde38b14610967578063f3073c4114610408578063f3fef3a3146102d2578063f51f4bd2146102b55763fa254c1814610174573861000f565b346102b05760203660031901126102b057600435806000526004602052604060002060018060a01b03600182015416330361027e5760068101805460ff811660078110156102685760010361023657600883015442116102075760029060ff191617905560094291015533907fa7b13f117ab1aaf50feb35b788292244b765b0c7b9bda1b9d9e3e29ffc7e88e8600080a3005b60405162461bcd60e51b8152602060048201526007602482015266115e1c1a5c995960ca1b6044820152606490fd5b60405162461bcd60e51b815260206004820152600a6024820152694e6f742061637469766560b01b6044820152606490fd5b634e487b7160e01b600052602160045260246000fd5b60405162461bcd60e51b815260206004820152600a60248201526927b7363c90313abcb2b960b11b6044820152606490fd5b600080fd5b346102b05760003660031901126102b0576020604051610e108152f35b346102b05760403660031901126102b0576102eb611d43565b6024356102f6611f86565b3360005260206005815260406000209260018060a01b031692836000528152610326826040600020541015611fa9565b336000526005815260406000208360005281526040600020610349838254611ff5565b9055826103d657600080808085335af1610361612002565b5015610399577f9b1bfa7fa9ee420a16e124f794c35ac9f90472acc99140eb2f6447c714cad8eb905b6040519283523392a360018055005b6064906040519062461bcd60e51b82526004820152601660248201527513985d1a5d99481dda5d1a191c985dc819985a5b195960521b6044820152fd5b7f9b1bfa7fa9ee420a16e124f794c35ac9f90472acc99140eb2f6447c714cad8eb90610403833386612042565b61038a565b346102b05760a03660031901126102b057610421611d43565b610429611d59565b906044356001600160a01b03811690036102b05760843590610449611f86565b8133600052600760205260ff604060002054168015610953575b15610919576044356001600160a01b0316600090815260086020526040902054606435106108e85760018060a01b0382166000526005602052604060002060018060a01b03604435166000526020526104c56064356040600020541015611fa9565b6001600160a01b0382166000908152600b6020526040902054600c5411156108b15760018060a01b0382166000526005602052604060002060018060a01b036044351660005260205260406000206105206064358254611ff5565b9055156108a7575b61053762015180831115612092565b6127106105486002546064356120c9565b0461055581606435611ff5565b926105616003546120dc565b93846003556105708242611ea0565b6040519161057d83611da9565b6001600160a01b03868116845288811660208501526044351660408085019190915260643560608501526080840186905260a0840191909152600160c08401524260e084015261010083019190915260006101208301819052610140830152516105e681611dc6565b6000815261016082015284600052600460205260406000209060018060a01b03815116906001600160601b0360a01b91828454161783556001830160018060a01b03602083015116838254161790556002830160018060a01b0360408301511683825416179055606081015160038401556080810151600484015560a0810151600584015560c08101519160078310156102685761068a61016093600686016120eb565b60e0820151600785015561010082015160088501556101208201516009850155610140820151600a850180549092166001600160a01b0391909116179055015180519067ffffffffffffffff8211610891576106e9600b840154611d6f565b601f8111610846575b5091869391602098938990601f83116001146107bb578260008051602061211183398151915296959361076b9593600b936000926107b0575b50508160011b916000199060031b1c1916179101555b6001600160a01b0387166000908152600b8a52604090208054610763906120dc565b905542611ea0565b604080516001600160a01b0360443581168252606435602083015291810196909652606086019190915290811694169280608081015b0390a460018055604051908152f35b015190508d8061072b565b959493929190600b83016000528a6000209660005b601f198416811061082c5750826000805160206121118339815191529798600b9360019361076b989796601f19811610610813575b505050811b01910155610741565b015160001960f88460031b161c191690558d8080610805565b8282015189556001909801978b9750918c01918c016107d0565b600b84016000526020600020601f840160051c81019160208510610887575b601f0160051c01905b81811061087b57506106f2565b6000815560010161086e565b9091508190610865565b634e487b7160e01b600052604160045260246000fd5b610e109150610528565b60405162461bcd60e51b815260206004820152600f60248201526e546f6f206d616e792074726164657360881b6044820152606490fd5b60405162461bcd60e51b8152602060048201526009602482015268151bdbc81cdb585b1b60ba1b6044820152606490fd5b60405162461bcd60e51b815260206004820152601260248201527121b0b63632b9103737ba102932b630bcb2b960711b6044820152606490fd5b506000546001600160a01b03163314610463565b346102b05760203660031901126102b057610980611d43565b610988611e33565b6001600160a01b039081169081156109d757600054826001600160601b0360a01b821617600055167f8be0079c531659141344cd1fd0a4f28419497f9722a3daafe3b4186f6b6457e0600080a3005b604051631e4fbdf760e01b815260006004820152602490fd5b346102b05760203660031901126102b0576001600160a01b03610a11611d43565b1660005260086020526020604060002054604051908152f35b346102b0577f4b36b2e66f38ed349bec532105790177f1283bcbc094e6cd48565195d3033c43610a5936611e04565b90610a62611e33565b6001600160a01b0381166000908152600760205260409020805460ff191660ff841515161790555b604080516001600160a01b039290921682529115156020820152a1005b346102b05760003660031901126102b05760206040516101f48152f35b346102b05760003660031901126102b0576009546040516001600160a01b039091168152602090f35b346102b05760403660031901126102b057610b06611d43565b610b0e611d59565b9060018060a01b038091166000526005602052604060002091166000526020526020604060002054604051908152f35b346102b05760203660031901126102b0576001600160a01b03610b5f611d43565b16600052600b6020526020604060002054604051908152f35b346102b05760203660031901126102b057610b91611d43565b610b99611e33565b6001600160a01b039081168015610bf3577f5d16ad41baeb009cd23eb8f6c7cde5c2e0cd5acf4a33926ab488875c37c37f389160409160095491816001600160601b0360a01b8416176009558351921682526020820152a1005b60405162461bcd60e51b815260206004820152600f60248201526e496e76616c6964206164647265737360881b6044820152606490fd5b346102b05760403660031901126102b057610c43611d43565b60243590610c4f611e33565b6001600160a01b0390811680610cb35750600080809381938254165af1610c74612002565b5015610c7c57005b60405162461bcd60e51b815260206004820152600f60248201526e15da5d1a191c985dc819985a5b1959608a1b6044820152606490fd5b61001b92916000541690612042565b346102b05760003660031901126102b0576000546040516001600160a01b039091168152602090f35b346102b05760203660031901126102b0576001600160a01b03610d0c611d43565b166000526007602052602060ff604060002054166040519015158152f35b346102b05760203660031901126102b0576001600160a01b03610d4b611d43565b16600052600a6020526020604060002054604051908152f35b346102b0577f54aee4f020b814c26f556399a354577e068193a82445e919505b00b9848512a5610d9336611e04565b90610d9c611e33565b6001600160a01b0381166000908152600660205260409020805460ff191660ff84151516179055610a8a565b346102b05760203660031901126102b057600435610de4611e33565b6101f48111610e265760407f528d9479e9f9889a87a3c30c7f7ba537e5e59c4c85a37733b16e57c62df6130291600254908060025582519182526020820152a1005b60405162461bcd60e51b81526020600482015260086024820152670a8dede40d0d2ced60c31b6044820152606490fd5b346102b05760003660031901126102b057610e6f611e33565b600080546001600160a01b0319811682556001600160a01b03167f8be0079c531659141344cd1fd0a4f28419497f9722a3daafe3b4186f6b6457e08280a3005b346102b05760203660031901126102b0576001600160a01b03610ed0611d43565b166000526006602052602060ff604060002054166040519015158152f35b346102b05760003660031901126102b0576020600354604051908152f35b60403660031901126102b057610f20611d43565b60243590610f2c611f86565b60018060a01b03168060005260209160068352610f5060ff60406000205416611e5f565b81610fe75750503415610fb3576000903382526005815260408220828052815260408220610f7f348254611ea0565b90557f5548c837ab068cf56a2c2479df0882a4922fd203edb7517321831d95078c5f62604051913483523392a35b60018055005b6064906040519062461bcd60e51b82526004820152600d60248201526c139bc81d985b1d59481cd95b9d609a1b6044820152fd5b90918115611050577f5548c837ab068cf56a2c2479df0882a4922fd203edb7517321831d95078c5f629061101d83303387611ec3565b336000526005815260406000208460005281526040600020611040848254611ea0565b90556040519283523392a3610fad565b6064906040519062461bcd60e51b8252600482015260126024820152710416d6f756e74206d757374206265203e20360741b6044820152fd5b346102b05760403660031901126102b0576110a2611d43565b7f661459273999943a19efbd948eb50b734e8c71b010cc26221bd1efeffd1dccb56020602435926110d1611e33565b6001600160a01b03166000818152600883526040908190208590555193845292a2005b346102b0576020806003193601126102b057600435611111611f86565b806000526004825260406000209060018060a01b03808354169384331480156113bb575b80156113ae575b1561137957600684019485549560ff87169660078810156102685760019788811490811561136e575b50156113385760049060ff1916179055600052600b8152604060002061118b8154612103565b905560028401918083541680156000146112d257506000808080848a8a01541660058a0154905af16111bb612002565b501561128d57600485015480611231575b509160409160057f97927b87dc09cc0b1ac68bfececc490c2797c23dd6b778d344690cda6b0e95fc945b6004880193818554915416600052600a845261121786600020918254611ea0565b905588880154169601549154908351928352820152a38055005b60008080809385600954165af1611246612002565b501561125257866111cc565b60405162461bcd60e51b8152600481018390526013602482015272119959481d1c985b9cd9995c8819985a5b1959606a1b6044820152606490fd5b60405162461bcd60e51b815260048101839052601760248201527f52656c6561736520746f206275796572206661696c65640000000000000000006044820152606490fd5b9160058261130e6040957f97927b87dc09cc0b1ac68bfececc490c2797c23dd6b778d344690cda6b0e95fc97958b8b015416848b015491612042565b60048801548061131f575b506111f6565b6113329082865416836009541690612042565b89611319565b60405162461bcd60e51b815260048101859052600e60248201526d4e6f742072656c65617361626c6560901b6044820152606490fd5b600291501489611165565b6064906040519062461bcd60e51b82526004820152600e60248201526d139bdd08185d5d1a1bdc9a5e995960921b6044820152fd5b508160005416331461113c565b50336000526007815260ff60406000205416611135565b346102b05760003660031901126102b0576020600c54604051908152f35b346102b0576020806003193601126102b05760043561140d611f86565b8060005260048252604060002091600883015442118061162a575b60018060a01b0390818554163314908161160e575b336000526007845260ff604060002054168015611601575b819082156115f9575b81156115d0575b501561158b578115611583575b50156115795761148760065b600686016120eb565b80845416600052600b825260406000206114a18154612103565b9055600284015481168061153d57506000808080848854166003890154905af16114c9612002565b5015611508579060037f598cf7b1037a2cbb27645d4ef91a50ab4b13db45cc85ebd8edeea26233ea9288925b855416940154604051908152a360018055005b60405162461bcd60e51b815260048101839052600d60248201526c1499599d5b990819985a5b1959609a1b6044820152606490fd5b816115746003927f598cf7b1037a2cbb27645d4ef91a50ab4b13db45cc85ebd8edeea26233ea928895948854168489015491612042565b6114f5565b611487600561147e565b905085611472565b60405162461bcd60e51b815260048101859052601860248201527f4e6f7420617574686f72697a656420746f20726566756e6400000000000000006044820152606490fd5b9050806115de575b87611465565b5060ff600687015416600781101561026857600414156115d8565b83915061145e565b5082600054163314611455565b905060ff6006860154166007811015610268576001149061143d565b5060ff600684015416600781101561026857600114611428565b346102b05760003660031901126102b0576020600254604051908152f35b346102b05760203660031901126102b0576004356000526004602052604060002060018060a01b0390818154169180600183015416908060028401541660038401546004850154600586015460ff6006880154169160078801549360088901549560098a015497600a8b015416986040519a8b6000600b830154926116e684611d6f565b80845293600181169081156117e8575060011461179f575b5061170b9250038c611de2565b6040519b8c5260208c015260408b015260608a0152608089015260a088015260078110156102685760c087015260e086015261010085015261012084015261014083015261018090816101608401528051809284015260005b828110611788575050816101a0916000838284010152601f80199101168101030190f35b8060208092840101516101a0828701015201611764565b600b9150929192016000526020600020906000915b8183106117cd57505090602061170b928201018f6116fe565b80602092948385600194549201015201910190918d926117b4565b90506020925061170b94915060ff191682840152151560051b8201018f6116fe565b60803660031901126102b05761181e611d43565b611826611d59565b60643590611832611f86565b816001600160a01b038416151580611d14575b15611cdf576001600160a01b03821660009081526006602052604090205461186f9060ff16611e5f565b6001600160a01b03821660009081526008602052604090205460443510611ca75733600052600b602052604060002054600c541115611c69576001600160a01b038216611c4d576044353410611c10575b15611c06575b6118d562015180831115612092565b6127106118e66002546044356120c9565b04906118f482604435611ff5565b926119006003546120dc565b938460035561190f8242611ea0565b6040519161191c83611da9565b33835260018060a01b038816602084015260018060a01b0385166040840152604435606084015285608084015260a0830152600160c08301524260e08301526101008201526000610120820152600061014082015260405161197d81611dc6565b6000815261016082015284600052600460205260406000209060018060a01b03815116906001600160601b0360a01b91828454161783556001830160018060a01b03602083015116838254161790556002830160018060a01b0360408301511683825416179055606081015160038401556080810151600484015560a0810151600584015560c081015191600783101561026857611a2161016093600686016120eb565b60e0820151600785015561010082015160088501556101208201516009850155610140820151600a850180549092166001600160a01b0391909116179055015180519067ffffffffffffffff821161089157611a80600b840154611d6f565b601f8111611bbb575b5091869391602098938990601f8311600114611b305782600080516020612111833981519152969593611aef9593600b93600092611b25575b50508160011b916000199060031b1c1916179101555b33600052600b8952604060002061076381546120dc565b604080516001600160a01b03968716815260443560208201529081019690965260608601529092169233929080608081016107a1565b015190508d80611ac2565b959493929190600b83016000528a6000209660005b601f1984168110611ba15750826000805160206121118339815191529798600b93600193611aef989796601f19811610611b88575b505050811b01910155611ad8565b015160001960f88460031b161c191690558d8080611b7a565b8282015189556001909801978b9750918c01918c01611b45565b600b84016000526020600020601f840160051c81019160208510611bfc575b601f0160051c01905b818110611bf05750611a89565b60008155600101611be3565b9091508190611bda565b610e1091506118c6565b60405162461bcd60e51b8152602060048201526015602482015274125b9cdd59999a58da595b9d08109390881cd95b9d605a1b6044820152606490fd5b611c6460443530336001600160a01b038616611ec3565b6118c0565b60405162461bcd60e51b8152602060048201526016602482015275546f6f206d616e79206163746976652074726164657360501b6044820152606490fd5b60405162461bcd60e51b815260206004820152601060248201526f105b5bdd5b9d081d1bdbc81cdb585b1b60821b6044820152606490fd5b60405162461bcd60e51b815260206004820152600d60248201526c24b73b30b634b210313abcb2b960991b6044820152606490fd5b506001600160a01b038416331415611845565b346102b05760003660031901126102b057806201518060209252f35b600435906001600160a01b03821682036102b057565b602435906001600160a01b03821682036102b057565b90600182811c92168015611d9f575b6020831014611d8957565b634e487b7160e01b600052602260045260246000fd5b91607f1691611d7e565b610180810190811067ffffffffffffffff82111761089157604052565b6020810190811067ffffffffffffffff82111761089157604052565b90601f8019910116810190811067ffffffffffffffff82111761089157604052565b60409060031901126102b0576004356001600160a01b03811681036102b0579060243580151581036102b05790565b6000546001600160a01b03163303611e4757565b60405163118cdaa760e01b8152336004820152602490fd5b15611e6657565b60405162461bcd60e51b8152602060048201526012602482015271151bdad95b881b9bdd08185c1c1c9bdd995960721b6044820152606490fd5b91908201809211611ead57565b634e487b7160e01b600052601160045260246000fd5b6040516323b872dd60e01b60208201526001600160a01b03928316602482015292909116604483015260648083019390935291815260a081019181831067ffffffffffffffff84111761089157611f1c92604052611f1e565b565b906000602091828151910182855af115611f7a576000513d611f7157506001600160a01b0381163b155b611f4f5750565b604051635274afe760e01b81526001600160a01b039091166004820152602490fd5b60011415611f48565b6040513d6000823e3d90fd5b600260015414611f97576002600155565b604051633ee5aeb560e01b8152600490fd5b15611fb057565b60405162461bcd60e51b815260206004820152601a60248201527f496e73756666696369656e74207661756c742062616c616e63650000000000006044820152606490fd5b91908203918211611ead57565b3d1561203d573d9067ffffffffffffffff82116108915760405191612031601f8201601f191660200184611de2565b82523d6000602084013e565b606090565b60405163a9059cbb60e01b60208201526001600160a01b039092166024830152604480830193909352918152608081019167ffffffffffffffff83118284101761089157611f1c92604052611f1e565b1561209957565b60405162461bcd60e51b8152602060048201526008602482015267546f6f206c6f6e6760c01b6044820152606490fd5b81810292918115918404141715611ead57565b6000198114611ead5760010190565b9060078110156102685760ff80198354169116179055565b8015611ead57600019019056fe5f41fb7cbdad789c17f3e3ffef0a920523917d85e5b27591e00eb1517a06c6e9a26469706673582212201a69efd077bb64a2f574c4421e0bf27646731fa5c9ff6df1355c6636d10d4fd964736f6c63430008140033",
  "linkReferences": {},
  "deployedLinkReferences": {}
}