{
  "_format": "hh-sol-artifact-1",
  "contractName": "P2PEscrow",
  "sourceName": "contracts/P2PEscrow.sol",
  "abi": [
    {
      "inputs": [
        {
          "internalType": "address",
          "name": "_feeCollector",
          "type": "address"
        },
        {
          "internalType": "address",
          "name": "_usdc",
          "type": "address"
        }
      ],
      "stateMutability": "nonpayable",
      "type": "constructor"
    },
    {
      "inputs": [
        {
          "internalType": "address",
          "name": "owner",
          "type": "address"
        }
      ],
      "name": "OwnableInvalidOwner",
      "type": "error"
    },
    {
      "inputs": [
        {
          "internalType": "address",
          "name": "account",
          "type": "address"
        }
      ],
      "name": "OwnableUnauthorizedAccount",
      "type": "error"
    },
    {
      "inputs": [],
      "name": "ReentrancyGuardReentrantCall",
      "type": "error"
    },
    {
      "inputs": [
        {
          "internalType": "address",
          "name": "token",
          "type": "address"
        }
      ],
      "name": "SafeERC20FailedOperation",
      "type": "error"
    },
    {
      "anonymous": false,
      "inputs": [
        {
          "indexed": true,
          "internalType": "uint256",
          "name": "tradeId",
          "type": "uint256"
        },
        {
          "indexed": true,
          "internalType": "address",
          "name": "buyer",
          "type": "address"
        },
        {
          "indexed": false,
          "internalType": "uint256",
          "name": "buyerReceives",
          "type": "uint256"
        },
        {
          "indexed": false,
          "internalType": "uint256",
          "name": "feeAmount",
          "type": "uint256"
        }
      ],
      "name": "AutoReleased",
      "type": "event"
    },
    {
      "anonymous": false,
      "inputs": [
        {
          "indexed": true,
          "internalType": "uint256",
          "name": "tradeId",
          "type": "uint256"
        },
        {
          "indexed": true,
          "internalType": "address",
          "name": "resolver",
          "type": "address"
        },
        {
          "indexed": false,
          "internalType": "bool",
          "name": "releasedToBuyer",
          "type": "bool"
        }
      ],
      "name": "DisputeResolved",
      "type": "event"
    },
    {
      "anonymous": false,
      "inputs": [
        {
          "indexed": false,
          "internalType": "address",
          "name": "oldCollector",
          "type": "address"
        },
        {
          "indexed": false,
          "internalType": "address",
          "name": "newCollector",
          "type": "address"
        }
      ],
      "name": "FeeCollectorUpdated",
      "type": "event"
    },
    {
      "anonymous": false,
      "inputs": [
        {
          "indexed": false,
          "internalType": "uint256",
          "name": "oldFee",
          "type": "uint256"
        },
        {
          "indexed": false,
          "internalType": "uint256",
          "name": "newFee",
          "type": "uint256"
        }
      ],
      "name": "FeeUpdated",
      "type": "event"
    },
    {
      "anonymous": false,
      "inputs": [
        {
          "indexed": true,
          "internalType": "uint256",
          "name": "tradeId",
          "type": "uint256"
        },
        {
          "indexed": true,
          "internalType": "address",
          "name": "buyer",
          "type": "address"
        },
        {
          "indexed": false,
          "internalType": "uint256",
          "name": "autoReleaseDeadline",
          "type": "uint256"
        }
      ],
      "name": "FiatMarkedSent",
      "type": "event"
    },
    {
      "anonymous": false,
      "inputs": [
        {
          "indexed": true,
          "internalType": "address",
          "name": "previousOwner",
          "type": "address"
        },
        {
          "indexed": true,
          "internalType": "address",
          "name": "newOwner",
          "type": "address"
        }
      ],
      "name": "OwnershipTransferred",
      "type": "event"
    },
    {
      "anonymous": false,
      "inputs": [
        {
          "indexed": false,
          "internalType": "address",
          "name": "relayer",
          "type": "address"
        },
        {
          "indexed": false,
          "internalType": "bool",
          "name": "approved",
          "type": "bool"
        }
      ],
      "name": "RelayerUpdated",
      "type": "event"
    },
    {
      "anonymous": false,
      "inputs": [
        {
          "indexed": false,
          "internalType": "address",
          "name": "token",
          "type": "address"
        },
        {
          "indexed": false,
          "internalType": "bool",
          "name": "approved",
          "type": "bool"
        }
      ],
      "name": "TokenApproved",
      "type": "event"
    },
    {
      "anonymous": false,
      "inputs": [
        {
          "indexed": true,
          "internalType": "uint256",
          "name": "tradeId",
          "type": "uint256"
        },
        {
          "indexed": true,
          "internalType": "address",
          "name": "seller",
          "type": "address"
        }
      ],
      "name": "TradeCancelled",
      "type": "event"
    },
    {
      "anonymous": false,
      "inputs": [
        {
          "indexed": true,
          "internalType": "uint256",
          "name": "tradeId",
          "type": "uint256"
        },
        {
          "indexed": true,
          "internalType": "address",
          "name": "seller",
          "type": "address"
        },
        {
          "indexed": true,
          "internalType": "address",
          "name": "buyer",
          "type": "address"
        },
        {
          "indexed": false,
          "internalType": "address",
          "name": "token",
          "type": "address"
        },
        {
          "indexed": false,
          "internalType": "uint256",
          "name": "amount",
          "type": "uint256"
        },
        {
          "indexed": false,
          "internalType": "uint256",
          "name": "feeAmount",
          "type": "uint256"
        },
        {
          "indexed": false,
          "internalType": "uint256",
          "name": "deadline",
          "type": "uint256"
        }
      ],
      "name": "TradeCreated",
      "type": "event"
    },
    {
      "anonymous": false,
      "inputs": [
        {
          "indexed": true,
          "internalType": "uint256",
          "name": "tradeId",
          "type": "uint256"
        },
        {
          "indexed": true,
          "internalType": "address",
          "name": "initiator",
          "type": "address"
        },
        {
          "indexed": false,
          "internalType": "string",
          "name": "reason",
          "type": "string"
        }
      ],
      "name": "TradeDisputed",
      "type": "event"
    },
    {
      "anonymous": false,
      "inputs": [
        {
          "indexed": true,
          "internalType": "uint256",
          "name": "tradeId",
          "type": "uint256"
        },
        {
          "indexed": true,
          "internalType": "address",
          "name": "seller",
          "type": "address"
        },
        {
          "indexed": false,
          "internalType": "uint256",
          "name": "amount",
          "type": "uint256"
        }
      ],
      "name": "TradeRefunded",
      "type": "event"
    },
    {
      "anonymous": false,
      "inputs": [
        {
          "indexed": true,
          "internalType": "uint256",
          "name": "tradeId",
          "type": "uint256"
        },
        {
          "indexed": true,
          "internalType": "address",
          "name": "buyer",
          "type": "address"
        },
        {
          "indexed": false,
          "internalType": "uint256",
          "name": "buyerReceives",
          "type": "uint256"
        },
        {
          "indexed": false,
          "internalType": "uint256",
          "name": "feeAmount",
          "type": "uint256"
        }
      ],
      "name": "TradeReleased",
      "type": "event"
    },
    {
      "inputs": [],
      "name": "AUTO_RELEASE_DURATION",
      "outputs": [
        {
          "internalType": "uint256",
          "name": "",
          "type": "uint256"
        }
      ],
      "stateMutability": "view",
      "type": "function"
    },
    {
      "inputs": [],
      "name": "DEFAULT_ESCROW_DURATION",
      "outputs": [
        {
          "internalType": "uint256",
          "name": "",
          "type": "uint256"
        }
      ],
      "stateMutability": "view",
      "type": "function"
    },
    {
      "inputs": [],
      "name": "MAX_ESCROW_DURATION",
      "outputs": [
        {
          "internalType": "uint256",
          "name": "",
          "type": "uint256"
        }
      ],
      "stateMutability": "view",
      "type": "function"
    },
    {
      "inputs": [],
      "name": "MAX_FEE_BPS",
      "outputs": [
        {
          "internalType": "uint256",
          "name": "",
          "type": "uint256"
        }
      ],
      "stateMutability": "view",
      "type": "function"
    },
    {
      "inputs": [],
      "name": "MIN_TRADE_AMOUNT",
      "outputs": [
        {
          "internalType": "uint256",
          "name": "",
          "type": "uint256"
        }
      ],
      "stateMutability": "view",
      "type": "function"
    },
    {
      "inputs": [
        {
          "internalType": "address",
          "name": "",
          "type": "address"
        }
      ],
      "name": "activeTradeCount",
      "outputs": [
        {
          "internalType": "uint256",
          "name": "",
          "type": "uint256"
        }
      ],
      "stateMutability": "view",
      "type": "function"
    },
    {
      "inputs": [
        {
          "internalType": "address",
          "name": "",
          "type": "address"
        }
      ],
      "name": "approvedRelayers",
      "outputs": [
        {
          "internalType": "bool",
          "name": "",
          "type": "bool"
        }
      ],
      "stateMutability": "view",
      "type": "function"
    },
    {
      "inputs": [
        {
          "internalType": "address",
          "name": "",
          "type": "address"
        }
      ],
      "name": "approvedTokens",
      "outputs": [
        {
          "internalType": "bool",
          "name": "",
          "type": "bool"
        }
      ],
      "stateMutability": "view",
      "type": "function"
    },
    {
      "inputs": [
        {
          "internalType": "uint256",
          "name": "_tradeId",
          "type": "uint256"
        }
      ],
      "name": "autoRelease",
      "outputs": [],
      "stateMutability": "nonpayable",
      "type": "function"
    },
    {
      "inputs": [
        {
          "internalType": "uint256",
          "name": "_amount",
          "type": "uint256"
        }
      ],
      "name": "calculateFee",
      "outputs": [
        {
          "internalType": "uint256",
          "name": "fee",
          "type": "uint256"
        },
        {
          "internalType": "uint256",
          "name": "netAmount",
          "type": "uint256"
        }
      ],
      "stateMutability": "view",
      "type": "function"
    },
    {
      "inputs": [
        {
          "internalType": "address",
          "name": "_buyer",
          "type": "address"
        },
        {
          "internalType": "address",
          "name": "_token",
          "type": "address"
        },
        {
          "internalType": "uint256",
          "name": "_amount",
          "type": "uint256"
        },
        {
          "internalType": "uint256",
          "name": "_duration",
          "type": "uint256"
        }
      ],
      "name": "createTrade",
      "outputs": [
        {
          "internalType": "uint256",
          "name": "tradeId",
          "type": "uint256"
        }
      ],
      "stateMutability": "nonpayable",
      "type": "function"
    },
    {
      "inputs": [
        {
          "internalType": "address",
          "name": "_token",
          "type": "address"
        },
        {
          "internalType": "uint256",
          "name": "_amount",
          "type": "uint256"
        }
      ],
      "name": "emergencyWithdraw",
      "outputs": [],
      "stateMutability": "nonpayable",
      "type": "function"
    },
    {
      "inputs": [],
      "name": "feeBps",
      "outputs": [
        {
          "internalType": "uint256",
          "name": "",
          "type": "uint256"
        }
      ],
      "stateMutability": "view",
      "type": "function"
    },
    {
      "inputs": [],
      "name": "feeCollector",
      "outputs": [
        {
          "internalType": "address",
          "name": "",
          "type": "address"
        }
      ],
      "stateMutability": "view",
      "type": "function"
    },
    {
      "inputs": [
        {
          "internalType": "address",
          "name": "_token",
          "type": "address"
        }
      ],
      "name": "getContractBalance",
      "outputs": [
        {
          "internalType": "uint256",
          "name": "",
          "type": "uint256"
        }
      ],
      "stateMutability": "view",
      "type": "function"
    },
    {
      "inputs": [
        {
          "internalType": "uint256",
          "name": "_tradeId",
          "type": "uint256"
        }
      ],
      "name": "getTrade",
      "outputs": [
        {
          "components": [
            {
              "internalType": "address",
              "name": "seller",
              "type": "address"
            },
            {
              "internalType": "address",
              "name": "buyer",
              "type": "address"
            },
            {
              "internalType": "address",
              "name": "token",
              "type": "address"
            },
            {
              "internalType": "uint256",
              "name": "amount",
              "type": "uint256"
            },
            {
              "internalType": "uint256",
              "name": "feeAmount",
              "type": "uint256"
            },
            {
              "internalType": "uint256",
              "name": "buyerReceives",
              "type": "uint256"
            },
            {
              "internalType": "enum P2PEscrow.TradeStatus",
              "name": "status",
              "type": "uint8"
            },
            {
              "internalType": "uint256",
              "name": "createdAt",
              "type": "uint256"
            },
            {
              "internalType": "uint256",
              "name": "deadline",
              "type": "uint256"
            },
            {
              "internalType": "uint256",
              "name": "fiatSentAt",
              "type": "uint256"
            },
            {
              "internalType": "uint256",
              "name": "autoReleaseDeadline",
              "type": "uint256"
            },
            {
              "internalType": "address",
              "name": "disputeInitiator",
              "type": "address"
            },
            {
              "internalType": "string",
              "name": "disputeReason",
              "type": "string"
            }
          ],
          "internalType": "struct P2PEscrow.Trade",
          "name": "",
          "type": "tuple"
        }
      ],
      "stateMutability": "view",
      "type": "function"
    },
    {
      "inputs": [
        {
          "internalType": "uint256",
          "name": "_tradeId",
          "type": "uint256"
        }
      ],
      "name": "isExpired",
      "outputs": [
        {
          "internalType": "bool",
          "name": "",
          "type": "bool"
        }
      ],
      "stateMutability": "view",
      "type": "function"
    },
    {
      "inputs": [
        {
          "internalType": "uint256",
          "name": "_tradeId",
          "type": "uint256"
        }
      ],
      "name": "markFiatSent",
      "outputs": [],
      "stateMutability": "nonpayable",
      "type": "function"
    },
    {
      "inputs": [],
      "name": "maxActiveTradesPerUser",
      "outputs": [
        {
          "internalType": "uint256",
          "name": "",
          "type": "uint256"
        }
      ],
      "stateMutability": "view",
      "type": "function"
    },
    {
      "inputs": [],
      "name": "owner",
      "outputs": [
        {
          "internalType": "address",
          "name": "",
          "type": "address"
        }
      ],
      "stateMutability": "view",
      "type": "function"
    },
    {
      "inputs": [
        {
          "internalType": "uint256",
          "name": "_tradeId",
          "type": "uint256"
        },
        {
          "internalType": "string",
          "name": "_reason",
          "type": "string"
        }
      ],
      "name": "raiseDispute",
      "outputs": [],
      "stateMutability": "nonpayable",
      "type": "function"
    },
    {
      "inputs": [
        {
          "internalType": "uint256",
          "name": "_tradeId",
          "type": "uint256"
        }
      ],
      "name": "refund",
      "outputs": [],
      "stateMutability": "nonpayable",
      "type": "function"
    },
    {
      "inputs": [
        {
          "internalType": "uint256",
          "name": "_tradeId",
          "type": "uint256"
        }
      ],
      "name": "release",
      "outputs": [],
      "stateMutability": "nonpayable",
      "type": "function"
    },
    {
      "inputs": [],
      "name": "renounceOwnership",
      "outputs": [],
      "stateMutability": "nonpayable",
      "type": "function"
    },
    {
      "inputs": [
        {
          "internalType": "uint256",
          "name": "_tradeId",
          "type": "uint256"
        },
        {
          "internalType": "bool",
          "name": "_releaseToBuyer",
          "type": "bool"
        }
      ],
      "name": "resolveDispute",
      "outputs": [],
      "stateMutability": "nonpayable",
      "type": "function"
    },
    {
      "inputs": [
        {
          "internalType": "address",
          "name": "_token",
          "type": "address"
        },
        {
          "internalType": "bool",
          "name": "_approved",
          "type": "bool"
        }
      ],
      "name": "setApprovedToken",
      "outputs": [],
      "stateMutability": "nonpayable",
      "type": "function"
    },
    {
      "inputs": [
        {
          "internalType": "uint256",
          "name": "_newFeeBps",
          "type": "uint256"
        }
      ],
      "name": "setFeeBps",
      "outputs": [],
      "stateMutability": "nonpayable",
      "type": "function"
    },
    {
      "inputs": [
        {
          "internalType": "address",
          "name": "_newCollector",
          "type": "address"
        }
      ],
      "name": "setFeeCollector",
      "outputs": [],
      "stateMutability": "nonpayable",
      "type": "function"
    },
    {
      "inputs": [
        {
          "internalType": "uint256",
          "name": "_max",
          "type": "uint256"
        }
      ],
      "name": "setMaxActiveTrades",
      "outputs": [],
      "stateMutability": "nonpayable",
      "type": "function"
    },
    {
      "inputs": [
        {
          "internalType": "address",
          "name": "_relayer",
          "type": "address"
        },
        {
          "internalType": "bool",
          "name": "_approved",
          "type": "bool"
        }
      ],
      "name": "setRelayer",
      "outputs": [],
      "stateMutability": "nonpayable",
      "type": "function"
    },
    {
      "inputs": [
        {
          "internalType": "address",
          "name": "",
          "type": "address"
        }
      ],
      "name": "totalFeesCollected",
      "outputs": [
        {
          "internalType": "uint256",
          "name": "",
          "type": "uint256"
        }
      ],
      "stateMutability": "view",
      "type": "function"
    },
    {
      "inputs": [],
      "name": "tradeCounter",
      "outputs": [
        {
          "internalType": "uint256",
          "name": "",
          "type": "uint256"
        }
      ],
      "stateMutability": "view",
      "type": "function"
    },
    {
      "inputs": [
        {
          "internalType": "uint256",
          "name": "",
          "type": "uint256"
        }
      ],
      "name": "trades",
      "outputs": [
        {
          "internalType": "address",
          "name": "seller",
          "type": "address"
        },
        {
          "internalType": "address",
          "name": "buyer",
          "type": "address"
        },
        {
          "internalType": "address",
          "name": "token",
          "type": "address"
        },
        {
          "internalType": "uint256",
          "name": "amount",
          "type": "uint256"
        },
        {
          "internalType": "uint256",
          "name": "feeAmount",
          "type": "uint256"
        },
        {
          "internalType": "uint256",
          "name": "buyerReceives",
          "type": "uint256"
        },
        {
          "internalType": "enum P2PEscrow.TradeStatus",
          "name": "status",
          "type": "uint8"
        },
        {
          "internalType": "uint256",
          "name": "createdAt",
          "type": "uint256"
        },
        {
          "internalType": "uint256",
          "name": "deadline",
          "type": "uint256"
        },
        {
          "internalType": "uint256",
          "name": "fiatSentAt",
          "type": "uint256"
        },
        {
          "internalType": "uint256",
          "name": "autoReleaseDeadline",
          "type": "uint256"
        },
        {
          "internalType": "address",
          "name": "disputeInitiator",
          "type": "address"
        },
        {
          "internalType": "string",
          "name": "disputeReason",
          "type": "string"
        }
      ],
      "stateMutability": "view",
      "type": "function"
    },
    {
      "inputs": [
        {
          "internalType": "address",
          "name": "newOwner",
          "type": "address"
        }
      ],
      "name": "transferOwnership",
      "outputs": [],
      "stateMutability": "nonpayable",
      "type": "function"
    }
  ],
  "bytecode": "0x608034620001ff576200253390601f38839003908101601f19168201906001600160401b03821183831017620002045780839160409586948552833981010312620001ff576200004f816200021a565b6200005e60208093016200021a565b913315620001e75760008054336001600160a01b03198083168217845587519396939590936001600160a01b0393909284929183167f8be0079c531659141344cd1fd0a4f28419497f9722a3daafe3b4186f6b6457e08a80a3600180556032600255600a805516948515620001a55750169081156200016157917f54aee4f020b814c26f556399a354577e068193a82445e919505b00b9848512a586859381967f5d16ad41baeb009cd23eb8f6c7cde5c2e0cd5acf4a33926ab488875c37c37f389896600754161760075580865260058452818620600160ff198254161790558151908152600184820152a18351928352820152a1516123039081620002308239f35b855162461bcd60e51b815260048101849052601460248201527f496e76616c6964205553444320616464726573730000000000000000000000006044820152606490fd5b62461bcd60e51b815260048101859052601560248201527f496e76616c69642066656520636f6c6c6563746f7200000000000000000000006044820152606490fd5b8351631e4fbdf760e01b815260006004820152602490fd5b600080fd5b634e487b7160e01b600052604160045260246000fd5b51906001600160a01b0382168203620001ff5756fe608080604052600436101561001357600080fd5b60003560e01c9081630794305e14611f2d575080631906fb4d1461195f5780631e6c598e1461187d57806324a9d8531461185f578063278ecde11461153e5780632db25e051461133057806331b7d413146113125780633483cb02146112f457806334b25ee21461107357806337bdc99b14610ee257806343ab265f14610e52578063459b860e14610c3a5780635aef573c1461096d5780636085c06614610950578063660d15b5146109325780636d1ea3fa146108f3578063715018a61461089a57806372c27b62146107ff5780637e6a34001461078857806387d2fc821461071457806388a40eed146106da5780638cba8b6a1461069b5780638da5cb5b1461067257806395ccea671461063357806399a5d747146105f7578063a42dce8014610545578063afba9e221461050b578063c415b95c146104e2578063d55be8c6146104c5578063d9548e5314610476578063ecd8dc3a146103e6578063f2fde38b1461035d578063f51f4bd2146103405763fa254c181461019557600080fd5b3461033b5760208060031936011261033b576004358015158061032f575b6101bc9061222d565b6000818152600483526040902060018101546001600160a01b031633036102ea5760068101805460ff811660078110156102d45760010361029c57600883015442116102675760029060ff1916179055426009820155610a8c4201928342116102515783600a7fca4a124546e4d1efb37a421d49b27e91e28818bc73a3385ded0e9dcbc125f54c9301556040519384523393a3005b634e487b7160e01b600052601160045260246000fd5b60405162461bcd60e51b815260048101869052600d60248201526c151c98591948195e1c1a5c9959609a1b6044820152606490fd5b60405162461bcd60e51b815260048101869052601060248201526f5472616465206e6f742061637469766560801b6044820152606490fd5b634e487b7160e01b600052602160045260246000fd5b60405162461bcd60e51b815260048101849052601d60248201527f4f6e6c792062757965722063616e206d61726b20666961742073656e740000006044820152606490fd5b506003548111156101b3565b600080fd5b3461033b57600036600319011261033b576020604051610e108152f35b3461033b57602036600319011261033b57610376611f49565b61037e6120da565b6001600160a01b039081169081156103cd57600054826001600160601b0360a01b821617600055167f8be0079c531659141344cd1fd0a4f28419497f9722a3daafe3b4186f6b6457e0600080a3005b604051631e4fbdf760e01b815260006004820152602490fd5b3461033b57604036600319011261033b577f4b36b2e66f38ed349bec532105790177f1283bcbc094e6cd48565195d3033c43610420611f49565b6104286120cb565b906104316120da565b6001600160a01b0381166000908152600660205260409020805460ff191660ff841515161790555b604080516001600160a01b039290921682529115156020820152a1005b3461033b57602036600319011261033b57600435801515806104b9575b61049c9061222d565b600052600460205260206008604060002001544211604051908152f35b50600354811115610493565b3461033b57600036600319011261033b5760206040516101f48152f35b3461033b57600036600319011261033b576007546040516001600160a01b039091168152602090f35b3461033b57602036600319011261033b576001600160a01b0361052c611f49565b1660005260096020526020604060002054604051908152f35b3461033b57602036600319011261033b5761055e611f49565b6105666120da565b6001600160a01b0390811680156105c0577f5d16ad41baeb009cd23eb8f6c7cde5c2e0cd5acf4a33926ab488875c37c37f389160409160075491816001600160601b0360a01b8416176007558351921682526020820152a1005b60405162461bcd60e51b815260206004820152600f60248201526e496e76616c6964206164647265737360881b6044820152606490fd5b3461033b57602036600319011261033b57604060043561062761271061061f60025484612106565b048092612119565b82519182526020820152f35b3461033b57604036600319011261033b5761067061064f611f49565b6106576120da565b600054602435916001600160a01b03918216911661227d565b005b3461033b57600036600319011261033b576000546040516001600160a01b039091168152602090f35b3461033b57602036600319011261033b576001600160a01b036106bc611f49565b166000526006602052602060ff604060002054166040519015158152f35b3461033b57602036600319011261033b576001600160a01b036106fb611f49565b1660005260086020526020604060002054604051908152f35b3461033b57602036600319011261033b576004356107306120da565b8015158061077d575b1561074357600a55005b60405162461bcd60e51b8152602060048201526012602482015271496e76616c6964206d61782028312d35302960701b6044820152606490fd5b506032811115610739565b3461033b57604036600319011261033b577f54aee4f020b814c26f556399a354577e068193a82445e919505b00b9848512a56107c2611f49565b6107ca6120cb565b906107d36120da565b6001600160a01b0381166000908152600560205260409020805460ff191660ff84151516179055610459565b3461033b57602036600319011261033b5760043561081b6120da565b6101f4811161085d5760407f528d9479e9f9889a87a3c30c7f7ba537e5e59c4c85a37733b16e57c62df6130291600254908060025582519182526020820152a1005b60405162461bcd60e51b815260206004820152601560248201527446656520746f6f206869676820286d61782035252960581b6044820152606490fd5b3461033b57600036600319011261033b576108b36120da565b600080546001600160a01b0319811682556001600160a01b03167f8be0079c531659141344cd1fd0a4f28419497f9722a3daafe3b4186f6b6457e08280a3005b3461033b57602036600319011261033b576001600160a01b03610914611f49565b166000526005602052602060ff604060002054166040519015158152f35b3461033b57600036600319011261033b576020600354604051908152f35b3461033b57600036600319011261033b576020604051610a8c8152f35b3461033b57604036600319011261033b5767ffffffffffffffff600435602480359083821161033b573660238301121561033b57816004013593841161033b573681858401011161033b5782151580610c2e575b6109ca9061222d565b8260005260209160048352604060002060018060a01b03808254163314908115610c1e575b5015610bda576006810180549060ff8216916007831015610bc557600192838114908115610bba575b5015610b765760039060ff1916179055600b8201336001600160601b0360a01b825416179055600c820190610a5788610a518454611f5f565b8461215a565b8760009186601f8311600114610b0b5760009383610afe575b50501b906000198960031b1c19161790555b6203f480420190814211610ae957917fb90cad70464bd57459e5d7277e908a9cecfdc1a71b2ed3a578b85bb44ff6563e94939160088894015582604051948086528501520160408301376000604085830101526040813395601f80199101168101030190a3005b83634e487b7160e01b60005260116004526000fd5b870101359250868b610a70565b50919050601f198916908360005289886000209260005b8a86838310610b5d5750505010610b41575b505087811b019055610a82565b850186013560001960038b901b60f8161c191690558880610b34565b858b018c0135875590950194938401938d935001610b22565b60405162461bcd60e51b815260048101889052601d818801527f5472616465206e6f7420696e2064697370757461626c652073746174650000006044820152606490fd5b60029150148a610a18565b85634e487b7160e01b60005260216004526000fd5b60405162461bcd60e51b815260048101859052601e818501527f4f6e6c7920747261646520706172746965732063616e206469737075746500006044820152606490fd5b90506001820154163314876109ef565b506003548311156109c1565b3461033b5760208060031936011261033b57600435610c5761220a565b80151580610e46575b610c699061222d565b806000526004825260406000209160068301805460ff811660078110156102d457600203610e0157600a8501548015610dc557421115610d75579160409160047f489d0b4f43659843daba0a17983382a3e77f5399083ac5405143fcf6806f8ca09460ff191617905560018060a01b0390818654166000526009815282600020610cf38154612270565b90556002860191808354169660046001820191610d1b848454169a600583019b8c549161227d565b0193845480610d3d575b5050541695549154908351928352820152a360018055005b610d50908483541685600754169061227d565b82855491541660005260088452610d6c86600020918254612135565b90558880610d25565b60405162461bcd60e51b815260048101849052602260248201527f4175746f2d72656c656173652074696d6572206e6f7420657870697265642079604482015261195d60f21b6064820152608490fd5b60405162461bcd60e51b8152600481018590526014602482015273105d5d1bcb5c995b19585cd9481b9bdd081cd95d60621b6044820152606490fd5b60405162461bcd60e51b815260048101849052601760248201527f46696174206e6f74206d61726b65642061732073656e740000000000000000006044820152606490fd5b50600354811115610c60565b3461033b5760208060031936011261033b576024816001600160a01b03610e77611f49565b16604051928380926370a0823160e01b82523060048301525afa908115610ed657600091610ea9575b50604051908152f35b90508181813d8311610ecf575b610ec08183611fb6565b8101031261033b575182610ea0565b503d610eb6565b6040513d6000823e3d90fd5b3461033b5760208060031936011261033b57600435610eff61220a565b80151580611067575b610f119061222d565b60008181526004835260409020805490926001600160a01b039182163381148015611050575b8015611043575b15610ffe5760068501805460ff811660078110156102d45760018114908115610ff3575b5015610fae57916040939160047f97927b87dc09cc0b1ac68bfececc490c2797c23dd6b778d344690cda6b0e95fc969460ff19161790556000526009815282600020610cf38154612270565b60405162461bcd60e51b815260048101859052601d60248201527f5472616465206e6f7420696e2072656c65617361626c652073746174650000006044820152606490fd5b600291501488610f62565b60405162461bcd60e51b815260048101839052601960248201527f4e6f7420617574686f72697a656420746f2072656c65617365000000000000006044820152606490fd5b5082600054163314610f3e565b50336000526006825260ff60406000205416610f37565b50600354811115610f08565b3461033b57604036600319011261033b5760043561108f6120cb565b9061109861220a565b801515806112e8575b6110aa9061222d565b3360005260206006815260ff6040600020541680156112d4575b1561129057816000526004815260406000206006810160ff81541660078110156102d4576003036112565790837f8fdd4548a8481406b6e29c0d6f25e27cd72502f79f4adf409468502e7920dabc939260018060a01b03808454166000526009855260406000206111358154612270565b90558488156111fb57506040907f97927b87dc09cc0b1ac68bfececc490c2797c23dd6b778d344690cda6b0e95fc92600460ff1982541617905560028501908082541695600460018201916111958484541699600583019a8b549161227d565b01928354806111c3575b5050541694549054825191825286820152a35b60405193151584523393a360018055005b6111d6908483541685600754169061227d565b828454915416600052600889526111f285600020918254612135565b90558b8061119f565b907f598cf7b1037a2cbb27645d4ef91a50ab4b13db45cc85ebd8edeea26233ea928892600560ff1982541617905580600286015416946112468282541696600383019788549161227d565b54169354604051908152a36111b2565b60405162461bcd60e51b8152600481018490526012602482015271151c985919481b9bdd08191a5cdc1d5d195960721b6044820152606490fd5b6064906040519062461bcd60e51b82526004820152601e60248201527f4f6e6c792061646d696e2f72656c617965722063616e207265736f6c766500006044820152fd5b506000546001600160a01b031633146110c4565b506003548111156110a1565b3461033b57600036600319011261033b576020600a54604051908152f35b3461033b57600036600319011261033b576020604051620f42408152f35b3461033b57602036600319011261033b57606061018060405161135281611f99565b60008152600060208201526000604082015260008382015260006080820152600060a0820152600060c0820152600060e082015260006101008201526000610120820152600061014082015260006101608201520152600435600052600460205260406000206040516113c481611f99565b81546001600160a01b03908116825260018301548116602083015260028301541660408201526003820154606082015260048201546080820152600582015460a0820152600682015460ff169160078310156102d45760c0820192909252600782015460e082015260088201546101008201526009820154610120820152600a820154610140820152600b8201546001600160a01b03166101608201526101809161147190600c01611fd8565b8282015261153a6040519283926020845260018060a01b03815116602085015260018060a01b03602082015116604085015260018060a01b03604082015116606085015260608101516080850152608081015160a085015260a081015160c08501526114e560c082015160e086019061207e565b60e081015161010085015261010081015161012085015261012081015161014085015261014081015161016085015260018060a01b03610160820151168285015201516101a0808401526101c083019061208b565b0390f35b3461033b5760208060031936011261033b5760043561155b61220a565b80151580611853575b61156d9061222d565b8060005260048252604060002091600883015442119060018060a01b03808554163314923360005260069384845260ff604060002054168015611846575b821561170a575060ff858801541660078110156102d45760010361169f575b8115611658575b507f598cf7b1037a2cbb27645d4ef91a50ab4b13db45cc85ebd8edeea26233ea928893611606911561165057805b8701612142565b808554166000526009825260406000206116208154612270565b9055806002860154169461163f8282541696600383019788549161227d565b54169354604051908152a360018055005b6005906115ff565b905080611686575b7f598cf7b1037a2cbb27645d4ef91a50ab4b13db45cc85ebd8edeea26233ea92886115d1565b5060ff838601541660078110156102d457600114611660565b60405162461bcd60e51b815260048101859052603860248201527f4669617420616c72656164792073656e74202d20757365206175746f52656c6560448201527f61736520666f722062757965722070726f74656374696f6e00000000000000006064820152608490fd5b811561176d575060ff858801541660078110156102d4576001146115ca5760405162461bcd60e51b815260048101859052601d60248201527f43616e6e6f742063616e63656c20616674657220666961742073656e740000006044820152606490fd5b156118015760ff8588015416600781101590816102d457600181149182156117f3575b82156117e2575b50506115ca5760405162461bcd60e51b815260048101859052601d60248201527f5472616465206e6f7420696e20726566756e6461626c652073746174650000006044820152606490fd5b9091506102d4576003148880611797565b506002811491506000611790565b60405162461bcd60e51b815260048101859052601860248201527f4e6f7420617574686f72697a656420746f20726566756e6400000000000000006044820152606490fd5b50826000541633146115ab565b50600354811115611564565b3461033b57600036600319011261033b576020600254604051908152f35b3461033b57602036600319011261033b5760043560005260046020526040600020600160a01b60019003808254169080600184015416928160028201541691600382015460048301546005840154600685015460ff16600786015491600887015493600988015495600a89015497600b8a01541698600c016118fe90611fd8565b996040519c8d9c8d5260208d015260408c015260608b015260808a015260a089015260c0880161192d9161207e565b60e08701526101008601526101208501526101408401526101608301526101a080610180840152820161153a9161208b565b3461033b57608036600319011261033b57611978611f49565b602435906001600160a01b038216820361033b576064359161199861220a565b826001600160a01b03831615611ef0576001600160a01b0383163314611eab576001600160a01b03821660009081526005602052604090205460ff1615611e7157620f424060443510611e2c57336000526009602052604060002054600a541115611dee5715611de4575b620151808311611d9f57612710611a1e600254604435612106565b0491611a2c83604435612119565b92611a38600354612126565b9384600355611a478642612135565b60405191611a5483611f99565b33835260018060a01b038516602084015260018060a01b0386166040840152604435606084015283608084015260a0830152600160c08301524260e083015261010082015260006101208201526000610140820152600061016082015260405180602081011067ffffffffffffffff602083011117611d0e57602081016040526000815261018082015284600052600460205260406000209060018060a01b038151166001600160601b0360a01b8354161782556001820160018060a01b036020830151166001600160601b0360a01b8254161790556002820160018060a01b036040830151166001600160601b0360a01b825416179055606081015160038301556080810151600483015560a0810151600583015560c08101519060078210156102d457611b896101809260068501612142565b60e0810151600784015561010081015160088401556101208101516009840155610140810151600a840155600b830160018060a01b03610160830151166001600160601b0360a01b825416179055015180519067ffffffffffffffff8211611d0e57611c0582611bfc600c860154611f5f565b600c860161215a565b602090601f8311600114611d2f57600c929160009183611d24575b50508160011b916000199060031b1c1916179101555b3360005260096020526040600020611c4e8154612126565b90556040516323b872dd60e01b602082015233602482015230604482015260443560648201526064815260a081019581871067ffffffffffffffff881117611d0e57611cab611cb19260209860405260018060a01b0387166121ae565b42612135565b604080516001600160a01b03958616815260443588820152908101929092526060820152911690339083907f5f41fb7cbdad789c17f3e3ffef0a920523917d85e5b27591e00eb1517a06c6e990608090a460018055604051908152f35b634e487b7160e01b600052604160045260246000fd5b015190508980611c20565b90600c840160005260206000209160005b601f1985168110611d875750918391600193600c95601f19811610611d6e575b505050811b01910155611c36565b015160001960f88460031b161c19169055898080611d60565b91926020600181928685015181550194019201611d40565b60405162461bcd60e51b815260206004820152601b60248201527f4475726174696f6e20746f6f206c6f6e6720286d6178203234682900000000006044820152606490fd5b610e109250611a03565b60405162461bcd60e51b8152602060048201526016602482015275546f6f206d616e79206163746976652074726164657360501b6044820152606490fd5b60405162461bcd60e51b815260206004820152601d60248201527f416d6f756e7420746f6f20736d616c6c20286d696e20312055534443290000006044820152606490fd5b60405162461bcd60e51b8152602060048201526012602482015271151bdad95b881b9bdd08185c1c1c9bdd995960721b6044820152606490fd5b60405162461bcd60e51b815260206004820152601a60248201527f43616e6e6f74207472616465207769746820796f757273656c660000000000006044820152606490fd5b60405162461bcd60e51b8152602060048201526015602482015274496e76616c6964206275796572206164647265737360581b6044820152606490fd5b3461033b57600036600319011261033b57806201518060209252f35b600435906001600160a01b038216820361033b57565b90600182811c92168015611f8f575b6020831014611f7957565b634e487b7160e01b600052602260045260246000fd5b91607f1691611f6e565b6101a0810190811067ffffffffffffffff821117611d0e57604052565b90601f8019910116810190811067ffffffffffffffff821117611d0e57604052565b9060405191826000825492611fec84611f5f565b90818452600194858116908160001461205b5750600114612018575b505061201692500383611fb6565b565b9093915060005260209081600020936000915b81831061204357505061201693508201013880612008565b8554888401850152948501948794509183019161202b565b91505061201694506020925060ff191682840152151560051b8201013880612008565b9060078210156102d45752565b919082519283825260005b8481106120b7575050826000602080949584010152601f8019910116010190565b602081830181015184830182015201612096565b60243590811515820361033b57565b6000546001600160a01b031633036120ee57565b60405163118cdaa760e01b8152336004820152602490fd5b8181029291811591840414171561025157565b9190820391821161025157565b60001981146102515760010190565b9190820180921161025157565b9060078110156102d45760ff80198354169116179055565b90601f811161216857505050565b600091825260208220906020601f850160051c830194106121a4575b601f0160051c01915b82811061219957505050565b81815560010161218d565b9092508290612184565b906000602091828151910182855af115610ed6576000513d61220157506001600160a01b0381163b155b6121df5750565b604051635274afe760e01b81526001600160a01b039091166004820152602490fd5b600114156121d8565b60026001541461221b576002600155565b604051633ee5aeb560e01b8152600490fd5b1561223457565b60405162461bcd60e51b8152602060048201526014602482015273151c98591948191bd95cc81b9bdd08195e1a5cdd60621b6044820152606490fd5b8015610251576000190190565b60405163a9059cbb60e01b60208201526001600160a01b039092166024830152604480830193909352918152608081019167ffffffffffffffff831182841017611d0e57612016926040526121ae56fea2646970667358221220cf98d2050b64aa3bf56f2a2fc034c722aeb23a4c5e969b22b1e15219656ec47664736f6c63430008140033",
  "linkReferences": {},
  "deployedLinkReferences": {}
}