{
  "_format": "hh-sol-artifact-1",
  "contractName": "P2PEscrow",
  "sourceName": "contracts/P2PEscrow.sol",
  "abi": [
    {
      "inputs": [
        {
          "internalType": "address",
          "name": "_feeCollector",
          "type": "address"
        },
        {
          "internalType": "address",
          "name": "_usdc",
          "type": "address"
        }
      ],
      "stateMutability": "nonpayable",
      "type": "constructor"
    },
    {
      "inputs": [
        {
          "internalType": "address",
          "name": "owner",
          "type": "address"
        }
      ],
      "name": "OwnableInvalidOwner",
      "type": "error"
    },
    {
      "inputs": [
        {
          "internalType": "address",
          "name": "account",
          "type": "address"
        }
      ],
      "name": "OwnableUnauthorizedAccount",
      "type": "error"
    },
    {
      "inputs": [],
      "name": "ReentrancyGuardReentrantCall",
      "type": "error"
    },
    {
      "inputs": [
        {
          "internalType": "address",
          "name": "token",
          "type": "address"
        }
      ],
      "name": "SafeERC20FailedOperation",
      "type": "error"
    },
    {
      "anonymous": false,
      "inputs": [
        {
          "indexed": true,
          "internalType": "address",
          "name": "user",
          "type": "address"
        },
        {
          "indexed": true,
          "internalType": "address",
          "name": "token",
          "type": "address"
        },
        {
          "indexed": false,
          "internalType": "uint256",
          "name": "amount",
          "type": "uint256"
        }
      ],
      "name": "Deposit",
      "type": "event"
    },
    {
      "anonymous": false,
      "inputs": [
        {
          "indexed": true,
          "internalType": "uint256",
          "name": "tradeId",
          "type": "uint256"
        },
        {
          "indexed": true,
          "internalType": "address",
          "name": "resolver",
          "type": "address"
        },
        {
          "indexed": false,
          "internalType": "bool",
          "name": "releasedToBuyer",
          "type": "bool"
        }
      ],
      "name": "DisputeResolved",
      "type": "event"
    },
    {
      "anonymous": false,
      "inputs": [
        {
          "indexed": false,
          "internalType": "address",
          "name": "oldCollector",
          "type": "address"
        },
        {
          "indexed": false,
          "internalType": "address",
          "name": "newCollector",
          "type": "address"
        }
      ],
      "name": "FeeCollectorUpdated",
      "type": "event"
    },
    {
      "anonymous": false,
      "inputs": [
        {
          "indexed": false,
          "internalType": "uint256",
          "name": "oldFee",
          "type": "uint256"
        },
        {
          "indexed": false,
          "internalType": "uint256",
          "name": "newFee",
          "type": "uint256"
        }
      ],
      "name": "FeeUpdated",
      "type": "event"
    },
    {
      "anonymous": false,
      "inputs": [
        {
          "indexed": true,
          "internalType": "uint256",
          "name": "tradeId",
          "type": "uint256"
        },
        {
          "indexed": true,
          "internalType": "address",
          "name": "buyer",
          "type": "address"
        }
      ],
      "name": "FiatMarkedSent",
      "type": "event"
    },
    {
      "anonymous": false,
      "inputs": [
        {
          "indexed": true,
          "internalType": "address",
          "name": "previousOwner",
          "type": "address"
        },
        {
          "indexed": true,
          "internalType": "address",
          "name": "newOwner",
          "type": "address"
        }
      ],
      "name": "OwnershipTransferred",
      "type": "event"
    },
    {
      "anonymous": false,
      "inputs": [
        {
          "indexed": false,
          "internalType": "address",
          "name": "relayer",
          "type": "address"
        },
        {
          "indexed": false,
          "internalType": "bool",
          "name": "approved",
          "type": "bool"
        }
      ],
      "name": "RelayerUpdated",
      "type": "event"
    },
    {
      "anonymous": false,
      "inputs": [
        {
          "indexed": false,
          "internalType": "address",
          "name": "token",
          "type": "address"
        },
        {
          "indexed": false,
          "internalType": "bool",
          "name": "approved",
          "type": "bool"
        }
      ],
      "name": "TokenApproved",
      "type": "event"
    },
    {
      "anonymous": false,
      "inputs": [
        {
          "indexed": true,
          "internalType": "uint256",
          "name": "tradeId",
          "type": "uint256"
        },
        {
          "indexed": true,
          "internalType": "address",
          "name": "seller",
          "type": "address"
        }
      ],
      "name": "TradeCancelled",
      "type": "event"
    },
    {
      "anonymous": false,
      "inputs": [
        {
          "indexed": true,
          "internalType": "uint256",
          "name": "tradeId",
          "type": "uint256"
        },
        {
          "indexed": true,
          "internalType": "address",
          "name": "seller",
          "type": "address"
        },
        {
          "indexed": true,
          "internalType": "address",
          "name": "buyer",
          "type": "address"
        },
        {
          "indexed": false,
          "internalType": "address",
          "name": "token",
          "type": "address"
        },
        {
          "indexed": false,
          "internalType": "uint256",
          "name": "amount",
          "type": "uint256"
        },
        {
          "indexed": false,
          "internalType": "uint256",
          "name": "feeAmount",
          "type": "uint256"
        },
        {
          "indexed": false,
          "internalType": "uint256",
          "name": "deadline",
          "type": "uint256"
        }
      ],
      "name": "TradeCreated",
      "type": "event"
    },
    {
      "anonymous": false,
      "inputs": [
        {
          "indexed": true,
          "internalType": "uint256",
          "name": "tradeId",
          "type": "uint256"
        },
        {
          "indexed": true,
          "internalType": "address",
          "name": "initiator",
          "type": "address"
        },
        {
          "indexed": false,
          "internalType": "string",
          "name": "reason",
          "type": "string"
        }
      ],
      "name": "TradeDisputed",
      "type": "event"
    },
    {
      "anonymous": false,
      "inputs": [
        {
          "indexed": true,
          "internalType": "uint256",
          "name": "tradeId",
          "type": "uint256"
        },
        {
          "indexed": true,
          "internalType": "address",
          "name": "seller",
          "type": "address"
        },
        {
          "indexed": false,
          "internalType": "uint256",
          "name": "amount",
          "type": "uint256"
        }
      ],
      "name": "TradeRefunded",
      "type": "event"
    },
    {
      "anonymous": false,
      "inputs": [
        {
          "indexed": true,
          "internalType": "uint256",
          "name": "tradeId",
          "type": "uint256"
        },
        {
          "indexed": true,
          "internalType": "address",
          "name": "buyer",
          "type": "address"
        },
        {
          "indexed": false,
          "internalType": "uint256",
          "name": "buyerReceives",
          "type": "uint256"
        },
        {
          "indexed": false,
          "internalType": "uint256",
          "name": "feeAmount",
          "type": "uint256"
        }
      ],
      "name": "TradeReleased",
      "type": "event"
    },
    {
      "anonymous": false,
      "inputs": [
        {
          "indexed": true,
          "internalType": "address",
          "name": "user",
          "type": "address"
        },
        {
          "indexed": true,
          "internalType": "address",
          "name": "token",
          "type": "address"
        },
        {
          "indexed": false,
          "internalType": "uint256",
          "name": "amount",
          "type": "uint256"
        }
      ],
      "name": "Withdraw",
      "type": "event"
    },
    {
      "inputs": [],
      "name": "DEFAULT_ESCROW_DURATION",
      "outputs": [
        {
          "internalType": "uint256",
          "name": "",
          "type": "uint256"
        }
      ],
      "stateMutability": "view",
      "type": "function"
    },
    {
      "inputs": [],
      "name": "MAX_ESCROW_DURATION",
      "outputs": [
        {
          "internalType": "uint256",
          "name": "",
          "type": "uint256"
        }
      ],
      "stateMutability": "view",
      "type": "function"
    },
    {
      "inputs": [],
      "name": "MAX_FEE_BPS",
      "outputs": [
        {
          "internalType": "uint256",
          "name": "",
          "type": "uint256"
        }
      ],
      "stateMutability": "view",
      "type": "function"
    },
    {
      "inputs": [],
      "name": "MIN_TRADE_AMOUNT",
      "outputs": [
        {
          "internalType": "uint256",
          "name": "",
          "type": "uint256"
        }
      ],
      "stateMutability": "view",
      "type": "function"
    },
    {
      "inputs": [
        {
          "internalType": "address",
          "name": "",
          "type": "address"
        }
      ],
      "name": "activeTradeCount",
      "outputs": [
        {
          "internalType": "uint256",
          "name": "",
          "type": "uint256"
        }
      ],
      "stateMutability": "view",
      "type": "function"
    },
    {
      "inputs": [
        {
          "internalType": "address",
          "name": "",
          "type": "address"
        }
      ],
      "name": "approvedRelayers",
      "outputs": [
        {
          "internalType": "bool",
          "name": "",
          "type": "bool"
        }
      ],
      "stateMutability": "view",
      "type": "function"
    },
    {
      "inputs": [
        {
          "internalType": "address",
          "name": "",
          "type": "address"
        }
      ],
      "name": "approvedTokens",
      "outputs": [
        {
          "internalType": "bool",
          "name": "",
          "type": "bool"
        }
      ],
      "stateMutability": "view",
      "type": "function"
    },
    {
      "inputs": [
        {
          "internalType": "address",
          "name": "",
          "type": "address"
        },
        {
          "internalType": "address",
          "name": "",
          "type": "address"
        }
      ],
      "name": "balances",
      "outputs": [
        {
          "internalType": "uint256",
          "name": "",
          "type": "uint256"
        }
      ],
      "stateMutability": "view",
      "type": "function"
    },
    {
      "inputs": [
        {
          "internalType": "uint256",
          "name": "_amount",
          "type": "uint256"
        }
      ],
      "name": "calculateFee",
      "outputs": [
        {
          "internalType": "uint256",
          "name": "fee",
          "type": "uint256"
        },
        {
          "internalType": "uint256",
          "name": "netAmount",
          "type": "uint256"
        }
      ],
      "stateMutability": "view",
      "type": "function"
    },
    {
      "inputs": [
        {
          "internalType": "address",
          "name": "_buyer",
          "type": "address"
        },
        {
          "internalType": "address",
          "name": "_token",
          "type": "address"
        },
        {
          "internalType": "uint256",
          "name": "_amount",
          "type": "uint256"
        },
        {
          "internalType": "uint256",
          "name": "_duration",
          "type": "uint256"
        }
      ],
      "name": "createTrade",
      "outputs": [
        {
          "internalType": "uint256",
          "name": "tradeId",
          "type": "uint256"
        }
      ],
      "stateMutability": "nonpayable",
      "type": "function"
    },
    {
      "inputs": [
        {
          "internalType": "address",
          "name": "_seller",
          "type": "address"
        },
        {
          "internalType": "address",
          "name": "_buyer",
          "type": "address"
        },
        {
          "internalType": "address",
          "name": "_token",
          "type": "address"
        },
        {
          "internalType": "uint256",
          "name": "_amount",
          "type": "uint256"
        },
        {
          "internalType": "uint256",
          "name": "_duration",
          "type": "uint256"
        }
      ],
      "name": "createTradeByRelayer",
      "outputs": [
        {
          "internalType": "uint256",
          "name": "tradeId",
          "type": "uint256"
        }
      ],
      "stateMutability": "nonpayable",
      "type": "function"
    },
    {
      "inputs": [
        {
          "internalType": "address",
          "name": "_token",
          "type": "address"
        },
        {
          "internalType": "uint256",
          "name": "_amount",
          "type": "uint256"
        }
      ],
      "name": "deposit",
      "outputs": [],
      "stateMutability": "nonpayable",
      "type": "function"
    },
    {
      "inputs": [
        {
          "internalType": "address",
          "name": "_token",
          "type": "address"
        },
        {
          "internalType": "uint256",
          "name": "_amount",
          "type": "uint256"
        }
      ],
      "name": "emergencyWithdraw",
      "outputs": [],
      "stateMutability": "nonpayable",
      "type": "function"
    },
    {
      "inputs": [],
      "name": "feeBps",
      "outputs": [
        {
          "internalType": "uint256",
          "name": "",
          "type": "uint256"
        }
      ],
      "stateMutability": "view",
      "type": "function"
    },
    {
      "inputs": [],
      "name": "feeCollector",
      "outputs": [
        {
          "internalType": "address",
          "name": "",
          "type": "address"
        }
      ],
      "stateMutability": "view",
      "type": "function"
    },
    {
      "inputs": [
        {
          "internalType": "address",
          "name": "_token",
          "type": "address"
        }
      ],
      "name": "getContractBalance",
      "outputs": [
        {
          "internalType": "uint256",
          "name": "",
          "type": "uint256"
        }
      ],
      "stateMutability": "view",
      "type": "function"
    },
    {
      "inputs": [
        {
          "internalType": "uint256",
          "name": "_tradeId",
          "type": "uint256"
        }
      ],
      "name": "getTrade",
      "outputs": [
        {
          "components": [
            {
              "internalType": "address",
              "name": "seller",
              "type": "address"
            },
            {
              "internalType": "address",
              "name": "buyer",
              "type": "address"
            },
            {
              "internalType": "address",
              "name": "token",
              "type": "address"
            },
            {
              "internalType": "uint256",
              "name": "amount",
              "type": "uint256"
            },
            {
              "internalType": "uint256",
              "name": "feeAmount",
              "type": "uint256"
            },
            {
              "internalType": "uint256",
              "name": "buyerReceives",
              "type": "uint256"
            },
            {
              "internalType": "enum P2PEscrow.TradeStatus",
              "name": "status",
              "type": "uint8"
            },
            {
              "internalType": "uint256",
              "name": "createdAt",
              "type": "uint256"
            },
            {
              "internalType": "uint256",
              "name": "deadline",
              "type": "uint256"
            },
            {
              "internalType": "uint256",
              "name": "fiatSentAt",
              "type": "uint256"
            },
            {
              "internalType": "address",
              "name": "disputeInitiator",
              "type": "address"
            },
            {
              "internalType": "string",
              "name": "disputeReason",
              "type": "string"
            }
          ],
          "internalType": "struct P2PEscrow.Trade",
          "name": "",
          "type": "tuple"
        }
      ],
      "stateMutability": "view",
      "type": "function"
    },
    {
      "inputs": [
        {
          "internalType": "uint256",
          "name": "_tradeId",
          "type": "uint256"
        }
      ],
      "name": "isExpired",
      "outputs": [
        {
          "internalType": "bool",
          "name": "",
          "type": "bool"
        }
      ],
      "stateMutability": "view",
      "type": "function"
    },
    {
      "inputs": [
        {
          "internalType": "uint256",
          "name": "_tradeId",
          "type": "uint256"
        }
      ],
      "name": "markFiatSent",
      "outputs": [],
      "stateMutability": "nonpayable",
      "type": "function"
    },
    {
      "inputs": [],
      "name": "maxActiveTradesPerUser",
      "outputs": [
        {
          "internalType": "uint256",
          "name": "",
          "type": "uint256"
        }
      ],
      "stateMutability": "view",
      "type": "function"
    },
    {
      "inputs": [],
      "name": "owner",
      "outputs": [
        {
          "internalType": "address",
          "name": "",
          "type": "address"
        }
      ],
      "stateMutability": "view",
      "type": "function"
    },
    {
      "inputs": [
        {
          "internalType": "uint256",
          "name": "_tradeId",
          "type": "uint256"
        },
        {
          "internalType": "string",
          "name": "_reason",
          "type": "string"
        }
      ],
      "name": "raiseDispute",
      "outputs": [],
      "stateMutability": "nonpayable",
      "type": "function"
    },
    {
      "inputs": [
        {
          "internalType": "uint256",
          "name": "_tradeId",
          "type": "uint256"
        }
      ],
      "name": "refund",
      "outputs": [],
      "stateMutability": "nonpayable",
      "type": "function"
    },
    {
      "inputs": [
        {
          "internalType": "uint256",
          "name": "_tradeId",
          "type": "uint256"
        }
      ],
      "name": "release",
      "outputs": [],
      "stateMutability": "nonpayable",
      "type": "function"
    },
    {
      "inputs": [],
      "name": "renounceOwnership",
      "outputs": [],
      "stateMutability": "nonpayable",
      "type": "function"
    },
    {
      "inputs": [
        {
          "internalType": "uint256",
          "name": "_tradeId",
          "type": "uint256"
        },
        {
          "internalType": "bool",
          "name": "_releaseToBuyer",
          "type": "bool"
        }
      ],
      "name": "resolveDispute",
      "outputs": [],
      "stateMutability": "nonpayable",
      "type": "function"
    },
    {
      "inputs": [
        {
          "internalType": "address",
          "name": "_token",
          "type": "address"
        },
        {
          "internalType": "bool",
          "name": "_approved",
          "type": "bool"
        }
      ],
      "name": "setApprovedToken",
      "outputs": [],
      "stateMutability": "nonpayable",
      "type": "function"
    },
    {
      "inputs": [
        {
          "internalType": "uint256",
          "name": "_newFeeBps",
          "type": "uint256"
        }
      ],
      "name": "setFeeBps",
      "outputs": [],
      "stateMutability": "nonpayable",
      "type": "function"
    },
    {
      "inputs": [
        {
          "internalType": "address",
          "name": "_newCollector",
          "type": "address"
        }
      ],
      "name": "setFeeCollector",
      "outputs": [],
      "stateMutability": "nonpayable",
      "type": "function"
    },
    {
      "inputs": [
        {
          "internalType": "uint256",
          "name": "_max",
          "type": "uint256"
        }
      ],
      "name": "setMaxActiveTrades",
      "outputs": [],
      "stateMutability": "nonpayable",
      "type": "function"
    },
    {
      "inputs": [
        {
          "internalType": "address",
          "name": "_relayer",
          "type": "address"
        },
        {
          "internalType": "bool",
          "name": "_approved",
          "type": "bool"
        }
      ],
      "name": "setRelayer",
      "outputs": [],
      "stateMutability": "nonpayable",
      "type": "function"
    },
    {
      "inputs": [
        {
          "internalType": "address",
          "name": "",
          "type": "address"
        }
      ],
      "name": "totalFeesCollected",
      "outputs": [
        {
          "internalType": "uint256",
          "name": "",
          "type": "uint256"
        }
      ],
      "stateMutability": "view",
      "type": "function"
    },
    {
      "inputs": [],
      "name": "tradeCounter",
      "outputs": [
        {
          "internalType": "uint256",
          "name": "",
          "type": "uint256"
        }
      ],
      "stateMutability": "view",
      "type": "function"
    },
    {
      "inputs": [
        {
          "internalType": "uint256",
          "name": "",
          "type": "uint256"
        }
      ],
      "name": "trades",
      "outputs": [
        {
          "internalType": "address",
          "name": "seller",
          "type": "address"
        },
        {
          "internalType": "address",
          "name": "buyer",
          "type": "address"
        },
        {
          "internalType": "address",
          "name": "token",
          "type": "address"
        },
        {
          "internalType": "uint256",
          "name": "amount",
          "type": "uint256"
        },
        {
          "internalType": "uint256",
          "name": "feeAmount",
          "type": "uint256"
        },
        {
          "internalType": "uint256",
          "name": "buyerReceives",
          "type": "uint256"
        },
        {
          "internalType": "enum P2PEscrow.TradeStatus",
          "name": "status",
          "type": "uint8"
        },
        {
          "internalType": "uint256",
          "name": "createdAt",
          "type": "uint256"
        },
        {
          "internalType": "uint256",
          "name": "deadline",
          "type": "uint256"
        },
        {
          "internalType": "uint256",
          "name": "fiatSentAt",
          "type": "uint256"
        },
        {
          "internalType": "address",
          "name": "disputeInitiator",
          "type": "address"
        },
        {
          "internalType": "string",
          "name": "disputeReason",
          "type": "string"
        }
      ],
      "stateMutability": "view",
      "type": "function"
    },
    {
      "inputs": [
        {
          "internalType": "address",
          "name": "newOwner",
          "type": "address"
        }
      ],
      "name": "transferOwnership",
      "outputs": [],
      "stateMutability": "nonpayable",
      "type": "function"
    },
    {
      "inputs": [
        {
          "internalType": "address",
          "name": "_token",
          "type": "address"
        },
        {
          "internalType": "uint256",
          "name": "_amount",
          "type": "uint256"
        }
      ],
      "name": "withdraw",
      "outputs": [],
      "stateMutability": "nonpayable",
      "type": "function"
    }
  ],
  "bytecode": "0x608034620002005762002b8f90601f38839003908101601f19168201906001600160401b0382118383101762000205578083916040958694855283398101031262000200576200004f816200021b565b6200005e60208093016200021b565b913315620001e85760008054336001600160a01b03198083168217845587519396939590936001600160a01b0393909284929183167f8be0079c531659141344cd1fd0a4f28419497f9722a3daafe3b4186f6b6457e08a80a3600180556032600255600a600b5516948515620001a65750169081156200016257917f54aee4f020b814c26f556399a354577e068193a82445e919505b00b9848512a586859381967f5d16ad41baeb009cd23eb8f6c7cde5c2e0cd5acf4a33926ab488875c37c37f389896600854161760085580865260068452818620600160ff198254161790558151908152600184820152a18351928352820152a15161295e9081620002318239f35b855162461bcd60e51b815260048101849052601460248201527f496e76616c6964205553444320616464726573730000000000000000000000006044820152606490fd5b62461bcd60e51b815260048101859052601560248201527f496e76616c69642066656520636f6c6c6563746f7200000000000000000000006044820152606490fd5b8351631e4fbdf760e01b815260006004820152602490fd5b600080fd5b634e487b7160e01b600052604160045260246000fd5b51906001600160a01b0382168203620002005756fe608080604052600436101561001357600080fd5b60003560e01c9081630794305e1461248a575080631906fb4d14611f955780631e6c598e14611ec157806324a9d85314611ea3578063278ecde114611b785780632db25e051461198957806331b7d4131461196b5780633483cb021461194d57806334b25ee2146116cc57806337bdc99b146114b957806343ab265f1461142957806347e7ef241461133c5780635aef573c1461106f578063660d15b5146110515780636d1ea3fa14611012578063715018a614610fb957806372c27b6214610f1e5780637e6a340014610ea757806387d2fc8214610e3357806388a40eed14610df95780638cba8b6a14610dba5780638da5cb5b14610d9157806395ccea6714610d5257806399a5d74714610d16578063a42dce8014610c64578063afba9e2214610c2a578063c23f001f14610bd9578063c415b95c14610bb0578063d55be8c614610b93578063d9548e5314610b44578063ecd8dc3a14610ab4578063f2fde38b14610a2b578063f3073c411461043b578063f3fef3a314610347578063f51f4bd21461032a5763fa254c18146101ab57600080fd5b346103255760203660031901126103255760043580151580610319575b6101d1906128b8565b600081815260046020526040902060018101546001600160a01b031633036102d45760068101805460ff811660078110156102be5760010361028657600883015442116102515760029060ff191617905560094291015533907fa7b13f117ab1aaf50feb35b788292244b765b0c7b9bda1b9d9e3e29ffc7e88e8600080a3005b60405162461bcd60e51b815260206004820152600d60248201526c151c98591948195e1c1a5c9959609a1b6044820152606490fd5b60405162461bcd60e51b815260206004820152601060248201526f5472616465206e6f742061637469766560801b6044820152606490fd5b634e487b7160e01b600052602160045260246000fd5b60405162461bcd60e51b815260206004820152601d60248201527f4f6e6c792062757965722063616e206d61726b20666961742073656e740000006044820152606490fd5b506003548111156101c8565b600080fd5b34610325576000366003190112610325576020604051610e108152f35b34610325576040366003190112610325576103606124a6565b60243561036b6127aa565b3360005260206005815260406000209260018060a01b03169283600052815281604060002054106103f7577f9b1bfa7fa9ee420a16e124f794c35ac9f90472acc99140eb2f6447c714cad8eb903360005260058152604060002084600052815260406000206103db8482546127cd565b90556103e88333866127da565b6040519283523392a360018055005b6064906040519062461bcd60e51b82526004820152601a60248201527f496e73756666696369656e74207661756c742062616c616e63650000000000006044820152fd5b346103255760a0366003190112610325576104546124a6565b61045c6124bc565b60449182356001600160a01b0381169003610325576084359261047d6127aa565b8333600052600760205260ff604060002054168015610a17575b156109de576001600160a01b038416156109aa576001600160a01b038381169085161461097957620f424060643510610949576001600160a01b038381166000908152600560209081526040808320863590941683529290522054606435116108fb576001600160a01b0383166000908152600a6020526040902054600b5411156108c55760018060a01b0383166000526005602052604060002060018060a01b03833516600052602052604060002061055460643582546127cd565b9055156108bb575b62015180841161088c5761271061057760025460643561282a565b0492610585846064356127cd565b9061059160035461283d565b94856003556105a087426126d6565b604051936105ad8561250c565b6001600160a01b038781168652848116602087015286351660408087019190915260643560608701526080860184905260a0860191909152600160c08601524260e0860152610100850191909152600061012085018190526101408501525161061581612529565b6000815261016084015285600052600460205260406000209260018060a01b03815116906001600160601b0360a01b91828654161785556001850160018060a01b03602083015116838254161790556002850160018060a01b0360408301511683825416179055606081015160038601556080810151600486015560a0810151600586015560c08101519160078310156102be576106b9610160936006880161284c565b60e0820151600787015561010082015160088701556101208201516009870155600a86019060018060a01b03610140840151169082541617905501519182519767ffffffffffffffff89116108765788889461072760209b61071e600b8a01546124d2565b600b8a01612864565b8a90601f83116001146107eb5796600b8361079a946107d196946000805160206129098339815191529a9b6000926107e0575b50508160011b916000199060031b1c1916179101555b6001600160a01b0389166000908152600a8c526040902080546107929061283d565b9055426126d6565b604080516001600160a01b039835891681526064356020820152908101949094526060840152908516959094169381906080820190565b0390a460018055604051908152f35b015190508f8061075a565b600b88939298016000528b6000209060005b601f198416811061085c575060018361079a95936000805160206129098339815191529a9b600b946107d19997601f19811610610843575b505050811b01910155610770565b015160001960f88460031b161c191690558f8080610835565b818a01518355988d01988c98506001909201918d016107fd565b634e487b7160e01b600052604160045260246000fd5b60649067546f6f206c6f6e6760c01b6040519162461bcd60e51b83526020600484015260086024840152820152fd5b610e10935061055c565b60405162461bcd60e51b815260206004820152600f60248201526e546f6f206d616e792074726164657360881b81840152606490fd5b60405162461bcd60e51b815260206004820152602160248201527f496e73756666696369656e742073656c6c6572207661756c742062616c616e6381840152606560f81b6064820152608490fd5b60405162461bcd60e51b8152602060048201526009602482015268151bdbc81cdb585b1b60ba1b81840152606490fd5b60405162461bcd60e51b815260206004820152600a60248201526953656c6620747261646560b01b81840152606490fd5b60405162461bcd60e51b815260206004820152600d60248201526c24b73b30b634b210313abcb2b960991b81840152606490fd5b60405162461bcd60e51b815260206004820152601260248201527121b0b63632b9103737ba102932b630bcb2b960711b81840152606490fd5b506000546001600160a01b03163314610497565b3461032557602036600319011261032557610a446124a6565b610a4c612669565b6001600160a01b03908116908115610a9b57600054826001600160601b0360a01b821617600055167f8be0079c531659141344cd1fd0a4f28419497f9722a3daafe3b4186f6b6457e0600080a3005b604051631e4fbdf760e01b815260006004820152602490fd5b34610325576040366003190112610325577f4b36b2e66f38ed349bec532105790177f1283bcbc094e6cd48565195d3033c43610aee6124a6565b610af661265a565b90610aff612669565b6001600160a01b0381166000908152600760205260409020805460ff191660ff841515161790555b604080516001600160a01b039290921682529115156020820152a1005b346103255760203660031901126103255760043580151580610b87575b610b6a906128b8565b600052600460205260206008604060002001544211604051908152f35b50600354811115610b61565b346103255760003660031901126103255760206040516101f48152f35b34610325576000366003190112610325576008546040516001600160a01b039091168152602090f35b3461032557604036600319011261032557610bf26124a6565b610bfa6124bc565b9060018060a01b038091166000526005602052604060002091166000526020526020604060002054604051908152f35b34610325576020366003190112610325576001600160a01b03610c4b6124a6565b16600052600a6020526020604060002054604051908152f35b3461032557602036600319011261032557610c7d6124a6565b610c85612669565b6001600160a01b039081168015610cdf577f5d16ad41baeb009cd23eb8f6c7cde5c2e0cd5acf4a33926ab488875c37c37f389160409160085491816001600160601b0360a01b8416176008558351921682526020820152a1005b60405162461bcd60e51b815260206004820152600f60248201526e496e76616c6964206164647265737360881b6044820152606490fd5b34610325576020366003190112610325576040600435610d46612710610d3e6002548461282a565b0480926127cd565b82519182526020820152f35b3461032557604036600319011261032557610d8f610d6e6124a6565b610d76612669565b600054602435916001600160a01b0391821691166127da565b005b34610325576000366003190112610325576000546040516001600160a01b039091168152602090f35b34610325576020366003190112610325576001600160a01b03610ddb6124a6565b166000526007602052602060ff604060002054166040519015158152f35b34610325576020366003190112610325576001600160a01b03610e1a6124a6565b1660005260096020526020604060002054604051908152f35b3461032557602036600319011261032557600435610e4f612669565b80151580610e9c575b15610e6257600b55005b60405162461bcd60e51b8152602060048201526012602482015271496e76616c6964206d61782028312d35302960701b6044820152606490fd5b506032811115610e58565b34610325576040366003190112610325577f54aee4f020b814c26f556399a354577e068193a82445e919505b00b9848512a5610ee16124a6565b610ee961265a565b90610ef2612669565b6001600160a01b0381166000908152600660205260409020805460ff191660ff84151516179055610b27565b3461032557602036600319011261032557600435610f3a612669565b6101f48111610f7c5760407f528d9479e9f9889a87a3c30c7f7ba537e5e59c4c85a37733b16e57c62df6130291600254908060025582519182526020820152a1005b60405162461bcd60e51b815260206004820152601560248201527446656520746f6f206869676820286d61782035252960581b6044820152606490fd5b3461032557600036600319011261032557610fd2612669565b600080546001600160a01b0319811682556001600160a01b03167f8be0079c531659141344cd1fd0a4f28419497f9722a3daafe3b4186f6b6457e08280a3005b34610325576020366003190112610325576001600160a01b036110336124a6565b166000526006602052602060ff604060002054166040519015158152f35b34610325576000366003190112610325576020600354604051908152f35b346103255760403660031901126103255767ffffffffffffffff6004356024803590838211610325573660238301121561032557816004013593841161032557368185840101116103255782151580611330575b6110cc906128b8565b8260005260209160048352604060002060018060a01b03808254163314908115611320575b50156112dc576006810180549060ff82169160078310156112c7576001928381149081156112bc575b50156112785760039060ff1916179055600a8201336001600160601b0360a01b825416179055600b8201906111598861115384546124d2565b84612864565b8760009186601f831160011461120d5760009383611200575b50501b906000198960031b1c19161790555b6203f4804201908142116111eb57917fb90cad70464bd57459e5d7277e908a9cecfdc1a71b2ed3a578b85bb44ff6563e94939160088894015582604051948086528501520160408301376000604085830101526040813395601f80199101168101030190a3005b83634e487b7160e01b60005260116004526000fd5b870101359250868b611172565b50919050601f198916908360005289886000209260005b8a8683831061125f5750505010611243575b505087811b019055611184565b850186013560001960038b901b60f8161c191690558880611236565b858b018c0135875590950194938401938d935001611224565b60405162461bcd60e51b815260048101889052601d818801527f5472616465206e6f7420696e2064697370757461626c652073746174650000006044820152606490fd5b60029150148a61111a565b85634e487b7160e01b60005260216004526000fd5b60405162461bcd60e51b815260048101859052601e818501527f4f6e6c7920747261646520706172746965732063616e206469737075746500006044820152606490fd5b90506001820154163314876110f1565b506003548311156110c3565b34610325576040366003190112610325576113556124a6565b602435906113616127aa565b60018060a01b03169081600052600660205261138460ff60406000205416612695565b80156113ef57611396813033856126f9565b33600052600560205260406000208260005260205260406000206113bb8282546126d6565b90556040519081527f5548c837ab068cf56a2c2479df0882a4922fd203edb7517321831d95078c5f6260203392a360018055005b60405162461bcd60e51b81526020600482015260126024820152710416d6f756e74206d757374206265203e20360741b6044820152606490fd5b3461032557602080600319360112610325576024816001600160a01b0361144e6124a6565b16604051928380926370a0823160e01b82523060048301525afa9081156114ad57600091611480575b50604051908152f35b90508181813d83116114a6575b6114978183612545565b81010312610325575182611477565b503d61148d565b6040513d6000823e3d90fd5b3461032557602080600319360112610325576004356114d66127aa565b801515806116c0575b6114e8906128b8565b60008181526004835260409020805490926001600160a01b0391821633811480156116a9575b801561169c575b156116575760068501805460ff811660078110156102be576001811490811561164c575b501561160757916040939160047f97927b87dc09cc0b1ac68bfececc490c2797c23dd6b778d344690cda6b0e95fc969460ff1916179055600052600a81528260002061158581546128fb565b905560028601918083541696600460018201916115ad848454169a600583019b8c54916127da565b01938454806115cf575b5050541695549154908351928352820152a360018055005b6115e290848354168560085416906127da565b828554915416600052600984526115fe866000209182546126d6565b905588806115b7565b60405162461bcd60e51b815260048101859052601d60248201527f5472616465206e6f7420696e2072656c65617361626c652073746174650000006044820152606490fd5b600291501488611539565b60405162461bcd60e51b815260048101839052601960248201527f4e6f7420617574686f72697a656420746f2072656c65617365000000000000006044820152606490fd5b5082600054163314611515565b50336000526007825260ff6040600020541661150e565b506003548111156114df565b34610325576040366003190112610325576004356116e861265a565b906116f16127aa565b80151580611941575b611703906128b8565b3360005260206007815260ff60406000205416801561192d575b156118e957816000526004815260406000206006810160ff81541660078110156102be576003036118af5790837f8fdd4548a8481406b6e29c0d6f25e27cd72502f79f4adf409468502e7920dabc939260018060a01b0380845416600052600a8552604060002061178e81546128fb565b905584881561185457506040907f97927b87dc09cc0b1ac68bfececc490c2797c23dd6b778d344690cda6b0e95fc92600460ff1982541617905560028501908082541695600460018201916117ee8484541699600583019a8b54916127da565b019283548061181c575b5050541694549054825191825286820152a35b60405193151584523393a360018055005b61182f90848354168560085416906127da565b8284549154166000526009895261184b856000209182546126d6565b90558b806117f8565b907f598cf7b1037a2cbb27645d4ef91a50ab4b13db45cc85ebd8edeea26233ea928892600560ff19825416179055806002860154169461189f828254169660038301978854916127da565b54169354604051908152a361180b565b60405162461bcd60e51b8152600481018490526012602482015271151c985919481b9bdd08191a5cdc1d5d195960721b6044820152606490fd5b6064906040519062461bcd60e51b82526004820152601e60248201527f4f6e6c792061646d696e2f72656c617965722063616e207265736f6c766500006044820152fd5b506000546001600160a01b0316331461171d565b506003548111156116fa565b34610325576000366003190112610325576020600b54604051908152f35b34610325576000366003190112610325576020604051620f42408152f35b346103255760203660031901126103255760606101606040516119ab8161250c565b60008152600060208201526000604082015260008382015260006080820152600060a0820152600060c0820152600060e0820152600061010082015260006101208201526000610140820152015260043560005260046020526040600020604051611a158161250c565b81546001600160a01b03908116825260018301548116602083015260028301541660408201526003820154606082015260048201546080820152600582015460a0820152600682015460ff169160078310156102be5760c0820192909252600782015460e082015260088201546101008201526009820154610120820152600a8201546001600160a01b031661014082015261016091611ab790600b01612567565b82820152611b746040519283926020845260018060a01b03815116602085015260018060a01b03602082015116604085015260018060a01b03604082015116606085015260608101516080850152608081015160a085015260a081015160c0850152611b2b60c082015160e086019061260d565b60e081015161010085015261010081015161012085015261012081015161014085015260018060a01b0361014082015116828501520151610180808401526101a083019061261a565b0390f35b346103255760208060031936011261032557600435611b956127aa565b80151580611e97575b611ba7906128b8565b8060005260048252604060002091600883015442119060018060a01b0380855416331492336000526007835260ff604060002054168015611e8a575b8115611d4c575060ff60068701541660078110156102be57600103611ce1575b8015611c95575b7f598cf7b1037a2cbb27645d4ef91a50ab4b13db45cc85ebd8edeea26233ea9288935015611c8b57611c4160065b6006870161284c565b80855416600052600a82526040600020611c5b81546128fb565b90558060028601541694611c7a828254169660038301978854916127da565b54169354604051908152a360018055005b611c416005611c38565b509180611cc5575b917f598cf7b1037a2cbb27645d4ef91a50ab4b13db45cc85ebd8edeea26233ea928892611c0a565b5060ff6006850154169160078310156102be5791600114611c9d565b60405162461bcd60e51b815260048101849052603860248201527f4669617420616c72656164792073656e74202d20757365206175746f52656c6560448201527f61736520666f722062757965722070726f74656374696f6e00000000000000006064820152608490fd5b8415611db0575060ff60068701541660078110156102be57600114611c035760405162461bcd60e51b815260048101849052601d60248201527f43616e6e6f742063616e63656c20616674657220666961742073656e740000006044820152606490fd5b15611e455760ff600687015416600781101590816102be5760018114918215611e37575b8215611e26575b5050611c035760405162461bcd60e51b815260048101849052601d60248201527f5472616465206e6f7420696e20726566756e6461626c652073746174650000006044820152606490fd5b9091506102be576003148780611ddb565b506002811491506000611dd4565b60405162461bcd60e51b815260048101849052601860248201527f4e6f7420617574686f72697a656420746f20726566756e6400000000000000006044820152606490fd5b5081600054163314611be3565b50600354811115611b9e565b34610325576000366003190112610325576020600254604051908152f35b3461032557602036600319011261032557600435600052600460205260206040600020611b7460018060a01b0380835416928160018201541691806002830154166003830154611f6c6004850154600586015460ff60068801541691600788015494600889015496611f41600b60098c01549a600a8d0154169b01612567565b9a6040519e8f9e8f908152015260408d015260608c015260808b015260a08a015260c089019061260d565b60e08701526101008601526101208501526101408401526101808061016085015283019061261a565b3461032557608036600319011261032557611fae6124a6565b611fb66124bc565b90606491823592611fc56127aa565b836001600160a01b0384161561244f576001600160a01b038416331461240c576001600160a01b03831660009081526006602052604090205461200a9060ff16612695565b620f4240604435106123c95733600052600a602052604060002054600b54111561238d5715612383575b620151808411612341575061271061205060025460443561282a565b049061205e826044356127cd565b9361206a60035461283d565b938460035561207982426126d6565b604051966120868861250c565b33885260018060a01b038316602089015260018060a01b0385166040890152604435606089015285608089015260a0880152600160c08801524260e0880152610100870152600061012087015260006101408701526040516120e781612529565b6000815261016087015284600052600460205260406000209560018060a01b03815116906001600160601b0360a01b91828954161788556001880160018060a01b03602083015116838254161790556002880160018060a01b0360408301511683825416179055606081015160038901556080810151600489015560a0810151600589015560c08101519160078310156102be5761218b6101609360068b0161284c565b60e082015160078a015561010082015160088a015561012082015160098a0155600a89019060018060a01b03610140840151169082541617905501519182519667ffffffffffffffff8811610876578787946121f960209a6121f0600b8601546124d2565b600b8601612864565b8990601f83116001146122b657826000805160206129098339815191529695936122759593600b936000926122ab575b50508160011b916000199060031b1c1916179101555b33600052600a89526040600020612256815461283d565b905561226f60443530336001600160a01b038a166126f9565b426126d6565b604080516001600160a01b03968716815260443560208201529081019690965260608601529092169233929080608081016107d1565b015190508d80612229565b959493929190600b83016000528a6000209660005b601f19841681106123275750826000805160206129098339815191529798600b93600193612275989796601f1981161061230e575b505050811b0191015561223f565b015160001960f88460031b161c191690558d8080612300565b8282015189556001909801978b9750918c01918c016122cb565b60405162461bcd60e51b815260206004820152601b60248201527f4475726174696f6e20746f6f206c6f6e6720286d6178203234682900000000006044820152fd5b610e109350612034565b5060405162461bcd60e51b8152602060048201526016602482015275546f6f206d616e79206163746976652074726164657360501b6044820152fd5b5060405162461bcd60e51b815260206004820152601d60248201527f416d6f756e7420746f6f20736d616c6c20286d696e20312055534443290000006044820152fd5b5060405162461bcd60e51b815260206004820152601a60248201527f43616e6e6f74207472616465207769746820796f757273656c660000000000006044820152fd5b5060405162461bcd60e51b8152602060048201526015602482015274496e76616c6964206275796572206164647265737360581b6044820152fd5b3461032557600036600319011261032557806201518060209252f35b600435906001600160a01b038216820361032557565b602435906001600160a01b038216820361032557565b90600182811c92168015612502575b60208310146124ec57565b634e487b7160e01b600052602260045260246000fd5b91607f16916124e1565b610180810190811067ffffffffffffffff82111761087657604052565b6020810190811067ffffffffffffffff82111761087657604052565b90601f8019910116810190811067ffffffffffffffff82111761087657604052565b906040519182600082549261257b846124d2565b9081845260019485811690816000146125ea57506001146125a7575b50506125a592500383612545565b565b9093915060005260209081600020936000915b8183106125d25750506125a593508201013880612597565b855488840185015294850194879450918301916125ba565b9150506125a594506020925060ff191682840152151560051b8201013880612597565b9060078210156102be5752565b919082519283825260005b848110612646575050826000602080949584010152601f8019910116010190565b602081830181015184830182015201612625565b60243590811515820361032557565b6000546001600160a01b0316330361267d57565b60405163118cdaa760e01b8152336004820152602490fd5b1561269c57565b60405162461bcd60e51b8152602060048201526012602482015271151bdad95b881b9bdd08185c1c1c9bdd995960721b6044820152606490fd5b919082018092116126e357565b634e487b7160e01b600052601160045260246000fd5b6040516323b872dd60e01b60208201526001600160a01b03928316602482015292909116604483015260648083019390935291815260a081019181831067ffffffffffffffff841117610876576125a5926040525b906000602091828151910182855af1156114ad576000513d6127a157506001600160a01b0381163b155b61277f5750565b604051635274afe760e01b81526001600160a01b039091166004820152602490fd5b60011415612778565b6002600154146127bb576002600155565b604051633ee5aeb560e01b8152600490fd5b919082039182116126e357565b60405163a9059cbb60e01b60208201526001600160a01b039092166024830152604480830193909352918152608081019167ffffffffffffffff831182841017610876576125a59260405261274e565b818102929181159184041417156126e357565b60001981146126e35760010190565b9060078110156102be5760ff80198354169116179055565b90601f811161287257505050565b600091825260208220906020601f850160051c830194106128ae575b601f0160051c01915b8281106128a357505050565b818155600101612897565b909250829061288e565b156128bf57565b60405162461bcd60e51b8152602060048201526014602482015273151c98591948191bd95cc81b9bdd08195e1a5cdd60621b6044820152606490fd5b80156126e357600019019056fe5f41fb7cbdad789c17f3e3ffef0a920523917d85e5b27591e00eb1517a06c6e9a2646970667358221220c807fc3fe946a6d5501ceab87d7ff8058f2fcc38b7c7bc6e32707ca582a2fb4664736f6c63430008140033",
  "linkReferences": {},
  "deployedLinkReferences": {}
}